{
	"Tp2_Auction.sol": {
		"Tp2_Auction": {
			"abi": [
				{
					"inputs": [],
					"stateMutability": "nonpayable",
					"type": "constructor"
				},
				{
					"anonymous": false,
					"inputs": [
						{
							"indexed": false,
							"internalType": "address",
							"name": "_id",
							"type": "address"
						},
						{
							"indexed": false,
							"internalType": "uint256",
							"name": "_value",
							"type": "uint256"
						}
					],
					"name": "AuctionEnded",
					"type": "event"
				},
				{
					"anonymous": false,
					"inputs": [
						{
							"indexed": true,
							"internalType": "address",
							"name": "_id",
							"type": "address"
						},
						{
							"indexed": false,
							"internalType": "uint256",
							"name": "_value",
							"type": "uint256"
						}
					],
					"name": "NewOffer",
					"type": "event"
				},
				{
					"anonymous": false,
					"inputs": [
						{
							"indexed": true,
							"internalType": "address",
							"name": "_id",
							"type": "address"
						},
						{
							"indexed": false,
							"internalType": "uint256",
							"name": "_value",
							"type": "uint256"
						}
					],
					"name": "PartialClaim",
					"type": "event"
				},
				{
					"anonymous": false,
					"inputs": [
						{
							"indexed": true,
							"internalType": "address",
							"name": "_id",
							"type": "address"
						},
						{
							"indexed": false,
							"internalType": "uint256",
							"name": "_value",
							"type": "uint256"
						}
					],
					"name": "ReturnedAmount",
					"type": "event"
				},
				{
					"inputs": [],
					"name": "Offer",
					"outputs": [],
					"stateMutability": "payable",
					"type": "function"
				},
				{
					"inputs": [],
					"name": "endAuction",
					"outputs": [],
					"stateMutability": "nonpayable",
					"type": "function"
				},
				{
					"inputs": [],
					"name": "expiration",
					"outputs": [
						{
							"internalType": "uint256",
							"name": "",
							"type": "uint256"
						}
					],
					"stateMutability": "view",
					"type": "function"
				},
				{
					"inputs": [],
					"name": "ownerClaim",
					"outputs": [],
					"stateMutability": "nonpayable",
					"type": "function"
				},
				{
					"inputs": [],
					"name": "partialClaim",
					"outputs": [],
					"stateMutability": "nonpayable",
					"type": "function"
				},
				{
					"inputs": [],
					"name": "returnOffers",
					"outputs": [],
					"stateMutability": "nonpayable",
					"type": "function"
				},
				{
					"inputs": [],
					"name": "showOffers",
					"outputs": [
						{
							"components": [
								{
									"internalType": "address",
									"name": "id",
									"type": "address"
								},
								{
									"internalType": "uint256",
									"name": "value",
									"type": "uint256"
								}
							],
							"internalType": "struct Tp2_Auction.Person2[]",
							"name": "",
							"type": "tuple[]"
						}
					],
					"stateMutability": "view",
					"type": "function"
				},
				{
					"inputs": [],
					"name": "showWinner",
					"outputs": [
						{
							"components": [
								{
									"internalType": "address",
									"name": "id",
									"type": "address"
								},
								{
									"internalType": "uint256",
									"name": "value",
									"type": "uint256"
								}
							],
							"internalType": "struct Tp2_Auction.Person2",
							"name": "",
							"type": "tuple"
						}
					],
					"stateMutability": "view",
					"type": "function"
				},
				{
					"inputs": [],
					"name": "state",
					"outputs": [
						{
							"internalType": "enum Tp2_Auction.State",
							"name": "",
							"type": "uint8"
						}
					],
					"stateMutability": "view",
					"type": "function"
				}
			],
			"devdoc": {
				"kind": "dev",
				"methods": {},
				"version": 1
			},
			"evm": {
				"assembly": "    /* \"Tp2_Auction.sol\":190:15510  contract Tp2_Auction {... */\n  mstore(0x40, 0x80)\n    /* \"Tp2_Auction.sol\":3109:3530  constructor() {... */\n  callvalue\n  dup1\n  iszero\n  tag_1\n  jumpi\n  revert(0x00, 0x00)\ntag_1:\n  pop\n    /* \"Tp2_Auction.sol\":3140:3150  msg.sender */\n  caller\n    /* \"Tp2_Auction.sol\":3134:3139  owner */\n  0x00\n  0x00\n    /* \"Tp2_Auction.sol\":3134:3150  owner=msg.sender */\n  0x0100\n  exp\n  dup2\n  sload\n  dup2\n  0xffffffffffffffffffffffffffffffffffffffff\n  mul\n  not\n  and\n  swap1\n  dup4\n  0xffffffffffffffffffffffffffffffffffffffff\n  and\n  mul\n  or\n  swap1\n  sstore\n  pop\n    /* \"Tp2_Auction.sol\":3183:3198  block.timestamp */\n  timestamp\n    /* \"Tp2_Auction.sol\":3171:3180  init_time */\n  0x02\n    /* \"Tp2_Auction.sol\":3171:3198  init_time = block.timestamp */\n  dup2\n  swap1\n  sstore\n  pop\n    /* \"Tp2_Auction.sol\":3234:3241  1 weeks */\n  0x093a80\n    /* \"Tp2_Auction.sol\":3222:3231  init_time */\n  sload(0x02)\n    /* \"Tp2_Auction.sol\":3222:3241  init_time + 1 weeks */\n  tag_4\n  swap2\n  swap1\n  tag_5\n  jump\t// in\ntag_4:\n    /* \"Tp2_Auction.sol\":3209:3219  expiration */\n  0x04\n    /* \"Tp2_Auction.sol\":3209:3241  expiration = init_time + 1 weeks */\n  dup2\n  swap1\n  sstore\n  pop\n    /* \"Tp2_Auction.sol\":3289:3299  10 minutes */\n  0x0258\n    /* \"Tp2_Auction.sol\":3280:3286  window */\n  0x03\n    /* \"Tp2_Auction.sol\":3280:3299  window = 10 minutes */\n  dup2\n  swap1\n  sstore\n  pop\n    /* \"Tp2_Auction.sol\":3377:3388  1000000 wei */\n  0x0f4240\n    /* \"Tp2_Auction.sol\":3364:3374  init_value */\n  0x01\n    /* \"Tp2_Auction.sol\":3364:3388  init_value = 1000000 wei */\n  dup2\n  swap1\n  sstore\n  pop\n    /* \"Tp2_Auction.sol\":3436:3441  owner */\n  0x00\n  0x00\n  swap1\n  sload\n  swap1\n  0x0100\n  exp\n  swap1\n  div\n  0xffffffffffffffffffffffffffffffffffffffff\n  and\n    /* \"Tp2_Auction.sol\":3424:3430  winner */\n  0x08\n    /* \"Tp2_Auction.sol\":3424:3433  winner.id */\n  0x00\n  add\n  0x00\n    /* \"Tp2_Auction.sol\":3424:3441  winner.id = owner */\n  0x0100\n  exp\n  dup2\n  sload\n  dup2\n  0xffffffffffffffffffffffffffffffffffffffff\n  mul\n  not\n  and\n  swap1\n  dup4\n  0xffffffffffffffffffffffffffffffffffffffff\n  and\n  mul\n  or\n  swap1\n  sstore\n  pop\n    /* \"Tp2_Auction.sol\":3467:3477  init_value */\n  sload(0x01)\n    /* \"Tp2_Auction.sol\":3452:3458  winner */\n  0x08\n    /* \"Tp2_Auction.sol\":3452:3464  winner.value */\n  0x01\n  add\n    /* \"Tp2_Auction.sol\":3452:3477  winner.value = init_value */\n  dup2\n  swap1\n  sstore\n  pop\n    /* \"Tp2_Auction.sol\":3498:3506  State.on */\n  0x00\n    /* \"Tp2_Auction.sol\":3490:3495  state */\n  0x05\n  0x00\n    /* \"Tp2_Auction.sol\":3490:3506  state = State.on */\n  0x0100\n  exp\n  dup2\n  sload\n  dup2\n  0xff\n  mul\n  not\n  and\n  swap1\n  dup4\n  0x01\n  dup2\n  gt\n  iszero\n  tag_6\n  jumpi\n  tag_7\n  tag_8\n  jump\t// in\ntag_7:\ntag_6:\n  mul\n  or\n  swap1\n  sstore\n  pop\n    /* \"Tp2_Auction.sol\":190:15510  contract Tp2_Auction {... */\n  jump(tag_9)\n    /* \"#utility.yul\":7:84   */\ntag_10:\n    /* \"#utility.yul\":44:51   */\n  0x00\n    /* \"#utility.yul\":73:78   */\n  dup2\n    /* \"#utility.yul\":62:78   */\n  swap1\n  pop\n    /* \"#utility.yul\":7:84   */\n  swap2\n  swap1\n  pop\n  jump\t// out\n    /* \"#utility.yul\":90:270   */\ntag_11:\n    /* \"#utility.yul\":138:215   */\n  0x4e487b7100000000000000000000000000000000000000000000000000000000\n    /* \"#utility.yul\":135:136   */\n  0x00\n    /* \"#utility.yul\":128:216   */\n  mstore\n    /* \"#utility.yul\":235:239   */\n  0x11\n    /* \"#utility.yul\":232:233   */\n  0x04\n    /* \"#utility.yul\":225:240   */\n  mstore\n    /* \"#utility.yul\":259:263   */\n  0x24\n    /* \"#utility.yul\":256:257   */\n  0x00\n    /* \"#utility.yul\":249:264   */\n  revert\n    /* \"#utility.yul\":276:467   */\ntag_5:\n    /* \"#utility.yul\":316:319   */\n  0x00\n    /* \"#utility.yul\":335:355   */\n  tag_16\n    /* \"#utility.yul\":353:354   */\n  dup3\n    /* \"#utility.yul\":335:355   */\n  tag_10\n  jump\t// in\ntag_16:\n    /* \"#utility.yul\":330:355   */\n  swap2\n  pop\n    /* \"#utility.yul\":369:389   */\n  tag_17\n    /* \"#utility.yul\":387:388   */\n  dup4\n    /* \"#utility.yul\":369:389   */\n  tag_10\n  jump\t// in\ntag_17:\n    /* \"#utility.yul\":364:389   */\n  swap3\n  pop\n    /* \"#utility.yul\":412:413   */\n  dup3\n    /* \"#utility.yul\":409:410   */\n  dup3\n    /* \"#utility.yul\":405:414   */\n  add\n    /* \"#utility.yul\":398:414   */\n  swap1\n  pop\n    /* \"#utility.yul\":433:436   */\n  dup1\n    /* \"#utility.yul\":430:431   */\n  dup3\n    /* \"#utility.yul\":427:437   */\n  gt\n    /* \"#utility.yul\":424:460   */\n  iszero\n  tag_18\n  jumpi\n    /* \"#utility.yul\":440:458   */\n  tag_19\n  tag_11\n  jump\t// in\ntag_19:\n    /* \"#utility.yul\":424:460   */\ntag_18:\n    /* \"#utility.yul\":276:467   */\n  swap3\n  swap2\n  pop\n  pop\n  jump\t// out\n    /* \"#utility.yul\":473:653   */\ntag_8:\n    /* \"#utility.yul\":521:598   */\n  0x4e487b7100000000000000000000000000000000000000000000000000000000\n    /* \"#utility.yul\":518:519   */\n  0x00\n    /* \"#utility.yul\":511:599   */\n  mstore\n    /* \"#utility.yul\":618:622   */\n  0x21\n    /* \"#utility.yul\":615:616   */\n  0x04\n    /* \"#utility.yul\":608:623   */\n  mstore\n    /* \"#utility.yul\":642:646   */\n  0x24\n    /* \"#utility.yul\":639:640   */\n  0x00\n    /* \"#utility.yul\":632:647   */\n  revert\n    /* \"Tp2_Auction.sol\":190:15510  contract Tp2_Auction {... */\ntag_9:\n  dataSize(sub_0)\n  dup1\n  dataOffset(sub_0)\n  0x00\n  codecopy\n  0x00\n  return\nstop\n\nsub_0: assembly {\n        /* \"Tp2_Auction.sol\":190:15510  contract Tp2_Auction {... */\n      mstore(0x40, 0x80)\n      jumpi(tag_1, lt(calldatasize, 0x04))\n      shr(0xe0, calldataload(0x00))\n      dup1\n      0x534823bf\n      gt\n      tag_11\n      jumpi\n      dup1\n      0x534823bf\n      eq\n      tag_6\n      jumpi\n      dup1\n      0x77c468c4\n      eq\n      tag_7\n      jumpi\n      dup1\n      0xb7e03264\n      eq\n      tag_8\n      jumpi\n      dup1\n      0xc19d93fb\n      eq\n      tag_9\n      jumpi\n      dup1\n      0xfe67a54b\n      eq\n      tag_10\n      jumpi\n      jump(tag_1)\n    tag_11:\n      dup1\n      0x1f09dfa7\n      eq\n      tag_2\n      jumpi\n      dup1\n      0x464fcd69\n      eq\n      tag_3\n      jumpi\n      dup1\n      0x4665096d\n      eq\n      tag_4\n      jumpi\n      dup1\n      0x4dbe5889\n      eq\n      tag_5\n      jumpi\n    tag_1:\n      revert(0x00, 0x00)\n        /* \"Tp2_Auction.sol\":9858:10265  function Offer () external payable validOffer {... */\n    tag_2:\n      tag_12\n      tag_13\n      jump\t// in\n    tag_12:\n      stop\n        /* \"Tp2_Auction.sol\":11016:12000  function partialClaim() external auctionAlive isBidderM {... */\n    tag_3:\n      callvalue\n      dup1\n      iszero\n      tag_14\n      jumpi\n      revert(0x00, 0x00)\n    tag_14:\n      pop\n      tag_15\n      tag_16\n      jump\t// in\n    tag_15:\n      stop\n        /* \"Tp2_Auction.sol\":599:624  uint256 public expiration */\n    tag_4:\n      callvalue\n      dup1\n      iszero\n      tag_17\n      jumpi\n      revert(0x00, 0x00)\n    tag_17:\n      pop\n      tag_18\n      tag_19\n      jump\t// in\n    tag_18:\n      mload(0x40)\n      tag_20\n      swap2\n      swap1\n      tag_21\n      jump\t// in\n    tag_20:\n      mload(0x40)\n      dup1\n      swap2\n      sub\n      swap1\n      return\n        /* \"Tp2_Auction.sol\":15267:15505  function ownerClaim() external onlyOwner auctionEnded{... */\n    tag_5:\n      callvalue\n      dup1\n      iszero\n      tag_22\n      jumpi\n      revert(0x00, 0x00)\n    tag_22:\n      pop\n      tag_23\n      tag_24\n      jump\t// in\n    tag_23:\n      stop\n        /* \"Tp2_Auction.sol\":10459:10557  function showOffers() external view returns (Person2[] memory) {... */\n    tag_6:\n      callvalue\n      dup1\n      iszero\n      tag_25\n      jumpi\n      revert(0x00, 0x00)\n    tag_25:\n      pop\n      tag_26\n      tag_27\n      jump\t// in\n    tag_26:\n      mload(0x40)\n      tag_28\n      swap2\n      swap1\n      tag_29\n      jump\t// in\n    tag_28:\n      mload(0x40)\n      dup1\n      swap2\n      sub\n      swap1\n      return\n        /* \"Tp2_Auction.sol\":13455:15101  function returnOffers() external onlyOwner auctionEnded{... */\n    tag_7:\n      callvalue\n      dup1\n      iszero\n      tag_30\n      jumpi\n      revert(0x00, 0x00)\n    tag_30:\n      pop\n      tag_31\n      tag_32\n      jump\t// in\n    tag_31:\n      stop\n        /* \"Tp2_Auction.sol\":10729:10822  function showWinner() external view returns (Person2 memory) {... */\n    tag_8:\n      callvalue\n      dup1\n      iszero\n      tag_33\n      jumpi\n      revert(0x00, 0x00)\n    tag_33:\n      pop\n      tag_34\n      tag_35\n      jump\t// in\n    tag_34:\n      mload(0x40)\n      tag_36\n      swap2\n      swap1\n      tag_37\n      jump\t// in\n    tag_36:\n      mload(0x40)\n      dup1\n      swap2\n      sub\n      swap1\n      return\n        /* \"Tp2_Auction.sol\":764:782  State public state */\n    tag_9:\n      callvalue\n      dup1\n      iszero\n      tag_38\n      jumpi\n      revert(0x00, 0x00)\n    tag_38:\n      pop\n      tag_39\n      tag_40\n      jump\t// in\n    tag_39:\n      mload(0x40)\n      tag_41\n      swap2\n      swap1\n      tag_42\n      jump\t// in\n    tag_41:\n      mload(0x40)\n      dup1\n      swap2\n      sub\n      swap1\n      return\n        /* \"Tp2_Auction.sol\":13001:13283  function endAuction() external onlyOwner auctionAlive{... */\n    tag_10:\n      callvalue\n      dup1\n      iszero\n      tag_43\n      jumpi\n      revert(0x00, 0x00)\n    tag_43:\n      pop\n      tag_44\n      tag_45\n      jump\t// in\n    tag_44:\n      stop\n        /* \"Tp2_Auction.sol\":9858:10265  function Offer () external payable validOffer {... */\n    tag_13:\n        /* \"Tp2_Auction.sol\":4547:4555  State.on */\n      0x00\n        /* \"Tp2_Auction.sol\":4538:4555  state == State.on */\n      0x01\n      dup2\n      gt\n      iszero\n      tag_47\n      jumpi\n      tag_48\n      tag_49\n      jump\t// in\n    tag_48:\n    tag_47:\n        /* \"Tp2_Auction.sol\":4538:4543  state */\n      0x05\n      0x00\n      swap1\n      sload\n      swap1\n      0x0100\n      exp\n      swap1\n      div\n      0xff\n      and\n        /* \"Tp2_Auction.sol\":4538:4555  state == State.on */\n      0x01\n      dup2\n      gt\n      iszero\n      tag_50\n      jumpi\n      tag_51\n      tag_49\n      jump\t// in\n    tag_51:\n    tag_50:\n      sub\n        /* \"Tp2_Auction.sol\":4535:4788  if(state == State.on) {... */\n      tag_52\n      jumpi\n        /* \"Tp2_Auction.sol\":4595:4605  expiration */\n      sload(0x04)\n        /* \"Tp2_Auction.sol\":4577:4592  block.timestamp */\n      timestamp\n        /* \"Tp2_Auction.sol\":4577:4605  block.timestamp < expiration */\n      lt\n        /* \"Tp2_Auction.sol\":4568:4628  require((block.timestamp < expiration),\"invalid offer time\") */\n      tag_53\n      jumpi\n      mload(0x40)\n      0x08c379a000000000000000000000000000000000000000000000000000000000\n      dup2\n      mstore\n      0x04\n      add\n      tag_54\n      swap1\n      tag_55\n      jump\t// in\n    tag_54:\n      mload(0x40)\n      dup1\n      swap2\n      sub\n      swap1\n      revert\n    tag_53:\n        /* \"Tp2_Auction.sol\":4682:4685  100 */\n      0x64\n        /* \"Tp2_Auction.sol\":4676:4679  105 */\n      0x69\n        /* \"Tp2_Auction.sol\":4661:4667  winner */\n      0x08\n        /* \"Tp2_Auction.sol\":4661:4673  winner.value */\n      0x01\n      add\n      sload\n        /* \"Tp2_Auction.sol\":4661:4679  winner.value * 105 */\n      tag_56\n      swap2\n      swap1\n      tag_57\n      jump\t// in\n    tag_56:\n        /* \"Tp2_Auction.sol\":4661:4685  winner.value * 105 / 100 */\n      tag_58\n      swap2\n      swap1\n      tag_59\n      jump\t// in\n    tag_58:\n        /* \"Tp2_Auction.sol\":4648:4657  msg.value */\n      callvalue\n        /* \"Tp2_Auction.sol\":4648:4685  msg.value >= winner.value * 105 / 100 */\n      lt\n      iszero\n        /* \"Tp2_Auction.sol\":4639:4709  require((msg.value >= winner.value * 105 / 100),\"invalid offer value\") */\n      tag_60\n      jumpi\n      mload(0x40)\n      0x08c379a000000000000000000000000000000000000000000000000000000000\n      dup2\n      mstore\n      0x04\n      add\n      tag_61\n      swap1\n      tag_62\n      jump\t// in\n    tag_61:\n      mload(0x40)\n      dup1\n      swap2\n      sub\n      swap1\n      revert\n    tag_60:\n        /* \"Tp2_Auction.sol\":9925:9960  updateWinner(msg.sender, msg.value) */\n      tag_64\n        /* \"Tp2_Auction.sol\":9938:9948  msg.sender */\n      caller\n        /* \"Tp2_Auction.sol\":9950:9959  msg.value */\n      callvalue\n        /* \"Tp2_Auction.sol\":9925:9937  updateWinner */\n      tag_65\n        /* \"Tp2_Auction.sol\":9925:9960  updateWinner(msg.sender, msg.value) */\n      jump\t// in\n    tag_64:\n        /* \"Tp2_Auction.sol\":9971:10019  updateInfoMApp(msg.sender, msg.value, msg.value) */\n      tag_66\n        /* \"Tp2_Auction.sol\":9986:9996  msg.sender */\n      caller\n        /* \"Tp2_Auction.sol\":9998:10007  msg.value */\n      callvalue\n        /* \"Tp2_Auction.sol\":10009:10018  msg.value */\n      callvalue\n        /* \"Tp2_Auction.sol\":9971:9985  updateInfoMApp */\n      tag_67\n        /* \"Tp2_Auction.sol\":9971:10019  updateInfoMApp(msg.sender, msg.value, msg.value) */\n      jump\t// in\n    tag_66:\n        /* \"Tp2_Auction.sol\":10030:10068  updateInfoArray(msg.sender, msg.value) */\n      tag_68\n        /* \"Tp2_Auction.sol\":10046:10056  msg.sender */\n      caller\n        /* \"Tp2_Auction.sol\":10058:10067  msg.value */\n      callvalue\n        /* \"Tp2_Auction.sol\":10030:10045  updateInfoArray */\n      tag_69\n        /* \"Tp2_Auction.sol\":10030:10068  updateInfoArray(msg.sender, msg.value) */\n      jump\t// in\n    tag_68:\n        /* \"Tp2_Auction.sol\":10079:10097  updateExpiration() */\n      tag_70\n        /* \"Tp2_Auction.sol\":10079:10095  updateExpiration */\n      tag_71\n        /* \"Tp2_Auction.sol\":10079:10097  updateExpiration() */\n      jump\t// in\n    tag_70:\n        /* \"Tp2_Auction.sol\":10195:10205  msg.sender */\n      caller\n        /* \"Tp2_Auction.sol\":10186:10217  NewOffer(msg.sender, msg.value) */\n      0xffffffffffffffffffffffffffffffffffffffff\n      and\n      0x058d619527549e88853c641ebcec23205e5df61592e3908275721b5ad490113f\n        /* \"Tp2_Auction.sol\":10207:10216  msg.value */\n      callvalue\n        /* \"Tp2_Auction.sol\":10186:10217  NewOffer(msg.sender, msg.value) */\n      mload(0x40)\n      tag_72\n      swap2\n      swap1\n      tag_21\n      jump\t// in\n    tag_72:\n      mload(0x40)\n      dup1\n      swap2\n      sub\n      swap1\n      log2\n        /* \"Tp2_Auction.sol\":10228:10249  addUnique(msg.sender) */\n      tag_73\n        /* \"Tp2_Auction.sol\":10238:10248  msg.sender */\n      caller\n        /* \"Tp2_Auction.sol\":10228:10237  addUnique */\n      tag_74\n        /* \"Tp2_Auction.sol\":10228:10249  addUnique(msg.sender) */\n      jump\t// in\n    tag_73:\n        /* \"Tp2_Auction.sol\":4535:4788  if(state == State.on) {... */\n      jump(tag_75)\n    tag_52:\n        /* \"Tp2_Auction.sol\":4753:4776  revert(\"Auction Ended\") */\n      mload(0x40)\n      0x08c379a000000000000000000000000000000000000000000000000000000000\n      dup2\n      mstore\n      0x04\n      add\n      tag_76\n      swap1\n      tag_77\n      jump\t// in\n    tag_76:\n      mload(0x40)\n      dup1\n      swap2\n      sub\n      swap1\n      revert\n        /* \"Tp2_Auction.sol\":4535:4788  if(state == State.on) {... */\n    tag_75:\n        /* \"Tp2_Auction.sol\":9858:10265  function Offer () external payable validOffer {... */\n      jump\t// out\n        /* \"Tp2_Auction.sol\":11016:12000  function partialClaim() external auctionAlive isBidderM {... */\n    tag_16:\n        /* \"Tp2_Auction.sol\":4129:4137  State.on */\n      0x00\n        /* \"Tp2_Auction.sol\":4120:4137  state == State.on */\n      0x01\n      dup2\n      gt\n      iszero\n      tag_79\n      jumpi\n      tag_80\n      tag_49\n      jump\t// in\n    tag_80:\n    tag_79:\n        /* \"Tp2_Auction.sol\":4120:4125  state */\n      0x05\n      0x00\n      swap1\n      sload\n      swap1\n      0x0100\n      exp\n      swap1\n      div\n      0xff\n      and\n        /* \"Tp2_Auction.sol\":4120:4137  state == State.on */\n      0x01\n      dup2\n      gt\n      iszero\n      tag_81\n      jumpi\n      tag_82\n      tag_49\n      jump\t// in\n    tag_82:\n    tag_81:\n      eq\n        /* \"Tp2_Auction.sol\":4112:4162  require(state == State.on,\"auction already ended\") */\n      tag_83\n      jumpi\n      mload(0x40)\n      0x08c379a000000000000000000000000000000000000000000000000000000000\n      dup2\n      mstore\n      0x04\n      add\n      tag_84\n      swap1\n      tag_85\n      jump\t// in\n    tag_84:\n      mload(0x40)\n      dup1\n      swap2\n      sub\n      swap1\n      revert\n    tag_83:\n        /* \"Tp2_Auction.sol\":3945:3949  true */\n      0x01\n        /* \"Tp2_Auction.sol\":3921:3949  isBidder[msg.sender] == true */\n      iszero\n      iszero\n        /* \"Tp2_Auction.sol\":3921:3929  isBidder */\n      0x0b\n        /* \"Tp2_Auction.sol\":3921:3941  isBidder[msg.sender] */\n      0x00\n        /* \"Tp2_Auction.sol\":3930:3940  msg.sender */\n      caller\n        /* \"Tp2_Auction.sol\":3921:3941  isBidder[msg.sender] */\n      0xffffffffffffffffffffffffffffffffffffffff\n      and\n      0xffffffffffffffffffffffffffffffffffffffff\n      and\n      dup2\n      mstore\n      0x20\n      add\n      swap1\n      dup2\n      mstore\n      0x20\n      add\n      0x00\n      keccak256\n      0x00\n      swap1\n      sload\n      swap1\n      0x0100\n      exp\n      swap1\n      div\n      0xff\n      and\n        /* \"Tp2_Auction.sol\":3921:3949  isBidder[msg.sender] == true */\n      iszero\n      iszero\n      eq\n        /* \"Tp2_Auction.sol\":3913:3965  require(isBidder[msg.sender] == true,\"not a bidder\") */\n      tag_87\n      jumpi\n      mload(0x40)\n      0x08c379a000000000000000000000000000000000000000000000000000000000\n      dup2\n      mstore\n      0x04\n      add\n      tag_88\n      swap1\n      tag_89\n      jump\t// in\n    tag_88:\n      mload(0x40)\n      dup1\n      swap2\n      sub\n      swap1\n      revert\n    tag_87:\n        /* \"Tp2_Auction.sol\":11085:11096  bool result */\n      0x00\n        /* \"Tp2_Auction.sol\":11107:11122  uint256 aux_val */\n      0x00\n        /* \"Tp2_Auction.sol\":11155:11196  returnClaimedEthers(payable (msg.sender)) */\n      tag_91\n        /* \"Tp2_Auction.sol\":11184:11194  msg.sender */\n      caller\n        /* \"Tp2_Auction.sol\":11155:11174  returnClaimedEthers */\n      tag_92\n        /* \"Tp2_Auction.sol\":11155:11196  returnClaimedEthers(payable (msg.sender)) */\n      jump\t// in\n    tag_91:\n        /* \"Tp2_Auction.sol\":11135:11196  (result, aux_val) = returnClaimedEthers(payable (msg.sender)) */\n      dup1\n      swap3\n      pop\n      dup2\n      swap4\n      pop\n      pop\n      pop\n        /* \"Tp2_Auction.sol\":11231:11236  false */\n      0x00\n        /* \"Tp2_Auction.sol\":11221:11236  result == false */\n      iszero\n      iszero\n        /* \"Tp2_Auction.sol\":11221:11227  result */\n      dup3\n        /* \"Tp2_Auction.sol\":11221:11236  result == false */\n      iszero\n      iszero\n      sub\n        /* \"Tp2_Auction.sol\":11217:11991  if( result == false){   ... */\n      tag_93\n      jumpi\n        /* \"Tp2_Auction.sol\":11255:11281  revert(\"transaction fail\") */\n      mload(0x40)\n      0x08c379a000000000000000000000000000000000000000000000000000000000\n      dup2\n      mstore\n      0x04\n      add\n      tag_94\n      swap1\n      tag_95\n      jump\t// in\n    tag_94:\n      mload(0x40)\n      dup1\n      swap2\n      sub\n      swap1\n      revert\n        /* \"Tp2_Auction.sol\":11217:11991  if( result == false){   ... */\n    tag_93:\n        /* \"Tp2_Auction.sol\":11496:11503  aux_val */\n      dup1\n        /* \"Tp2_Auction.sol\":11464:11472  infoMapp */\n      0x06\n        /* \"Tp2_Auction.sol\":11464:11484  infoMapp[msg.sender] */\n      0x00\n        /* \"Tp2_Auction.sol\":11473:11483  msg.sender */\n      caller\n        /* \"Tp2_Auction.sol\":11464:11484  infoMapp[msg.sender] */\n      0xffffffffffffffffffffffffffffffffffffffff\n      and\n      0xffffffffffffffffffffffffffffffffffffffff\n      and\n      dup2\n      mstore\n      0x20\n      add\n      swap1\n      dup2\n      mstore\n      0x20\n      add\n      0x00\n      keccak256\n        /* \"Tp2_Auction.sol\":11464:11492  infoMapp[msg.sender].balance */\n      0x02\n      add\n      0x00\n        /* \"Tp2_Auction.sol\":11464:11503  infoMapp[msg.sender].balance -= aux_val */\n      dup3\n      dup3\n      sload\n      tag_97\n      swap2\n      swap1\n      tag_98\n      jump\t// in\n    tag_97:\n      swap3\n      pop\n      pop\n      dup2\n      swap1\n      sstore\n      pop\n        /* \"Tp2_Auction.sol\":11555:11573  Person2 memory aux */\n      tag_99\n      tag_100\n      jump\t// in\n    tag_99:\n        /* \"Tp2_Auction.sol\":11597:11607  msg.sender */\n      caller\n        /* \"Tp2_Auction.sol\":11588:11591  aux */\n      dup2\n        /* \"Tp2_Auction.sol\":11588:11594  aux.id */\n      0x00\n      add\n        /* \"Tp2_Auction.sol\":11588:11607  aux.id = msg.sender */\n      swap1\n      0xffffffffffffffffffffffffffffffffffffffff\n      and\n      swap1\n      dup2\n      0xffffffffffffffffffffffffffffffffffffffff\n      and\n      dup2\n      mstore\n      pop\n      pop\n        /* \"Tp2_Auction.sol\":11634:11635  0 */\n      0x00\n        /* \"Tp2_Auction.sol\":11622:11625  aux */\n      dup2\n        /* \"Tp2_Auction.sol\":11622:11631  aux.value */\n      0x20\n      add\n        /* \"Tp2_Auction.sol\":11622:11635  aux.value = 0 */\n      dup2\n      dup2\n      mstore\n      pop\n      pop\n        /* \"Tp2_Auction.sol\":11905:11914  infoArray */\n      0x07\n        /* \"Tp2_Auction.sol\":11920:11923  aux */\n      dup2\n        /* \"Tp2_Auction.sol\":11905:11924  infoArray.push(aux) */\n      swap1\n      dup1\n      0x01\n      dup2\n      sload\n      add\n      dup1\n      dup3\n      sstore\n      dup1\n      swap2\n      pop\n      pop\n      0x01\n      swap1\n      sub\n      swap1\n      0x00\n      mstore\n      keccak256(0x00, 0x20)\n      swap1\n      0x02\n      mul\n      add\n      0x00\n      swap1\n      swap2\n      swap1\n      swap2\n      swap1\n      swap2\n      pop\n      0x00\n      dup3\n      add\n      mload\n      dup2\n      0x00\n      add\n      exp(0x0100, 0x00)\n      dup2\n      sload\n      dup2\n      0xffffffffffffffffffffffffffffffffffffffff\n      mul\n      not\n      and\n      swap1\n      dup4\n      0xffffffffffffffffffffffffffffffffffffffff\n      and\n      mul\n      or\n      swap1\n      sstore\n      pop\n      0x20\n      dup3\n      add\n      mload\n      dup2\n      0x01\n      add\n      sstore\n      pop\n      pop\n        /* \"Tp2_Auction.sol\":11957:11967  msg.sender */\n      caller\n        /* \"Tp2_Auction.sol\":11944:11977  PartialClaim(msg.sender, aux_val) */\n      0xffffffffffffffffffffffffffffffffffffffff\n      and\n      0x5bf4ffbba2c193e74d733f69408011d333232e84b98a68ecb638621dab65fff5\n        /* \"Tp2_Auction.sol\":11969:11976  aux_val */\n      dup4\n        /* \"Tp2_Auction.sol\":11944:11977  PartialClaim(msg.sender, aux_val) */\n      mload(0x40)\n      tag_102\n      swap2\n      swap1\n      tag_21\n      jump\t// in\n    tag_102:\n      mload(0x40)\n      dup1\n      swap2\n      sub\n      swap1\n      log2\n        /* \"Tp2_Auction.sol\":11303:11991  {... */\n      pop\n        /* \"Tp2_Auction.sol\":11072:12000  {... */\n      pop\n      pop\n        /* \"Tp2_Auction.sol\":11016:12000  function partialClaim() external auctionAlive isBidderM {... */\n      jump\t// out\n        /* \"Tp2_Auction.sol\":599:624  uint256 public expiration */\n    tag_19:\n      sload(0x04)\n      dup2\n      jump\t// out\n        /* \"Tp2_Auction.sol\":15267:15505  function ownerClaim() external onlyOwner auctionEnded{... */\n    tag_24:\n        /* \"Tp2_Auction.sol\":3719:3729  msg.sender */\n      caller\n        /* \"Tp2_Auction.sol\":3712:3729  owner==msg.sender */\n      0xffffffffffffffffffffffffffffffffffffffff\n      and\n        /* \"Tp2_Auction.sol\":3712:3717  owner */\n      0x00\n      0x00\n      swap1\n      sload\n      swap1\n      0x0100\n      exp\n      swap1\n      div\n      0xffffffffffffffffffffffffffffffffffffffff\n      and\n        /* \"Tp2_Auction.sol\":3712:3729  owner==msg.sender */\n      0xffffffffffffffffffffffffffffffffffffffff\n      and\n      eq\n        /* \"Tp2_Auction.sol\":3704:3747  require(owner==msg.sender, \"not the owner\") */\n      tag_104\n      jumpi\n      mload(0x40)\n      0x08c379a000000000000000000000000000000000000000000000000000000000\n      dup2\n      mstore\n      0x04\n      add\n      tag_105\n      swap1\n      tag_106\n      jump\t// in\n    tag_105:\n      mload(0x40)\n      dup1\n      swap2\n      sub\n      swap1\n      revert\n    tag_104:\n        /* \"Tp2_Auction.sol\":4332:4341  State.off */\n      0x01\n        /* \"Tp2_Auction.sol\":4323:4341  state == State.off */\n      dup1\n      dup2\n      gt\n      iszero\n      tag_108\n      jumpi\n      tag_109\n      tag_49\n      jump\t// in\n    tag_109:\n    tag_108:\n        /* \"Tp2_Auction.sol\":4323:4328  state */\n      0x05\n      0x00\n      swap1\n      sload\n      swap1\n      0x0100\n      exp\n      swap1\n      div\n      0xff\n      and\n        /* \"Tp2_Auction.sol\":4323:4341  state == State.off */\n      0x01\n      dup2\n      gt\n      iszero\n      tag_110\n      jumpi\n      tag_111\n      tag_49\n      jump\t// in\n    tag_111:\n    tag_110:\n      eq\n        /* \"Tp2_Auction.sol\":4315:4364  require(state == State.off,\"auction still alive\") */\n      tag_112\n      jumpi\n      mload(0x40)\n      0x08c379a000000000000000000000000000000000000000000000000000000000\n      dup2\n      mstore\n      0x04\n      add\n      tag_113\n      swap1\n      tag_114\n      jump\t// in\n    tag_113:\n      mload(0x40)\n      dup1\n      swap2\n      sub\n      swap1\n      revert\n    tag_112:\n        /* \"Tp2_Auction.sol\":15334:15345  bool result */\n      0x00\n        /* \"Tp2_Auction.sol\":15351:15356  owner */\n      0x00\n      0x00\n      swap1\n      sload\n      swap1\n      0x0100\n      exp\n      swap1\n      div\n      0xffffffffffffffffffffffffffffffffffffffff\n      and\n        /* \"Tp2_Auction.sol\":15351:15361  owner.call */\n      0xffffffffffffffffffffffffffffffffffffffff\n      and\n        /* \"Tp2_Auction.sol\":15367:15371  2300 */\n      0x08fc\n        /* \"Tp2_Auction.sol\":15379:15400  address(this).balance */\n      selfbalance\n        /* \"Tp2_Auction.sol\":15351:15405  owner.call{gas: 2300, value:address(this).balance}(\"\") */\n      mload(0x40)\n      tag_116\n      swap1\n      tag_117\n      jump\t// in\n    tag_116:\n      0x00\n      mload(0x40)\n      dup1\n      dup4\n      sub\n      dup2\n      dup6\n      dup9\n      dup9\n      call\n      swap4\n      pop\n      pop\n      pop\n      pop\n      returndatasize\n      dup1\n      0x00\n      dup2\n      eq\n      tag_120\n      jumpi\n      mload(0x40)\n      swap2\n      pop\n      and(add(returndatasize, 0x3f), not(0x1f))\n      dup3\n      add\n      0x40\n      mstore\n      returndatasize\n      dup3\n      mstore\n      returndatasize\n      0x00\n      0x20\n      dup5\n      add\n      returndatacopy\n      jump(tag_119)\n    tag_120:\n      0x60\n      swap2\n      pop\n    tag_119:\n      pop\n        /* \"Tp2_Auction.sol\":15333:15405  (bool result, ) = owner.call{gas: 2300, value:address(this).balance}(\"\") */\n      pop\n      swap1\n      pop\n        /* \"Tp2_Auction.sol\":15433:15438  false */\n      0x00\n        /* \"Tp2_Auction.sol\":15423:15438  result == false */\n      iszero\n      iszero\n        /* \"Tp2_Auction.sol\":15423:15429  result */\n      dup2\n        /* \"Tp2_Auction.sol\":15423:15438  result == false */\n      iszero\n      iszero\n      sub\n        /* \"Tp2_Auction.sol\":15419:15497  if( result == false){   ... */\n      tag_121\n      jumpi\n        /* \"Tp2_Auction.sol\":15457:15483  revert(\"transaction fail\") */\n      mload(0x40)\n      0x08c379a000000000000000000000000000000000000000000000000000000000\n      dup2\n      mstore\n      0x04\n      add\n      tag_122\n      swap1\n      tag_95\n      jump\t// in\n    tag_122:\n      mload(0x40)\n      dup1\n      swap2\n      sub\n      swap1\n      revert\n        /* \"Tp2_Auction.sol\":15419:15497  if( result == false){   ... */\n    tag_121:\n        /* \"Tp2_Auction.sol\":15320:15505  {... */\n      pop\n        /* \"Tp2_Auction.sol\":15267:15505  function ownerClaim() external onlyOwner auctionEnded{... */\n      jump\t// out\n        /* \"Tp2_Auction.sol\":10459:10557  function showOffers() external view returns (Person2[] memory) {... */\n    tag_27:\n        /* \"Tp2_Auction.sol\":10504:10520  Person2[] memory */\n      0x60\n        /* \"Tp2_Auction.sol\":10540:10549  infoArray */\n      0x07\n        /* \"Tp2_Auction.sol\":10533:10549  return infoArray */\n      dup1\n      sload\n      dup1\n      0x20\n      mul\n      0x20\n      add\n      mload(0x40)\n      swap1\n      dup2\n      add\n      0x40\n      mstore\n      dup1\n      swap3\n      swap2\n      swap1\n      dup2\n      dup2\n      mstore\n      0x20\n      add\n      0x00\n      swap1\n    tag_124:\n      dup3\n      dup3\n      lt\n      iszero\n      tag_125\n      jumpi\n      dup4\n      dup3\n      swap1\n      0x00\n      mstore\n      keccak256(0x00, 0x20)\n      swap1\n      0x02\n      mul\n      add\n      mload(0x40)\n      dup1\n      0x40\n      add\n      0x40\n      mstore\n      swap1\n      dup2\n      0x00\n      dup3\n      add\n      0x00\n      swap1\n      sload\n      swap1\n      0x0100\n      exp\n      swap1\n      div\n      0xffffffffffffffffffffffffffffffffffffffff\n      and\n      0xffffffffffffffffffffffffffffffffffffffff\n      and\n      0xffffffffffffffffffffffffffffffffffffffff\n      and\n      dup2\n      mstore\n      0x20\n      add\n      0x01\n      dup3\n      add\n      sload\n      dup2\n      mstore\n      pop\n      pop\n      dup2\n      mstore\n      0x20\n      add\n      swap1\n      0x01\n      add\n      swap1\n      jump(tag_124)\n    tag_125:\n      pop\n      pop\n      pop\n      pop\n      swap1\n      pop\n        /* \"Tp2_Auction.sol\":10459:10557  function showOffers() external view returns (Person2[] memory) {... */\n      swap1\n      jump\t// out\n        /* \"Tp2_Auction.sol\":13455:15101  function returnOffers() external onlyOwner auctionEnded{... */\n    tag_32:\n        /* \"Tp2_Auction.sol\":3719:3729  msg.sender */\n      caller\n        /* \"Tp2_Auction.sol\":3712:3729  owner==msg.sender */\n      0xffffffffffffffffffffffffffffffffffffffff\n      and\n        /* \"Tp2_Auction.sol\":3712:3717  owner */\n      0x00\n      0x00\n      swap1\n      sload\n      swap1\n      0x0100\n      exp\n      swap1\n      div\n      0xffffffffffffffffffffffffffffffffffffffff\n      and\n        /* \"Tp2_Auction.sol\":3712:3729  owner==msg.sender */\n      0xffffffffffffffffffffffffffffffffffffffff\n      and\n      eq\n        /* \"Tp2_Auction.sol\":3704:3747  require(owner==msg.sender, \"not the owner\") */\n      tag_128\n      jumpi\n      mload(0x40)\n      0x08c379a000000000000000000000000000000000000000000000000000000000\n      dup2\n      mstore\n      0x04\n      add\n      tag_129\n      swap1\n      tag_106\n      jump\t// in\n    tag_129:\n      mload(0x40)\n      dup1\n      swap2\n      sub\n      swap1\n      revert\n    tag_128:\n        /* \"Tp2_Auction.sol\":4332:4341  State.off */\n      0x01\n        /* \"Tp2_Auction.sol\":4323:4341  state == State.off */\n      dup1\n      dup2\n      gt\n      iszero\n      tag_131\n      jumpi\n      tag_132\n      tag_49\n      jump\t// in\n    tag_132:\n    tag_131:\n        /* \"Tp2_Auction.sol\":4323:4328  state */\n      0x05\n      0x00\n      swap1\n      sload\n      swap1\n      0x0100\n      exp\n      swap1\n      div\n      0xff\n      and\n        /* \"Tp2_Auction.sol\":4323:4341  state == State.off */\n      0x01\n      dup2\n      gt\n      iszero\n      tag_133\n      jumpi\n      tag_134\n      tag_49\n      jump\t// in\n    tag_134:\n    tag_133:\n      eq\n        /* \"Tp2_Auction.sol\":4315:4364  require(state == State.off,\"auction still alive\") */\n      tag_135\n      jumpi\n      mload(0x40)\n      0x08c379a000000000000000000000000000000000000000000000000000000000\n      dup2\n      mstore\n      0x04\n      add\n      tag_136\n      swap1\n      tag_114\n      jump\t// in\n    tag_136:\n      mload(0x40)\n      dup1\n      swap2\n      sub\n      swap1\n      revert\n    tag_135:\n        /* \"Tp2_Auction.sol\":13523:13534  bool result */\n      0x00\n        /* \"Tp2_Auction.sol\":13545:13560  uint256 aux_val */\n      0x00\n        /* \"Tp2_Auction.sol\":13577:13583  uint i */\n      0x00\n        /* \"Tp2_Auction.sol\":13586:13587  0 */\n      0x00\n        /* \"Tp2_Auction.sol\":13577:13587  uint i = 0 */\n      swap1\n      pop\n        /* \"Tp2_Auction.sol\":13572:15094  for (uint i = 0; i < uniqueArray.length; i++) {... */\n    tag_138:\n        /* \"Tp2_Auction.sol\":13593:13604  uniqueArray */\n      0x0a\n        /* \"Tp2_Auction.sol\":13593:13611  uniqueArray.length */\n      dup1\n      sload\n      swap1\n      pop\n        /* \"Tp2_Auction.sol\":13589:13590  i */\n      dup2\n        /* \"Tp2_Auction.sol\":13589:13611  i < uniqueArray.length */\n      lt\n        /* \"Tp2_Auction.sol\":13572:15094  for (uint i = 0; i < uniqueArray.length; i++) {... */\n      iszero\n      tag_139\n      jumpi\n        /* \"Tp2_Auction.sol\":13654:13660  winner */\n      0x08\n        /* \"Tp2_Auction.sol\":13654:13663  winner.id */\n      0x00\n      add\n      0x00\n      swap1\n      sload\n      swap1\n      0x0100\n      exp\n      swap1\n      div\n      0xffffffffffffffffffffffffffffffffffffffff\n      and\n        /* \"Tp2_Auction.sol\":13636:13663  uniqueArray[i] != winner.id */\n      0xffffffffffffffffffffffffffffffffffffffff\n      and\n        /* \"Tp2_Auction.sol\":13636:13647  uniqueArray */\n      0x0a\n        /* \"Tp2_Auction.sol\":13648:13649  i */\n      dup3\n        /* \"Tp2_Auction.sol\":13636:13650  uniqueArray[i] */\n      dup2\n      sload\n      dup2\n      lt\n      tag_141\n      jumpi\n      tag_142\n      tag_143\n      jump\t// in\n    tag_142:\n    tag_141:\n      swap1\n      0x00\n      mstore\n      keccak256(0x00, 0x20)\n      add\n      0x00\n      swap1\n      sload\n      swap1\n      0x0100\n      exp\n      swap1\n      div\n      0xffffffffffffffffffffffffffffffffffffffff\n      and\n        /* \"Tp2_Auction.sol\":13636:13663  uniqueArray[i] != winner.id */\n      0xffffffffffffffffffffffffffffffffffffffff\n      and\n      eq\n        /* \"Tp2_Auction.sol\":13633:15083  if(uniqueArray[i] != winner.id){... */\n      tag_145\n      jumpi\n        /* \"Tp2_Auction.sol\":13705:13732  returnEther(uniqueArray[i]) */\n      tag_146\n        /* \"Tp2_Auction.sol\":13717:13728  uniqueArray */\n      0x0a\n        /* \"Tp2_Auction.sol\":13729:13730  i */\n      dup3\n        /* \"Tp2_Auction.sol\":13717:13731  uniqueArray[i] */\n      dup2\n      sload\n      dup2\n      lt\n      tag_147\n      jumpi\n      tag_148\n      tag_143\n      jump\t// in\n    tag_148:\n    tag_147:\n      swap1\n      0x00\n      mstore\n      keccak256(0x00, 0x20)\n      add\n      0x00\n      swap1\n      sload\n      swap1\n      0x0100\n      exp\n      swap1\n      div\n      0xffffffffffffffffffffffffffffffffffffffff\n      and\n        /* \"Tp2_Auction.sol\":13705:13716  returnEther */\n      tag_150\n        /* \"Tp2_Auction.sol\":13705:13732  returnEther(uniqueArray[i]) */\n      jump\t// in\n    tag_146:\n        /* \"Tp2_Auction.sol\":13685:13732  (result, aux_val) = returnEther(uniqueArray[i]) */\n      dup1\n      swap4\n      pop\n      dup2\n      swap5\n      pop\n      pop\n      pop\n        /* \"Tp2_Auction.sol\":13783:13788  false */\n      0x00\n        /* \"Tp2_Auction.sol\":13773:13788  result == false */\n      iszero\n      iszero\n        /* \"Tp2_Auction.sol\":13773:13779  result */\n      dup4\n        /* \"Tp2_Auction.sol\":13773:13788  result == false */\n      iszero\n      iszero\n      sub\n        /* \"Tp2_Auction.sol\":13769:14389  if( result == false){   ... */\n      tag_151\n      jumpi\n        /* \"Tp2_Auction.sol\":13815:13841  revert(\"transaction fail\") */\n      mload(0x40)\n      0x08c379a000000000000000000000000000000000000000000000000000000000\n      dup2\n      mstore\n      0x04\n      add\n      tag_152\n      swap1\n      tag_95\n      jump\t// in\n    tag_152:\n      mload(0x40)\n      dup1\n      swap2\n      sub\n      swap1\n      revert\n        /* \"Tp2_Auction.sol\":13769:14389  if( result == false){   ... */\n    tag_151:\n        /* \"Tp2_Auction.sol\":14090:14097  aux_val */\n      dup2\n        /* \"Tp2_Auction.sol\":14054:14062  infoMapp */\n      0x06\n        /* \"Tp2_Auction.sol\":14054:14078  infoMapp[uniqueArray[i]] */\n      0x00\n        /* \"Tp2_Auction.sol\":14063:14074  uniqueArray */\n      0x0a\n        /* \"Tp2_Auction.sol\":14075:14076  i */\n      dup5\n        /* \"Tp2_Auction.sol\":14063:14077  uniqueArray[i] */\n      dup2\n      sload\n      dup2\n      lt\n      tag_154\n      jumpi\n      tag_155\n      tag_143\n      jump\t// in\n    tag_155:\n    tag_154:\n      swap1\n      0x00\n      mstore\n      keccak256(0x00, 0x20)\n      add\n      0x00\n      swap1\n      sload\n      swap1\n      0x0100\n      exp\n      swap1\n      div\n      0xffffffffffffffffffffffffffffffffffffffff\n      and\n        /* \"Tp2_Auction.sol\":14054:14078  infoMapp[uniqueArray[i]] */\n      0xffffffffffffffffffffffffffffffffffffffff\n      and\n      0xffffffffffffffffffffffffffffffffffffffff\n      and\n      dup2\n      mstore\n      0x20\n      add\n      swap1\n      dup2\n      mstore\n      0x20\n      add\n      0x00\n      keccak256\n        /* \"Tp2_Auction.sol\":14054:14086  infoMapp[uniqueArray[i]].balance */\n      0x02\n      add\n      0x00\n        /* \"Tp2_Auction.sol\":14054:14097  infoMapp[uniqueArray[i]].balance -= aux_val */\n      dup3\n      dup3\n      sload\n      tag_157\n      swap2\n      swap1\n      tag_98\n      jump\t// in\n    tag_157:\n      swap3\n      pop\n      pop\n      dup2\n      swap1\n      sstore\n      pop\n        /* \"Tp2_Auction.sol\":14165:14183  Person2 memory aux */\n      tag_158\n      tag_100\n      jump\t// in\n    tag_158:\n        /* \"Tp2_Auction.sol\":14215:14226  uniqueArray */\n      0x0a\n        /* \"Tp2_Auction.sol\":14227:14228  i */\n      dup3\n        /* \"Tp2_Auction.sol\":14215:14229  uniqueArray[i] */\n      dup2\n      sload\n      dup2\n      lt\n      tag_159\n      jumpi\n      tag_160\n      tag_143\n      jump\t// in\n    tag_160:\n    tag_159:\n      swap1\n      0x00\n      mstore\n      keccak256(0x00, 0x20)\n      add\n      0x00\n      swap1\n      sload\n      swap1\n      0x0100\n      exp\n      swap1\n      div\n      0xffffffffffffffffffffffffffffffffffffffff\n      and\n        /* \"Tp2_Auction.sol\":14206:14209  aux */\n      dup2\n        /* \"Tp2_Auction.sol\":14206:14212  aux.id */\n      0x00\n      add\n        /* \"Tp2_Auction.sol\":14206:14229  aux.id = uniqueArray[i] */\n      swap1\n      0xffffffffffffffffffffffffffffffffffffffff\n      and\n      swap1\n      dup2\n      0xffffffffffffffffffffffffffffffffffffffff\n      and\n      dup2\n      mstore\n      pop\n      pop\n        /* \"Tp2_Auction.sol\":14264:14265  0 */\n      0x00\n        /* \"Tp2_Auction.sol\":14252:14255  aux */\n      dup2\n        /* \"Tp2_Auction.sol\":14252:14261  aux.value */\n      0x20\n      add\n        /* \"Tp2_Auction.sol\":14252:14265  aux.value = 0 */\n      dup2\n      dup2\n      mstore\n      pop\n      pop\n        /* \"Tp2_Auction.sol\":14289:14298  infoArray */\n      0x07\n        /* \"Tp2_Auction.sol\":14304:14307  aux */\n      dup2\n        /* \"Tp2_Auction.sol\":14289:14308  infoArray.push(aux) */\n      swap1\n      dup1\n      0x01\n      dup2\n      sload\n      add\n      dup1\n      dup3\n      sstore\n      dup1\n      swap2\n      pop\n      pop\n      0x01\n      swap1\n      sub\n      swap1\n      0x00\n      mstore\n      keccak256(0x00, 0x20)\n      swap1\n      0x02\n      mul\n      add\n      0x00\n      swap1\n      swap2\n      swap1\n      swap2\n      swap1\n      swap2\n      pop\n      0x00\n      dup3\n      add\n      mload\n      dup2\n      0x00\n      add\n      exp(0x0100, 0x00)\n      dup2\n      sload\n      dup2\n      0xffffffffffffffffffffffffffffffffffffffff\n      mul\n      not\n      and\n      swap1\n      dup4\n      0xffffffffffffffffffffffffffffffffffffffff\n      and\n      mul\n      or\n      swap1\n      sstore\n      pop\n      0x20\n      dup3\n      add\n      mload\n      dup2\n      0x01\n      add\n      sstore\n      pop\n      pop\n        /* \"Tp2_Auction.sol\":14351:14354  aux */\n      dup1\n        /* \"Tp2_Auction.sol\":14351:14357  aux.id */\n      0x00\n      add\n      mload\n        /* \"Tp2_Auction.sol\":14336:14367  ReturnedAmount(aux.id, aux_val) */\n      0xffffffffffffffffffffffffffffffffffffffff\n      and\n      0x34dba9a7faf77866d1d036eb7444d95a805bcfe05b6e34819e7d44793d3922d1\n        /* \"Tp2_Auction.sol\":14359:14366  aux_val */\n      dup5\n        /* \"Tp2_Auction.sol\":14336:14367  ReturnedAmount(aux.id, aux_val) */\n      mload(0x40)\n      tag_163\n      swap2\n      swap1\n      tag_21\n      jump\t// in\n    tag_163:\n      mload(0x40)\n      dup1\n      swap2\n      sub\n      swap1\n      log2\n        /* \"Tp2_Auction.sol\":13869:14389  {... */\n      pop\n        /* \"Tp2_Auction.sol\":13633:15083  if(uniqueArray[i] != winner.id){... */\n      jump(tag_164)\n    tag_145:\n        /* \"Tp2_Auction.sol\":14453:14486  returnEtherWinner(uniqueArray[i]) */\n      tag_165\n        /* \"Tp2_Auction.sol\":14471:14482  uniqueArray */\n      0x0a\n        /* \"Tp2_Auction.sol\":14483:14484  i */\n      dup3\n        /* \"Tp2_Auction.sol\":14471:14485  uniqueArray[i] */\n      dup2\n      sload\n      dup2\n      lt\n      tag_166\n      jumpi\n      tag_167\n      tag_143\n      jump\t// in\n    tag_167:\n    tag_166:\n      swap1\n      0x00\n      mstore\n      keccak256(0x00, 0x20)\n      add\n      0x00\n      swap1\n      sload\n      swap1\n      0x0100\n      exp\n      swap1\n      div\n      0xffffffffffffffffffffffffffffffffffffffff\n      and\n        /* \"Tp2_Auction.sol\":14453:14470  returnEtherWinner */\n      tag_169\n        /* \"Tp2_Auction.sol\":14453:14486  returnEtherWinner(uniqueArray[i]) */\n      jump\t// in\n    tag_165:\n        /* \"Tp2_Auction.sol\":14433:14486  (result, aux_val) = returnEtherWinner(uniqueArray[i]) */\n      dup1\n      swap4\n      pop\n      dup2\n      swap5\n      pop\n      pop\n      pop\n        /* \"Tp2_Auction.sol\":14522:14527  false */\n      0x00\n        /* \"Tp2_Auction.sol\":14512:14527  result == false */\n      iszero\n      iszero\n        /* \"Tp2_Auction.sol\":14512:14518  result */\n      dup4\n        /* \"Tp2_Auction.sol\":14512:14527  result == false */\n      iszero\n      iszero\n      sub\n        /* \"Tp2_Auction.sol\":14508:15068  if( result == false){   ... */\n      tag_170\n      jumpi\n        /* \"Tp2_Auction.sol\":14554:14580  revert(\"transaction fail\") */\n      mload(0x40)\n      0x08c379a000000000000000000000000000000000000000000000000000000000\n      dup2\n      mstore\n      0x04\n      add\n      tag_171\n      swap1\n      tag_95\n      jump\t// in\n    tag_171:\n      mload(0x40)\n      dup1\n      swap2\n      sub\n      swap1\n      revert\n        /* \"Tp2_Auction.sol\":14508:15068  if( result == false){   ... */\n    tag_170:\n        /* \"Tp2_Auction.sol\":14770:14777  aux_val */\n      dup2\n        /* \"Tp2_Auction.sol\":14734:14742  infoMapp */\n      0x06\n        /* \"Tp2_Auction.sol\":14734:14758  infoMapp[uniqueArray[i]] */\n      0x00\n        /* \"Tp2_Auction.sol\":14743:14754  uniqueArray */\n      0x0a\n        /* \"Tp2_Auction.sol\":14755:14756  i */\n      dup5\n        /* \"Tp2_Auction.sol\":14743:14757  uniqueArray[i] */\n      dup2\n      sload\n      dup2\n      lt\n      tag_173\n      jumpi\n      tag_174\n      tag_143\n      jump\t// in\n    tag_174:\n    tag_173:\n      swap1\n      0x00\n      mstore\n      keccak256(0x00, 0x20)\n      add\n      0x00\n      swap1\n      sload\n      swap1\n      0x0100\n      exp\n      swap1\n      div\n      0xffffffffffffffffffffffffffffffffffffffff\n      and\n        /* \"Tp2_Auction.sol\":14734:14758  infoMapp[uniqueArray[i]] */\n      0xffffffffffffffffffffffffffffffffffffffff\n      and\n      0xffffffffffffffffffffffffffffffffffffffff\n      and\n      dup2\n      mstore\n      0x20\n      add\n      swap1\n      dup2\n      mstore\n      0x20\n      add\n      0x00\n      keccak256\n        /* \"Tp2_Auction.sol\":14734:14766  infoMapp[uniqueArray[i]].balance */\n      0x02\n      add\n      0x00\n        /* \"Tp2_Auction.sol\":14734:14777  infoMapp[uniqueArray[i]].balance -= aux_val */\n      dup3\n      dup3\n      sload\n      tag_176\n      swap2\n      swap1\n      tag_98\n      jump\t// in\n    tag_176:\n      swap3\n      pop\n      pop\n      dup2\n      swap1\n      sstore\n      pop\n        /* \"Tp2_Auction.sol\":14844:14862  Person2 memory aux */\n      tag_177\n      tag_100\n      jump\t// in\n    tag_177:\n        /* \"Tp2_Auction.sol\":14894:14905  uniqueArray */\n      0x0a\n        /* \"Tp2_Auction.sol\":14906:14907  i */\n      dup3\n        /* \"Tp2_Auction.sol\":14894:14908  uniqueArray[i] */\n      dup2\n      sload\n      dup2\n      lt\n      tag_178\n      jumpi\n      tag_179\n      tag_143\n      jump\t// in\n    tag_179:\n    tag_178:\n      swap1\n      0x00\n      mstore\n      keccak256(0x00, 0x20)\n      add\n      0x00\n      swap1\n      sload\n      swap1\n      0x0100\n      exp\n      swap1\n      div\n      0xffffffffffffffffffffffffffffffffffffffff\n      and\n        /* \"Tp2_Auction.sol\":14885:14888  aux */\n      dup2\n        /* \"Tp2_Auction.sol\":14885:14891  aux.id */\n      0x00\n      add\n        /* \"Tp2_Auction.sol\":14885:14908  aux.id = uniqueArray[i] */\n      swap1\n      0xffffffffffffffffffffffffffffffffffffffff\n      and\n      swap1\n      dup2\n      0xffffffffffffffffffffffffffffffffffffffff\n      and\n      dup2\n      mstore\n      pop\n      pop\n        /* \"Tp2_Auction.sol\":14943:14944  0 */\n      0x00\n        /* \"Tp2_Auction.sol\":14931:14934  aux */\n      dup2\n        /* \"Tp2_Auction.sol\":14931:14940  aux.value */\n      0x20\n      add\n        /* \"Tp2_Auction.sol\":14931:14944  aux.value = 0 */\n      dup2\n      dup2\n      mstore\n      pop\n      pop\n        /* \"Tp2_Auction.sol\":14968:14977  infoArray */\n      0x07\n        /* \"Tp2_Auction.sol\":14983:14986  aux */\n      dup2\n        /* \"Tp2_Auction.sol\":14968:14987  infoArray.push(aux) */\n      swap1\n      dup1\n      0x01\n      dup2\n      sload\n      add\n      dup1\n      dup3\n      sstore\n      dup1\n      swap2\n      pop\n      pop\n      0x01\n      swap1\n      sub\n      swap1\n      0x00\n      mstore\n      keccak256(0x00, 0x20)\n      swap1\n      0x02\n      mul\n      add\n      0x00\n      swap1\n      swap2\n      swap1\n      swap2\n      swap1\n      swap2\n      pop\n      0x00\n      dup3\n      add\n      mload\n      dup2\n      0x00\n      add\n      exp(0x0100, 0x00)\n      dup2\n      sload\n      dup2\n      0xffffffffffffffffffffffffffffffffffffffff\n      mul\n      not\n      and\n      swap1\n      dup4\n      0xffffffffffffffffffffffffffffffffffffffff\n      and\n      mul\n      or\n      swap1\n      sstore\n      pop\n      0x20\n      dup3\n      add\n      mload\n      dup2\n      0x01\n      add\n      sstore\n      pop\n      pop\n        /* \"Tp2_Auction.sol\":15030:15033  aux */\n      dup1\n        /* \"Tp2_Auction.sol\":15030:15036  aux.id */\n      0x00\n      add\n      mload\n        /* \"Tp2_Auction.sol\":15015:15046  ReturnedAmount(aux.id, aux_val) */\n      0xffffffffffffffffffffffffffffffffffffffff\n      and\n      0x34dba9a7faf77866d1d036eb7444d95a805bcfe05b6e34819e7d44793d3922d1\n        /* \"Tp2_Auction.sol\":15038:15045  aux_val */\n      dup5\n        /* \"Tp2_Auction.sol\":15015:15046  ReturnedAmount(aux.id, aux_val) */\n      mload(0x40)\n      tag_182\n      swap2\n      swap1\n      tag_21\n      jump\t// in\n    tag_182:\n      mload(0x40)\n      dup1\n      swap2\n      sub\n      swap1\n      log2\n        /* \"Tp2_Auction.sol\":14608:15068  {... */\n      pop\n        /* \"Tp2_Auction.sol\":13633:15083  if(uniqueArray[i] != winner.id){... */\n    tag_164:\n        /* \"Tp2_Auction.sol\":13613:13616  i++ */\n      dup1\n      dup1\n      0x01\n      add\n      swap2\n      pop\n      pop\n        /* \"Tp2_Auction.sol\":13572:15094  for (uint i = 0; i < uniqueArray.length; i++) {... */\n      jump(tag_138)\n    tag_139:\n      pop\n        /* \"Tp2_Auction.sol\":13510:15101  {... */\n      pop\n      pop\n        /* \"Tp2_Auction.sol\":13455:15101  function returnOffers() external onlyOwner auctionEnded{... */\n      jump\t// out\n        /* \"Tp2_Auction.sol\":10729:10822  function showWinner() external view returns (Person2 memory) {... */\n    tag_35:\n        /* \"Tp2_Auction.sol\":10774:10788  Person2 memory */\n      tag_183\n      tag_100\n      jump\t// in\n    tag_183:\n        /* \"Tp2_Auction.sol\":10808:10814  winner */\n      0x08\n        /* \"Tp2_Auction.sol\":10801:10814  return winner */\n      mload(0x40)\n      dup1\n      0x40\n      add\n      0x40\n      mstore\n      swap1\n      dup2\n      0x00\n      dup3\n      add\n      0x00\n      swap1\n      sload\n      swap1\n      0x0100\n      exp\n      swap1\n      div\n      0xffffffffffffffffffffffffffffffffffffffff\n      and\n      0xffffffffffffffffffffffffffffffffffffffff\n      and\n      0xffffffffffffffffffffffffffffffffffffffff\n      and\n      dup2\n      mstore\n      0x20\n      add\n      0x01\n      dup3\n      add\n      sload\n      dup2\n      mstore\n      pop\n      pop\n      swap1\n      pop\n        /* \"Tp2_Auction.sol\":10729:10822  function showWinner() external view returns (Person2 memory) {... */\n      swap1\n      jump\t// out\n        /* \"Tp2_Auction.sol\":764:782  State public state */\n    tag_40:\n      0x05\n      0x00\n      swap1\n      sload\n      swap1\n      0x0100\n      exp\n      swap1\n      div\n      0xff\n      and\n      dup2\n      jump\t// out\n        /* \"Tp2_Auction.sol\":13001:13283  function endAuction() external onlyOwner auctionAlive{... */\n    tag_45:\n        /* \"Tp2_Auction.sol\":3719:3729  msg.sender */\n      caller\n        /* \"Tp2_Auction.sol\":3712:3729  owner==msg.sender */\n      0xffffffffffffffffffffffffffffffffffffffff\n      and\n        /* \"Tp2_Auction.sol\":3712:3717  owner */\n      0x00\n      0x00\n      swap1\n      sload\n      swap1\n      0x0100\n      exp\n      swap1\n      div\n      0xffffffffffffffffffffffffffffffffffffffff\n      and\n        /* \"Tp2_Auction.sol\":3712:3729  owner==msg.sender */\n      0xffffffffffffffffffffffffffffffffffffffff\n      and\n      eq\n        /* \"Tp2_Auction.sol\":3704:3747  require(owner==msg.sender, \"not the owner\") */\n      tag_186\n      jumpi\n      mload(0x40)\n      0x08c379a000000000000000000000000000000000000000000000000000000000\n      dup2\n      mstore\n      0x04\n      add\n      tag_187\n      swap1\n      tag_106\n      jump\t// in\n    tag_187:\n      mload(0x40)\n      dup1\n      swap2\n      sub\n      swap1\n      revert\n    tag_186:\n        /* \"Tp2_Auction.sol\":4129:4137  State.on */\n      0x00\n        /* \"Tp2_Auction.sol\":4120:4137  state == State.on */\n      0x01\n      dup2\n      gt\n      iszero\n      tag_189\n      jumpi\n      tag_190\n      tag_49\n      jump\t// in\n    tag_190:\n    tag_189:\n        /* \"Tp2_Auction.sol\":4120:4125  state */\n      0x05\n      0x00\n      swap1\n      sload\n      swap1\n      0x0100\n      exp\n      swap1\n      div\n      0xff\n      and\n        /* \"Tp2_Auction.sol\":4120:4137  state == State.on */\n      0x01\n      dup2\n      gt\n      iszero\n      tag_191\n      jumpi\n      tag_192\n      tag_49\n      jump\t// in\n    tag_192:\n    tag_191:\n      eq\n        /* \"Tp2_Auction.sol\":4112:4162  require(state == State.on,\"auction already ended\") */\n      tag_193\n      jumpi\n      mload(0x40)\n      0x08c379a000000000000000000000000000000000000000000000000000000000\n      dup2\n      mstore\n      0x04\n      add\n      tag_194\n      swap1\n      tag_85\n      jump\t// in\n    tag_194:\n      mload(0x40)\n      dup1\n      swap2\n      sub\n      swap1\n      revert\n    tag_193:\n        /* \"Tp2_Auction.sol\":13087:13097  expiration */\n      sload(0x04)\n        /* \"Tp2_Auction.sol\":13069:13084  block.timestamp */\n      timestamp\n        /* \"Tp2_Auction.sol\":13069:13097  block.timestamp > expiration */\n      gt\n        /* \"Tp2_Auction.sol\":13065:13276  if (block.timestamp > expiration) {... */\n      iszero\n      tag_196\n      jumpi\n        /* \"Tp2_Auction.sol\":13122:13131  State.off */\n      0x01\n        /* \"Tp2_Auction.sol\":13114:13119  state */\n      0x05\n      0x00\n        /* \"Tp2_Auction.sol\":13114:13131  state = State.off */\n      0x0100\n      exp\n      dup2\n      sload\n      dup2\n      0xff\n      mul\n      not\n      and\n      swap1\n      dup4\n      0x01\n      dup2\n      gt\n      iszero\n      tag_197\n      jumpi\n      tag_198\n      tag_49\n      jump\t// in\n    tag_198:\n    tag_197:\n      mul\n      or\n      swap1\n      sstore\n      pop\n        /* \"Tp2_Auction.sol\":13169:13206  AuctionEnded(winner.id, winner.value) */\n      0xdaec4582d5d9595688c8c98545fdd1c696d41c6aeaeb636737e84ed2f5c00eda\n        /* \"Tp2_Auction.sol\":13182:13188  winner */\n      0x08\n        /* \"Tp2_Auction.sol\":13182:13191  winner.id */\n      0x00\n      add\n      0x00\n      swap1\n      sload\n      swap1\n      0x0100\n      exp\n      swap1\n      div\n      0xffffffffffffffffffffffffffffffffffffffff\n      and\n        /* \"Tp2_Auction.sol\":13193:13199  winner */\n      0x08\n        /* \"Tp2_Auction.sol\":13193:13205  winner.value */\n      0x01\n      add\n      sload\n        /* \"Tp2_Auction.sol\":13169:13206  AuctionEnded(winner.id, winner.value) */\n      mload(0x40)\n      tag_199\n      swap3\n      swap2\n      swap1\n      tag_200\n      jump\t// in\n    tag_199:\n      mload(0x40)\n      dup1\n      swap2\n      sub\n      swap1\n      log1\n        /* \"Tp2_Auction.sol\":13065:13276  if (block.timestamp > expiration) {... */\n      jump(tag_201)\n    tag_196:\n        /* \"Tp2_Auction.sol\":13239:13264  revert(\"not expired yet\") */\n      mload(0x40)\n      0x08c379a000000000000000000000000000000000000000000000000000000000\n      dup2\n      mstore\n      0x04\n      add\n      tag_202\n      swap1\n      tag_203\n      jump\t// in\n    tag_202:\n      mload(0x40)\n      dup1\n      swap2\n      sub\n      swap1\n      revert\n        /* \"Tp2_Auction.sol\":13065:13276  if (block.timestamp > expiration) {... */\n    tag_201:\n        /* \"Tp2_Auction.sol\":13001:13283  function endAuction() external onlyOwner auctionAlive{... */\n      jump\t// out\n        /* \"Tp2_Auction.sol\":4976:5102  function updateWinner (address _id, uint256 _value) private {... */\n    tag_65:\n        /* \"Tp2_Auction.sol\":5059:5062  _id */\n      dup2\n        /* \"Tp2_Auction.sol\":5047:5053  winner */\n      0x08\n        /* \"Tp2_Auction.sol\":5047:5056  winner.id */\n      0x00\n      add\n      0x00\n        /* \"Tp2_Auction.sol\":5047:5062  winner.id = _id */\n      0x0100\n      exp\n      dup2\n      sload\n      dup2\n      0xffffffffffffffffffffffffffffffffffffffff\n      mul\n      not\n      and\n      swap1\n      dup4\n      0xffffffffffffffffffffffffffffffffffffffff\n      and\n      mul\n      or\n      swap1\n      sstore\n      pop\n        /* \"Tp2_Auction.sol\":5088:5094  _value */\n      dup1\n        /* \"Tp2_Auction.sol\":5073:5079  winner */\n      0x08\n        /* \"Tp2_Auction.sol\":5073:5085  winner.value */\n      0x01\n      add\n        /* \"Tp2_Auction.sol\":5073:5094  winner.value = _value */\n      dup2\n      swap1\n      sstore\n      pop\n        /* \"Tp2_Auction.sol\":4976:5102  function updateWinner (address _id, uint256 _value) private {... */\n      pop\n      pop\n      jump\t// out\n        /* \"Tp2_Auction.sol\":5315:5554  function updateInfoMApp (address _id, uint256 _value, uint256 _value2) private {... */\n    tag_67:\n        /* \"Tp2_Auction.sol\":5456:5462  _value */\n      dup2\n        /* \"Tp2_Auction.sol\":5434:5442  infoMapp */\n      0x06\n        /* \"Tp2_Auction.sol\":5434:5447  infoMapp[_id] */\n      0x00\n        /* \"Tp2_Auction.sol\":5443:5446  _id */\n      dup6\n        /* \"Tp2_Auction.sol\":5434:5447  infoMapp[_id] */\n      0xffffffffffffffffffffffffffffffffffffffff\n      and\n      0xffffffffffffffffffffffffffffffffffffffff\n      and\n      dup2\n      mstore\n      0x20\n      add\n      swap1\n      dup2\n      mstore\n      0x20\n      add\n      0x00\n      keccak256\n        /* \"Tp2_Auction.sol\":5434:5453  infoMapp[_id].value */\n      0x01\n      add\n        /* \"Tp2_Auction.sol\":5434:5462  infoMapp[_id].value = _value */\n      dup2\n      swap1\n      sstore\n      pop\n        /* \"Tp2_Auction.sol\":5512:5519  _value2 */\n      dup1\n        /* \"Tp2_Auction.sol\":5487:5495  infoMapp */\n      0x06\n        /* \"Tp2_Auction.sol\":5487:5500  infoMapp[_id] */\n      0x00\n        /* \"Tp2_Auction.sol\":5496:5499  _id */\n      dup6\n        /* \"Tp2_Auction.sol\":5487:5500  infoMapp[_id] */\n      0xffffffffffffffffffffffffffffffffffffffff\n      and\n      0xffffffffffffffffffffffffffffffffffffffff\n      and\n      dup2\n      mstore\n      0x20\n      add\n      swap1\n      dup2\n      mstore\n      0x20\n      add\n      0x00\n      keccak256\n        /* \"Tp2_Auction.sol\":5487:5508  infoMapp[_id].balance */\n      0x02\n      add\n      0x00\n        /* \"Tp2_Auction.sol\":5487:5519  infoMapp[_id].balance += _value2 */\n      dup3\n      dup3\n      sload\n      tag_206\n      swap2\n      swap1\n      tag_207\n      jump\t// in\n    tag_206:\n      swap3\n      pop\n      pop\n      dup2\n      swap1\n      sstore\n      pop\n        /* \"Tp2_Auction.sol\":5315:5554  function updateInfoMApp (address _id, uint256 _value, uint256 _value2) private {... */\n      pop\n      pop\n      pop\n      jump\t// out\n        /* \"Tp2_Auction.sol\":5737:5919  function updateInfoArray (address _id, uint256 _value) private {... */\n    tag_69:\n        /* \"Tp2_Auction.sol\":5811:5829  Person2 memory aux */\n      tag_209\n      tag_100\n      jump\t// in\n    tag_209:\n        /* \"Tp2_Auction.sol\":5849:5852  _id */\n      dup3\n        /* \"Tp2_Auction.sol\":5840:5843  aux */\n      dup2\n        /* \"Tp2_Auction.sol\":5840:5846  aux.id */\n      0x00\n      add\n        /* \"Tp2_Auction.sol\":5840:5852  aux.id = _id */\n      swap1\n      0xffffffffffffffffffffffffffffffffffffffff\n      and\n      swap1\n      dup2\n      0xffffffffffffffffffffffffffffffffffffffff\n      and\n      dup2\n      mstore\n      pop\n      pop\n        /* \"Tp2_Auction.sol\":5875:5881  _value */\n      dup2\n        /* \"Tp2_Auction.sol\":5863:5866  aux */\n      dup2\n        /* \"Tp2_Auction.sol\":5863:5872  aux.value */\n      0x20\n      add\n        /* \"Tp2_Auction.sol\":5863:5881  aux.value = _value */\n      dup2\n      dup2\n      mstore\n      pop\n      pop\n        /* \"Tp2_Auction.sol\":5892:5901  infoArray */\n      0x07\n        /* \"Tp2_Auction.sol\":5907:5910  aux */\n      dup2\n        /* \"Tp2_Auction.sol\":5892:5911  infoArray.push(aux) */\n      swap1\n      dup1\n      0x01\n      dup2\n      sload\n      add\n      dup1\n      dup3\n      sstore\n      dup1\n      swap2\n      pop\n      pop\n      0x01\n      swap1\n      sub\n      swap1\n      0x00\n      mstore\n      keccak256(0x00, 0x20)\n      swap1\n      0x02\n      mul\n      add\n      0x00\n      swap1\n      swap2\n      swap1\n      swap2\n      swap1\n      swap2\n      pop\n      0x00\n      dup3\n      add\n      mload\n      dup2\n      0x00\n      add\n      exp(0x0100, 0x00)\n      dup2\n      sload\n      dup2\n      0xffffffffffffffffffffffffffffffffffffffff\n      mul\n      not\n      and\n      swap1\n      dup4\n      0xffffffffffffffffffffffffffffffffffffffff\n      and\n      mul\n      or\n      swap1\n      sstore\n      pop\n      0x20\n      dup3\n      add\n      mload\n      dup2\n      0x01\n      add\n      sstore\n      pop\n      pop\n        /* \"Tp2_Auction.sol\":5800:5919  {... */\n      pop\n        /* \"Tp2_Auction.sol\":5737:5919  function updateInfoArray (address _id, uint256 _value) private {... */\n      pop\n      pop\n      jump\t// out\n        /* \"Tp2_Auction.sol\":6042:6200  function updateExpiration () private {... */\n    tag_71:\n        /* \"Tp2_Auction.sol\":6127:6133  window */\n      sload(0x03)\n        /* \"Tp2_Auction.sol\":6114:6124  expiration */\n      sload(0x04)\n        /* \"Tp2_Auction.sol\":6114:6133  expiration - window */\n      tag_212\n      swap2\n      swap1\n      tag_98\n      jump\t// in\n    tag_212:\n        /* \"Tp2_Auction.sol\":6095:6110  block.timestamp */\n      timestamp\n        /* \"Tp2_Auction.sol\":6095:6133  block.timestamp >= expiration - window */\n      lt\n        /* \"Tp2_Auction.sol\":6091:6183  if (block.timestamp >= expiration - window) {... */\n      tag_213\n      jumpi\n        /* \"Tp2_Auction.sol\":6164:6170  window */\n      sload(0x03)\n        /* \"Tp2_Auction.sol\":6150:6160  expiration */\n      0x04\n      0x00\n        /* \"Tp2_Auction.sol\":6150:6170  expiration += window */\n      dup3\n      dup3\n      sload\n      tag_214\n      swap2\n      swap1\n      tag_207\n      jump\t// in\n    tag_214:\n      swap3\n      pop\n      pop\n      dup2\n      swap1\n      sstore\n      pop\n        /* \"Tp2_Auction.sol\":6091:6183  if (block.timestamp >= expiration - window) {... */\n    tag_213:\n        /* \"Tp2_Auction.sol\":6042:6200  function updateExpiration () private {... */\n      jump\t// out\n        /* \"Tp2_Auction.sol\":9175:9596  function addUnique(address _id) private {   // only add `msg.sender` to `uniqueArray` if it's not there yet... */\n    tag_74:\n        /* \"Tp2_Auction.sol\":9351:9356  false */\n      0x00\n        /* \"Tp2_Auction.sol\":9334:9356  isBidder[_id] == false */\n      iszero\n      iszero\n        /* \"Tp2_Auction.sol\":9334:9342  isBidder */\n      0x0b\n        /* \"Tp2_Auction.sol\":9334:9347  isBidder[_id] */\n      0x00\n        /* \"Tp2_Auction.sol\":9343:9346  _id */\n      dup4\n        /* \"Tp2_Auction.sol\":9334:9347  isBidder[_id] */\n      0xffffffffffffffffffffffffffffffffffffffff\n      and\n      0xffffffffffffffffffffffffffffffffffffffff\n      and\n      dup2\n      mstore\n      0x20\n      add\n      swap1\n      dup2\n      mstore\n      0x20\n      add\n      0x00\n      keccak256\n      0x00\n      swap1\n      sload\n      swap1\n      0x0100\n      exp\n      swap1\n      div\n      0xff\n      and\n        /* \"Tp2_Auction.sol\":9334:9356  isBidder[_id] == false */\n      iszero\n      iszero\n      sub\n        /* \"Tp2_Auction.sol\":9330:9589  if (isBidder[_id] == false) {... */\n      tag_216\n      jumpi\n        /* \"Tp2_Auction.sol\":9423:9434  uniqueArray */\n      0x0a\n        /* \"Tp2_Auction.sol\":9448:9451  _id */\n      dup2\n        /* \"Tp2_Auction.sol\":9423:9453  uniqueArray.push(payable(_id)) */\n      swap1\n      dup1\n      0x01\n      dup2\n      sload\n      add\n      dup1\n      dup3\n      sstore\n      dup1\n      swap2\n      pop\n      pop\n      0x01\n      swap1\n      sub\n      swap1\n      0x00\n      mstore\n      keccak256(0x00, 0x20)\n      add\n      0x00\n      swap1\n      swap2\n      swap1\n      swap2\n      swap1\n      swap2\n      0x0100\n      exp\n      dup2\n      sload\n      dup2\n      0xffffffffffffffffffffffffffffffffffffffff\n      mul\n      not\n      and\n      swap1\n      dup4\n      0xffffffffffffffffffffffffffffffffffffffff\n      and\n      mul\n      or\n      swap1\n      sstore\n      pop\n        /* \"Tp2_Auction.sol\":9573:9577  true */\n      0x01\n        /* \"Tp2_Auction.sol\":9557:9565  isBidder */\n      0x0b\n        /* \"Tp2_Auction.sol\":9557:9570  isBidder[_id] */\n      0x00\n        /* \"Tp2_Auction.sol\":9566:9569  _id */\n      dup4\n        /* \"Tp2_Auction.sol\":9557:9570  isBidder[_id] */\n      0xffffffffffffffffffffffffffffffffffffffff\n      and\n      0xffffffffffffffffffffffffffffffffffffffff\n      and\n      dup2\n      mstore\n      0x20\n      add\n      swap1\n      dup2\n      mstore\n      0x20\n      add\n      0x00\n      keccak256\n      0x00\n        /* \"Tp2_Auction.sol\":9557:9577  isBidder[_id] = true */\n      0x0100\n      exp\n      dup2\n      sload\n      dup2\n      0xff\n      mul\n      not\n      and\n      swap1\n      dup4\n      iszero\n      iszero\n      mul\n      or\n      swap1\n      sstore\n      pop\n        /* \"Tp2_Auction.sol\":9330:9589  if (isBidder[_id] == false) {... */\n    tag_216:\n        /* \"Tp2_Auction.sol\":9175:9596  function addUnique(address _id) private {   // only add `msg.sender` to `uniqueArray` if it's not there yet... */\n      pop\n      jump\t// out\n        /* \"Tp2_Auction.sol\":8286:9018  function returnClaimedEthers(address payable _to) internal returns (bool, uint256) {... */\n    tag_92:\n        /* \"Tp2_Auction.sol\":8354:8358  bool */\n      0x00\n        /* \"Tp2_Auction.sol\":8360:8367  uint256 */\n      0x00\n        /* \"Tp2_Auction.sol\":8410:8418  infoMapp */\n      0x06\n        /* \"Tp2_Auction.sol\":8410:8423  infoMapp[_to] */\n      0x00\n        /* \"Tp2_Auction.sol\":8419:8422  _to */\n      dup5\n        /* \"Tp2_Auction.sol\":8410:8423  infoMapp[_to] */\n      0xffffffffffffffffffffffffffffffffffffffff\n      and\n      0xffffffffffffffffffffffffffffffffffffffff\n      and\n      dup2\n      mstore\n      0x20\n      add\n      swap1\n      dup2\n      mstore\n      0x20\n      add\n      0x00\n      keccak256\n        /* \"Tp2_Auction.sol\":8410:8429  infoMapp[_to].value */\n      0x01\n      add\n      sload\n        /* \"Tp2_Auction.sol\":8386:8394  infoMapp */\n      0x06\n        /* \"Tp2_Auction.sol\":8386:8399  infoMapp[_to] */\n      0x00\n        /* \"Tp2_Auction.sol\":8395:8398  _to */\n      dup6\n        /* \"Tp2_Auction.sol\":8386:8399  infoMapp[_to] */\n      0xffffffffffffffffffffffffffffffffffffffff\n      and\n      0xffffffffffffffffffffffffffffffffffffffff\n      and\n      dup2\n      mstore\n      0x20\n      add\n      swap1\n      dup2\n      mstore\n      0x20\n      add\n      0x00\n      keccak256\n        /* \"Tp2_Auction.sol\":8386:8407  infoMapp[_to].balance */\n      0x02\n      add\n      sload\n        /* \"Tp2_Auction.sol\":8386:8429  infoMapp[_to].balance > infoMapp[_to].value */\n      gt\n        /* \"Tp2_Auction.sol\":8382:9011  if (infoMapp[_to].balance > infoMapp[_to].value) { // value in the mapp is the last valid offer ... */\n      iszero\n      tag_219\n      jumpi\n        /* \"Tp2_Auction.sol\":8505:8521  uint256 aux_val1 */\n      0x00\n        /* \"Tp2_Auction.sol\":8549:8557  infoMapp */\n      0x06\n        /* \"Tp2_Auction.sol\":8549:8562  infoMapp[_to] */\n      0x00\n        /* \"Tp2_Auction.sol\":8558:8561  _to */\n      dup6\n        /* \"Tp2_Auction.sol\":8549:8562  infoMapp[_to] */\n      0xffffffffffffffffffffffffffffffffffffffff\n      and\n      0xffffffffffffffffffffffffffffffffffffffff\n      and\n      dup2\n      mstore\n      0x20\n      add\n      swap1\n      dup2\n      mstore\n      0x20\n      add\n      0x00\n      keccak256\n        /* \"Tp2_Auction.sol\":8549:8568  infoMapp[_to].value */\n      0x01\n      add\n      sload\n        /* \"Tp2_Auction.sol\":8525:8533  infoMapp */\n      0x06\n        /* \"Tp2_Auction.sol\":8525:8538  infoMapp[_to] */\n      0x00\n        /* \"Tp2_Auction.sol\":8534:8537  _to */\n      dup7\n        /* \"Tp2_Auction.sol\":8525:8538  infoMapp[_to] */\n      0xffffffffffffffffffffffffffffffffffffffff\n      and\n      0xffffffffffffffffffffffffffffffffffffffff\n      and\n      dup2\n      mstore\n      0x20\n      add\n      swap1\n      dup2\n      mstore\n      0x20\n      add\n      0x00\n      keccak256\n        /* \"Tp2_Auction.sol\":8525:8546  infoMapp[_to].balance */\n      0x02\n      add\n      sload\n        /* \"Tp2_Auction.sol\":8525:8568  infoMapp[_to].balance - infoMapp[_to].value */\n      tag_220\n      swap2\n      swap1\n      tag_98\n      jump\t// in\n    tag_220:\n        /* \"Tp2_Auction.sol\":8505:8569  uint256 aux_val1 = (infoMapp[_to].balance - infoMapp[_to].value) */\n      swap1\n      pop\n        /* \"Tp2_Auction.sol\":8630:8646  uint256 aux_val2 */\n      0x00\n        /* \"Tp2_Auction.sol\":8666:8669  100 */\n      0x64\n        /* \"Tp2_Auction.sol\":8661:8663  98 */\n      0x62\n        /* \"Tp2_Auction.sol\":8650:8658  aux_val1 */\n      dup4\n        /* \"Tp2_Auction.sol\":8650:8663  aux_val1 * 98 */\n      tag_221\n      swap2\n      swap1\n      tag_57\n      jump\t// in\n    tag_221:\n        /* \"Tp2_Auction.sol\":8650:8669  aux_val1 * 98 / 100 */\n      tag_222\n      swap2\n      swap1\n      tag_59\n      jump\t// in\n    tag_222:\n        /* \"Tp2_Auction.sol\":8630:8670  uint256 aux_val2 = (aux_val1 * 98 / 100) */\n      swap1\n      pop\n        /* \"Tp2_Auction.sol\":8688:8699  bool result */\n      0x00\n        /* \"Tp2_Auction.sol\":8705:8708  _to */\n      dup6\n        /* \"Tp2_Auction.sol\":8705:8713  _to.call */\n      0xffffffffffffffffffffffffffffffffffffffff\n      and\n        /* \"Tp2_Auction.sol\":8719:8723  2300 */\n      0x08fc\n        /* \"Tp2_Auction.sol\":8731:8739  aux_val2 */\n      dup4\n        /* \"Tp2_Auction.sol\":8705:8744  _to.call{gas: 2300, value:aux_val2}(\"\") */\n      mload(0x40)\n      tag_223\n      swap1\n      tag_117\n      jump\t// in\n    tag_223:\n      0x00\n      mload(0x40)\n      dup1\n      dup4\n      sub\n      dup2\n      dup6\n      dup9\n      dup9\n      call\n      swap4\n      pop\n      pop\n      pop\n      pop\n      returndatasize\n      dup1\n      0x00\n      dup2\n      eq\n      tag_226\n      jumpi\n      mload(0x40)\n      swap2\n      pop\n      and(add(returndatasize, 0x3f), not(0x1f))\n      dup3\n      add\n      0x40\n      mstore\n      returndatasize\n      dup3\n      mstore\n      returndatasize\n      0x00\n      0x20\n      dup5\n      add\n      returndatacopy\n      jump(tag_225)\n    tag_226:\n      0x60\n      swap2\n      pop\n    tag_225:\n      pop\n        /* \"Tp2_Auction.sol\":8687:8744  (bool result, ) = _to.call{gas: 2300, value:aux_val2}(\"\") */\n      pop\n      swap1\n      pop\n        /* \"Tp2_Auction.sol\":8776:8781  false */\n      0x00\n        /* \"Tp2_Auction.sol\":8766:8781  result == false */\n      iszero\n      iszero\n        /* \"Tp2_Auction.sol\":8766:8772  result */\n      dup2\n        /* \"Tp2_Auction.sol\":8766:8781  result == false */\n      iszero\n      iszero\n      sub\n        /* \"Tp2_Auction.sol\":8762:8942  if( result == false){   ... */\n      tag_227\n      jumpi\n        /* \"Tp2_Auction.sol\":8815:8816  0 */\n      0x00\n        /* \"Tp2_Auction.sol\":8804:8816  aux_val1 = 0 */\n      swap3\n      pop\n        /* \"Tp2_Auction.sol\":8843:8849  result */\n      dup1\n        /* \"Tp2_Auction.sol\":8851:8859  aux_val1 */\n      dup4\n        /* \"Tp2_Auction.sol\":8835:8860  return (result, aux_val1) */\n      swap5\n      pop\n      swap5\n      pop\n      pop\n      pop\n      pop\n      jump(tag_218)\n        /* \"Tp2_Auction.sol\":8762:8942  if( result == false){   ... */\n    tag_227:\n        /* \"Tp2_Auction.sol\":8909:8915  result */\n      dup1\n        /* \"Tp2_Auction.sol\":8917:8925  aux_val1 */\n      dup4\n        /* \"Tp2_Auction.sol\":8901:8926  return (result, aux_val1) */\n      swap5\n      pop\n      swap5\n      pop\n      pop\n      pop\n      pop\n      jump(tag_218)\n        /* \"Tp2_Auction.sol\":8382:9011  if (infoMapp[_to].balance > infoMapp[_to].value) { // value in the mapp is the last valid offer ... */\n    tag_219:\n        /* \"Tp2_Auction.sol\":8986:8990  true */\n      0x01\n        /* \"Tp2_Auction.sol\":8992:8993  0 */\n      0x00\n        /* \"Tp2_Auction.sol\":8978:8994  return (true, 0) */\n      swap2\n      pop\n      swap2\n      pop\n        /* \"Tp2_Auction.sol\":8286:9018  function returnClaimedEthers(address payable _to) internal returns (bool, uint256) {... */\n    tag_218:\n      swap2\n      pop\n      swap2\n      jump\t// out\n        /* \"Tp2_Auction.sol\":6427:7358  function returnEther(address payable _to) internal returns (bool, uint256) {... */\n    tag_150:\n        /* \"Tp2_Auction.sol\":6487:6491  bool */\n      0x00\n        /* \"Tp2_Auction.sol\":6493:6500  uint256 */\n      0x00\n        /* \"Tp2_Auction.sol\":6901:6917  uint256 aux_val1 */\n      0x00\n        /* \"Tp2_Auction.sol\":6921:6929  infoMapp */\n      0x06\n        /* \"Tp2_Auction.sol\":6921:6934  infoMapp[_to] */\n      0x00\n        /* \"Tp2_Auction.sol\":6930:6933  _to */\n      dup6\n        /* \"Tp2_Auction.sol\":6921:6934  infoMapp[_to] */\n      0xffffffffffffffffffffffffffffffffffffffff\n      and\n      0xffffffffffffffffffffffffffffffffffffffff\n      and\n      dup2\n      mstore\n      0x20\n      add\n      swap1\n      dup2\n      mstore\n      0x20\n      add\n      0x00\n      keccak256\n        /* \"Tp2_Auction.sol\":6921:6942  infoMapp[_to].balance */\n      0x02\n      add\n      sload\n        /* \"Tp2_Auction.sol\":6901:6943  uint256 aux_val1 = (infoMapp[_to].balance) */\n      swap1\n      pop\n        /* \"Tp2_Auction.sol\":6954:6970  uint256 aux_val2 */\n      0x00\n        /* \"Tp2_Auction.sol\":6990:6993  100 */\n      0x64\n        /* \"Tp2_Auction.sol\":6985:6987  98 */\n      0x62\n        /* \"Tp2_Auction.sol\":6974:6982  aux_val1 */\n      dup4\n        /* \"Tp2_Auction.sol\":6974:6987  aux_val1 * 98 */\n      tag_231\n      swap2\n      swap1\n      tag_57\n      jump\t// in\n    tag_231:\n        /* \"Tp2_Auction.sol\":6974:6993  aux_val1 * 98 / 100 */\n      tag_232\n      swap2\n      swap1\n      tag_59\n      jump\t// in\n    tag_232:\n        /* \"Tp2_Auction.sol\":6954:6994  uint256 aux_val2 = (aux_val1 * 98 / 100) */\n      swap1\n      pop\n        /* \"Tp2_Auction.sol\":7008:7019  bool result */\n      0x00\n        /* \"Tp2_Auction.sol\":7025:7028  _to */\n      dup6\n        /* \"Tp2_Auction.sol\":7025:7033  _to.call */\n      0xffffffffffffffffffffffffffffffffffffffff\n      and\n        /* \"Tp2_Auction.sol\":7039:7043  2300 */\n      0x08fc\n        /* \"Tp2_Auction.sol\":7051:7059  aux_val2 */\n      dup4\n        /* \"Tp2_Auction.sol\":7025:7064  _to.call{gas: 2300, value:aux_val2}(\"\") */\n      mload(0x40)\n      tag_233\n      swap1\n      tag_117\n      jump\t// in\n    tag_233:\n      0x00\n      mload(0x40)\n      dup1\n      dup4\n      sub\n      dup2\n      dup6\n      dup9\n      dup9\n      call\n      swap4\n      pop\n      pop\n      pop\n      pop\n      returndatasize\n      dup1\n      0x00\n      dup2\n      eq\n      tag_236\n      jumpi\n      mload(0x40)\n      swap2\n      pop\n      and(add(returndatasize, 0x3f), not(0x1f))\n      dup3\n      add\n      0x40\n      mstore\n      returndatasize\n      dup3\n      mstore\n      returndatasize\n      0x00\n      0x20\n      dup5\n      add\n      returndatacopy\n      jump(tag_235)\n    tag_236:\n      0x60\n      swap2\n      pop\n    tag_235:\n      pop\n        /* \"Tp2_Auction.sol\":7007:7064  (bool result, ) = _to.call{gas: 2300, value:aux_val2}(\"\") */\n      pop\n      swap1\n      pop\n        /* \"Tp2_Auction.sol\":7092:7097  false */\n      0x00\n        /* \"Tp2_Auction.sol\":7082:7097  result == false */\n      iszero\n      iszero\n        /* \"Tp2_Auction.sol\":7082:7088  result */\n      dup2\n        /* \"Tp2_Auction.sol\":7082:7097  result == false */\n      iszero\n      iszero\n      sub\n        /* \"Tp2_Auction.sol\":7078:7351  if( result == false){   // The function does not revert; it returns True/False, so the return value must be checked... */\n      tag_237\n      jumpi\n        /* \"Tp2_Auction.sol\":7218:7219  0 */\n      0x00\n        /* \"Tp2_Auction.sol\":7207:7219  aux_val1 = 0 */\n      swap3\n      pop\n        /* \"Tp2_Auction.sol\":7242:7248  result */\n      dup1\n        /* \"Tp2_Auction.sol\":7250:7258  aux_val1 */\n      dup4\n        /* \"Tp2_Auction.sol\":7234:7259  return (result, aux_val1) */\n      swap5\n      pop\n      swap5\n      pop\n      pop\n      pop\n      pop\n      jump(tag_230)\n        /* \"Tp2_Auction.sol\":7078:7351  if( result == false){   // The function does not revert; it returns True/False, so the return value must be checked... */\n    tag_237:\n        /* \"Tp2_Auction.sol\":7322:7328  result */\n      dup1\n        /* \"Tp2_Auction.sol\":7330:7338  aux_val1 */\n      dup4\n        /* \"Tp2_Auction.sol\":7314:7339  return (result, aux_val1) */\n      swap5\n      pop\n      swap5\n      pop\n      pop\n      pop\n      pop\n        /* \"Tp2_Auction.sol\":6427:7358  function returnEther(address payable _to) internal returns (bool, uint256) {... */\n    tag_230:\n      swap2\n      pop\n      swap2\n      jump\t// out\n        /* \"Tp2_Auction.sol\":7599:8052  function returnEtherWinner(address payable _to) internal returns (bool, uint256) {... */\n    tag_169:\n        /* \"Tp2_Auction.sol\":7665:7669  bool */\n      0x00\n        /* \"Tp2_Auction.sol\":7671:7678  uint256 */\n      0x00\n        /* \"Tp2_Auction.sol\":7693:7709  uint256 aux_val1 */\n      0x00\n        /* \"Tp2_Auction.sol\":7737:7743  winner */\n      0x08\n        /* \"Tp2_Auction.sol\":7737:7749  winner.value */\n      0x01\n      add\n      sload\n        /* \"Tp2_Auction.sol\":7713:7721  infoMapp */\n      0x06\n        /* \"Tp2_Auction.sol\":7713:7726  infoMapp[_to] */\n      0x00\n        /* \"Tp2_Auction.sol\":7722:7725  _to */\n      dup7\n        /* \"Tp2_Auction.sol\":7713:7726  infoMapp[_to] */\n      0xffffffffffffffffffffffffffffffffffffffff\n      and\n      0xffffffffffffffffffffffffffffffffffffffff\n      and\n      dup2\n      mstore\n      0x20\n      add\n      swap1\n      dup2\n      mstore\n      0x20\n      add\n      0x00\n      keccak256\n        /* \"Tp2_Auction.sol\":7713:7734  infoMapp[_to].balance */\n      0x02\n      add\n      sload\n        /* \"Tp2_Auction.sol\":7713:7749  infoMapp[_to].balance - winner.value */\n      tag_240\n      swap2\n      swap1\n      tag_98\n      jump\t// in\n    tag_240:\n        /* \"Tp2_Auction.sol\":7693:7750  uint256 aux_val1 = (infoMapp[_to].balance - winner.value) */\n      swap1\n      pop\n        /* \"Tp2_Auction.sol\":7761:7777  uint256 aux_val2 */\n      0x00\n        /* \"Tp2_Auction.sol\":7797:7800  100 */\n      0x64\n        /* \"Tp2_Auction.sol\":7792:7794  98 */\n      0x62\n        /* \"Tp2_Auction.sol\":7781:7789  aux_val1 */\n      dup4\n        /* \"Tp2_Auction.sol\":7781:7794  aux_val1 * 98 */\n      tag_241\n      swap2\n      swap1\n      tag_57\n      jump\t// in\n    tag_241:\n        /* \"Tp2_Auction.sol\":7781:7800  aux_val1 * 98 / 100 */\n      tag_242\n      swap2\n      swap1\n      tag_59\n      jump\t// in\n    tag_242:\n        /* \"Tp2_Auction.sol\":7761:7801  uint256 aux_val2 = (aux_val1 * 98 / 100) */\n      swap1\n      pop\n        /* \"Tp2_Auction.sol\":7815:7826  bool result */\n      0x00\n        /* \"Tp2_Auction.sol\":7832:7835  _to */\n      dup6\n        /* \"Tp2_Auction.sol\":7832:7840  _to.call */\n      0xffffffffffffffffffffffffffffffffffffffff\n      and\n        /* \"Tp2_Auction.sol\":7846:7850  2300 */\n      0x08fc\n        /* \"Tp2_Auction.sol\":7858:7866  aux_val2 */\n      dup4\n        /* \"Tp2_Auction.sol\":7832:7871  _to.call{gas: 2300, value:aux_val2}(\"\") */\n      mload(0x40)\n      tag_243\n      swap1\n      tag_117\n      jump\t// in\n    tag_243:\n      0x00\n      mload(0x40)\n      dup1\n      dup4\n      sub\n      dup2\n      dup6\n      dup9\n      dup9\n      call\n      swap4\n      pop\n      pop\n      pop\n      pop\n      returndatasize\n      dup1\n      0x00\n      dup2\n      eq\n      tag_246\n      jumpi\n      mload(0x40)\n      swap2\n      pop\n      and(add(returndatasize, 0x3f), not(0x1f))\n      dup3\n      add\n      0x40\n      mstore\n      returndatasize\n      dup3\n      mstore\n      returndatasize\n      0x00\n      0x20\n      dup5\n      add\n      returndatacopy\n      jump(tag_245)\n    tag_246:\n      0x60\n      swap2\n      pop\n    tag_245:\n      pop\n        /* \"Tp2_Auction.sol\":7814:7871  (bool result, ) = _to.call{gas: 2300, value:aux_val2}(\"\") */\n      pop\n      swap1\n      pop\n        /* \"Tp2_Auction.sol\":7899:7904  false */\n      0x00\n        /* \"Tp2_Auction.sol\":7889:7904  result == false */\n      iszero\n      iszero\n        /* \"Tp2_Auction.sol\":7889:7895  result */\n      dup2\n        /* \"Tp2_Auction.sol\":7889:7904  result == false */\n      iszero\n      iszero\n      sub\n        /* \"Tp2_Auction.sol\":7885:8045  if( result == false){   ... */\n      tag_247\n      jumpi\n        /* \"Tp2_Auction.sol\":7934:7935  0 */\n      0x00\n        /* \"Tp2_Auction.sol\":7923:7935  aux_val1 = 0 */\n      swap3\n      pop\n        /* \"Tp2_Auction.sol\":7958:7964  result */\n      dup1\n        /* \"Tp2_Auction.sol\":7966:7974  aux_val1 */\n      dup4\n        /* \"Tp2_Auction.sol\":7950:7975  return (result, aux_val1) */\n      swap5\n      pop\n      swap5\n      pop\n      pop\n      pop\n      pop\n      jump(tag_239)\n        /* \"Tp2_Auction.sol\":7885:8045  if( result == false){   ... */\n    tag_247:\n        /* \"Tp2_Auction.sol\":8016:8022  result */\n      dup1\n        /* \"Tp2_Auction.sol\":8024:8032  aux_val1 */\n      dup4\n        /* \"Tp2_Auction.sol\":8008:8033  return (result, aux_val1) */\n      swap5\n      pop\n      swap5\n      pop\n      pop\n      pop\n      pop\n        /* \"Tp2_Auction.sol\":7599:8052  function returnEtherWinner(address payable _to) internal returns (bool, uint256) {... */\n    tag_239:\n      swap2\n      pop\n      swap2\n      jump\t// out\n    tag_100:\n      mload(0x40)\n      dup1\n      0x40\n      add\n      0x40\n      mstore\n      dup1\n      and(0xffffffffffffffffffffffffffffffffffffffff, 0x00)\n      dup2\n      mstore\n      0x20\n      add\n      0x00\n      dup2\n      mstore\n      pop\n      swap1\n      jump\t// out\n        /* \"#utility.yul\":7:84   */\n    tag_249:\n        /* \"#utility.yul\":44:51   */\n      0x00\n        /* \"#utility.yul\":73:78   */\n      dup2\n        /* \"#utility.yul\":62:78   */\n      swap1\n      pop\n        /* \"#utility.yul\":7:84   */\n      swap2\n      swap1\n      pop\n      jump\t// out\n        /* \"#utility.yul\":90:208   */\n    tag_250:\n        /* \"#utility.yul\":177:201   */\n      tag_295\n        /* \"#utility.yul\":195:200   */\n      dup2\n        /* \"#utility.yul\":177:201   */\n      tag_249\n      jump\t// in\n    tag_295:\n        /* \"#utility.yul\":172:175   */\n      dup3\n        /* \"#utility.yul\":165:202   */\n      mstore\n        /* \"#utility.yul\":90:208   */\n      pop\n      pop\n      jump\t// out\n        /* \"#utility.yul\":214:436   */\n    tag_21:\n        /* \"#utility.yul\":307:311   */\n      0x00\n        /* \"#utility.yul\":345:347   */\n      0x20\n        /* \"#utility.yul\":334:343   */\n      dup3\n        /* \"#utility.yul\":330:348   */\n      add\n        /* \"#utility.yul\":322:348   */\n      swap1\n      pop\n        /* \"#utility.yul\":358:429   */\n      tag_297\n        /* \"#utility.yul\":426:427   */\n      0x00\n        /* \"#utility.yul\":415:424   */\n      dup4\n        /* \"#utility.yul\":411:428   */\n      add\n        /* \"#utility.yul\":402:408   */\n      dup5\n        /* \"#utility.yul\":358:429   */\n      tag_250\n      jump\t// in\n    tag_297:\n        /* \"#utility.yul\":214:436   */\n      swap3\n      swap2\n      pop\n      pop\n      jump\t// out\n        /* \"#utility.yul\":442:579   */\n    tag_251:\n        /* \"#utility.yul\":532:538   */\n      0x00\n        /* \"#utility.yul\":566:571   */\n      dup2\n        /* \"#utility.yul\":560:572   */\n      mload\n        /* \"#utility.yul\":550:572   */\n      swap1\n      pop\n        /* \"#utility.yul\":442:579   */\n      swap2\n      swap1\n      pop\n      jump\t// out\n        /* \"#utility.yul\":585:792   */\n    tag_252:\n        /* \"#utility.yul\":707:718   */\n      0x00\n        /* \"#utility.yul\":741:747   */\n      dup3\n        /* \"#utility.yul\":736:739   */\n      dup3\n        /* \"#utility.yul\":729:748   */\n      mstore\n        /* \"#utility.yul\":781:785   */\n      0x20\n        /* \"#utility.yul\":776:779   */\n      dup3\n        /* \"#utility.yul\":772:786   */\n      add\n        /* \"#utility.yul\":757:786   */\n      swap1\n      pop\n        /* \"#utility.yul\":585:792   */\n      swap3\n      swap2\n      pop\n      pop\n      jump\t// out\n        /* \"#utility.yul\":798:953   */\n    tag_253:\n        /* \"#utility.yul\":888:892   */\n      0x00\n        /* \"#utility.yul\":911:914   */\n      dup2\n        /* \"#utility.yul\":903:914   */\n      swap1\n      pop\n        /* \"#utility.yul\":941:945   */\n      0x20\n        /* \"#utility.yul\":936:939   */\n      dup3\n        /* \"#utility.yul\":932:946   */\n      add\n        /* \"#utility.yul\":924:946   */\n      swap1\n      pop\n        /* \"#utility.yul\":798:953   */\n      swap2\n      swap1\n      pop\n      jump\t// out\n        /* \"#utility.yul\":959:1085   */\n    tag_254:\n        /* \"#utility.yul\":996:1003   */\n      0x00\n        /* \"#utility.yul\":1036:1078   */\n      0xffffffffffffffffffffffffffffffffffffffff\n        /* \"#utility.yul\":1029:1034   */\n      dup3\n        /* \"#utility.yul\":1025:1079   */\n      and\n        /* \"#utility.yul\":1014:1079   */\n      swap1\n      pop\n        /* \"#utility.yul\":959:1085   */\n      swap2\n      swap1\n      pop\n      jump\t// out\n        /* \"#utility.yul\":1091:1187   */\n    tag_255:\n        /* \"#utility.yul\":1128:1135   */\n      0x00\n        /* \"#utility.yul\":1157:1181   */\n      tag_303\n        /* \"#utility.yul\":1175:1180   */\n      dup3\n        /* \"#utility.yul\":1157:1181   */\n      tag_254\n      jump\t// in\n    tag_303:\n        /* \"#utility.yul\":1146:1181   */\n      swap1\n      pop\n        /* \"#utility.yul\":1091:1187   */\n      swap2\n      swap1\n      pop\n      jump\t// out\n        /* \"#utility.yul\":1193:1301   */\n    tag_256:\n        /* \"#utility.yul\":1270:1294   */\n      tag_305\n        /* \"#utility.yul\":1288:1293   */\n      dup2\n        /* \"#utility.yul\":1270:1294   */\n      tag_255\n      jump\t// in\n    tag_305:\n        /* \"#utility.yul\":1265:1268   */\n      dup3\n        /* \"#utility.yul\":1258:1295   */\n      mstore\n        /* \"#utility.yul\":1193:1301   */\n      pop\n      pop\n      jump\t// out\n        /* \"#utility.yul\":1307:1415   */\n    tag_257:\n        /* \"#utility.yul\":1384:1408   */\n      tag_307\n        /* \"#utility.yul\":1402:1407   */\n      dup2\n        /* \"#utility.yul\":1384:1408   */\n      tag_249\n      jump\t// in\n    tag_307:\n        /* \"#utility.yul\":1379:1382   */\n      dup3\n        /* \"#utility.yul\":1372:1409   */\n      mstore\n        /* \"#utility.yul\":1307:1415   */\n      pop\n      pop\n      jump\t// out\n        /* \"#utility.yul\":1485:1977   */\n    tag_258:\n        /* \"#utility.yul\":1618:1622   */\n      0x40\n        /* \"#utility.yul\":1613:1616   */\n      dup3\n        /* \"#utility.yul\":1609:1623   */\n      add\n        /* \"#utility.yul\":1703:1707   */\n      0x00\n        /* \"#utility.yul\":1696:1701   */\n      dup3\n        /* \"#utility.yul\":1692:1708   */\n      add\n        /* \"#utility.yul\":1686:1709   */\n      mload\n        /* \"#utility.yul\":1722:1785   */\n      tag_309\n        /* \"#utility.yul\":1779:1783   */\n      0x00\n        /* \"#utility.yul\":1774:1777   */\n      dup6\n        /* \"#utility.yul\":1770:1784   */\n      add\n        /* \"#utility.yul\":1756:1768   */\n      dup3\n        /* \"#utility.yul\":1722:1785   */\n      tag_256\n      jump\t// in\n    tag_309:\n        /* \"#utility.yul\":1633:1795   */\n      pop\n        /* \"#utility.yul\":1878:1882   */\n      0x20\n        /* \"#utility.yul\":1871:1876   */\n      dup3\n        /* \"#utility.yul\":1867:1883   */\n      add\n        /* \"#utility.yul\":1861:1884   */\n      mload\n        /* \"#utility.yul\":1897:1960   */\n      tag_310\n        /* \"#utility.yul\":1954:1958   */\n      0x20\n        /* \"#utility.yul\":1949:1952   */\n      dup6\n        /* \"#utility.yul\":1945:1959   */\n      add\n        /* \"#utility.yul\":1931:1943   */\n      dup3\n        /* \"#utility.yul\":1897:1960   */\n      tag_257\n      jump\t// in\n    tag_310:\n        /* \"#utility.yul\":1805:1970   */\n      pop\n        /* \"#utility.yul\":1587:1977   */\n      pop\n        /* \"#utility.yul\":1485:1977   */\n      pop\n      pop\n      jump\t// out\n        /* \"#utility.yul\":1983:2254   */\n    tag_259:\n        /* \"#utility.yul\":2098:2108   */\n      0x00\n        /* \"#utility.yul\":2119:2211   */\n      tag_312\n        /* \"#utility.yul\":2207:2210   */\n      dup4\n        /* \"#utility.yul\":2199:2205   */\n      dup4\n        /* \"#utility.yul\":2119:2211   */\n      tag_258\n      jump\t// in\n    tag_312:\n        /* \"#utility.yul\":2243:2247   */\n      0x40\n        /* \"#utility.yul\":2238:2241   */\n      dup4\n        /* \"#utility.yul\":2234:2248   */\n      add\n        /* \"#utility.yul\":2220:2248   */\n      swap1\n      pop\n        /* \"#utility.yul\":1983:2254   */\n      swap3\n      swap2\n      pop\n      pop\n      jump\t// out\n        /* \"#utility.yul\":2260:2396   */\n    tag_260:\n        /* \"#utility.yul\":2353:2357   */\n      0x00\n        /* \"#utility.yul\":2385:2389   */\n      0x20\n        /* \"#utility.yul\":2380:2383   */\n      dup3\n        /* \"#utility.yul\":2376:2390   */\n      add\n        /* \"#utility.yul\":2368:2390   */\n      swap1\n      pop\n        /* \"#utility.yul\":2260:2396   */\n      swap2\n      swap1\n      pop\n      jump\t// out\n        /* \"#utility.yul\":2470:3386   */\n    tag_261:\n        /* \"#utility.yul\":2635:2638   */\n      0x00\n        /* \"#utility.yul\":2664:2741   */\n      tag_315\n        /* \"#utility.yul\":2735:2740   */\n      dup3\n        /* \"#utility.yul\":2664:2741   */\n      tag_251\n      jump\t// in\n    tag_315:\n        /* \"#utility.yul\":2757:2866   */\n      tag_316\n        /* \"#utility.yul\":2859:2865   */\n      dup2\n        /* \"#utility.yul\":2854:2857   */\n      dup6\n        /* \"#utility.yul\":2757:2866   */\n      tag_252\n      jump\t// in\n    tag_316:\n        /* \"#utility.yul\":2750:2866   */\n      swap4\n      pop\n        /* \"#utility.yul\":2890:2969   */\n      tag_317\n        /* \"#utility.yul\":2963:2968   */\n      dup4\n        /* \"#utility.yul\":2890:2969   */\n      tag_253\n      jump\t// in\n    tag_317:\n        /* \"#utility.yul\":2992:2999   */\n      dup1\n        /* \"#utility.yul\":3023:3024   */\n      0x00\n        /* \"#utility.yul\":3008:3361   */\n    tag_318:\n        /* \"#utility.yul\":3033:3039   */\n      dup4\n        /* \"#utility.yul\":3030:3031   */\n      dup2\n        /* \"#utility.yul\":3027:3040   */\n      lt\n        /* \"#utility.yul\":3008:3361   */\n      iszero\n      tag_320\n      jumpi\n        /* \"#utility.yul\":3109:3115   */\n      dup2\n        /* \"#utility.yul\":3103:3116   */\n      mload\n        /* \"#utility.yul\":3136:3245   */\n      tag_321\n        /* \"#utility.yul\":3241:3244   */\n      dup9\n        /* \"#utility.yul\":3226:3239   */\n      dup3\n        /* \"#utility.yul\":3136:3245   */\n      tag_259\n      jump\t// in\n    tag_321:\n        /* \"#utility.yul\":3129:3245   */\n      swap8\n      pop\n        /* \"#utility.yul\":3268:3351   */\n      tag_322\n        /* \"#utility.yul\":3344:3350   */\n      dup4\n        /* \"#utility.yul\":3268:3351   */\n      tag_260\n      jump\t// in\n    tag_322:\n        /* \"#utility.yul\":3258:3351   */\n      swap3\n      pop\n        /* \"#utility.yul\":3068:3361   */\n      pop\n        /* \"#utility.yul\":3055:3056   */\n      0x01\n        /* \"#utility.yul\":3052:3053   */\n      dup2\n        /* \"#utility.yul\":3048:3057   */\n      add\n        /* \"#utility.yul\":3043:3057   */\n      swap1\n      pop\n        /* \"#utility.yul\":3008:3361   */\n      jump(tag_318)\n    tag_320:\n        /* \"#utility.yul\":3012:3026   */\n      pop\n        /* \"#utility.yul\":3377:3380   */\n      dup6\n        /* \"#utility.yul\":3370:3380   */\n      swap4\n      pop\n        /* \"#utility.yul\":2640:3386   */\n      pop\n      pop\n      pop\n        /* \"#utility.yul\":2470:3386   */\n      swap3\n      swap2\n      pop\n      pop\n      jump\t// out\n        /* \"#utility.yul\":3392:3857   */\n    tag_29:\n        /* \"#utility.yul\":3581:3585   */\n      0x00\n        /* \"#utility.yul\":3619:3621   */\n      0x20\n        /* \"#utility.yul\":3608:3617   */\n      dup3\n        /* \"#utility.yul\":3604:3622   */\n      add\n        /* \"#utility.yul\":3596:3622   */\n      swap1\n      pop\n        /* \"#utility.yul\":3668:3677   */\n      dup2\n        /* \"#utility.yul\":3662:3666   */\n      dup2\n        /* \"#utility.yul\":3658:3678   */\n      sub\n        /* \"#utility.yul\":3654:3655   */\n      0x00\n        /* \"#utility.yul\":3643:3652   */\n      dup4\n        /* \"#utility.yul\":3639:3656   */\n      add\n        /* \"#utility.yul\":3632:3679   */\n      mstore\n        /* \"#utility.yul\":3696:3850   */\n      tag_324\n        /* \"#utility.yul\":3845:3849   */\n      dup2\n        /* \"#utility.yul\":3836:3842   */\n      dup5\n        /* \"#utility.yul\":3696:3850   */\n      tag_261\n      jump\t// in\n    tag_324:\n        /* \"#utility.yul\":3688:3850   */\n      swap1\n      pop\n        /* \"#utility.yul\":3392:3857   */\n      swap3\n      swap2\n      pop\n      pop\n      jump\t// out\n        /* \"#utility.yul\":3927:4429   */\n    tag_262:\n        /* \"#utility.yul\":4070:4074   */\n      0x40\n        /* \"#utility.yul\":4065:4068   */\n      dup3\n        /* \"#utility.yul\":4061:4075   */\n      add\n        /* \"#utility.yul\":4155:4159   */\n      0x00\n        /* \"#utility.yul\":4148:4153   */\n      dup3\n        /* \"#utility.yul\":4144:4160   */\n      add\n        /* \"#utility.yul\":4138:4161   */\n      mload\n        /* \"#utility.yul\":4174:4237   */\n      tag_326\n        /* \"#utility.yul\":4231:4235   */\n      0x00\n        /* \"#utility.yul\":4226:4229   */\n      dup6\n        /* \"#utility.yul\":4222:4236   */\n      add\n        /* \"#utility.yul\":4208:4220   */\n      dup3\n        /* \"#utility.yul\":4174:4237   */\n      tag_256\n      jump\t// in\n    tag_326:\n        /* \"#utility.yul\":4085:4247   */\n      pop\n        /* \"#utility.yul\":4330:4334   */\n      0x20\n        /* \"#utility.yul\":4323:4328   */\n      dup3\n        /* \"#utility.yul\":4319:4335   */\n      add\n        /* \"#utility.yul\":4313:4336   */\n      mload\n        /* \"#utility.yul\":4349:4412   */\n      tag_327\n        /* \"#utility.yul\":4406:4410   */\n      0x20\n        /* \"#utility.yul\":4401:4404   */\n      dup6\n        /* \"#utility.yul\":4397:4411   */\n      add\n        /* \"#utility.yul\":4383:4395   */\n      dup3\n        /* \"#utility.yul\":4349:4412   */\n      tag_257\n      jump\t// in\n    tag_327:\n        /* \"#utility.yul\":4257:4422   */\n      pop\n        /* \"#utility.yul\":4039:4429   */\n      pop\n        /* \"#utility.yul\":3927:4429   */\n      pop\n      pop\n      jump\t// out\n        /* \"#utility.yul\":4435:4749   */\n    tag_37:\n        /* \"#utility.yul\":4574:4578   */\n      0x00\n        /* \"#utility.yul\":4612:4614   */\n      0x40\n        /* \"#utility.yul\":4601:4610   */\n      dup3\n        /* \"#utility.yul\":4597:4615   */\n      add\n        /* \"#utility.yul\":4589:4615   */\n      swap1\n      pop\n        /* \"#utility.yul\":4625:4742   */\n      tag_329\n        /* \"#utility.yul\":4739:4740   */\n      0x00\n        /* \"#utility.yul\":4728:4737   */\n      dup4\n        /* \"#utility.yul\":4724:4741   */\n      add\n        /* \"#utility.yul\":4715:4721   */\n      dup5\n        /* \"#utility.yul\":4625:4742   */\n      tag_262\n      jump\t// in\n    tag_329:\n        /* \"#utility.yul\":4435:4749   */\n      swap3\n      swap2\n      pop\n      pop\n      jump\t// out\n        /* \"#utility.yul\":4755:4935   */\n    tag_49:\n        /* \"#utility.yul\":4803:4880   */\n      0x4e487b7100000000000000000000000000000000000000000000000000000000\n        /* \"#utility.yul\":4800:4801   */\n      0x00\n        /* \"#utility.yul\":4793:4881   */\n      mstore\n        /* \"#utility.yul\":4900:4904   */\n      0x21\n        /* \"#utility.yul\":4897:4898   */\n      0x04\n        /* \"#utility.yul\":4890:4905   */\n      mstore\n        /* \"#utility.yul\":4924:4928   */\n      0x24\n        /* \"#utility.yul\":4921:4922   */\n      0x00\n        /* \"#utility.yul\":4914:4929   */\n      revert\n        /* \"#utility.yul\":4941:5054   */\n    tag_263:\n        /* \"#utility.yul\":5022:5023   */\n      0x02\n        /* \"#utility.yul\":5015:5020   */\n      dup2\n        /* \"#utility.yul\":5012:5024   */\n      lt\n        /* \"#utility.yul\":5002:5048   */\n      tag_332\n      jumpi\n        /* \"#utility.yul\":5028:5046   */\n      tag_333\n      tag_49\n      jump\t// in\n    tag_333:\n        /* \"#utility.yul\":5002:5048   */\n    tag_332:\n        /* \"#utility.yul\":4941:5054   */\n      pop\n      jump\t// out\n        /* \"#utility.yul\":5060:5187   */\n    tag_264:\n        /* \"#utility.yul\":5105:5112   */\n      0x00\n        /* \"#utility.yul\":5134:5139   */\n      dup2\n        /* \"#utility.yul\":5123:5139   */\n      swap1\n      pop\n        /* \"#utility.yul\":5140:5181   */\n      tag_335\n        /* \"#utility.yul\":5175:5180   */\n      dup3\n        /* \"#utility.yul\":5140:5181   */\n      tag_263\n      jump\t// in\n    tag_335:\n        /* \"#utility.yul\":5060:5187   */\n      swap2\n      swap1\n      pop\n      jump\t// out\n        /* \"#utility.yul\":5193:5320   */\n    tag_265:\n        /* \"#utility.yul\":5249:5258   */\n      0x00\n        /* \"#utility.yul\":5282:5314   */\n      tag_337\n        /* \"#utility.yul\":5308:5313   */\n      dup3\n        /* \"#utility.yul\":5282:5314   */\n      tag_264\n      jump\t// in\n    tag_337:\n        /* \"#utility.yul\":5269:5314   */\n      swap1\n      pop\n        /* \"#utility.yul\":5193:5320   */\n      swap2\n      swap1\n      pop\n      jump\t// out\n        /* \"#utility.yul\":5326:5469   */\n    tag_266:\n        /* \"#utility.yul\":5419:5462   */\n      tag_339\n        /* \"#utility.yul\":5456:5461   */\n      dup2\n        /* \"#utility.yul\":5419:5462   */\n      tag_265\n      jump\t// in\n    tag_339:\n        /* \"#utility.yul\":5414:5417   */\n      dup3\n        /* \"#utility.yul\":5407:5463   */\n      mstore\n        /* \"#utility.yul\":5326:5469   */\n      pop\n      pop\n      jump\t// out\n        /* \"#utility.yul\":5475:5709   */\n    tag_42:\n        /* \"#utility.yul\":5574:5578   */\n      0x00\n        /* \"#utility.yul\":5612:5614   */\n      0x20\n        /* \"#utility.yul\":5601:5610   */\n      dup3\n        /* \"#utility.yul\":5597:5615   */\n      add\n        /* \"#utility.yul\":5589:5615   */\n      swap1\n      pop\n        /* \"#utility.yul\":5625:5702   */\n      tag_341\n        /* \"#utility.yul\":5699:5700   */\n      0x00\n        /* \"#utility.yul\":5688:5697   */\n      dup4\n        /* \"#utility.yul\":5684:5701   */\n      add\n        /* \"#utility.yul\":5675:5681   */\n      dup5\n        /* \"#utility.yul\":5625:5702   */\n      tag_266\n      jump\t// in\n    tag_341:\n        /* \"#utility.yul\":5475:5709   */\n      swap3\n      swap2\n      pop\n      pop\n      jump\t// out\n        /* \"#utility.yul\":5715:5884   */\n    tag_267:\n        /* \"#utility.yul\":5799:5810   */\n      0x00\n        /* \"#utility.yul\":5833:5839   */\n      dup3\n        /* \"#utility.yul\":5828:5831   */\n      dup3\n        /* \"#utility.yul\":5821:5840   */\n      mstore\n        /* \"#utility.yul\":5873:5877   */\n      0x20\n        /* \"#utility.yul\":5868:5871   */\n      dup3\n        /* \"#utility.yul\":5864:5878   */\n      add\n        /* \"#utility.yul\":5849:5878   */\n      swap1\n      pop\n        /* \"#utility.yul\":5715:5884   */\n      swap3\n      swap2\n      pop\n      pop\n      jump\t// out\n        /* \"#utility.yul\":5890:6058   */\n    tag_268:\n        /* \"#utility.yul\":6030:6050   */\n      0x696e76616c6964206f666665722074696d650000000000000000000000000000\n        /* \"#utility.yul\":6026:6027   */\n      0x00\n        /* \"#utility.yul\":6018:6024   */\n      dup3\n        /* \"#utility.yul\":6014:6028   */\n      add\n        /* \"#utility.yul\":6007:6051   */\n      mstore\n        /* \"#utility.yul\":5890:6058   */\n      pop\n      jump\t// out\n        /* \"#utility.yul\":6064:6430   */\n    tag_269:\n        /* \"#utility.yul\":6206:6209   */\n      0x00\n        /* \"#utility.yul\":6227:6294   */\n      tag_345\n        /* \"#utility.yul\":6291:6293   */\n      0x12\n        /* \"#utility.yul\":6286:6289   */\n      dup4\n        /* \"#utility.yul\":6227:6294   */\n      tag_267\n      jump\t// in\n    tag_345:\n        /* \"#utility.yul\":6220:6294   */\n      swap2\n      pop\n        /* \"#utility.yul\":6303:6396   */\n      tag_346\n        /* \"#utility.yul\":6392:6395   */\n      dup3\n        /* \"#utility.yul\":6303:6396   */\n      tag_268\n      jump\t// in\n    tag_346:\n        /* \"#utility.yul\":6421:6423   */\n      0x20\n        /* \"#utility.yul\":6416:6419   */\n      dup3\n        /* \"#utility.yul\":6412:6424   */\n      add\n        /* \"#utility.yul\":6405:6424   */\n      swap1\n      pop\n        /* \"#utility.yul\":6064:6430   */\n      swap2\n      swap1\n      pop\n      jump\t// out\n        /* \"#utility.yul\":6436:6855   */\n    tag_55:\n        /* \"#utility.yul\":6602:6606   */\n      0x00\n        /* \"#utility.yul\":6640:6642   */\n      0x20\n        /* \"#utility.yul\":6629:6638   */\n      dup3\n        /* \"#utility.yul\":6625:6643   */\n      add\n        /* \"#utility.yul\":6617:6643   */\n      swap1\n      pop\n        /* \"#utility.yul\":6689:6698   */\n      dup2\n        /* \"#utility.yul\":6683:6687   */\n      dup2\n        /* \"#utility.yul\":6679:6699   */\n      sub\n        /* \"#utility.yul\":6675:6676   */\n      0x00\n        /* \"#utility.yul\":6664:6673   */\n      dup4\n        /* \"#utility.yul\":6660:6677   */\n      add\n        /* \"#utility.yul\":6653:6700   */\n      mstore\n        /* \"#utility.yul\":6717:6848   */\n      tag_348\n        /* \"#utility.yul\":6843:6847   */\n      dup2\n        /* \"#utility.yul\":6717:6848   */\n      tag_269\n      jump\t// in\n    tag_348:\n        /* \"#utility.yul\":6709:6848   */\n      swap1\n      pop\n        /* \"#utility.yul\":6436:6855   */\n      swap2\n      swap1\n      pop\n      jump\t// out\n        /* \"#utility.yul\":6861:7041   */\n    tag_270:\n        /* \"#utility.yul\":6909:6986   */\n      0x4e487b7100000000000000000000000000000000000000000000000000000000\n        /* \"#utility.yul\":6906:6907   */\n      0x00\n        /* \"#utility.yul\":6899:6987   */\n      mstore\n        /* \"#utility.yul\":7006:7010   */\n      0x11\n        /* \"#utility.yul\":7003:7004   */\n      0x04\n        /* \"#utility.yul\":6996:7011   */\n      mstore\n        /* \"#utility.yul\":7030:7034   */\n      0x24\n        /* \"#utility.yul\":7027:7028   */\n      0x00\n        /* \"#utility.yul\":7020:7035   */\n      revert\n        /* \"#utility.yul\":7047:7457   */\n    tag_57:\n        /* \"#utility.yul\":7087:7094   */\n      0x00\n        /* \"#utility.yul\":7110:7130   */\n      tag_351\n        /* \"#utility.yul\":7128:7129   */\n      dup3\n        /* \"#utility.yul\":7110:7130   */\n      tag_249\n      jump\t// in\n    tag_351:\n        /* \"#utility.yul\":7105:7130   */\n      swap2\n      pop\n        /* \"#utility.yul\":7144:7164   */\n      tag_352\n        /* \"#utility.yul\":7162:7163   */\n      dup4\n        /* \"#utility.yul\":7144:7164   */\n      tag_249\n      jump\t// in\n    tag_352:\n        /* \"#utility.yul\":7139:7164   */\n      swap3\n      pop\n        /* \"#utility.yul\":7199:7200   */\n      dup3\n        /* \"#utility.yul\":7196:7197   */\n      dup3\n        /* \"#utility.yul\":7192:7201   */\n      mul\n        /* \"#utility.yul\":7221:7251   */\n      tag_353\n        /* \"#utility.yul\":7239:7250   */\n      dup2\n        /* \"#utility.yul\":7221:7251   */\n      tag_249\n      jump\t// in\n    tag_353:\n        /* \"#utility.yul\":7210:7251   */\n      swap2\n      pop\n        /* \"#utility.yul\":7400:7401   */\n      dup3\n        /* \"#utility.yul\":7391:7398   */\n      dup3\n        /* \"#utility.yul\":7387:7402   */\n      div\n        /* \"#utility.yul\":7384:7385   */\n      dup5\n        /* \"#utility.yul\":7381:7403   */\n      eq\n        /* \"#utility.yul\":7361:7362   */\n      dup4\n        /* \"#utility.yul\":7354:7363   */\n      iszero\n        /* \"#utility.yul\":7334:7417   */\n      or\n        /* \"#utility.yul\":7311:7450   */\n      tag_354\n      jumpi\n        /* \"#utility.yul\":7430:7448   */\n      tag_355\n      tag_270\n      jump\t// in\n    tag_355:\n        /* \"#utility.yul\":7311:7450   */\n    tag_354:\n        /* \"#utility.yul\":7095:7457   */\n      pop\n        /* \"#utility.yul\":7047:7457   */\n      swap3\n      swap2\n      pop\n      pop\n      jump\t// out\n        /* \"#utility.yul\":7463:7643   */\n    tag_271:\n        /* \"#utility.yul\":7511:7588   */\n      0x4e487b7100000000000000000000000000000000000000000000000000000000\n        /* \"#utility.yul\":7508:7509   */\n      0x00\n        /* \"#utility.yul\":7501:7589   */\n      mstore\n        /* \"#utility.yul\":7608:7612   */\n      0x12\n        /* \"#utility.yul\":7605:7606   */\n      0x04\n        /* \"#utility.yul\":7598:7613   */\n      mstore\n        /* \"#utility.yul\":7632:7636   */\n      0x24\n        /* \"#utility.yul\":7629:7630   */\n      0x00\n        /* \"#utility.yul\":7622:7637   */\n      revert\n        /* \"#utility.yul\":7649:7834   */\n    tag_59:\n        /* \"#utility.yul\":7689:7690   */\n      0x00\n        /* \"#utility.yul\":7706:7726   */\n      tag_358\n        /* \"#utility.yul\":7724:7725   */\n      dup3\n        /* \"#utility.yul\":7706:7726   */\n      tag_249\n      jump\t// in\n    tag_358:\n        /* \"#utility.yul\":7701:7726   */\n      swap2\n      pop\n        /* \"#utility.yul\":7740:7760   */\n      tag_359\n        /* \"#utility.yul\":7758:7759   */\n      dup4\n        /* \"#utility.yul\":7740:7760   */\n      tag_249\n      jump\t// in\n    tag_359:\n        /* \"#utility.yul\":7735:7760   */\n      swap3\n      pop\n        /* \"#utility.yul\":7779:7780   */\n      dup3\n        /* \"#utility.yul\":7769:7804   */\n      tag_360\n      jumpi\n        /* \"#utility.yul\":7784:7802   */\n      tag_361\n      tag_271\n      jump\t// in\n    tag_361:\n        /* \"#utility.yul\":7769:7804   */\n    tag_360:\n        /* \"#utility.yul\":7826:7827   */\n      dup3\n        /* \"#utility.yul\":7823:7824   */\n      dup3\n        /* \"#utility.yul\":7819:7828   */\n      div\n        /* \"#utility.yul\":7814:7828   */\n      swap1\n      pop\n        /* \"#utility.yul\":7649:7834   */\n      swap3\n      swap2\n      pop\n      pop\n      jump\t// out\n        /* \"#utility.yul\":7840:8009   */\n    tag_272:\n        /* \"#utility.yul\":7980:8001   */\n      0x696e76616c6964206f666665722076616c756500000000000000000000000000\n        /* \"#utility.yul\":7976:7977   */\n      0x00\n        /* \"#utility.yul\":7968:7974   */\n      dup3\n        /* \"#utility.yul\":7964:7978   */\n      add\n        /* \"#utility.yul\":7957:8002   */\n      mstore\n        /* \"#utility.yul\":7840:8009   */\n      pop\n      jump\t// out\n        /* \"#utility.yul\":8015:8381   */\n    tag_273:\n        /* \"#utility.yul\":8157:8160   */\n      0x00\n        /* \"#utility.yul\":8178:8245   */\n      tag_364\n        /* \"#utility.yul\":8242:8244   */\n      0x13\n        /* \"#utility.yul\":8237:8240   */\n      dup4\n        /* \"#utility.yul\":8178:8245   */\n      tag_267\n      jump\t// in\n    tag_364:\n        /* \"#utility.yul\":8171:8245   */\n      swap2\n      pop\n        /* \"#utility.yul\":8254:8347   */\n      tag_365\n        /* \"#utility.yul\":8343:8346   */\n      dup3\n        /* \"#utility.yul\":8254:8347   */\n      tag_272\n      jump\t// in\n    tag_365:\n        /* \"#utility.yul\":8372:8374   */\n      0x20\n        /* \"#utility.yul\":8367:8370   */\n      dup3\n        /* \"#utility.yul\":8363:8375   */\n      add\n        /* \"#utility.yul\":8356:8375   */\n      swap1\n      pop\n        /* \"#utility.yul\":8015:8381   */\n      swap2\n      swap1\n      pop\n      jump\t// out\n        /* \"#utility.yul\":8387:8806   */\n    tag_62:\n        /* \"#utility.yul\":8553:8557   */\n      0x00\n        /* \"#utility.yul\":8591:8593   */\n      0x20\n        /* \"#utility.yul\":8580:8589   */\n      dup3\n        /* \"#utility.yul\":8576:8594   */\n      add\n        /* \"#utility.yul\":8568:8594   */\n      swap1\n      pop\n        /* \"#utility.yul\":8640:8649   */\n      dup2\n        /* \"#utility.yul\":8634:8638   */\n      dup2\n        /* \"#utility.yul\":8630:8650   */\n      sub\n        /* \"#utility.yul\":8626:8627   */\n      0x00\n        /* \"#utility.yul\":8615:8624   */\n      dup4\n        /* \"#utility.yul\":8611:8628   */\n      add\n        /* \"#utility.yul\":8604:8651   */\n      mstore\n        /* \"#utility.yul\":8668:8799   */\n      tag_367\n        /* \"#utility.yul\":8794:8798   */\n      dup2\n        /* \"#utility.yul\":8668:8799   */\n      tag_273\n      jump\t// in\n    tag_367:\n        /* \"#utility.yul\":8660:8799   */\n      swap1\n      pop\n        /* \"#utility.yul\":8387:8806   */\n      swap2\n      swap1\n      pop\n      jump\t// out\n        /* \"#utility.yul\":8812:8975   */\n    tag_274:\n        /* \"#utility.yul\":8952:8967   */\n      0x41756374696f6e20456e64656400000000000000000000000000000000000000\n        /* \"#utility.yul\":8948:8949   */\n      0x00\n        /* \"#utility.yul\":8940:8946   */\n      dup3\n        /* \"#utility.yul\":8936:8950   */\n      add\n        /* \"#utility.yul\":8929:8968   */\n      mstore\n        /* \"#utility.yul\":8812:8975   */\n      pop\n      jump\t// out\n        /* \"#utility.yul\":8981:9347   */\n    tag_275:\n        /* \"#utility.yul\":9123:9126   */\n      0x00\n        /* \"#utility.yul\":9144:9211   */\n      tag_370\n        /* \"#utility.yul\":9208:9210   */\n      0x0d\n        /* \"#utility.yul\":9203:9206   */\n      dup4\n        /* \"#utility.yul\":9144:9211   */\n      tag_267\n      jump\t// in\n    tag_370:\n        /* \"#utility.yul\":9137:9211   */\n      swap2\n      pop\n        /* \"#utility.yul\":9220:9313   */\n      tag_371\n        /* \"#utility.yul\":9309:9312   */\n      dup3\n        /* \"#utility.yul\":9220:9313   */\n      tag_274\n      jump\t// in\n    tag_371:\n        /* \"#utility.yul\":9338:9340   */\n      0x20\n        /* \"#utility.yul\":9333:9336   */\n      dup3\n        /* \"#utility.yul\":9329:9341   */\n      add\n        /* \"#utility.yul\":9322:9341   */\n      swap1\n      pop\n        /* \"#utility.yul\":8981:9347   */\n      swap2\n      swap1\n      pop\n      jump\t// out\n        /* \"#utility.yul\":9353:9772   */\n    tag_77:\n        /* \"#utility.yul\":9519:9523   */\n      0x00\n        /* \"#utility.yul\":9557:9559   */\n      0x20\n        /* \"#utility.yul\":9546:9555   */\n      dup3\n        /* \"#utility.yul\":9542:9560   */\n      add\n        /* \"#utility.yul\":9534:9560   */\n      swap1\n      pop\n        /* \"#utility.yul\":9606:9615   */\n      dup2\n        /* \"#utility.yul\":9600:9604   */\n      dup2\n        /* \"#utility.yul\":9596:9616   */\n      sub\n        /* \"#utility.yul\":9592:9593   */\n      0x00\n        /* \"#utility.yul\":9581:9590   */\n      dup4\n        /* \"#utility.yul\":9577:9594   */\n      add\n        /* \"#utility.yul\":9570:9617   */\n      mstore\n        /* \"#utility.yul\":9634:9765   */\n      tag_373\n        /* \"#utility.yul\":9760:9764   */\n      dup2\n        /* \"#utility.yul\":9634:9765   */\n      tag_275\n      jump\t// in\n    tag_373:\n        /* \"#utility.yul\":9626:9765   */\n      swap1\n      pop\n        /* \"#utility.yul\":9353:9772   */\n      swap2\n      swap1\n      pop\n      jump\t// out\n        /* \"#utility.yul\":9778:9949   */\n    tag_276:\n        /* \"#utility.yul\":9918:9941   */\n      0x61756374696f6e20616c726561647920656e6465640000000000000000000000\n        /* \"#utility.yul\":9914:9915   */\n      0x00\n        /* \"#utility.yul\":9906:9912   */\n      dup3\n        /* \"#utility.yul\":9902:9916   */\n      add\n        /* \"#utility.yul\":9895:9942   */\n      mstore\n        /* \"#utility.yul\":9778:9949   */\n      pop\n      jump\t// out\n        /* \"#utility.yul\":9955:10321   */\n    tag_277:\n        /* \"#utility.yul\":10097:10100   */\n      0x00\n        /* \"#utility.yul\":10118:10185   */\n      tag_376\n        /* \"#utility.yul\":10182:10184   */\n      0x15\n        /* \"#utility.yul\":10177:10180   */\n      dup4\n        /* \"#utility.yul\":10118:10185   */\n      tag_267\n      jump\t// in\n    tag_376:\n        /* \"#utility.yul\":10111:10185   */\n      swap2\n      pop\n        /* \"#utility.yul\":10194:10287   */\n      tag_377\n        /* \"#utility.yul\":10283:10286   */\n      dup3\n        /* \"#utility.yul\":10194:10287   */\n      tag_276\n      jump\t// in\n    tag_377:\n        /* \"#utility.yul\":10312:10314   */\n      0x20\n        /* \"#utility.yul\":10307:10310   */\n      dup3\n        /* \"#utility.yul\":10303:10315   */\n      add\n        /* \"#utility.yul\":10296:10315   */\n      swap1\n      pop\n        /* \"#utility.yul\":9955:10321   */\n      swap2\n      swap1\n      pop\n      jump\t// out\n        /* \"#utility.yul\":10327:10746   */\n    tag_85:\n        /* \"#utility.yul\":10493:10497   */\n      0x00\n        /* \"#utility.yul\":10531:10533   */\n      0x20\n        /* \"#utility.yul\":10520:10529   */\n      dup3\n        /* \"#utility.yul\":10516:10534   */\n      add\n        /* \"#utility.yul\":10508:10534   */\n      swap1\n      pop\n        /* \"#utility.yul\":10580:10589   */\n      dup2\n        /* \"#utility.yul\":10574:10578   */\n      dup2\n        /* \"#utility.yul\":10570:10590   */\n      sub\n        /* \"#utility.yul\":10566:10567   */\n      0x00\n        /* \"#utility.yul\":10555:10564   */\n      dup4\n        /* \"#utility.yul\":10551:10568   */\n      add\n        /* \"#utility.yul\":10544:10591   */\n      mstore\n        /* \"#utility.yul\":10608:10739   */\n      tag_379\n        /* \"#utility.yul\":10734:10738   */\n      dup2\n        /* \"#utility.yul\":10608:10739   */\n      tag_277\n      jump\t// in\n    tag_379:\n        /* \"#utility.yul\":10600:10739   */\n      swap1\n      pop\n        /* \"#utility.yul\":10327:10746   */\n      swap2\n      swap1\n      pop\n      jump\t// out\n        /* \"#utility.yul\":10752:10914   */\n    tag_278:\n        /* \"#utility.yul\":10892:10906   */\n      0x6e6f742061206269646465720000000000000000000000000000000000000000\n        /* \"#utility.yul\":10888:10889   */\n      0x00\n        /* \"#utility.yul\":10880:10886   */\n      dup3\n        /* \"#utility.yul\":10876:10890   */\n      add\n        /* \"#utility.yul\":10869:10907   */\n      mstore\n        /* \"#utility.yul\":10752:10914   */\n      pop\n      jump\t// out\n        /* \"#utility.yul\":10920:11286   */\n    tag_279:\n        /* \"#utility.yul\":11062:11065   */\n      0x00\n        /* \"#utility.yul\":11083:11150   */\n      tag_382\n        /* \"#utility.yul\":11147:11149   */\n      0x0c\n        /* \"#utility.yul\":11142:11145   */\n      dup4\n        /* \"#utility.yul\":11083:11150   */\n      tag_267\n      jump\t// in\n    tag_382:\n        /* \"#utility.yul\":11076:11150   */\n      swap2\n      pop\n        /* \"#utility.yul\":11159:11252   */\n      tag_383\n        /* \"#utility.yul\":11248:11251   */\n      dup3\n        /* \"#utility.yul\":11159:11252   */\n      tag_278\n      jump\t// in\n    tag_383:\n        /* \"#utility.yul\":11277:11279   */\n      0x20\n        /* \"#utility.yul\":11272:11275   */\n      dup3\n        /* \"#utility.yul\":11268:11280   */\n      add\n        /* \"#utility.yul\":11261:11280   */\n      swap1\n      pop\n        /* \"#utility.yul\":10920:11286   */\n      swap2\n      swap1\n      pop\n      jump\t// out\n        /* \"#utility.yul\":11292:11711   */\n    tag_89:\n        /* \"#utility.yul\":11458:11462   */\n      0x00\n        /* \"#utility.yul\":11496:11498   */\n      0x20\n        /* \"#utility.yul\":11485:11494   */\n      dup3\n        /* \"#utility.yul\":11481:11499   */\n      add\n        /* \"#utility.yul\":11473:11499   */\n      swap1\n      pop\n        /* \"#utility.yul\":11545:11554   */\n      dup2\n        /* \"#utility.yul\":11539:11543   */\n      dup2\n        /* \"#utility.yul\":11535:11555   */\n      sub\n        /* \"#utility.yul\":11531:11532   */\n      0x00\n        /* \"#utility.yul\":11520:11529   */\n      dup4\n        /* \"#utility.yul\":11516:11533   */\n      add\n        /* \"#utility.yul\":11509:11556   */\n      mstore\n        /* \"#utility.yul\":11573:11704   */\n      tag_385\n        /* \"#utility.yul\":11699:11703   */\n      dup2\n        /* \"#utility.yul\":11573:11704   */\n      tag_279\n      jump\t// in\n    tag_385:\n        /* \"#utility.yul\":11565:11704   */\n      swap1\n      pop\n        /* \"#utility.yul\":11292:11711   */\n      swap2\n      swap1\n      pop\n      jump\t// out\n        /* \"#utility.yul\":11717:11883   */\n    tag_280:\n        /* \"#utility.yul\":11857:11875   */\n      0x7472616e73616374696f6e206661696c00000000000000000000000000000000\n        /* \"#utility.yul\":11853:11854   */\n      0x00\n        /* \"#utility.yul\":11845:11851   */\n      dup3\n        /* \"#utility.yul\":11841:11855   */\n      add\n        /* \"#utility.yul\":11834:11876   */\n      mstore\n        /* \"#utility.yul\":11717:11883   */\n      pop\n      jump\t// out\n        /* \"#utility.yul\":11889:12255   */\n    tag_281:\n        /* \"#utility.yul\":12031:12034   */\n      0x00\n        /* \"#utility.yul\":12052:12119   */\n      tag_388\n        /* \"#utility.yul\":12116:12118   */\n      0x10\n        /* \"#utility.yul\":12111:12114   */\n      dup4\n        /* \"#utility.yul\":12052:12119   */\n      tag_267\n      jump\t// in\n    tag_388:\n        /* \"#utility.yul\":12045:12119   */\n      swap2\n      pop\n        /* \"#utility.yul\":12128:12221   */\n      tag_389\n        /* \"#utility.yul\":12217:12220   */\n      dup3\n        /* \"#utility.yul\":12128:12221   */\n      tag_280\n      jump\t// in\n    tag_389:\n        /* \"#utility.yul\":12246:12248   */\n      0x20\n        /* \"#utility.yul\":12241:12244   */\n      dup3\n        /* \"#utility.yul\":12237:12249   */\n      add\n        /* \"#utility.yul\":12230:12249   */\n      swap1\n      pop\n        /* \"#utility.yul\":11889:12255   */\n      swap2\n      swap1\n      pop\n      jump\t// out\n        /* \"#utility.yul\":12261:12680   */\n    tag_95:\n        /* \"#utility.yul\":12427:12431   */\n      0x00\n        /* \"#utility.yul\":12465:12467   */\n      0x20\n        /* \"#utility.yul\":12454:12463   */\n      dup3\n        /* \"#utility.yul\":12450:12468   */\n      add\n        /* \"#utility.yul\":12442:12468   */\n      swap1\n      pop\n        /* \"#utility.yul\":12514:12523   */\n      dup2\n        /* \"#utility.yul\":12508:12512   */\n      dup2\n        /* \"#utility.yul\":12504:12524   */\n      sub\n        /* \"#utility.yul\":12500:12501   */\n      0x00\n        /* \"#utility.yul\":12489:12498   */\n      dup4\n        /* \"#utility.yul\":12485:12502   */\n      add\n        /* \"#utility.yul\":12478:12525   */\n      mstore\n        /* \"#utility.yul\":12542:12673   */\n      tag_391\n        /* \"#utility.yul\":12668:12672   */\n      dup2\n        /* \"#utility.yul\":12542:12673   */\n      tag_281\n      jump\t// in\n    tag_391:\n        /* \"#utility.yul\":12534:12673   */\n      swap1\n      pop\n        /* \"#utility.yul\":12261:12680   */\n      swap2\n      swap1\n      pop\n      jump\t// out\n        /* \"#utility.yul\":12686:12880   */\n    tag_98:\n        /* \"#utility.yul\":12726:12730   */\n      0x00\n        /* \"#utility.yul\":12746:12766   */\n      tag_393\n        /* \"#utility.yul\":12764:12765   */\n      dup3\n        /* \"#utility.yul\":12746:12766   */\n      tag_249\n      jump\t// in\n    tag_393:\n        /* \"#utility.yul\":12741:12766   */\n      swap2\n      pop\n        /* \"#utility.yul\":12780:12800   */\n      tag_394\n        /* \"#utility.yul\":12798:12799   */\n      dup4\n        /* \"#utility.yul\":12780:12800   */\n      tag_249\n      jump\t// in\n    tag_394:\n        /* \"#utility.yul\":12775:12800   */\n      swap3\n      pop\n        /* \"#utility.yul\":12824:12825   */\n      dup3\n        /* \"#utility.yul\":12821:12822   */\n      dup3\n        /* \"#utility.yul\":12817:12826   */\n      sub\n        /* \"#utility.yul\":12809:12826   */\n      swap1\n      pop\n        /* \"#utility.yul\":12848:12849   */\n      dup2\n        /* \"#utility.yul\":12842:12846   */\n      dup2\n        /* \"#utility.yul\":12839:12850   */\n      gt\n        /* \"#utility.yul\":12836:12873   */\n      iszero\n      tag_395\n      jumpi\n        /* \"#utility.yul\":12853:12871   */\n      tag_396\n      tag_270\n      jump\t// in\n    tag_396:\n        /* \"#utility.yul\":12836:12873   */\n    tag_395:\n        /* \"#utility.yul\":12686:12880   */\n      swap3\n      swap2\n      pop\n      pop\n      jump\t// out\n        /* \"#utility.yul\":12886:13049   */\n    tag_282:\n        /* \"#utility.yul\":13026:13041   */\n      0x6e6f7420746865206f776e657200000000000000000000000000000000000000\n        /* \"#utility.yul\":13022:13023   */\n      0x00\n        /* \"#utility.yul\":13014:13020   */\n      dup3\n        /* \"#utility.yul\":13010:13024   */\n      add\n        /* \"#utility.yul\":13003:13042   */\n      mstore\n        /* \"#utility.yul\":12886:13049   */\n      pop\n      jump\t// out\n        /* \"#utility.yul\":13055:13421   */\n    tag_283:\n        /* \"#utility.yul\":13197:13200   */\n      0x00\n        /* \"#utility.yul\":13218:13285   */\n      tag_399\n        /* \"#utility.yul\":13282:13284   */\n      0x0d\n        /* \"#utility.yul\":13277:13280   */\n      dup4\n        /* \"#utility.yul\":13218:13285   */\n      tag_267\n      jump\t// in\n    tag_399:\n        /* \"#utility.yul\":13211:13285   */\n      swap2\n      pop\n        /* \"#utility.yul\":13294:13387   */\n      tag_400\n        /* \"#utility.yul\":13383:13386   */\n      dup3\n        /* \"#utility.yul\":13294:13387   */\n      tag_282\n      jump\t// in\n    tag_400:\n        /* \"#utility.yul\":13412:13414   */\n      0x20\n        /* \"#utility.yul\":13407:13410   */\n      dup3\n        /* \"#utility.yul\":13403:13415   */\n      add\n        /* \"#utility.yul\":13396:13415   */\n      swap1\n      pop\n        /* \"#utility.yul\":13055:13421   */\n      swap2\n      swap1\n      pop\n      jump\t// out\n        /* \"#utility.yul\":13427:13846   */\n    tag_106:\n        /* \"#utility.yul\":13593:13597   */\n      0x00\n        /* \"#utility.yul\":13631:13633   */\n      0x20\n        /* \"#utility.yul\":13620:13629   */\n      dup3\n        /* \"#utility.yul\":13616:13634   */\n      add\n        /* \"#utility.yul\":13608:13634   */\n      swap1\n      pop\n        /* \"#utility.yul\":13680:13689   */\n      dup2\n        /* \"#utility.yul\":13674:13678   */\n      dup2\n        /* \"#utility.yul\":13670:13690   */\n      sub\n        /* \"#utility.yul\":13666:13667   */\n      0x00\n        /* \"#utility.yul\":13655:13664   */\n      dup4\n        /* \"#utility.yul\":13651:13668   */\n      add\n        /* \"#utility.yul\":13644:13691   */\n      mstore\n        /* \"#utility.yul\":13708:13839   */\n      tag_402\n        /* \"#utility.yul\":13834:13838   */\n      dup2\n        /* \"#utility.yul\":13708:13839   */\n      tag_283\n      jump\t// in\n    tag_402:\n        /* \"#utility.yul\":13700:13839   */\n      swap1\n      pop\n        /* \"#utility.yul\":13427:13846   */\n      swap2\n      swap1\n      pop\n      jump\t// out\n        /* \"#utility.yul\":13852:14021   */\n    tag_284:\n        /* \"#utility.yul\":13992:14013   */\n      0x61756374696f6e207374696c6c20616c69766500000000000000000000000000\n        /* \"#utility.yul\":13988:13989   */\n      0x00\n        /* \"#utility.yul\":13980:13986   */\n      dup3\n        /* \"#utility.yul\":13976:13990   */\n      add\n        /* \"#utility.yul\":13969:14014   */\n      mstore\n        /* \"#utility.yul\":13852:14021   */\n      pop\n      jump\t// out\n        /* \"#utility.yul\":14027:14393   */\n    tag_285:\n        /* \"#utility.yul\":14169:14172   */\n      0x00\n        /* \"#utility.yul\":14190:14257   */\n      tag_405\n        /* \"#utility.yul\":14254:14256   */\n      0x13\n        /* \"#utility.yul\":14249:14252   */\n      dup4\n        /* \"#utility.yul\":14190:14257   */\n      tag_267\n      jump\t// in\n    tag_405:\n        /* \"#utility.yul\":14183:14257   */\n      swap2\n      pop\n        /* \"#utility.yul\":14266:14359   */\n      tag_406\n        /* \"#utility.yul\":14355:14358   */\n      dup3\n        /* \"#utility.yul\":14266:14359   */\n      tag_284\n      jump\t// in\n    tag_406:\n        /* \"#utility.yul\":14384:14386   */\n      0x20\n        /* \"#utility.yul\":14379:14382   */\n      dup3\n        /* \"#utility.yul\":14375:14387   */\n      add\n        /* \"#utility.yul\":14368:14387   */\n      swap1\n      pop\n        /* \"#utility.yul\":14027:14393   */\n      swap2\n      swap1\n      pop\n      jump\t// out\n        /* \"#utility.yul\":14399:14818   */\n    tag_114:\n        /* \"#utility.yul\":14565:14569   */\n      0x00\n        /* \"#utility.yul\":14603:14605   */\n      0x20\n        /* \"#utility.yul\":14592:14601   */\n      dup3\n        /* \"#utility.yul\":14588:14606   */\n      add\n        /* \"#utility.yul\":14580:14606   */\n      swap1\n      pop\n        /* \"#utility.yul\":14652:14661   */\n      dup2\n        /* \"#utility.yul\":14646:14650   */\n      dup2\n        /* \"#utility.yul\":14642:14662   */\n      sub\n        /* \"#utility.yul\":14638:14639   */\n      0x00\n        /* \"#utility.yul\":14627:14636   */\n      dup4\n        /* \"#utility.yul\":14623:14640   */\n      add\n        /* \"#utility.yul\":14616:14663   */\n      mstore\n        /* \"#utility.yul\":14680:14811   */\n      tag_408\n        /* \"#utility.yul\":14806:14810   */\n      dup2\n        /* \"#utility.yul\":14680:14811   */\n      tag_285\n      jump\t// in\n    tag_408:\n        /* \"#utility.yul\":14672:14811   */\n      swap1\n      pop\n        /* \"#utility.yul\":14399:14818   */\n      swap2\n      swap1\n      pop\n      jump\t// out\n        /* \"#utility.yul\":14824:14971   */\n    tag_286:\n        /* \"#utility.yul\":14925:14936   */\n      0x00\n        /* \"#utility.yul\":14962:14965   */\n      dup2\n        /* \"#utility.yul\":14947:14965   */\n      swap1\n      pop\n        /* \"#utility.yul\":14824:14971   */\n      swap3\n      swap2\n      pop\n      pop\n      jump\t// out\n        /* \"#utility.yul\":14977:15091   */\n    tag_287:\n      pop\n      jump\t// out\n        /* \"#utility.yul\":15097:15495   */\n    tag_288:\n        /* \"#utility.yul\":15256:15259   */\n      0x00\n        /* \"#utility.yul\":15277:15360   */\n      tag_412\n        /* \"#utility.yul\":15358:15359   */\n      0x00\n        /* \"#utility.yul\":15353:15356   */\n      dup4\n        /* \"#utility.yul\":15277:15360   */\n      tag_286\n      jump\t// in\n    tag_412:\n        /* \"#utility.yul\":15270:15360   */\n      swap2\n      pop\n        /* \"#utility.yul\":15369:15462   */\n      tag_413\n        /* \"#utility.yul\":15458:15461   */\n      dup3\n        /* \"#utility.yul\":15369:15462   */\n      tag_287\n      jump\t// in\n    tag_413:\n        /* \"#utility.yul\":15487:15488   */\n      0x00\n        /* \"#utility.yul\":15482:15485   */\n      dup3\n        /* \"#utility.yul\":15478:15489   */\n      add\n        /* \"#utility.yul\":15471:15489   */\n      swap1\n      pop\n        /* \"#utility.yul\":15097:15495   */\n      swap2\n      swap1\n      pop\n      jump\t// out\n        /* \"#utility.yul\":15501:15880   */\n    tag_117:\n        /* \"#utility.yul\":15685:15688   */\n      0x00\n        /* \"#utility.yul\":15707:15854   */\n      tag_415\n        /* \"#utility.yul\":15850:15853   */\n      dup3\n        /* \"#utility.yul\":15707:15854   */\n      tag_288\n      jump\t// in\n    tag_415:\n        /* \"#utility.yul\":15700:15854   */\n      swap2\n      pop\n        /* \"#utility.yul\":15871:15874   */\n      dup2\n        /* \"#utility.yul\":15864:15874   */\n      swap1\n      pop\n        /* \"#utility.yul\":15501:15880   */\n      swap2\n      swap1\n      pop\n      jump\t// out\n        /* \"#utility.yul\":15886:16066   */\n    tag_143:\n        /* \"#utility.yul\":15934:16011   */\n      0x4e487b7100000000000000000000000000000000000000000000000000000000\n        /* \"#utility.yul\":15931:15932   */\n      0x00\n        /* \"#utility.yul\":15924:16012   */\n      mstore\n        /* \"#utility.yul\":16031:16035   */\n      0x32\n        /* \"#utility.yul\":16028:16029   */\n      0x04\n        /* \"#utility.yul\":16021:16036   */\n      mstore\n        /* \"#utility.yul\":16055:16059   */\n      0x24\n        /* \"#utility.yul\":16052:16053   */\n      0x00\n        /* \"#utility.yul\":16045:16060   */\n      revert\n        /* \"#utility.yul\":16072:16190   */\n    tag_289:\n        /* \"#utility.yul\":16159:16183   */\n      tag_418\n        /* \"#utility.yul\":16177:16182   */\n      dup2\n        /* \"#utility.yul\":16159:16183   */\n      tag_255\n      jump\t// in\n    tag_418:\n        /* \"#utility.yul\":16154:16157   */\n      dup3\n        /* \"#utility.yul\":16147:16184   */\n      mstore\n        /* \"#utility.yul\":16072:16190   */\n      pop\n      pop\n      jump\t// out\n        /* \"#utility.yul\":16196:16528   */\n    tag_200:\n        /* \"#utility.yul\":16317:16321   */\n      0x00\n        /* \"#utility.yul\":16355:16357   */\n      0x40\n        /* \"#utility.yul\":16344:16353   */\n      dup3\n        /* \"#utility.yul\":16340:16358   */\n      add\n        /* \"#utility.yul\":16332:16358   */\n      swap1\n      pop\n        /* \"#utility.yul\":16368:16439   */\n      tag_420\n        /* \"#utility.yul\":16436:16437   */\n      0x00\n        /* \"#utility.yul\":16425:16434   */\n      dup4\n        /* \"#utility.yul\":16421:16438   */\n      add\n        /* \"#utility.yul\":16412:16418   */\n      dup6\n        /* \"#utility.yul\":16368:16439   */\n      tag_289\n      jump\t// in\n    tag_420:\n        /* \"#utility.yul\":16449:16521   */\n      tag_421\n        /* \"#utility.yul\":16517:16519   */\n      0x20\n        /* \"#utility.yul\":16506:16515   */\n      dup4\n        /* \"#utility.yul\":16502:16520   */\n      add\n        /* \"#utility.yul\":16493:16499   */\n      dup5\n        /* \"#utility.yul\":16449:16521   */\n      tag_250\n      jump\t// in\n    tag_421:\n        /* \"#utility.yul\":16196:16528   */\n      swap4\n      swap3\n      pop\n      pop\n      pop\n      jump\t// out\n        /* \"#utility.yul\":16534:16699   */\n    tag_290:\n        /* \"#utility.yul\":16674:16691   */\n      0x6e6f742065787069726564207965740000000000000000000000000000000000\n        /* \"#utility.yul\":16670:16671   */\n      0x00\n        /* \"#utility.yul\":16662:16668   */\n      dup3\n        /* \"#utility.yul\":16658:16672   */\n      add\n        /* \"#utility.yul\":16651:16692   */\n      mstore\n        /* \"#utility.yul\":16534:16699   */\n      pop\n      jump\t// out\n        /* \"#utility.yul\":16705:17071   */\n    tag_291:\n        /* \"#utility.yul\":16847:16850   */\n      0x00\n        /* \"#utility.yul\":16868:16935   */\n      tag_424\n        /* \"#utility.yul\":16932:16934   */\n      0x0f\n        /* \"#utility.yul\":16927:16930   */\n      dup4\n        /* \"#utility.yul\":16868:16935   */\n      tag_267\n      jump\t// in\n    tag_424:\n        /* \"#utility.yul\":16861:16935   */\n      swap2\n      pop\n        /* \"#utility.yul\":16944:17037   */\n      tag_425\n        /* \"#utility.yul\":17033:17036   */\n      dup3\n        /* \"#utility.yul\":16944:17037   */\n      tag_290\n      jump\t// in\n    tag_425:\n        /* \"#utility.yul\":17062:17064   */\n      0x20\n        /* \"#utility.yul\":17057:17060   */\n      dup3\n        /* \"#utility.yul\":17053:17065   */\n      add\n        /* \"#utility.yul\":17046:17065   */\n      swap1\n      pop\n        /* \"#utility.yul\":16705:17071   */\n      swap2\n      swap1\n      pop\n      jump\t// out\n        /* \"#utility.yul\":17077:17496   */\n    tag_203:\n        /* \"#utility.yul\":17243:17247   */\n      0x00\n        /* \"#utility.yul\":17281:17283   */\n      0x20\n        /* \"#utility.yul\":17270:17279   */\n      dup3\n        /* \"#utility.yul\":17266:17284   */\n      add\n        /* \"#utility.yul\":17258:17284   */\n      swap1\n      pop\n        /* \"#utility.yul\":17330:17339   */\n      dup2\n        /* \"#utility.yul\":17324:17328   */\n      dup2\n        /* \"#utility.yul\":17320:17340   */\n      sub\n        /* \"#utility.yul\":17316:17317   */\n      0x00\n        /* \"#utility.yul\":17305:17314   */\n      dup4\n        /* \"#utility.yul\":17301:17318   */\n      add\n        /* \"#utility.yul\":17294:17341   */\n      mstore\n        /* \"#utility.yul\":17358:17489   */\n      tag_427\n        /* \"#utility.yul\":17484:17488   */\n      dup2\n        /* \"#utility.yul\":17358:17489   */\n      tag_291\n      jump\t// in\n    tag_427:\n        /* \"#utility.yul\":17350:17489   */\n      swap1\n      pop\n        /* \"#utility.yul\":17077:17496   */\n      swap2\n      swap1\n      pop\n      jump\t// out\n        /* \"#utility.yul\":17502:17693   */\n    tag_207:\n        /* \"#utility.yul\":17542:17545   */\n      0x00\n        /* \"#utility.yul\":17561:17581   */\n      tag_429\n        /* \"#utility.yul\":17579:17580   */\n      dup3\n        /* \"#utility.yul\":17561:17581   */\n      tag_249\n      jump\t// in\n    tag_429:\n        /* \"#utility.yul\":17556:17581   */\n      swap2\n      pop\n        /* \"#utility.yul\":17595:17615   */\n      tag_430\n        /* \"#utility.yul\":17613:17614   */\n      dup4\n        /* \"#utility.yul\":17595:17615   */\n      tag_249\n      jump\t// in\n    tag_430:\n        /* \"#utility.yul\":17590:17615   */\n      swap3\n      pop\n        /* \"#utility.yul\":17638:17639   */\n      dup3\n        /* \"#utility.yul\":17635:17636   */\n      dup3\n        /* \"#utility.yul\":17631:17640   */\n      add\n        /* \"#utility.yul\":17624:17640   */\n      swap1\n      pop\n        /* \"#utility.yul\":17659:17662   */\n      dup1\n        /* \"#utility.yul\":17656:17657   */\n      dup3\n        /* \"#utility.yul\":17653:17663   */\n      gt\n        /* \"#utility.yul\":17650:17686   */\n      iszero\n      tag_431\n      jumpi\n        /* \"#utility.yul\":17666:17684   */\n      tag_432\n      tag_270\n      jump\t// in\n    tag_432:\n        /* \"#utility.yul\":17650:17686   */\n    tag_431:\n        /* \"#utility.yul\":17502:17693   */\n      swap3\n      swap2\n      pop\n      pop\n      jump\t// out\n\n    auxdata: 0xa26469706673582212209ff05063e4977c528d186414c5053571737955590b123ae551e40c229921b17164736f6c634300081e0033\n}\n",
				"bytecode": {
					"linkReferences": {},
					"object": "608060405234801561000f575f5ffd5b50335f5f6101000a81548173ffffffffffffffffffffffffffffffffffffffff021916908373ffffffffffffffffffffffffffffffffffffffff1602179055504260028190555062093a806002546100679190610152565b600481905550610258600381905550620f42406001819055505f5f9054906101000a900473ffffffffffffffffffffffffffffffffffffffff1660085f015f6101000a81548173ffffffffffffffffffffffffffffffffffffffff021916908373ffffffffffffffffffffffffffffffffffffffff1602179055506001546008600101819055505f60055f6101000a81548160ff0219169083600181111561011257610111610185565b5b02179055506101b2565b5f819050919050565b7f4e487b71000000000000000000000000000000000000000000000000000000005f52601160045260245ffd5b5f61015c8261011c565b91506101678361011c565b925082820190508082111561017f5761017e610125565b5b92915050565b7f4e487b71000000000000000000000000000000000000000000000000000000005f52602160045260245ffd5b61209d806101bf5f395ff3fe608060405260043610610085575f3560e01c8063534823bf11610058578063534823bf146100e957806377c468c414610113578063b7e0326414610129578063c19d93fb14610153578063fe67a54b1461017d57610085565b80631f09dfa714610089578063464fcd69146100935780634665096d146100a95780634dbe5889146100d3575b5f5ffd5b610091610193565b005b34801561009e575f5ffd5b506100a7610330565b005b3480156100b4575f5ffd5b506100bd6105f8565b6040516100ca91906118ac565b60405180910390f35b3480156100de575f5ffd5b506100e76105fe565b005b3480156100f4575f5ffd5b506100fd6107d5565b60405161010a91906119e8565b60405180910390f35b34801561011e575f5ffd5b5061012761088f565b005b348015610134575f5ffd5b5061013d610f32565b60405161014a9190611a35565b60405180910390f35b34801561015e575f5ffd5b50610167610faa565b6040516101749190611ac1565b60405180910390f35b348015610188575f5ffd5b50610191610fbc565b005b5f60018111156101a6576101a5611a4e565b5b60055f9054906101000a900460ff1660018111156101c7576101c6611a4e565b5b036102f3576004544210610210576040517f08c379a000000000000000000000000000000000000000000000000000000000815260040161020790611b34565b60405180910390fd5b606460696008600101546102249190611b7f565b61022e9190611bed565b341015610270576040517f08c379a000000000000000000000000000000000000000000000000000000000815260040161026790611c67565b60405180910390fd5b61027a3334611195565b6102853334346111e5565b61028f3334611285565b61029761134c565b3373ffffffffffffffffffffffffffffffffffffffff167f058d619527549e88853c641ebcec23205e5df61592e3908275721b5ad490113f346040516102dd91906118ac565b60405180910390a26102ee3361137f565b61032e565b6040517f08c379a000000000000000000000000000000000000000000000000000000000815260040161032590611ccf565b60405180910390fd5b565b5f600181111561034357610342611a4e565b5b60055f9054906101000a900460ff16600181111561036457610363611a4e565b5b146103a4576040517f08c379a000000000000000000000000000000000000000000000000000000000815260040161039b90611d37565b60405180910390fd5b60011515600b5f3373ffffffffffffffffffffffffffffffffffffffff1673ffffffffffffffffffffffffffffffffffffffff1681526020019081526020015f205f9054906101000a900460ff16151514610434576040517f08c379a000000000000000000000000000000000000000000000000000000000815260040161042b90611d9f565b60405180910390fd5b5f5f61043f3361148c565b80925081935050505f15158215150361048d576040517f08c379a000000000000000000000000000000000000000000000000000000000815260040161048490611e07565b60405180910390fd5b8060065f3373ffffffffffffffffffffffffffffffffffffffff1673ffffffffffffffffffffffffffffffffffffffff1681526020019081526020015f206002015f8282546104dc9190611e25565b925050819055506104eb611866565b33815f019073ffffffffffffffffffffffffffffffffffffffff16908173ffffffffffffffffffffffffffffffffffffffff16815250505f816020018181525050600781908060018154018082558091505060019003905f5260205f2090600202015f909190919091505f820151815f015f6101000a81548173ffffffffffffffffffffffffffffffffffffffff021916908373ffffffffffffffffffffffffffffffffffffffff1602179055506020820151816001015550503373ffffffffffffffffffffffffffffffffffffffff167f5bf4ffbba2c193e74d733f69408011d333232e84b98a68ecb638621dab65fff5836040516105eb91906118ac565b60405180910390a2505050565b60045481565b3373ffffffffffffffffffffffffffffffffffffffff165f5f9054906101000a900473ffffffffffffffffffffffffffffffffffffffff1673ffffffffffffffffffffffffffffffffffffffff161461068c576040517f08c379a000000000000000000000000000000000000000000000000000000000815260040161068390611ea2565b60405180910390fd5b60018081111561069f5761069e611a4e565b5b60055f9054906101000a900460ff1660018111156106c0576106bf611a4e565b5b14610700576040517f08c379a00000000000000000000000000000000000000000000000000000000081526004016106f790611f0a565b60405180910390fd5b5f5f5f9054906101000a900473ffffffffffffffffffffffffffffffffffffffff1673ffffffffffffffffffffffffffffffffffffffff166108fc4760405161074890611f55565b5f60405180830381858888f193505050503d805f8114610783576040519150601f19603f3d011682016040523d82523d5f602084013e610788565b606091505b505090505f1515811515036107d2576040517f08c379a00000000000000000000000000000000000000000000000000000000081526004016107c990611e07565b60405180910390fd5b50565b60606007805480602002602001604051908101604052809291908181526020015f905b82821015610886578382905f5260205f2090600202016040518060400160405290815f82015f9054906101000a900473ffffffffffffffffffffffffffffffffffffffff1673ffffffffffffffffffffffffffffffffffffffff1673ffffffffffffffffffffffffffffffffffffffff168152602001600182015481525050815260200190600101906107f8565b50505050905090565b3373ffffffffffffffffffffffffffffffffffffffff165f5f9054906101000a900473ffffffffffffffffffffffffffffffffffffffff1673ffffffffffffffffffffffffffffffffffffffff161461091d576040517f08c379a000000000000000000000000000000000000000000000000000000000815260040161091490611ea2565b60405180910390fd5b6001808111156109305761092f611a4e565b5b60055f9054906101000a900460ff16600181111561095157610950611a4e565b5b14610991576040517f08c379a000000000000000000000000000000000000000000000000000000000815260040161098890611f0a565b60405180910390fd5b5f5f5f5f90505b600a80549050811015610f2d5760085f015f9054906101000a900473ffffffffffffffffffffffffffffffffffffffff1673ffffffffffffffffffffffffffffffffffffffff16600a82815481106109f3576109f2611f69565b5b905f5260205f20015f9054906101000a900473ffffffffffffffffffffffffffffffffffffffff1673ffffffffffffffffffffffffffffffffffffffff1614610cad57610a7a600a8281548110610a4d57610a4c611f69565b5b905f5260205f20015f9054906101000a900473ffffffffffffffffffffffffffffffffffffffff16611664565b80935081945050505f151583151503610ac8576040517f08c379a0000000000000000000000000000000000000000000000000000000008152600401610abf90611e07565b60405180910390fd5b8160065f600a8481548110610ae057610adf611f69565b5b905f5260205f20015f9054906101000a900473ffffffffffffffffffffffffffffffffffffffff1673ffffffffffffffffffffffffffffffffffffffff1673ffffffffffffffffffffffffffffffffffffffff1681526020019081526020015f206002015f828254610b529190611e25565b92505081905550610b61611866565b600a8281548110610b7557610b74611f69565b5b905f5260205f20015f9054906101000a900473ffffffffffffffffffffffffffffffffffffffff16815f019073ffffffffffffffffffffffffffffffffffffffff16908173ffffffffffffffffffffffffffffffffffffffff16815250505f816020018181525050600781908060018154018082558091505060019003905f5260205f2090600202015f909190919091505f820151815f015f6101000a81548173ffffffffffffffffffffffffffffffffffffffff021916908373ffffffffffffffffffffffffffffffffffffffff160217905550602082015181600101555050805f015173ffffffffffffffffffffffffffffffffffffffff167f34dba9a7faf77866d1d036eb7444d95a805bcfe05b6e34819e7d44793d3922d184604051610c9f91906118ac565b60405180910390a250610f20565b610cf1600a8281548110610cc457610cc3611f69565b5b905f5260205f20015f9054906101000a900473ffffffffffffffffffffffffffffffffffffffff1661175d565b80935081945050505f151583151503610d3f576040517f08c379a0000000000000000000000000000000000000000000000000000000008152600401610d3690611e07565b60405180910390fd5b8160065f600a8481548110610d5757610d56611f69565b5b905f5260205f20015f9054906101000a900473ffffffffffffffffffffffffffffffffffffffff1673ffffffffffffffffffffffffffffffffffffffff1673ffffffffffffffffffffffffffffffffffffffff1681526020019081526020015f206002015f828254610dc99190611e25565b92505081905550610dd8611866565b600a8281548110610dec57610deb611f69565b5b905f5260205f20015f9054906101000a900473ffffffffffffffffffffffffffffffffffffffff16815f019073ffffffffffffffffffffffffffffffffffffffff16908173ffffffffffffffffffffffffffffffffffffffff16815250505f816020018181525050600781908060018154018082558091505060019003905f5260205f2090600202015f909190919091505f820151815f015f6101000a81548173ffffffffffffffffffffffffffffffffffffffff021916908373ffffffffffffffffffffffffffffffffffffffff160217905550602082015181600101555050805f015173ffffffffffffffffffffffffffffffffffffffff167f34dba9a7faf77866d1d036eb7444d95a805bcfe05b6e34819e7d44793d3922d184604051610f1691906118ac565b60405180910390a2505b8080600101915050610998565b505050565b610f3a611866565b60086040518060400160405290815f82015f9054906101000a900473ffffffffffffffffffffffffffffffffffffffff1673ffffffffffffffffffffffffffffffffffffffff1673ffffffffffffffffffffffffffffffffffffffff168152602001600182015481525050905090565b60055f9054906101000a900460ff1681565b3373ffffffffffffffffffffffffffffffffffffffff165f5f9054906101000a900473ffffffffffffffffffffffffffffffffffffffff1673ffffffffffffffffffffffffffffffffffffffff161461104a576040517f08c379a000000000000000000000000000000000000000000000000000000000815260040161104190611ea2565b60405180910390fd5b5f600181111561105d5761105c611a4e565b5b60055f9054906101000a900460ff16600181111561107e5761107d611a4e565b5b146110be576040517f08c379a00000000000000000000000000000000000000000000000000000000081526004016110b590611d37565b60405180910390fd5b60045442111561115857600160055f6101000a81548160ff021916908360018111156110ed576110ec611a4e565b5b02179055507fdaec4582d5d9595688c8c98545fdd1c696d41c6aeaeb636737e84ed2f5c00eda60085f015f9054906101000a900473ffffffffffffffffffffffffffffffffffffffff1660086001015460405161114b929190611fa5565b60405180910390a1611193565b6040517f08c379a000000000000000000000000000000000000000000000000000000000815260040161118a90612016565b60405180910390fd5b565b8160085f015f6101000a81548173ffffffffffffffffffffffffffffffffffffffff021916908373ffffffffffffffffffffffffffffffffffffffff160217905550806008600101819055505050565b8160065f8573ffffffffffffffffffffffffffffffffffffffff1673ffffffffffffffffffffffffffffffffffffffff1681526020019081526020015f20600101819055508060065f8573ffffffffffffffffffffffffffffffffffffffff1673ffffffffffffffffffffffffffffffffffffffff1681526020019081526020015f206002015f8282546112799190612034565b92505081905550505050565b61128d611866565b82815f019073ffffffffffffffffffffffffffffffffffffffff16908173ffffffffffffffffffffffffffffffffffffffff168152505081816020018181525050600781908060018154018082558091505060019003905f5260205f2090600202015f909190919091505f820151815f015f6101000a81548173ffffffffffffffffffffffffffffffffffffffff021916908373ffffffffffffffffffffffffffffffffffffffff160217905550602082015181600101555050505050565b60035460045461135c9190611e25565b421061137d5760035460045f8282546113759190612034565b925050819055505b565b5f1515600b5f8373ffffffffffffffffffffffffffffffffffffffff1673ffffffffffffffffffffffffffffffffffffffff1681526020019081526020015f205f9054906101000a900460ff1615150361148957600a81908060018154018082558091505060019003905f5260205f20015f9091909190916101000a81548173ffffffffffffffffffffffffffffffffffffffff021916908373ffffffffffffffffffffffffffffffffffffffff1602179055506001600b5f8373ffffffffffffffffffffffffffffffffffffffff1673ffffffffffffffffffffffffffffffffffffffff1681526020019081526020015f205f6101000a81548160ff0219169083151502179055505b50565b5f5f60065f8473ffffffffffffffffffffffffffffffffffffffff1673ffffffffffffffffffffffffffffffffffffffff1681526020019081526020015f206001015460065f8573ffffffffffffffffffffffffffffffffffffffff1673ffffffffffffffffffffffffffffffffffffffff1681526020019081526020015f20600201541115611657575f60065f8573ffffffffffffffffffffffffffffffffffffffff1673ffffffffffffffffffffffffffffffffffffffff1681526020019081526020015f206001015460065f8673ffffffffffffffffffffffffffffffffffffffff1673ffffffffffffffffffffffffffffffffffffffff1681526020019081526020015f20600201546115a39190611e25565b90505f60646062836115b59190611b7f565b6115bf9190611bed565b90505f8573ffffffffffffffffffffffffffffffffffffffff166108fc836040516115e990611f55565b5f60405180830381858888f193505050503d805f8114611624576040519150601f19603f3d011682016040523d82523d5f602084013e611629565b606091505b505090505f151581151503611649575f925080839450945050505061165f565b80839450945050505061165f565b60015f915091505b915091565b5f5f5f60065f8573ffffffffffffffffffffffffffffffffffffffff1673ffffffffffffffffffffffffffffffffffffffff1681526020019081526020015f206002015490505f60646062836116ba9190611b7f565b6116c49190611bed565b90505f8573ffffffffffffffffffffffffffffffffffffffff166108fc836040516116ee90611f55565b5f60405180830381858888f193505050503d805f8114611729576040519150601f19603f3d011682016040523d82523d5f602084013e61172e565b606091505b505090505f15158115150361174e575f9250808394509450505050611758565b8083945094505050505b915091565b5f5f5f60086001015460065f8673ffffffffffffffffffffffffffffffffffffffff1673ffffffffffffffffffffffffffffffffffffffff1681526020019081526020015f20600201546117b19190611e25565b90505f60646062836117c39190611b7f565b6117cd9190611bed565b90505f8573ffffffffffffffffffffffffffffffffffffffff166108fc836040516117f790611f55565b5f60405180830381858888f193505050503d805f8114611832576040519150601f19603f3d011682016040523d82523d5f602084013e611837565b606091505b505090505f151581151503611857575f9250808394509450505050611861565b8083945094505050505b915091565b60405180604001604052805f73ffffffffffffffffffffffffffffffffffffffff1681526020015f81525090565b5f819050919050565b6118a681611894565b82525050565b5f6020820190506118bf5f83018461189d565b92915050565b5f81519050919050565b5f82825260208201905092915050565b5f819050602082019050919050565b5f73ffffffffffffffffffffffffffffffffffffffff82169050919050565b5f611917826118ee565b9050919050565b6119278161190d565b82525050565b61193681611894565b82525050565b604082015f8201516119505f85018261191e565b506020820151611963602085018261192d565b50505050565b5f611974838361193c565b60408301905092915050565b5f602082019050919050565b5f611996826118c5565b6119a081856118cf565b93506119ab836118df565b805f5b838110156119db5781516119c28882611969565b97506119cd83611980565b9250506001810190506119ae565b5085935050505092915050565b5f6020820190508181035f830152611a00818461198c565b905092915050565b604082015f820151611a1c5f85018261191e565b506020820151611a2f602085018261192d565b50505050565b5f604082019050611a485f830184611a08565b92915050565b7f4e487b71000000000000000000000000000000000000000000000000000000005f52602160045260245ffd5b60028110611a8c57611a8b611a4e565b5b50565b5f819050611a9c82611a7b565b919050565b5f611aab82611a8f565b9050919050565b611abb81611aa1565b82525050565b5f602082019050611ad45f830184611ab2565b92915050565b5f82825260208201905092915050565b7f696e76616c6964206f666665722074696d6500000000000000000000000000005f82015250565b5f611b1e601283611ada565b9150611b2982611aea565b602082019050919050565b5f6020820190508181035f830152611b4b81611b12565b9050919050565b7f4e487b71000000000000000000000000000000000000000000000000000000005f52601160045260245ffd5b5f611b8982611894565b9150611b9483611894565b9250828202611ba281611894565b91508282048414831517611bb957611bb8611b52565b5b5092915050565b7f4e487b71000000000000000000000000000000000000000000000000000000005f52601260045260245ffd5b5f611bf782611894565b9150611c0283611894565b925082611c1257611c11611bc0565b5b828204905092915050565b7f696e76616c6964206f666665722076616c7565000000000000000000000000005f82015250565b5f611c51601383611ada565b9150611c5c82611c1d565b602082019050919050565b5f6020820190508181035f830152611c7e81611c45565b9050919050565b7f41756374696f6e20456e646564000000000000000000000000000000000000005f82015250565b5f611cb9600d83611ada565b9150611cc482611c85565b602082019050919050565b5f6020820190508181035f830152611ce681611cad565b9050919050565b7f61756374696f6e20616c726561647920656e64656400000000000000000000005f82015250565b5f611d21601583611ada565b9150611d2c82611ced565b602082019050919050565b5f6020820190508181035f830152611d4e81611d15565b9050919050565b7f6e6f7420612062696464657200000000000000000000000000000000000000005f82015250565b5f611d89600c83611ada565b9150611d9482611d55565b602082019050919050565b5f6020820190508181035f830152611db681611d7d565b9050919050565b7f7472616e73616374696f6e206661696c000000000000000000000000000000005f82015250565b5f611df1601083611ada565b9150611dfc82611dbd565b602082019050919050565b5f6020820190508181035f830152611e1e81611de5565b9050919050565b5f611e2f82611894565b9150611e3a83611894565b9250828203905081811115611e5257611e51611b52565b5b92915050565b7f6e6f7420746865206f776e6572000000000000000000000000000000000000005f82015250565b5f611e8c600d83611ada565b9150611e9782611e58565b602082019050919050565b5f6020820190508181035f830152611eb981611e80565b9050919050565b7f61756374696f6e207374696c6c20616c697665000000000000000000000000005f82015250565b5f611ef4601383611ada565b9150611eff82611ec0565b602082019050919050565b5f6020820190508181035f830152611f2181611ee8565b9050919050565b5f81905092915050565b50565b5f611f405f83611f28565b9150611f4b82611f32565b5f82019050919050565b5f611f5f82611f35565b9150819050919050565b7f4e487b71000000000000000000000000000000000000000000000000000000005f52603260045260245ffd5b611f9f8161190d565b82525050565b5f604082019050611fb85f830185611f96565b611fc5602083018461189d565b9392505050565b7f6e6f7420657870697265642079657400000000000000000000000000000000005f82015250565b5f612000600f83611ada565b915061200b82611fcc565b602082019050919050565b5f6020820190508181035f83015261202d81611ff4565b9050919050565b5f61203e82611894565b915061204983611894565b925082820190508082111561206157612060611b52565b5b9291505056fea26469706673582212209ff05063e4977c528d186414c5053571737955590b123ae551e40c229921b17164736f6c634300081e0033",
					"opcodes": "PUSH1 0x80 PUSH1 0x40 MSTORE CALLVALUE DUP1 ISZERO PUSH2 0xF JUMPI PUSH0 PUSH0 REVERT JUMPDEST POP CALLER PUSH0 PUSH0 PUSH2 0x100 EXP DUP2 SLOAD DUP2 PUSH20 0xFFFFFFFFFFFFFFFFFFFFFFFFFFFFFFFFFFFFFFFF MUL NOT AND SWAP1 DUP4 PUSH20 0xFFFFFFFFFFFFFFFFFFFFFFFFFFFFFFFFFFFFFFFF AND MUL OR SWAP1 SSTORE POP TIMESTAMP PUSH1 0x2 DUP2 SWAP1 SSTORE POP PUSH3 0x93A80 PUSH1 0x2 SLOAD PUSH2 0x67 SWAP2 SWAP1 PUSH2 0x152 JUMP JUMPDEST PUSH1 0x4 DUP2 SWAP1 SSTORE POP PUSH2 0x258 PUSH1 0x3 DUP2 SWAP1 SSTORE POP PUSH3 0xF4240 PUSH1 0x1 DUP2 SWAP1 SSTORE POP PUSH0 PUSH0 SWAP1 SLOAD SWAP1 PUSH2 0x100 EXP SWAP1 DIV PUSH20 0xFFFFFFFFFFFFFFFFFFFFFFFFFFFFFFFFFFFFFFFF AND PUSH1 0x8 PUSH0 ADD PUSH0 PUSH2 0x100 EXP DUP2 SLOAD DUP2 PUSH20 0xFFFFFFFFFFFFFFFFFFFFFFFFFFFFFFFFFFFFFFFF MUL NOT AND SWAP1 DUP4 PUSH20 0xFFFFFFFFFFFFFFFFFFFFFFFFFFFFFFFFFFFFFFFF AND MUL OR SWAP1 SSTORE POP PUSH1 0x1 SLOAD PUSH1 0x8 PUSH1 0x1 ADD DUP2 SWAP1 SSTORE POP PUSH0 PUSH1 0x5 PUSH0 PUSH2 0x100 EXP DUP2 SLOAD DUP2 PUSH1 0xFF MUL NOT AND SWAP1 DUP4 PUSH1 0x1 DUP2 GT ISZERO PUSH2 0x112 JUMPI PUSH2 0x111 PUSH2 0x185 JUMP JUMPDEST JUMPDEST MUL OR SWAP1 SSTORE POP PUSH2 0x1B2 JUMP JUMPDEST PUSH0 DUP2 SWAP1 POP SWAP2 SWAP1 POP JUMP JUMPDEST PUSH32 0x4E487B7100000000000000000000000000000000000000000000000000000000 PUSH0 MSTORE PUSH1 0x11 PUSH1 0x4 MSTORE PUSH1 0x24 PUSH0 REVERT JUMPDEST PUSH0 PUSH2 0x15C DUP3 PUSH2 0x11C JUMP JUMPDEST SWAP2 POP PUSH2 0x167 DUP4 PUSH2 0x11C JUMP JUMPDEST SWAP3 POP DUP3 DUP3 ADD SWAP1 POP DUP1 DUP3 GT ISZERO PUSH2 0x17F JUMPI PUSH2 0x17E PUSH2 0x125 JUMP JUMPDEST JUMPDEST SWAP3 SWAP2 POP POP JUMP JUMPDEST PUSH32 0x4E487B7100000000000000000000000000000000000000000000000000000000 PUSH0 MSTORE PUSH1 0x21 PUSH1 0x4 MSTORE PUSH1 0x24 PUSH0 REVERT JUMPDEST PUSH2 0x209D DUP1 PUSH2 0x1BF PUSH0 CODECOPY PUSH0 RETURN INVALID PUSH1 0x80 PUSH1 0x40 MSTORE PUSH1 0x4 CALLDATASIZE LT PUSH2 0x85 JUMPI PUSH0 CALLDATALOAD PUSH1 0xE0 SHR DUP1 PUSH4 0x534823BF GT PUSH2 0x58 JUMPI DUP1 PUSH4 0x534823BF EQ PUSH2 0xE9 JUMPI DUP1 PUSH4 0x77C468C4 EQ PUSH2 0x113 JUMPI DUP1 PUSH4 0xB7E03264 EQ PUSH2 0x129 JUMPI DUP1 PUSH4 0xC19D93FB EQ PUSH2 0x153 JUMPI DUP1 PUSH4 0xFE67A54B EQ PUSH2 0x17D JUMPI PUSH2 0x85 JUMP JUMPDEST DUP1 PUSH4 0x1F09DFA7 EQ PUSH2 0x89 JUMPI DUP1 PUSH4 0x464FCD69 EQ PUSH2 0x93 JUMPI DUP1 PUSH4 0x4665096D EQ PUSH2 0xA9 JUMPI DUP1 PUSH4 0x4DBE5889 EQ PUSH2 0xD3 JUMPI JUMPDEST PUSH0 PUSH0 REVERT JUMPDEST PUSH2 0x91 PUSH2 0x193 JUMP JUMPDEST STOP JUMPDEST CALLVALUE DUP1 ISZERO PUSH2 0x9E JUMPI PUSH0 PUSH0 REVERT JUMPDEST POP PUSH2 0xA7 PUSH2 0x330 JUMP JUMPDEST STOP JUMPDEST CALLVALUE DUP1 ISZERO PUSH2 0xB4 JUMPI PUSH0 PUSH0 REVERT JUMPDEST POP PUSH2 0xBD PUSH2 0x5F8 JUMP JUMPDEST PUSH1 0x40 MLOAD PUSH2 0xCA SWAP2 SWAP1 PUSH2 0x18AC JUMP JUMPDEST PUSH1 0x40 MLOAD DUP1 SWAP2 SUB SWAP1 RETURN JUMPDEST CALLVALUE DUP1 ISZERO PUSH2 0xDE JUMPI PUSH0 PUSH0 REVERT JUMPDEST POP PUSH2 0xE7 PUSH2 0x5FE JUMP JUMPDEST STOP JUMPDEST CALLVALUE DUP1 ISZERO PUSH2 0xF4 JUMPI PUSH0 PUSH0 REVERT JUMPDEST POP PUSH2 0xFD PUSH2 0x7D5 JUMP JUMPDEST PUSH1 0x40 MLOAD PUSH2 0x10A SWAP2 SWAP1 PUSH2 0x19E8 JUMP JUMPDEST PUSH1 0x40 MLOAD DUP1 SWAP2 SUB SWAP1 RETURN JUMPDEST CALLVALUE DUP1 ISZERO PUSH2 0x11E JUMPI PUSH0 PUSH0 REVERT JUMPDEST POP PUSH2 0x127 PUSH2 0x88F JUMP JUMPDEST STOP JUMPDEST CALLVALUE DUP1 ISZERO PUSH2 0x134 JUMPI PUSH0 PUSH0 REVERT JUMPDEST POP PUSH2 0x13D PUSH2 0xF32 JUMP JUMPDEST PUSH1 0x40 MLOAD PUSH2 0x14A SWAP2 SWAP1 PUSH2 0x1A35 JUMP JUMPDEST PUSH1 0x40 MLOAD DUP1 SWAP2 SUB SWAP1 RETURN JUMPDEST CALLVALUE DUP1 ISZERO PUSH2 0x15E JUMPI PUSH0 PUSH0 REVERT JUMPDEST POP PUSH2 0x167 PUSH2 0xFAA JUMP JUMPDEST PUSH1 0x40 MLOAD PUSH2 0x174 SWAP2 SWAP1 PUSH2 0x1AC1 JUMP JUMPDEST PUSH1 0x40 MLOAD DUP1 SWAP2 SUB SWAP1 RETURN JUMPDEST CALLVALUE DUP1 ISZERO PUSH2 0x188 JUMPI PUSH0 PUSH0 REVERT JUMPDEST POP PUSH2 0x191 PUSH2 0xFBC JUMP JUMPDEST STOP JUMPDEST PUSH0 PUSH1 0x1 DUP2 GT ISZERO PUSH2 0x1A6 JUMPI PUSH2 0x1A5 PUSH2 0x1A4E JUMP JUMPDEST JUMPDEST PUSH1 0x5 PUSH0 SWAP1 SLOAD SWAP1 PUSH2 0x100 EXP SWAP1 DIV PUSH1 0xFF AND PUSH1 0x1 DUP2 GT ISZERO PUSH2 0x1C7 JUMPI PUSH2 0x1C6 PUSH2 0x1A4E JUMP JUMPDEST JUMPDEST SUB PUSH2 0x2F3 JUMPI PUSH1 0x4 SLOAD TIMESTAMP LT PUSH2 0x210 JUMPI PUSH1 0x40 MLOAD PUSH32 0x8C379A000000000000000000000000000000000000000000000000000000000 DUP2 MSTORE PUSH1 0x4 ADD PUSH2 0x207 SWAP1 PUSH2 0x1B34 JUMP JUMPDEST PUSH1 0x40 MLOAD DUP1 SWAP2 SUB SWAP1 REVERT JUMPDEST PUSH1 0x64 PUSH1 0x69 PUSH1 0x8 PUSH1 0x1 ADD SLOAD PUSH2 0x224 SWAP2 SWAP1 PUSH2 0x1B7F JUMP JUMPDEST PUSH2 0x22E SWAP2 SWAP1 PUSH2 0x1BED JUMP JUMPDEST CALLVALUE LT ISZERO PUSH2 0x270 JUMPI PUSH1 0x40 MLOAD PUSH32 0x8C379A000000000000000000000000000000000000000000000000000000000 DUP2 MSTORE PUSH1 0x4 ADD PUSH2 0x267 SWAP1 PUSH2 0x1C67 JUMP JUMPDEST PUSH1 0x40 MLOAD DUP1 SWAP2 SUB SWAP1 REVERT JUMPDEST PUSH2 0x27A CALLER CALLVALUE PUSH2 0x1195 JUMP JUMPDEST PUSH2 0x285 CALLER CALLVALUE CALLVALUE PUSH2 0x11E5 JUMP JUMPDEST PUSH2 0x28F CALLER CALLVALUE PUSH2 0x1285 JUMP JUMPDEST PUSH2 0x297 PUSH2 0x134C JUMP JUMPDEST CALLER PUSH20 0xFFFFFFFFFFFFFFFFFFFFFFFFFFFFFFFFFFFFFFFF AND PUSH32 0x58D619527549E88853C641EBCEC23205E5DF61592E3908275721B5AD490113F CALLVALUE PUSH1 0x40 MLOAD PUSH2 0x2DD SWAP2 SWAP1 PUSH2 0x18AC JUMP JUMPDEST PUSH1 0x40 MLOAD DUP1 SWAP2 SUB SWAP1 LOG2 PUSH2 0x2EE CALLER PUSH2 0x137F JUMP JUMPDEST PUSH2 0x32E JUMP JUMPDEST PUSH1 0x40 MLOAD PUSH32 0x8C379A000000000000000000000000000000000000000000000000000000000 DUP2 MSTORE PUSH1 0x4 ADD PUSH2 0x325 SWAP1 PUSH2 0x1CCF JUMP JUMPDEST PUSH1 0x40 MLOAD DUP1 SWAP2 SUB SWAP1 REVERT JUMPDEST JUMP JUMPDEST PUSH0 PUSH1 0x1 DUP2 GT ISZERO PUSH2 0x343 JUMPI PUSH2 0x342 PUSH2 0x1A4E JUMP JUMPDEST JUMPDEST PUSH1 0x5 PUSH0 SWAP1 SLOAD SWAP1 PUSH2 0x100 EXP SWAP1 DIV PUSH1 0xFF AND PUSH1 0x1 DUP2 GT ISZERO PUSH2 0x364 JUMPI PUSH2 0x363 PUSH2 0x1A4E JUMP JUMPDEST JUMPDEST EQ PUSH2 0x3A4 JUMPI PUSH1 0x40 MLOAD PUSH32 0x8C379A000000000000000000000000000000000000000000000000000000000 DUP2 MSTORE PUSH1 0x4 ADD PUSH2 0x39B SWAP1 PUSH2 0x1D37 JUMP JUMPDEST PUSH1 0x40 MLOAD DUP1 SWAP2 SUB SWAP1 REVERT JUMPDEST PUSH1 0x1 ISZERO ISZERO PUSH1 0xB PUSH0 CALLER PUSH20 0xFFFFFFFFFFFFFFFFFFFFFFFFFFFFFFFFFFFFFFFF AND PUSH20 0xFFFFFFFFFFFFFFFFFFFFFFFFFFFFFFFFFFFFFFFF AND DUP2 MSTORE PUSH1 0x20 ADD SWAP1 DUP2 MSTORE PUSH1 0x20 ADD PUSH0 KECCAK256 PUSH0 SWAP1 SLOAD SWAP1 PUSH2 0x100 EXP SWAP1 DIV PUSH1 0xFF AND ISZERO ISZERO EQ PUSH2 0x434 JUMPI PUSH1 0x40 MLOAD PUSH32 0x8C379A000000000000000000000000000000000000000000000000000000000 DUP2 MSTORE PUSH1 0x4 ADD PUSH2 0x42B SWAP1 PUSH2 0x1D9F JUMP JUMPDEST PUSH1 0x40 MLOAD DUP1 SWAP2 SUB SWAP1 REVERT JUMPDEST PUSH0 PUSH0 PUSH2 0x43F CALLER PUSH2 0x148C JUMP JUMPDEST DUP1 SWAP3 POP DUP2 SWAP4 POP POP POP PUSH0 ISZERO ISZERO DUP3 ISZERO ISZERO SUB PUSH2 0x48D JUMPI PUSH1 0x40 MLOAD PUSH32 0x8C379A000000000000000000000000000000000000000000000000000000000 DUP2 MSTORE PUSH1 0x4 ADD PUSH2 0x484 SWAP1 PUSH2 0x1E07 JUMP JUMPDEST PUSH1 0x40 MLOAD DUP1 SWAP2 SUB SWAP1 REVERT JUMPDEST DUP1 PUSH1 0x6 PUSH0 CALLER PUSH20 0xFFFFFFFFFFFFFFFFFFFFFFFFFFFFFFFFFFFFFFFF AND PUSH20 0xFFFFFFFFFFFFFFFFFFFFFFFFFFFFFFFFFFFFFFFF AND DUP2 MSTORE PUSH1 0x20 ADD SWAP1 DUP2 MSTORE PUSH1 0x20 ADD PUSH0 KECCAK256 PUSH1 0x2 ADD PUSH0 DUP3 DUP3 SLOAD PUSH2 0x4DC SWAP2 SWAP1 PUSH2 0x1E25 JUMP JUMPDEST SWAP3 POP POP DUP2 SWAP1 SSTORE POP PUSH2 0x4EB PUSH2 0x1866 JUMP JUMPDEST CALLER DUP2 PUSH0 ADD SWAP1 PUSH20 0xFFFFFFFFFFFFFFFFFFFFFFFFFFFFFFFFFFFFFFFF AND SWAP1 DUP2 PUSH20 0xFFFFFFFFFFFFFFFFFFFFFFFFFFFFFFFFFFFFFFFF AND DUP2 MSTORE POP POP PUSH0 DUP2 PUSH1 0x20 ADD DUP2 DUP2 MSTORE POP POP PUSH1 0x7 DUP2 SWAP1 DUP1 PUSH1 0x1 DUP2 SLOAD ADD DUP1 DUP3 SSTORE DUP1 SWAP2 POP POP PUSH1 0x1 SWAP1 SUB SWAP1 PUSH0 MSTORE PUSH1 0x20 PUSH0 KECCAK256 SWAP1 PUSH1 0x2 MUL ADD PUSH0 SWAP1 SWAP2 SWAP1 SWAP2 SWAP1 SWAP2 POP PUSH0 DUP3 ADD MLOAD DUP2 PUSH0 ADD PUSH0 PUSH2 0x100 EXP DUP2 SLOAD DUP2 PUSH20 0xFFFFFFFFFFFFFFFFFFFFFFFFFFFFFFFFFFFFFFFF MUL NOT AND SWAP1 DUP4 PUSH20 0xFFFFFFFFFFFFFFFFFFFFFFFFFFFFFFFFFFFFFFFF AND MUL OR SWAP1 SSTORE POP PUSH1 0x20 DUP3 ADD MLOAD DUP2 PUSH1 0x1 ADD SSTORE POP POP CALLER PUSH20 0xFFFFFFFFFFFFFFFFFFFFFFFFFFFFFFFFFFFFFFFF AND PUSH32 0x5BF4FFBBA2C193E74D733F69408011D333232E84B98A68ECB638621DAB65FFF5 DUP4 PUSH1 0x40 MLOAD PUSH2 0x5EB SWAP2 SWAP1 PUSH2 0x18AC JUMP JUMPDEST PUSH1 0x40 MLOAD DUP1 SWAP2 SUB SWAP1 LOG2 POP POP POP JUMP JUMPDEST PUSH1 0x4 SLOAD DUP2 JUMP JUMPDEST CALLER PUSH20 0xFFFFFFFFFFFFFFFFFFFFFFFFFFFFFFFFFFFFFFFF AND PUSH0 PUSH0 SWAP1 SLOAD SWAP1 PUSH2 0x100 EXP SWAP1 DIV PUSH20 0xFFFFFFFFFFFFFFFFFFFFFFFFFFFFFFFFFFFFFFFF AND PUSH20 0xFFFFFFFFFFFFFFFFFFFFFFFFFFFFFFFFFFFFFFFF AND EQ PUSH2 0x68C JUMPI PUSH1 0x40 MLOAD PUSH32 0x8C379A000000000000000000000000000000000000000000000000000000000 DUP2 MSTORE PUSH1 0x4 ADD PUSH2 0x683 SWAP1 PUSH2 0x1EA2 JUMP JUMPDEST PUSH1 0x40 MLOAD DUP1 SWAP2 SUB SWAP1 REVERT JUMPDEST PUSH1 0x1 DUP1 DUP2 GT ISZERO PUSH2 0x69F JUMPI PUSH2 0x69E PUSH2 0x1A4E JUMP JUMPDEST JUMPDEST PUSH1 0x5 PUSH0 SWAP1 SLOAD SWAP1 PUSH2 0x100 EXP SWAP1 DIV PUSH1 0xFF AND PUSH1 0x1 DUP2 GT ISZERO PUSH2 0x6C0 JUMPI PUSH2 0x6BF PUSH2 0x1A4E JUMP JUMPDEST JUMPDEST EQ PUSH2 0x700 JUMPI PUSH1 0x40 MLOAD PUSH32 0x8C379A000000000000000000000000000000000000000000000000000000000 DUP2 MSTORE PUSH1 0x4 ADD PUSH2 0x6F7 SWAP1 PUSH2 0x1F0A JUMP JUMPDEST PUSH1 0x40 MLOAD DUP1 SWAP2 SUB SWAP1 REVERT JUMPDEST PUSH0 PUSH0 PUSH0 SWAP1 SLOAD SWAP1 PUSH2 0x100 EXP SWAP1 DIV PUSH20 0xFFFFFFFFFFFFFFFFFFFFFFFFFFFFFFFFFFFFFFFF AND PUSH20 0xFFFFFFFFFFFFFFFFFFFFFFFFFFFFFFFFFFFFFFFF AND PUSH2 0x8FC SELFBALANCE PUSH1 0x40 MLOAD PUSH2 0x748 SWAP1 PUSH2 0x1F55 JUMP JUMPDEST PUSH0 PUSH1 0x40 MLOAD DUP1 DUP4 SUB DUP2 DUP6 DUP9 DUP9 CALL SWAP4 POP POP POP POP RETURNDATASIZE DUP1 PUSH0 DUP2 EQ PUSH2 0x783 JUMPI PUSH1 0x40 MLOAD SWAP2 POP PUSH1 0x1F NOT PUSH1 0x3F RETURNDATASIZE ADD AND DUP3 ADD PUSH1 0x40 MSTORE RETURNDATASIZE DUP3 MSTORE RETURNDATASIZE PUSH0 PUSH1 0x20 DUP5 ADD RETURNDATACOPY PUSH2 0x788 JUMP JUMPDEST PUSH1 0x60 SWAP2 POP JUMPDEST POP POP SWAP1 POP PUSH0 ISZERO ISZERO DUP2 ISZERO ISZERO SUB PUSH2 0x7D2 JUMPI PUSH1 0x40 MLOAD PUSH32 0x8C379A000000000000000000000000000000000000000000000000000000000 DUP2 MSTORE PUSH1 0x4 ADD PUSH2 0x7C9 SWAP1 PUSH2 0x1E07 JUMP JUMPDEST PUSH1 0x40 MLOAD DUP1 SWAP2 SUB SWAP1 REVERT JUMPDEST POP JUMP JUMPDEST PUSH1 0x60 PUSH1 0x7 DUP1 SLOAD DUP1 PUSH1 0x20 MUL PUSH1 0x20 ADD PUSH1 0x40 MLOAD SWAP1 DUP2 ADD PUSH1 0x40 MSTORE DUP1 SWAP3 SWAP2 SWAP1 DUP2 DUP2 MSTORE PUSH1 0x20 ADD PUSH0 SWAP1 JUMPDEST DUP3 DUP3 LT ISZERO PUSH2 0x886 JUMPI DUP4 DUP3 SWAP1 PUSH0 MSTORE PUSH1 0x20 PUSH0 KECCAK256 SWAP1 PUSH1 0x2 MUL ADD PUSH1 0x40 MLOAD DUP1 PUSH1 0x40 ADD PUSH1 0x40 MSTORE SWAP1 DUP2 PUSH0 DUP3 ADD PUSH0 SWAP1 SLOAD SWAP1 PUSH2 0x100 EXP SWAP1 DIV PUSH20 0xFFFFFFFFFFFFFFFFFFFFFFFFFFFFFFFFFFFFFFFF AND PUSH20 0xFFFFFFFFFFFFFFFFFFFFFFFFFFFFFFFFFFFFFFFF AND PUSH20 0xFFFFFFFFFFFFFFFFFFFFFFFFFFFFFFFFFFFFFFFF AND DUP2 MSTORE PUSH1 0x20 ADD PUSH1 0x1 DUP3 ADD SLOAD DUP2 MSTORE POP POP DUP2 MSTORE PUSH1 0x20 ADD SWAP1 PUSH1 0x1 ADD SWAP1 PUSH2 0x7F8 JUMP JUMPDEST POP POP POP POP SWAP1 POP SWAP1 JUMP JUMPDEST CALLER PUSH20 0xFFFFFFFFFFFFFFFFFFFFFFFFFFFFFFFFFFFFFFFF AND PUSH0 PUSH0 SWAP1 SLOAD SWAP1 PUSH2 0x100 EXP SWAP1 DIV PUSH20 0xFFFFFFFFFFFFFFFFFFFFFFFFFFFFFFFFFFFFFFFF AND PUSH20 0xFFFFFFFFFFFFFFFFFFFFFFFFFFFFFFFFFFFFFFFF AND EQ PUSH2 0x91D JUMPI PUSH1 0x40 MLOAD PUSH32 0x8C379A000000000000000000000000000000000000000000000000000000000 DUP2 MSTORE PUSH1 0x4 ADD PUSH2 0x914 SWAP1 PUSH2 0x1EA2 JUMP JUMPDEST PUSH1 0x40 MLOAD DUP1 SWAP2 SUB SWAP1 REVERT JUMPDEST PUSH1 0x1 DUP1 DUP2 GT ISZERO PUSH2 0x930 JUMPI PUSH2 0x92F PUSH2 0x1A4E JUMP JUMPDEST JUMPDEST PUSH1 0x5 PUSH0 SWAP1 SLOAD SWAP1 PUSH2 0x100 EXP SWAP1 DIV PUSH1 0xFF AND PUSH1 0x1 DUP2 GT ISZERO PUSH2 0x951 JUMPI PUSH2 0x950 PUSH2 0x1A4E JUMP JUMPDEST JUMPDEST EQ PUSH2 0x991 JUMPI PUSH1 0x40 MLOAD PUSH32 0x8C379A000000000000000000000000000000000000000000000000000000000 DUP2 MSTORE PUSH1 0x4 ADD PUSH2 0x988 SWAP1 PUSH2 0x1F0A JUMP JUMPDEST PUSH1 0x40 MLOAD DUP1 SWAP2 SUB SWAP1 REVERT JUMPDEST PUSH0 PUSH0 PUSH0 PUSH0 SWAP1 POP JUMPDEST PUSH1 0xA DUP1 SLOAD SWAP1 POP DUP2 LT ISZERO PUSH2 0xF2D JUMPI PUSH1 0x8 PUSH0 ADD PUSH0 SWAP1 SLOAD SWAP1 PUSH2 0x100 EXP SWAP1 DIV PUSH20 0xFFFFFFFFFFFFFFFFFFFFFFFFFFFFFFFFFFFFFFFF AND PUSH20 0xFFFFFFFFFFFFFFFFFFFFFFFFFFFFFFFFFFFFFFFF AND PUSH1 0xA DUP3 DUP2 SLOAD DUP2 LT PUSH2 0x9F3 JUMPI PUSH2 0x9F2 PUSH2 0x1F69 JUMP JUMPDEST JUMPDEST SWAP1 PUSH0 MSTORE PUSH1 0x20 PUSH0 KECCAK256 ADD PUSH0 SWAP1 SLOAD SWAP1 PUSH2 0x100 EXP SWAP1 DIV PUSH20 0xFFFFFFFFFFFFFFFFFFFFFFFFFFFFFFFFFFFFFFFF AND PUSH20 0xFFFFFFFFFFFFFFFFFFFFFFFFFFFFFFFFFFFFFFFF AND EQ PUSH2 0xCAD JUMPI PUSH2 0xA7A PUSH1 0xA DUP3 DUP2 SLOAD DUP2 LT PUSH2 0xA4D JUMPI PUSH2 0xA4C PUSH2 0x1F69 JUMP JUMPDEST JUMPDEST SWAP1 PUSH0 MSTORE PUSH1 0x20 PUSH0 KECCAK256 ADD PUSH0 SWAP1 SLOAD SWAP1 PUSH2 0x100 EXP SWAP1 DIV PUSH20 0xFFFFFFFFFFFFFFFFFFFFFFFFFFFFFFFFFFFFFFFF AND PUSH2 0x1664 JUMP JUMPDEST DUP1 SWAP4 POP DUP2 SWAP5 POP POP POP PUSH0 ISZERO ISZERO DUP4 ISZERO ISZERO SUB PUSH2 0xAC8 JUMPI PUSH1 0x40 MLOAD PUSH32 0x8C379A000000000000000000000000000000000000000000000000000000000 DUP2 MSTORE PUSH1 0x4 ADD PUSH2 0xABF SWAP1 PUSH2 0x1E07 JUMP JUMPDEST PUSH1 0x40 MLOAD DUP1 SWAP2 SUB SWAP1 REVERT JUMPDEST DUP2 PUSH1 0x6 PUSH0 PUSH1 0xA DUP5 DUP2 SLOAD DUP2 LT PUSH2 0xAE0 JUMPI PUSH2 0xADF PUSH2 0x1F69 JUMP JUMPDEST JUMPDEST SWAP1 PUSH0 MSTORE PUSH1 0x20 PUSH0 KECCAK256 ADD PUSH0 SWAP1 SLOAD SWAP1 PUSH2 0x100 EXP SWAP1 DIV PUSH20 0xFFFFFFFFFFFFFFFFFFFFFFFFFFFFFFFFFFFFFFFF AND PUSH20 0xFFFFFFFFFFFFFFFFFFFFFFFFFFFFFFFFFFFFFFFF AND PUSH20 0xFFFFFFFFFFFFFFFFFFFFFFFFFFFFFFFFFFFFFFFF AND DUP2 MSTORE PUSH1 0x20 ADD SWAP1 DUP2 MSTORE PUSH1 0x20 ADD PUSH0 KECCAK256 PUSH1 0x2 ADD PUSH0 DUP3 DUP3 SLOAD PUSH2 0xB52 SWAP2 SWAP1 PUSH2 0x1E25 JUMP JUMPDEST SWAP3 POP POP DUP2 SWAP1 SSTORE POP PUSH2 0xB61 PUSH2 0x1866 JUMP JUMPDEST PUSH1 0xA DUP3 DUP2 SLOAD DUP2 LT PUSH2 0xB75 JUMPI PUSH2 0xB74 PUSH2 0x1F69 JUMP JUMPDEST JUMPDEST SWAP1 PUSH0 MSTORE PUSH1 0x20 PUSH0 KECCAK256 ADD PUSH0 SWAP1 SLOAD SWAP1 PUSH2 0x100 EXP SWAP1 DIV PUSH20 0xFFFFFFFFFFFFFFFFFFFFFFFFFFFFFFFFFFFFFFFF AND DUP2 PUSH0 ADD SWAP1 PUSH20 0xFFFFFFFFFFFFFFFFFFFFFFFFFFFFFFFFFFFFFFFF AND SWAP1 DUP2 PUSH20 0xFFFFFFFFFFFFFFFFFFFFFFFFFFFFFFFFFFFFFFFF AND DUP2 MSTORE POP POP PUSH0 DUP2 PUSH1 0x20 ADD DUP2 DUP2 MSTORE POP POP PUSH1 0x7 DUP2 SWAP1 DUP1 PUSH1 0x1 DUP2 SLOAD ADD DUP1 DUP3 SSTORE DUP1 SWAP2 POP POP PUSH1 0x1 SWAP1 SUB SWAP1 PUSH0 MSTORE PUSH1 0x20 PUSH0 KECCAK256 SWAP1 PUSH1 0x2 MUL ADD PUSH0 SWAP1 SWAP2 SWAP1 SWAP2 SWAP1 SWAP2 POP PUSH0 DUP3 ADD MLOAD DUP2 PUSH0 ADD PUSH0 PUSH2 0x100 EXP DUP2 SLOAD DUP2 PUSH20 0xFFFFFFFFFFFFFFFFFFFFFFFFFFFFFFFFFFFFFFFF MUL NOT AND SWAP1 DUP4 PUSH20 0xFFFFFFFFFFFFFFFFFFFFFFFFFFFFFFFFFFFFFFFF AND MUL OR SWAP1 SSTORE POP PUSH1 0x20 DUP3 ADD MLOAD DUP2 PUSH1 0x1 ADD SSTORE POP POP DUP1 PUSH0 ADD MLOAD PUSH20 0xFFFFFFFFFFFFFFFFFFFFFFFFFFFFFFFFFFFFFFFF AND PUSH32 0x34DBA9A7FAF77866D1D036EB7444D95A805BCFE05B6E34819E7D44793D3922D1 DUP5 PUSH1 0x40 MLOAD PUSH2 0xC9F SWAP2 SWAP1 PUSH2 0x18AC JUMP JUMPDEST PUSH1 0x40 MLOAD DUP1 SWAP2 SUB SWAP1 LOG2 POP PUSH2 0xF20 JUMP JUMPDEST PUSH2 0xCF1 PUSH1 0xA DUP3 DUP2 SLOAD DUP2 LT PUSH2 0xCC4 JUMPI PUSH2 0xCC3 PUSH2 0x1F69 JUMP JUMPDEST JUMPDEST SWAP1 PUSH0 MSTORE PUSH1 0x20 PUSH0 KECCAK256 ADD PUSH0 SWAP1 SLOAD SWAP1 PUSH2 0x100 EXP SWAP1 DIV PUSH20 0xFFFFFFFFFFFFFFFFFFFFFFFFFFFFFFFFFFFFFFFF AND PUSH2 0x175D JUMP JUMPDEST DUP1 SWAP4 POP DUP2 SWAP5 POP POP POP PUSH0 ISZERO ISZERO DUP4 ISZERO ISZERO SUB PUSH2 0xD3F JUMPI PUSH1 0x40 MLOAD PUSH32 0x8C379A000000000000000000000000000000000000000000000000000000000 DUP2 MSTORE PUSH1 0x4 ADD PUSH2 0xD36 SWAP1 PUSH2 0x1E07 JUMP JUMPDEST PUSH1 0x40 MLOAD DUP1 SWAP2 SUB SWAP1 REVERT JUMPDEST DUP2 PUSH1 0x6 PUSH0 PUSH1 0xA DUP5 DUP2 SLOAD DUP2 LT PUSH2 0xD57 JUMPI PUSH2 0xD56 PUSH2 0x1F69 JUMP JUMPDEST JUMPDEST SWAP1 PUSH0 MSTORE PUSH1 0x20 PUSH0 KECCAK256 ADD PUSH0 SWAP1 SLOAD SWAP1 PUSH2 0x100 EXP SWAP1 DIV PUSH20 0xFFFFFFFFFFFFFFFFFFFFFFFFFFFFFFFFFFFFFFFF AND PUSH20 0xFFFFFFFFFFFFFFFFFFFFFFFFFFFFFFFFFFFFFFFF AND PUSH20 0xFFFFFFFFFFFFFFFFFFFFFFFFFFFFFFFFFFFFFFFF AND DUP2 MSTORE PUSH1 0x20 ADD SWAP1 DUP2 MSTORE PUSH1 0x20 ADD PUSH0 KECCAK256 PUSH1 0x2 ADD PUSH0 DUP3 DUP3 SLOAD PUSH2 0xDC9 SWAP2 SWAP1 PUSH2 0x1E25 JUMP JUMPDEST SWAP3 POP POP DUP2 SWAP1 SSTORE POP PUSH2 0xDD8 PUSH2 0x1866 JUMP JUMPDEST PUSH1 0xA DUP3 DUP2 SLOAD DUP2 LT PUSH2 0xDEC JUMPI PUSH2 0xDEB PUSH2 0x1F69 JUMP JUMPDEST JUMPDEST SWAP1 PUSH0 MSTORE PUSH1 0x20 PUSH0 KECCAK256 ADD PUSH0 SWAP1 SLOAD SWAP1 PUSH2 0x100 EXP SWAP1 DIV PUSH20 0xFFFFFFFFFFFFFFFFFFFFFFFFFFFFFFFFFFFFFFFF AND DUP2 PUSH0 ADD SWAP1 PUSH20 0xFFFFFFFFFFFFFFFFFFFFFFFFFFFFFFFFFFFFFFFF AND SWAP1 DUP2 PUSH20 0xFFFFFFFFFFFFFFFFFFFFFFFFFFFFFFFFFFFFFFFF AND DUP2 MSTORE POP POP PUSH0 DUP2 PUSH1 0x20 ADD DUP2 DUP2 MSTORE POP POP PUSH1 0x7 DUP2 SWAP1 DUP1 PUSH1 0x1 DUP2 SLOAD ADD DUP1 DUP3 SSTORE DUP1 SWAP2 POP POP PUSH1 0x1 SWAP1 SUB SWAP1 PUSH0 MSTORE PUSH1 0x20 PUSH0 KECCAK256 SWAP1 PUSH1 0x2 MUL ADD PUSH0 SWAP1 SWAP2 SWAP1 SWAP2 SWAP1 SWAP2 POP PUSH0 DUP3 ADD MLOAD DUP2 PUSH0 ADD PUSH0 PUSH2 0x100 EXP DUP2 SLOAD DUP2 PUSH20 0xFFFFFFFFFFFFFFFFFFFFFFFFFFFFFFFFFFFFFFFF MUL NOT AND SWAP1 DUP4 PUSH20 0xFFFFFFFFFFFFFFFFFFFFFFFFFFFFFFFFFFFFFFFF AND MUL OR SWAP1 SSTORE POP PUSH1 0x20 DUP3 ADD MLOAD DUP2 PUSH1 0x1 ADD SSTORE POP POP DUP1 PUSH0 ADD MLOAD PUSH20 0xFFFFFFFFFFFFFFFFFFFFFFFFFFFFFFFFFFFFFFFF AND PUSH32 0x34DBA9A7FAF77866D1D036EB7444D95A805BCFE05B6E34819E7D44793D3922D1 DUP5 PUSH1 0x40 MLOAD PUSH2 0xF16 SWAP2 SWAP1 PUSH2 0x18AC JUMP JUMPDEST PUSH1 0x40 MLOAD DUP1 SWAP2 SUB SWAP1 LOG2 POP JUMPDEST DUP1 DUP1 PUSH1 0x1 ADD SWAP2 POP POP PUSH2 0x998 JUMP JUMPDEST POP POP POP JUMP JUMPDEST PUSH2 0xF3A PUSH2 0x1866 JUMP JUMPDEST PUSH1 0x8 PUSH1 0x40 MLOAD DUP1 PUSH1 0x40 ADD PUSH1 0x40 MSTORE SWAP1 DUP2 PUSH0 DUP3 ADD PUSH0 SWAP1 SLOAD SWAP1 PUSH2 0x100 EXP SWAP1 DIV PUSH20 0xFFFFFFFFFFFFFFFFFFFFFFFFFFFFFFFFFFFFFFFF AND PUSH20 0xFFFFFFFFFFFFFFFFFFFFFFFFFFFFFFFFFFFFFFFF AND PUSH20 0xFFFFFFFFFFFFFFFFFFFFFFFFFFFFFFFFFFFFFFFF AND DUP2 MSTORE PUSH1 0x20 ADD PUSH1 0x1 DUP3 ADD SLOAD DUP2 MSTORE POP POP SWAP1 POP SWAP1 JUMP JUMPDEST PUSH1 0x5 PUSH0 SWAP1 SLOAD SWAP1 PUSH2 0x100 EXP SWAP1 DIV PUSH1 0xFF AND DUP2 JUMP JUMPDEST CALLER PUSH20 0xFFFFFFFFFFFFFFFFFFFFFFFFFFFFFFFFFFFFFFFF AND PUSH0 PUSH0 SWAP1 SLOAD SWAP1 PUSH2 0x100 EXP SWAP1 DIV PUSH20 0xFFFFFFFFFFFFFFFFFFFFFFFFFFFFFFFFFFFFFFFF AND PUSH20 0xFFFFFFFFFFFFFFFFFFFFFFFFFFFFFFFFFFFFFFFF AND EQ PUSH2 0x104A JUMPI PUSH1 0x40 MLOAD PUSH32 0x8C379A000000000000000000000000000000000000000000000000000000000 DUP2 MSTORE PUSH1 0x4 ADD PUSH2 0x1041 SWAP1 PUSH2 0x1EA2 JUMP JUMPDEST PUSH1 0x40 MLOAD DUP1 SWAP2 SUB SWAP1 REVERT JUMPDEST PUSH0 PUSH1 0x1 DUP2 GT ISZERO PUSH2 0x105D JUMPI PUSH2 0x105C PUSH2 0x1A4E JUMP JUMPDEST JUMPDEST PUSH1 0x5 PUSH0 SWAP1 SLOAD SWAP1 PUSH2 0x100 EXP SWAP1 DIV PUSH1 0xFF AND PUSH1 0x1 DUP2 GT ISZERO PUSH2 0x107E JUMPI PUSH2 0x107D PUSH2 0x1A4E JUMP JUMPDEST JUMPDEST EQ PUSH2 0x10BE JUMPI PUSH1 0x40 MLOAD PUSH32 0x8C379A000000000000000000000000000000000000000000000000000000000 DUP2 MSTORE PUSH1 0x4 ADD PUSH2 0x10B5 SWAP1 PUSH2 0x1D37 JUMP JUMPDEST PUSH1 0x40 MLOAD DUP1 SWAP2 SUB SWAP1 REVERT JUMPDEST PUSH1 0x4 SLOAD TIMESTAMP GT ISZERO PUSH2 0x1158 JUMPI PUSH1 0x1 PUSH1 0x5 PUSH0 PUSH2 0x100 EXP DUP2 SLOAD DUP2 PUSH1 0xFF MUL NOT AND SWAP1 DUP4 PUSH1 0x1 DUP2 GT ISZERO PUSH2 0x10ED JUMPI PUSH2 0x10EC PUSH2 0x1A4E JUMP JUMPDEST JUMPDEST MUL OR SWAP1 SSTORE POP PUSH32 0xDAEC4582D5D9595688C8C98545FDD1C696D41C6AEAEB636737E84ED2F5C00EDA PUSH1 0x8 PUSH0 ADD PUSH0 SWAP1 SLOAD SWAP1 PUSH2 0x100 EXP SWAP1 DIV PUSH20 0xFFFFFFFFFFFFFFFFFFFFFFFFFFFFFFFFFFFFFFFF AND PUSH1 0x8 PUSH1 0x1 ADD SLOAD PUSH1 0x40 MLOAD PUSH2 0x114B SWAP3 SWAP2 SWAP1 PUSH2 0x1FA5 JUMP JUMPDEST PUSH1 0x40 MLOAD DUP1 SWAP2 SUB SWAP1 LOG1 PUSH2 0x1193 JUMP JUMPDEST PUSH1 0x40 MLOAD PUSH32 0x8C379A000000000000000000000000000000000000000000000000000000000 DUP2 MSTORE PUSH1 0x4 ADD PUSH2 0x118A SWAP1 PUSH2 0x2016 JUMP JUMPDEST PUSH1 0x40 MLOAD DUP1 SWAP2 SUB SWAP1 REVERT JUMPDEST JUMP JUMPDEST DUP2 PUSH1 0x8 PUSH0 ADD PUSH0 PUSH2 0x100 EXP DUP2 SLOAD DUP2 PUSH20 0xFFFFFFFFFFFFFFFFFFFFFFFFFFFFFFFFFFFFFFFF MUL NOT AND SWAP1 DUP4 PUSH20 0xFFFFFFFFFFFFFFFFFFFFFFFFFFFFFFFFFFFFFFFF AND MUL OR SWAP1 SSTORE POP DUP1 PUSH1 0x8 PUSH1 0x1 ADD DUP2 SWAP1 SSTORE POP POP POP JUMP JUMPDEST DUP2 PUSH1 0x6 PUSH0 DUP6 PUSH20 0xFFFFFFFFFFFFFFFFFFFFFFFFFFFFFFFFFFFFFFFF AND PUSH20 0xFFFFFFFFFFFFFFFFFFFFFFFFFFFFFFFFFFFFFFFF AND DUP2 MSTORE PUSH1 0x20 ADD SWAP1 DUP2 MSTORE PUSH1 0x20 ADD PUSH0 KECCAK256 PUSH1 0x1 ADD DUP2 SWAP1 SSTORE POP DUP1 PUSH1 0x6 PUSH0 DUP6 PUSH20 0xFFFFFFFFFFFFFFFFFFFFFFFFFFFFFFFFFFFFFFFF AND PUSH20 0xFFFFFFFFFFFFFFFFFFFFFFFFFFFFFFFFFFFFFFFF AND DUP2 MSTORE PUSH1 0x20 ADD SWAP1 DUP2 MSTORE PUSH1 0x20 ADD PUSH0 KECCAK256 PUSH1 0x2 ADD PUSH0 DUP3 DUP3 SLOAD PUSH2 0x1279 SWAP2 SWAP1 PUSH2 0x2034 JUMP JUMPDEST SWAP3 POP POP DUP2 SWAP1 SSTORE POP POP POP POP JUMP JUMPDEST PUSH2 0x128D PUSH2 0x1866 JUMP JUMPDEST DUP3 DUP2 PUSH0 ADD SWAP1 PUSH20 0xFFFFFFFFFFFFFFFFFFFFFFFFFFFFFFFFFFFFFFFF AND SWAP1 DUP2 PUSH20 0xFFFFFFFFFFFFFFFFFFFFFFFFFFFFFFFFFFFFFFFF AND DUP2 MSTORE POP POP DUP2 DUP2 PUSH1 0x20 ADD DUP2 DUP2 MSTORE POP POP PUSH1 0x7 DUP2 SWAP1 DUP1 PUSH1 0x1 DUP2 SLOAD ADD DUP1 DUP3 SSTORE DUP1 SWAP2 POP POP PUSH1 0x1 SWAP1 SUB SWAP1 PUSH0 MSTORE PUSH1 0x20 PUSH0 KECCAK256 SWAP1 PUSH1 0x2 MUL ADD PUSH0 SWAP1 SWAP2 SWAP1 SWAP2 SWAP1 SWAP2 POP PUSH0 DUP3 ADD MLOAD DUP2 PUSH0 ADD PUSH0 PUSH2 0x100 EXP DUP2 SLOAD DUP2 PUSH20 0xFFFFFFFFFFFFFFFFFFFFFFFFFFFFFFFFFFFFFFFF MUL NOT AND SWAP1 DUP4 PUSH20 0xFFFFFFFFFFFFFFFFFFFFFFFFFFFFFFFFFFFFFFFF AND MUL OR SWAP1 SSTORE POP PUSH1 0x20 DUP3 ADD MLOAD DUP2 PUSH1 0x1 ADD SSTORE POP POP POP POP POP JUMP JUMPDEST PUSH1 0x3 SLOAD PUSH1 0x4 SLOAD PUSH2 0x135C SWAP2 SWAP1 PUSH2 0x1E25 JUMP JUMPDEST TIMESTAMP LT PUSH2 0x137D JUMPI PUSH1 0x3 SLOAD PUSH1 0x4 PUSH0 DUP3 DUP3 SLOAD PUSH2 0x1375 SWAP2 SWAP1 PUSH2 0x2034 JUMP JUMPDEST SWAP3 POP POP DUP2 SWAP1 SSTORE POP JUMPDEST JUMP JUMPDEST PUSH0 ISZERO ISZERO PUSH1 0xB PUSH0 DUP4 PUSH20 0xFFFFFFFFFFFFFFFFFFFFFFFFFFFFFFFFFFFFFFFF AND PUSH20 0xFFFFFFFFFFFFFFFFFFFFFFFFFFFFFFFFFFFFFFFF AND DUP2 MSTORE PUSH1 0x20 ADD SWAP1 DUP2 MSTORE PUSH1 0x20 ADD PUSH0 KECCAK256 PUSH0 SWAP1 SLOAD SWAP1 PUSH2 0x100 EXP SWAP1 DIV PUSH1 0xFF AND ISZERO ISZERO SUB PUSH2 0x1489 JUMPI PUSH1 0xA DUP2 SWAP1 DUP1 PUSH1 0x1 DUP2 SLOAD ADD DUP1 DUP3 SSTORE DUP1 SWAP2 POP POP PUSH1 0x1 SWAP1 SUB SWAP1 PUSH0 MSTORE PUSH1 0x20 PUSH0 KECCAK256 ADD PUSH0 SWAP1 SWAP2 SWAP1 SWAP2 SWAP1 SWAP2 PUSH2 0x100 EXP DUP2 SLOAD DUP2 PUSH20 0xFFFFFFFFFFFFFFFFFFFFFFFFFFFFFFFFFFFFFFFF MUL NOT AND SWAP1 DUP4 PUSH20 0xFFFFFFFFFFFFFFFFFFFFFFFFFFFFFFFFFFFFFFFF AND MUL OR SWAP1 SSTORE POP PUSH1 0x1 PUSH1 0xB PUSH0 DUP4 PUSH20 0xFFFFFFFFFFFFFFFFFFFFFFFFFFFFFFFFFFFFFFFF AND PUSH20 0xFFFFFFFFFFFFFFFFFFFFFFFFFFFFFFFFFFFFFFFF AND DUP2 MSTORE PUSH1 0x20 ADD SWAP1 DUP2 MSTORE PUSH1 0x20 ADD PUSH0 KECCAK256 PUSH0 PUSH2 0x100 EXP DUP2 SLOAD DUP2 PUSH1 0xFF MUL NOT AND SWAP1 DUP4 ISZERO ISZERO MUL OR SWAP1 SSTORE POP JUMPDEST POP JUMP JUMPDEST PUSH0 PUSH0 PUSH1 0x6 PUSH0 DUP5 PUSH20 0xFFFFFFFFFFFFFFFFFFFFFFFFFFFFFFFFFFFFFFFF AND PUSH20 0xFFFFFFFFFFFFFFFFFFFFFFFFFFFFFFFFFFFFFFFF AND DUP2 MSTORE PUSH1 0x20 ADD SWAP1 DUP2 MSTORE PUSH1 0x20 ADD PUSH0 KECCAK256 PUSH1 0x1 ADD SLOAD PUSH1 0x6 PUSH0 DUP6 PUSH20 0xFFFFFFFFFFFFFFFFFFFFFFFFFFFFFFFFFFFFFFFF AND PUSH20 0xFFFFFFFFFFFFFFFFFFFFFFFFFFFFFFFFFFFFFFFF AND DUP2 MSTORE PUSH1 0x20 ADD SWAP1 DUP2 MSTORE PUSH1 0x20 ADD PUSH0 KECCAK256 PUSH1 0x2 ADD SLOAD GT ISZERO PUSH2 0x1657 JUMPI PUSH0 PUSH1 0x6 PUSH0 DUP6 PUSH20 0xFFFFFFFFFFFFFFFFFFFFFFFFFFFFFFFFFFFFFFFF AND PUSH20 0xFFFFFFFFFFFFFFFFFFFFFFFFFFFFFFFFFFFFFFFF AND DUP2 MSTORE PUSH1 0x20 ADD SWAP1 DUP2 MSTORE PUSH1 0x20 ADD PUSH0 KECCAK256 PUSH1 0x1 ADD SLOAD PUSH1 0x6 PUSH0 DUP7 PUSH20 0xFFFFFFFFFFFFFFFFFFFFFFFFFFFFFFFFFFFFFFFF AND PUSH20 0xFFFFFFFFFFFFFFFFFFFFFFFFFFFFFFFFFFFFFFFF AND DUP2 MSTORE PUSH1 0x20 ADD SWAP1 DUP2 MSTORE PUSH1 0x20 ADD PUSH0 KECCAK256 PUSH1 0x2 ADD SLOAD PUSH2 0x15A3 SWAP2 SWAP1 PUSH2 0x1E25 JUMP JUMPDEST SWAP1 POP PUSH0 PUSH1 0x64 PUSH1 0x62 DUP4 PUSH2 0x15B5 SWAP2 SWAP1 PUSH2 0x1B7F JUMP JUMPDEST PUSH2 0x15BF SWAP2 SWAP1 PUSH2 0x1BED JUMP JUMPDEST SWAP1 POP PUSH0 DUP6 PUSH20 0xFFFFFFFFFFFFFFFFFFFFFFFFFFFFFFFFFFFFFFFF AND PUSH2 0x8FC DUP4 PUSH1 0x40 MLOAD PUSH2 0x15E9 SWAP1 PUSH2 0x1F55 JUMP JUMPDEST PUSH0 PUSH1 0x40 MLOAD DUP1 DUP4 SUB DUP2 DUP6 DUP9 DUP9 CALL SWAP4 POP POP POP POP RETURNDATASIZE DUP1 PUSH0 DUP2 EQ PUSH2 0x1624 JUMPI PUSH1 0x40 MLOAD SWAP2 POP PUSH1 0x1F NOT PUSH1 0x3F RETURNDATASIZE ADD AND DUP3 ADD PUSH1 0x40 MSTORE RETURNDATASIZE DUP3 MSTORE RETURNDATASIZE PUSH0 PUSH1 0x20 DUP5 ADD RETURNDATACOPY PUSH2 0x1629 JUMP JUMPDEST PUSH1 0x60 SWAP2 POP JUMPDEST POP POP SWAP1 POP PUSH0 ISZERO ISZERO DUP2 ISZERO ISZERO SUB PUSH2 0x1649 JUMPI PUSH0 SWAP3 POP DUP1 DUP4 SWAP5 POP SWAP5 POP POP POP POP PUSH2 0x165F JUMP JUMPDEST DUP1 DUP4 SWAP5 POP SWAP5 POP POP POP POP PUSH2 0x165F JUMP JUMPDEST PUSH1 0x1 PUSH0 SWAP2 POP SWAP2 POP JUMPDEST SWAP2 POP SWAP2 JUMP JUMPDEST PUSH0 PUSH0 PUSH0 PUSH1 0x6 PUSH0 DUP6 PUSH20 0xFFFFFFFFFFFFFFFFFFFFFFFFFFFFFFFFFFFFFFFF AND PUSH20 0xFFFFFFFFFFFFFFFFFFFFFFFFFFFFFFFFFFFFFFFF AND DUP2 MSTORE PUSH1 0x20 ADD SWAP1 DUP2 MSTORE PUSH1 0x20 ADD PUSH0 KECCAK256 PUSH1 0x2 ADD SLOAD SWAP1 POP PUSH0 PUSH1 0x64 PUSH1 0x62 DUP4 PUSH2 0x16BA SWAP2 SWAP1 PUSH2 0x1B7F JUMP JUMPDEST PUSH2 0x16C4 SWAP2 SWAP1 PUSH2 0x1BED JUMP JUMPDEST SWAP1 POP PUSH0 DUP6 PUSH20 0xFFFFFFFFFFFFFFFFFFFFFFFFFFFFFFFFFFFFFFFF AND PUSH2 0x8FC DUP4 PUSH1 0x40 MLOAD PUSH2 0x16EE SWAP1 PUSH2 0x1F55 JUMP JUMPDEST PUSH0 PUSH1 0x40 MLOAD DUP1 DUP4 SUB DUP2 DUP6 DUP9 DUP9 CALL SWAP4 POP POP POP POP RETURNDATASIZE DUP1 PUSH0 DUP2 EQ PUSH2 0x1729 JUMPI PUSH1 0x40 MLOAD SWAP2 POP PUSH1 0x1F NOT PUSH1 0x3F RETURNDATASIZE ADD AND DUP3 ADD PUSH1 0x40 MSTORE RETURNDATASIZE DUP3 MSTORE RETURNDATASIZE PUSH0 PUSH1 0x20 DUP5 ADD RETURNDATACOPY PUSH2 0x172E JUMP JUMPDEST PUSH1 0x60 SWAP2 POP JUMPDEST POP POP SWAP1 POP PUSH0 ISZERO ISZERO DUP2 ISZERO ISZERO SUB PUSH2 0x174E JUMPI PUSH0 SWAP3 POP DUP1 DUP4 SWAP5 POP SWAP5 POP POP POP POP PUSH2 0x1758 JUMP JUMPDEST DUP1 DUP4 SWAP5 POP SWAP5 POP POP POP POP JUMPDEST SWAP2 POP SWAP2 JUMP JUMPDEST PUSH0 PUSH0 PUSH0 PUSH1 0x8 PUSH1 0x1 ADD SLOAD PUSH1 0x6 PUSH0 DUP7 PUSH20 0xFFFFFFFFFFFFFFFFFFFFFFFFFFFFFFFFFFFFFFFF AND PUSH20 0xFFFFFFFFFFFFFFFFFFFFFFFFFFFFFFFFFFFFFFFF AND DUP2 MSTORE PUSH1 0x20 ADD SWAP1 DUP2 MSTORE PUSH1 0x20 ADD PUSH0 KECCAK256 PUSH1 0x2 ADD SLOAD PUSH2 0x17B1 SWAP2 SWAP1 PUSH2 0x1E25 JUMP JUMPDEST SWAP1 POP PUSH0 PUSH1 0x64 PUSH1 0x62 DUP4 PUSH2 0x17C3 SWAP2 SWAP1 PUSH2 0x1B7F JUMP JUMPDEST PUSH2 0x17CD SWAP2 SWAP1 PUSH2 0x1BED JUMP JUMPDEST SWAP1 POP PUSH0 DUP6 PUSH20 0xFFFFFFFFFFFFFFFFFFFFFFFFFFFFFFFFFFFFFFFF AND PUSH2 0x8FC DUP4 PUSH1 0x40 MLOAD PUSH2 0x17F7 SWAP1 PUSH2 0x1F55 JUMP JUMPDEST PUSH0 PUSH1 0x40 MLOAD DUP1 DUP4 SUB DUP2 DUP6 DUP9 DUP9 CALL SWAP4 POP POP POP POP RETURNDATASIZE DUP1 PUSH0 DUP2 EQ PUSH2 0x1832 JUMPI PUSH1 0x40 MLOAD SWAP2 POP PUSH1 0x1F NOT PUSH1 0x3F RETURNDATASIZE ADD AND DUP3 ADD PUSH1 0x40 MSTORE RETURNDATASIZE DUP3 MSTORE RETURNDATASIZE PUSH0 PUSH1 0x20 DUP5 ADD RETURNDATACOPY PUSH2 0x1837 JUMP JUMPDEST PUSH1 0x60 SWAP2 POP JUMPDEST POP POP SWAP1 POP PUSH0 ISZERO ISZERO DUP2 ISZERO ISZERO SUB PUSH2 0x1857 JUMPI PUSH0 SWAP3 POP DUP1 DUP4 SWAP5 POP SWAP5 POP POP POP POP PUSH2 0x1861 JUMP JUMPDEST DUP1 DUP4 SWAP5 POP SWAP5 POP POP POP POP JUMPDEST SWAP2 POP SWAP2 JUMP JUMPDEST PUSH1 0x40 MLOAD DUP1 PUSH1 0x40 ADD PUSH1 0x40 MSTORE DUP1 PUSH0 PUSH20 0xFFFFFFFFFFFFFFFFFFFFFFFFFFFFFFFFFFFFFFFF AND DUP2 MSTORE PUSH1 0x20 ADD PUSH0 DUP2 MSTORE POP SWAP1 JUMP JUMPDEST PUSH0 DUP2 SWAP1 POP SWAP2 SWAP1 POP JUMP JUMPDEST PUSH2 0x18A6 DUP2 PUSH2 0x1894 JUMP JUMPDEST DUP3 MSTORE POP POP JUMP JUMPDEST PUSH0 PUSH1 0x20 DUP3 ADD SWAP1 POP PUSH2 0x18BF PUSH0 DUP4 ADD DUP5 PUSH2 0x189D JUMP JUMPDEST SWAP3 SWAP2 POP POP JUMP JUMPDEST PUSH0 DUP2 MLOAD SWAP1 POP SWAP2 SWAP1 POP JUMP JUMPDEST PUSH0 DUP3 DUP3 MSTORE PUSH1 0x20 DUP3 ADD SWAP1 POP SWAP3 SWAP2 POP POP JUMP JUMPDEST PUSH0 DUP2 SWAP1 POP PUSH1 0x20 DUP3 ADD SWAP1 POP SWAP2 SWAP1 POP JUMP JUMPDEST PUSH0 PUSH20 0xFFFFFFFFFFFFFFFFFFFFFFFFFFFFFFFFFFFFFFFF DUP3 AND SWAP1 POP SWAP2 SWAP1 POP JUMP JUMPDEST PUSH0 PUSH2 0x1917 DUP3 PUSH2 0x18EE JUMP JUMPDEST SWAP1 POP SWAP2 SWAP1 POP JUMP JUMPDEST PUSH2 0x1927 DUP2 PUSH2 0x190D JUMP JUMPDEST DUP3 MSTORE POP POP JUMP JUMPDEST PUSH2 0x1936 DUP2 PUSH2 0x1894 JUMP JUMPDEST DUP3 MSTORE POP POP JUMP JUMPDEST PUSH1 0x40 DUP3 ADD PUSH0 DUP3 ADD MLOAD PUSH2 0x1950 PUSH0 DUP6 ADD DUP3 PUSH2 0x191E JUMP JUMPDEST POP PUSH1 0x20 DUP3 ADD MLOAD PUSH2 0x1963 PUSH1 0x20 DUP6 ADD DUP3 PUSH2 0x192D JUMP JUMPDEST POP POP POP POP JUMP JUMPDEST PUSH0 PUSH2 0x1974 DUP4 DUP4 PUSH2 0x193C JUMP JUMPDEST PUSH1 0x40 DUP4 ADD SWAP1 POP SWAP3 SWAP2 POP POP JUMP JUMPDEST PUSH0 PUSH1 0x20 DUP3 ADD SWAP1 POP SWAP2 SWAP1 POP JUMP JUMPDEST PUSH0 PUSH2 0x1996 DUP3 PUSH2 0x18C5 JUMP JUMPDEST PUSH2 0x19A0 DUP2 DUP6 PUSH2 0x18CF JUMP JUMPDEST SWAP4 POP PUSH2 0x19AB DUP4 PUSH2 0x18DF JUMP JUMPDEST DUP1 PUSH0 JUMPDEST DUP4 DUP2 LT ISZERO PUSH2 0x19DB JUMPI DUP2 MLOAD PUSH2 0x19C2 DUP9 DUP3 PUSH2 0x1969 JUMP JUMPDEST SWAP8 POP PUSH2 0x19CD DUP4 PUSH2 0x1980 JUMP JUMPDEST SWAP3 POP POP PUSH1 0x1 DUP2 ADD SWAP1 POP PUSH2 0x19AE JUMP JUMPDEST POP DUP6 SWAP4 POP POP POP POP SWAP3 SWAP2 POP POP JUMP JUMPDEST PUSH0 PUSH1 0x20 DUP3 ADD SWAP1 POP DUP2 DUP2 SUB PUSH0 DUP4 ADD MSTORE PUSH2 0x1A00 DUP2 DUP5 PUSH2 0x198C JUMP JUMPDEST SWAP1 POP SWAP3 SWAP2 POP POP JUMP JUMPDEST PUSH1 0x40 DUP3 ADD PUSH0 DUP3 ADD MLOAD PUSH2 0x1A1C PUSH0 DUP6 ADD DUP3 PUSH2 0x191E JUMP JUMPDEST POP PUSH1 0x20 DUP3 ADD MLOAD PUSH2 0x1A2F PUSH1 0x20 DUP6 ADD DUP3 PUSH2 0x192D JUMP JUMPDEST POP POP POP POP JUMP JUMPDEST PUSH0 PUSH1 0x40 DUP3 ADD SWAP1 POP PUSH2 0x1A48 PUSH0 DUP4 ADD DUP5 PUSH2 0x1A08 JUMP JUMPDEST SWAP3 SWAP2 POP POP JUMP JUMPDEST PUSH32 0x4E487B7100000000000000000000000000000000000000000000000000000000 PUSH0 MSTORE PUSH1 0x21 PUSH1 0x4 MSTORE PUSH1 0x24 PUSH0 REVERT JUMPDEST PUSH1 0x2 DUP2 LT PUSH2 0x1A8C JUMPI PUSH2 0x1A8B PUSH2 0x1A4E JUMP JUMPDEST JUMPDEST POP JUMP JUMPDEST PUSH0 DUP2 SWAP1 POP PUSH2 0x1A9C DUP3 PUSH2 0x1A7B JUMP JUMPDEST SWAP2 SWAP1 POP JUMP JUMPDEST PUSH0 PUSH2 0x1AAB DUP3 PUSH2 0x1A8F JUMP JUMPDEST SWAP1 POP SWAP2 SWAP1 POP JUMP JUMPDEST PUSH2 0x1ABB DUP2 PUSH2 0x1AA1 JUMP JUMPDEST DUP3 MSTORE POP POP JUMP JUMPDEST PUSH0 PUSH1 0x20 DUP3 ADD SWAP1 POP PUSH2 0x1AD4 PUSH0 DUP4 ADD DUP5 PUSH2 0x1AB2 JUMP JUMPDEST SWAP3 SWAP2 POP POP JUMP JUMPDEST PUSH0 DUP3 DUP3 MSTORE PUSH1 0x20 DUP3 ADD SWAP1 POP SWAP3 SWAP2 POP POP JUMP JUMPDEST PUSH32 0x696E76616C6964206F666665722074696D650000000000000000000000000000 PUSH0 DUP3 ADD MSTORE POP JUMP JUMPDEST PUSH0 PUSH2 0x1B1E PUSH1 0x12 DUP4 PUSH2 0x1ADA JUMP JUMPDEST SWAP2 POP PUSH2 0x1B29 DUP3 PUSH2 0x1AEA JUMP JUMPDEST PUSH1 0x20 DUP3 ADD SWAP1 POP SWAP2 SWAP1 POP JUMP JUMPDEST PUSH0 PUSH1 0x20 DUP3 ADD SWAP1 POP DUP2 DUP2 SUB PUSH0 DUP4 ADD MSTORE PUSH2 0x1B4B DUP2 PUSH2 0x1B12 JUMP JUMPDEST SWAP1 POP SWAP2 SWAP1 POP JUMP JUMPDEST PUSH32 0x4E487B7100000000000000000000000000000000000000000000000000000000 PUSH0 MSTORE PUSH1 0x11 PUSH1 0x4 MSTORE PUSH1 0x24 PUSH0 REVERT JUMPDEST PUSH0 PUSH2 0x1B89 DUP3 PUSH2 0x1894 JUMP JUMPDEST SWAP2 POP PUSH2 0x1B94 DUP4 PUSH2 0x1894 JUMP JUMPDEST SWAP3 POP DUP3 DUP3 MUL PUSH2 0x1BA2 DUP2 PUSH2 0x1894 JUMP JUMPDEST SWAP2 POP DUP3 DUP3 DIV DUP5 EQ DUP4 ISZERO OR PUSH2 0x1BB9 JUMPI PUSH2 0x1BB8 PUSH2 0x1B52 JUMP JUMPDEST JUMPDEST POP SWAP3 SWAP2 POP POP JUMP JUMPDEST PUSH32 0x4E487B7100000000000000000000000000000000000000000000000000000000 PUSH0 MSTORE PUSH1 0x12 PUSH1 0x4 MSTORE PUSH1 0x24 PUSH0 REVERT JUMPDEST PUSH0 PUSH2 0x1BF7 DUP3 PUSH2 0x1894 JUMP JUMPDEST SWAP2 POP PUSH2 0x1C02 DUP4 PUSH2 0x1894 JUMP JUMPDEST SWAP3 POP DUP3 PUSH2 0x1C12 JUMPI PUSH2 0x1C11 PUSH2 0x1BC0 JUMP JUMPDEST JUMPDEST DUP3 DUP3 DIV SWAP1 POP SWAP3 SWAP2 POP POP JUMP JUMPDEST PUSH32 0x696E76616C6964206F666665722076616C756500000000000000000000000000 PUSH0 DUP3 ADD MSTORE POP JUMP JUMPDEST PUSH0 PUSH2 0x1C51 PUSH1 0x13 DUP4 PUSH2 0x1ADA JUMP JUMPDEST SWAP2 POP PUSH2 0x1C5C DUP3 PUSH2 0x1C1D JUMP JUMPDEST PUSH1 0x20 DUP3 ADD SWAP1 POP SWAP2 SWAP1 POP JUMP JUMPDEST PUSH0 PUSH1 0x20 DUP3 ADD SWAP1 POP DUP2 DUP2 SUB PUSH0 DUP4 ADD MSTORE PUSH2 0x1C7E DUP2 PUSH2 0x1C45 JUMP JUMPDEST SWAP1 POP SWAP2 SWAP1 POP JUMP JUMPDEST PUSH32 0x41756374696F6E20456E64656400000000000000000000000000000000000000 PUSH0 DUP3 ADD MSTORE POP JUMP JUMPDEST PUSH0 PUSH2 0x1CB9 PUSH1 0xD DUP4 PUSH2 0x1ADA JUMP JUMPDEST SWAP2 POP PUSH2 0x1CC4 DUP3 PUSH2 0x1C85 JUMP JUMPDEST PUSH1 0x20 DUP3 ADD SWAP1 POP SWAP2 SWAP1 POP JUMP JUMPDEST PUSH0 PUSH1 0x20 DUP3 ADD SWAP1 POP DUP2 DUP2 SUB PUSH0 DUP4 ADD MSTORE PUSH2 0x1CE6 DUP2 PUSH2 0x1CAD JUMP JUMPDEST SWAP1 POP SWAP2 SWAP1 POP JUMP JUMPDEST PUSH32 0x61756374696F6E20616C726561647920656E6465640000000000000000000000 PUSH0 DUP3 ADD MSTORE POP JUMP JUMPDEST PUSH0 PUSH2 0x1D21 PUSH1 0x15 DUP4 PUSH2 0x1ADA JUMP JUMPDEST SWAP2 POP PUSH2 0x1D2C DUP3 PUSH2 0x1CED JUMP JUMPDEST PUSH1 0x20 DUP3 ADD SWAP1 POP SWAP2 SWAP1 POP JUMP JUMPDEST PUSH0 PUSH1 0x20 DUP3 ADD SWAP1 POP DUP2 DUP2 SUB PUSH0 DUP4 ADD MSTORE PUSH2 0x1D4E DUP2 PUSH2 0x1D15 JUMP JUMPDEST SWAP1 POP SWAP2 SWAP1 POP JUMP JUMPDEST PUSH32 0x6E6F742061206269646465720000000000000000000000000000000000000000 PUSH0 DUP3 ADD MSTORE POP JUMP JUMPDEST PUSH0 PUSH2 0x1D89 PUSH1 0xC DUP4 PUSH2 0x1ADA JUMP JUMPDEST SWAP2 POP PUSH2 0x1D94 DUP3 PUSH2 0x1D55 JUMP JUMPDEST PUSH1 0x20 DUP3 ADD SWAP1 POP SWAP2 SWAP1 POP JUMP JUMPDEST PUSH0 PUSH1 0x20 DUP3 ADD SWAP1 POP DUP2 DUP2 SUB PUSH0 DUP4 ADD MSTORE PUSH2 0x1DB6 DUP2 PUSH2 0x1D7D JUMP JUMPDEST SWAP1 POP SWAP2 SWAP1 POP JUMP JUMPDEST PUSH32 0x7472616E73616374696F6E206661696C00000000000000000000000000000000 PUSH0 DUP3 ADD MSTORE POP JUMP JUMPDEST PUSH0 PUSH2 0x1DF1 PUSH1 0x10 DUP4 PUSH2 0x1ADA JUMP JUMPDEST SWAP2 POP PUSH2 0x1DFC DUP3 PUSH2 0x1DBD JUMP JUMPDEST PUSH1 0x20 DUP3 ADD SWAP1 POP SWAP2 SWAP1 POP JUMP JUMPDEST PUSH0 PUSH1 0x20 DUP3 ADD SWAP1 POP DUP2 DUP2 SUB PUSH0 DUP4 ADD MSTORE PUSH2 0x1E1E DUP2 PUSH2 0x1DE5 JUMP JUMPDEST SWAP1 POP SWAP2 SWAP1 POP JUMP JUMPDEST PUSH0 PUSH2 0x1E2F DUP3 PUSH2 0x1894 JUMP JUMPDEST SWAP2 POP PUSH2 0x1E3A DUP4 PUSH2 0x1894 JUMP JUMPDEST SWAP3 POP DUP3 DUP3 SUB SWAP1 POP DUP2 DUP2 GT ISZERO PUSH2 0x1E52 JUMPI PUSH2 0x1E51 PUSH2 0x1B52 JUMP JUMPDEST JUMPDEST SWAP3 SWAP2 POP POP JUMP JUMPDEST PUSH32 0x6E6F7420746865206F776E657200000000000000000000000000000000000000 PUSH0 DUP3 ADD MSTORE POP JUMP JUMPDEST PUSH0 PUSH2 0x1E8C PUSH1 0xD DUP4 PUSH2 0x1ADA JUMP JUMPDEST SWAP2 POP PUSH2 0x1E97 DUP3 PUSH2 0x1E58 JUMP JUMPDEST PUSH1 0x20 DUP3 ADD SWAP1 POP SWAP2 SWAP1 POP JUMP JUMPDEST PUSH0 PUSH1 0x20 DUP3 ADD SWAP1 POP DUP2 DUP2 SUB PUSH0 DUP4 ADD MSTORE PUSH2 0x1EB9 DUP2 PUSH2 0x1E80 JUMP JUMPDEST SWAP1 POP SWAP2 SWAP1 POP JUMP JUMPDEST PUSH32 0x61756374696F6E207374696C6C20616C69766500000000000000000000000000 PUSH0 DUP3 ADD MSTORE POP JUMP JUMPDEST PUSH0 PUSH2 0x1EF4 PUSH1 0x13 DUP4 PUSH2 0x1ADA JUMP JUMPDEST SWAP2 POP PUSH2 0x1EFF DUP3 PUSH2 0x1EC0 JUMP JUMPDEST PUSH1 0x20 DUP3 ADD SWAP1 POP SWAP2 SWAP1 POP JUMP JUMPDEST PUSH0 PUSH1 0x20 DUP3 ADD SWAP1 POP DUP2 DUP2 SUB PUSH0 DUP4 ADD MSTORE PUSH2 0x1F21 DUP2 PUSH2 0x1EE8 JUMP JUMPDEST SWAP1 POP SWAP2 SWAP1 POP JUMP JUMPDEST PUSH0 DUP2 SWAP1 POP SWAP3 SWAP2 POP POP JUMP JUMPDEST POP JUMP JUMPDEST PUSH0 PUSH2 0x1F40 PUSH0 DUP4 PUSH2 0x1F28 JUMP JUMPDEST SWAP2 POP PUSH2 0x1F4B DUP3 PUSH2 0x1F32 JUMP JUMPDEST PUSH0 DUP3 ADD SWAP1 POP SWAP2 SWAP1 POP JUMP JUMPDEST PUSH0 PUSH2 0x1F5F DUP3 PUSH2 0x1F35 JUMP JUMPDEST SWAP2 POP DUP2 SWAP1 POP SWAP2 SWAP1 POP JUMP JUMPDEST PUSH32 0x4E487B7100000000000000000000000000000000000000000000000000000000 PUSH0 MSTORE PUSH1 0x32 PUSH1 0x4 MSTORE PUSH1 0x24 PUSH0 REVERT JUMPDEST PUSH2 0x1F9F DUP2 PUSH2 0x190D JUMP JUMPDEST DUP3 MSTORE POP POP JUMP JUMPDEST PUSH0 PUSH1 0x40 DUP3 ADD SWAP1 POP PUSH2 0x1FB8 PUSH0 DUP4 ADD DUP6 PUSH2 0x1F96 JUMP JUMPDEST PUSH2 0x1FC5 PUSH1 0x20 DUP4 ADD DUP5 PUSH2 0x189D JUMP JUMPDEST SWAP4 SWAP3 POP POP POP JUMP JUMPDEST PUSH32 0x6E6F742065787069726564207965740000000000000000000000000000000000 PUSH0 DUP3 ADD MSTORE POP JUMP JUMPDEST PUSH0 PUSH2 0x2000 PUSH1 0xF DUP4 PUSH2 0x1ADA JUMP JUMPDEST SWAP2 POP PUSH2 0x200B DUP3 PUSH2 0x1FCC JUMP JUMPDEST PUSH1 0x20 DUP3 ADD SWAP1 POP SWAP2 SWAP1 POP JUMP JUMPDEST PUSH0 PUSH1 0x20 DUP3 ADD SWAP1 POP DUP2 DUP2 SUB PUSH0 DUP4 ADD MSTORE PUSH2 0x202D DUP2 PUSH2 0x1FF4 JUMP JUMPDEST SWAP1 POP SWAP2 SWAP1 POP JUMP JUMPDEST PUSH0 PUSH2 0x203E DUP3 PUSH2 0x1894 JUMP JUMPDEST SWAP2 POP PUSH2 0x2049 DUP4 PUSH2 0x1894 JUMP JUMPDEST SWAP3 POP DUP3 DUP3 ADD SWAP1 POP DUP1 DUP3 GT ISZERO PUSH2 0x2061 JUMPI PUSH2 0x2060 PUSH2 0x1B52 JUMP JUMPDEST JUMPDEST SWAP3 SWAP2 POP POP JUMP INVALID LOG2 PUSH5 0x6970667358 0x22 SLT KECCAK256 SWAP16 CREATE POP PUSH4 0xE4977C52 DUP14 XOR PUSH5 0x14C5053571 PUSH20 0x7955590B123AE551E40C229921B17164736F6C63 NUMBER STOP ADDMOD 0x1E STOP CALLER "
				},
				"gasEstimates": {
					"creation": {
						"codeDepositCost": "1669800",
						"executionCost": "infinite",
						"totalCost": "infinite"
					},
					"external": {
						"Offer()": "infinite",
						"endAuction()": "36870",
						"expiration()": "2470",
						"ownerClaim()": "infinite",
						"partialClaim()": "infinite",
						"returnOffers()": "infinite",
						"showOffers()": "infinite",
						"showWinner()": "4999",
						"state()": "2620"
					},
					"internal": {
						"addUnique(address)": "75204",
						"returnClaimedEthers(address payable)": "infinite",
						"returnEther(address payable)": "infinite",
						"returnEtherWinner(address payable)": "infinite",
						"updateExpiration()": "infinite",
						"updateInfoArray(address,uint256)": "infinite",
						"updateInfoMApp(address,uint256,uint256)": "infinite",
						"updateWinner(address,uint256)": "46404"
					}
				},
				"methodIdentifiers": {
					"Offer()": "1f09dfa7",
					"endAuction()": "fe67a54b",
					"expiration()": "4665096d",
					"ownerClaim()": "4dbe5889",
					"partialClaim()": "464fcd69",
					"returnOffers()": "77c468c4",
					"showOffers()": "534823bf",
					"showWinner()": "b7e03264",
					"state()": "c19d93fb"
				}
			},
			"storageLayout": {
				"storage": [
					{
						"astId": 3,
						"contract": "Tp2_Auction.sol:Tp2_Auction",
						"label": "owner",
						"offset": 0,
						"slot": "0",
						"type": "t_address"
					},
					{
						"astId": 5,
						"contract": "Tp2_Auction.sol:Tp2_Auction",
						"label": "init_value",
						"offset": 0,
						"slot": "1",
						"type": "t_uint256"
					},
					{
						"astId": 7,
						"contract": "Tp2_Auction.sol:Tp2_Auction",
						"label": "init_time",
						"offset": 0,
						"slot": "2",
						"type": "t_uint256"
					},
					{
						"astId": 9,
						"contract": "Tp2_Auction.sol:Tp2_Auction",
						"label": "window",
						"offset": 0,
						"slot": "3",
						"type": "t_uint256"
					},
					{
						"astId": 11,
						"contract": "Tp2_Auction.sol:Tp2_Auction",
						"label": "expiration",
						"offset": 0,
						"slot": "4",
						"type": "t_uint256"
					},
					{
						"astId": 17,
						"contract": "Tp2_Auction.sol:Tp2_Auction",
						"label": "state",
						"offset": 0,
						"slot": "5",
						"type": "t_enum(State)14"
					},
					{
						"astId": 29,
						"contract": "Tp2_Auction.sol:Tp2_Auction",
						"label": "infoMapp",
						"offset": 0,
						"slot": "6",
						"type": "t_mapping(t_address,t_struct(Person)24_storage)"
					},
					{
						"astId": 38,
						"contract": "Tp2_Auction.sol:Tp2_Auction",
						"label": "infoArray",
						"offset": 0,
						"slot": "7",
						"type": "t_array(t_struct(Person2)34_storage)dyn_storage"
					},
					{
						"astId": 41,
						"contract": "Tp2_Auction.sol:Tp2_Auction",
						"label": "winner",
						"offset": 0,
						"slot": "8",
						"type": "t_struct(Person2)34_storage"
					},
					{
						"astId": 44,
						"contract": "Tp2_Auction.sol:Tp2_Auction",
						"label": "uniqueArray",
						"offset": 0,
						"slot": "10",
						"type": "t_array(t_address_payable)dyn_storage"
					},
					{
						"astId": 48,
						"contract": "Tp2_Auction.sol:Tp2_Auction",
						"label": "isBidder",
						"offset": 0,
						"slot": "11",
						"type": "t_mapping(t_address,t_bool)"
					}
				],
				"types": {
					"t_address": {
						"encoding": "inplace",
						"label": "address",
						"numberOfBytes": "20"
					},
					"t_address_payable": {
						"encoding": "inplace",
						"label": "address payable",
						"numberOfBytes": "20"
					},
					"t_array(t_address_payable)dyn_storage": {
						"base": "t_address_payable",
						"encoding": "dynamic_array",
						"label": "address payable[]",
						"numberOfBytes": "32"
					},
					"t_array(t_struct(Person2)34_storage)dyn_storage": {
						"base": "t_struct(Person2)34_storage",
						"encoding": "dynamic_array",
						"label": "struct Tp2_Auction.Person2[]",
						"numberOfBytes": "32"
					},
					"t_bool": {
						"encoding": "inplace",
						"label": "bool",
						"numberOfBytes": "1"
					},
					"t_enum(State)14": {
						"encoding": "inplace",
						"label": "enum Tp2_Auction.State",
						"numberOfBytes": "1"
					},
					"t_mapping(t_address,t_bool)": {
						"encoding": "mapping",
						"key": "t_address",
						"label": "mapping(address => bool)",
						"numberOfBytes": "32",
						"value": "t_bool"
					},
					"t_mapping(t_address,t_struct(Person)24_storage)": {
						"encoding": "mapping",
						"key": "t_address",
						"label": "mapping(address => struct Tp2_Auction.Person)",
						"numberOfBytes": "32",
						"value": "t_struct(Person)24_storage"
					},
					"t_struct(Person)24_storage": {
						"encoding": "inplace",
						"label": "struct Tp2_Auction.Person",
						"members": [
							{
								"astId": 19,
								"contract": "Tp2_Auction.sol:Tp2_Auction",
								"label": "id",
								"offset": 0,
								"slot": "0",
								"type": "t_address"
							},
							{
								"astId": 21,
								"contract": "Tp2_Auction.sol:Tp2_Auction",
								"label": "value",
								"offset": 0,
								"slot": "1",
								"type": "t_uint256"
							},
							{
								"astId": 23,
								"contract": "Tp2_Auction.sol:Tp2_Auction",
								"label": "balance",
								"offset": 0,
								"slot": "2",
								"type": "t_uint256"
							}
						],
						"numberOfBytes": "96"
					},
					"t_struct(Person2)34_storage": {
						"encoding": "inplace",
						"label": "struct Tp2_Auction.Person2",
						"members": [
							{
								"astId": 31,
								"contract": "Tp2_Auction.sol:Tp2_Auction",
								"label": "id",
								"offset": 0,
								"slot": "0",
								"type": "t_address"
							},
							{
								"astId": 33,
								"contract": "Tp2_Auction.sol:Tp2_Auction",
								"label": "value",
								"offset": 0,
								"slot": "1",
								"type": "t_uint256"
							}
						],
						"numberOfBytes": "64"
					},
					"t_uint256": {
						"encoding": "inplace",
						"label": "uint256",
						"numberOfBytes": "32"
					}
				}
			},
			"userdoc": {
				"kind": "user",
				"methods": {},
				"version": 1
			}
		}
	}
}