{
	"Tp2_Auction.sol": {
		"Tp2_Auction": {
			"abi": [
				{
					"inputs": [],
					"stateMutability": "nonpayable",
					"type": "constructor"
				},
				{
					"anonymous": false,
					"inputs": [
						{
							"indexed": false,
							"internalType": "address",
							"name": "_id",
							"type": "address"
						},
						{
							"indexed": false,
							"internalType": "uint256",
							"name": "_value",
							"type": "uint256"
						}
					],
					"name": "AuctionEnded",
					"type": "event"
				},
				{
					"anonymous": false,
					"inputs": [
						{
							"indexed": true,
							"internalType": "address",
							"name": "_id",
							"type": "address"
						},
						{
							"indexed": false,
							"internalType": "uint256",
							"name": "_value",
							"type": "uint256"
						}
					],
					"name": "EmergencyOwnerClaim",
					"type": "event"
				},
				{
					"anonymous": false,
					"inputs": [
						{
							"indexed": true,
							"internalType": "address",
							"name": "_id",
							"type": "address"
						},
						{
							"indexed": false,
							"internalType": "uint256",
							"name": "_value",
							"type": "uint256"
						}
					],
					"name": "NewOffer",
					"type": "event"
				},
				{
					"anonymous": false,
					"inputs": [
						{
							"indexed": true,
							"internalType": "address",
							"name": "_id",
							"type": "address"
						},
						{
							"indexed": false,
							"internalType": "uint256",
							"name": "_value",
							"type": "uint256"
						}
					],
					"name": "PartialClaim",
					"type": "event"
				},
				{
					"anonymous": false,
					"inputs": [
						{
							"indexed": true,
							"internalType": "address",
							"name": "_id",
							"type": "address"
						},
						{
							"indexed": false,
							"internalType": "uint256",
							"name": "_value",
							"type": "uint256"
						}
					],
					"name": "ReturnedAmount",
					"type": "event"
				},
				{
					"inputs": [],
					"name": "Offer",
					"outputs": [],
					"stateMutability": "payable",
					"type": "function"
				},
				{
					"inputs": [],
					"name": "emergencyOwnerClaim",
					"outputs": [],
					"stateMutability": "nonpayable",
					"type": "function"
				},
				{
					"inputs": [],
					"name": "endAuction",
					"outputs": [],
					"stateMutability": "nonpayable",
					"type": "function"
				},
				{
					"inputs": [],
					"name": "expiration",
					"outputs": [
						{
							"internalType": "uint256",
							"name": "",
							"type": "uint256"
						}
					],
					"stateMutability": "view",
					"type": "function"
				},
				{
					"inputs": [],
					"name": "ownerClaim",
					"outputs": [],
					"stateMutability": "nonpayable",
					"type": "function"
				},
				{
					"inputs": [],
					"name": "partialClaim",
					"outputs": [],
					"stateMutability": "nonpayable",
					"type": "function"
				},
				{
					"inputs": [],
					"name": "returnOffers",
					"outputs": [],
					"stateMutability": "nonpayable",
					"type": "function"
				},
				{
					"inputs": [],
					"name": "showOffers",
					"outputs": [
						{
							"components": [
								{
									"internalType": "address",
									"name": "id",
									"type": "address"
								},
								{
									"internalType": "uint256",
									"name": "value",
									"type": "uint256"
								}
							],
							"internalType": "struct Tp2_Auction.Person2[]",
							"name": "",
							"type": "tuple[]"
						}
					],
					"stateMutability": "view",
					"type": "function"
				},
				{
					"inputs": [],
					"name": "showWinner",
					"outputs": [
						{
							"components": [
								{
									"internalType": "address",
									"name": "id",
									"type": "address"
								},
								{
									"internalType": "uint256",
									"name": "value",
									"type": "uint256"
								}
							],
							"internalType": "struct Tp2_Auction.Person2",
							"name": "",
							"type": "tuple"
						}
					],
					"stateMutability": "view",
					"type": "function"
				},
				{
					"inputs": [],
					"name": "state",
					"outputs": [
						{
							"internalType": "enum Tp2_Auction.State",
							"name": "",
							"type": "uint8"
						}
					],
					"stateMutability": "view",
					"type": "function"
				}
			],
			"devdoc": {
				"kind": "dev",
				"methods": {},
				"version": 1
			},
			"evm": {
				"assembly": "    /* \"Tp2_Auction.sol\":190:17033  contract Tp2_Auction {... */\n  mstore(0x40, 0x80)\n    /* \"Tp2_Auction.sol\":4707:5128  constructor() {... */\n  callvalue\n  dup1\n  iszero\n  tag_1\n  jumpi\n  revert(0x00, 0x00)\ntag_1:\n  pop\n    /* \"Tp2_Auction.sol\":4738:4748  msg.sender */\n  caller\n    /* \"Tp2_Auction.sol\":4732:4737  owner */\n  0x00\n  0x00\n    /* \"Tp2_Auction.sol\":4732:4748  owner=msg.sender */\n  0x0100\n  exp\n  dup2\n  sload\n  dup2\n  0xffffffffffffffffffffffffffffffffffffffff\n  mul\n  not\n  and\n  swap1\n  dup4\n  0xffffffffffffffffffffffffffffffffffffffff\n  and\n  mul\n  or\n  swap1\n  sstore\n  pop\n    /* \"Tp2_Auction.sol\":4781:4796  block.timestamp */\n  timestamp\n    /* \"Tp2_Auction.sol\":4769:4778  init_time */\n  0x02\n    /* \"Tp2_Auction.sol\":4769:4796  init_time = block.timestamp */\n  dup2\n  swap1\n  sstore\n  pop\n    /* \"Tp2_Auction.sol\":4832:4839  1 weeks */\n  0x093a80\n    /* \"Tp2_Auction.sol\":4820:4829  init_time */\n  sload(0x02)\n    /* \"Tp2_Auction.sol\":4820:4839  init_time + 1 weeks */\n  tag_4\n  swap2\n  swap1\n  tag_5\n  jump\t// in\ntag_4:\n    /* \"Tp2_Auction.sol\":4807:4817  expiration */\n  0x04\n    /* \"Tp2_Auction.sol\":4807:4839  expiration = init_time + 1 weeks */\n  dup2\n  swap1\n  sstore\n  pop\n    /* \"Tp2_Auction.sol\":4887:4897  10 minutes */\n  0x0258\n    /* \"Tp2_Auction.sol\":4878:4884  window */\n  0x03\n    /* \"Tp2_Auction.sol\":4878:4897  window = 10 minutes */\n  dup2\n  swap1\n  sstore\n  pop\n    /* \"Tp2_Auction.sol\":4975:4986  1000000 wei */\n  0x0f4240\n    /* \"Tp2_Auction.sol\":4962:4972  init_value */\n  0x01\n    /* \"Tp2_Auction.sol\":4962:4986  init_value = 1000000 wei */\n  dup2\n  swap1\n  sstore\n  pop\n    /* \"Tp2_Auction.sol\":5034:5039  owner */\n  0x00\n  0x00\n  swap1\n  sload\n  swap1\n  0x0100\n  exp\n  swap1\n  div\n  0xffffffffffffffffffffffffffffffffffffffff\n  and\n    /* \"Tp2_Auction.sol\":5022:5028  winner */\n  0x08\n    /* \"Tp2_Auction.sol\":5022:5031  winner.id */\n  0x00\n  add\n  0x00\n    /* \"Tp2_Auction.sol\":5022:5039  winner.id = owner */\n  0x0100\n  exp\n  dup2\n  sload\n  dup2\n  0xffffffffffffffffffffffffffffffffffffffff\n  mul\n  not\n  and\n  swap1\n  dup4\n  0xffffffffffffffffffffffffffffffffffffffff\n  and\n  mul\n  or\n  swap1\n  sstore\n  pop\n    /* \"Tp2_Auction.sol\":5065:5075  init_value */\n  sload(0x01)\n    /* \"Tp2_Auction.sol\":5050:5056  winner */\n  0x08\n    /* \"Tp2_Auction.sol\":5050:5062  winner.value */\n  0x01\n  add\n    /* \"Tp2_Auction.sol\":5050:5075  winner.value = init_value */\n  dup2\n  swap1\n  sstore\n  pop\n    /* \"Tp2_Auction.sol\":5096:5104  State.on */\n  0x00\n    /* \"Tp2_Auction.sol\":5088:5093  state */\n  0x05\n  0x00\n    /* \"Tp2_Auction.sol\":5088:5104  state = State.on */\n  0x0100\n  exp\n  dup2\n  sload\n  dup2\n  0xff\n  mul\n  not\n  and\n  swap1\n  dup4\n  0x01\n  dup2\n  gt\n  iszero\n  tag_6\n  jumpi\n  tag_7\n  tag_8\n  jump\t// in\ntag_7:\ntag_6:\n  mul\n  or\n  swap1\n  sstore\n  pop\n    /* \"Tp2_Auction.sol\":190:17033  contract Tp2_Auction {... */\n  jump(tag_9)\n    /* \"#utility.yul\":7:84   */\ntag_10:\n    /* \"#utility.yul\":44:51   */\n  0x00\n    /* \"#utility.yul\":73:78   */\n  dup2\n    /* \"#utility.yul\":62:78   */\n  swap1\n  pop\n    /* \"#utility.yul\":7:84   */\n  swap2\n  swap1\n  pop\n  jump\t// out\n    /* \"#utility.yul\":90:270   */\ntag_11:\n    /* \"#utility.yul\":138:215   */\n  0x4e487b7100000000000000000000000000000000000000000000000000000000\n    /* \"#utility.yul\":135:136   */\n  0x00\n    /* \"#utility.yul\":128:216   */\n  mstore\n    /* \"#utility.yul\":235:239   */\n  0x11\n    /* \"#utility.yul\":232:233   */\n  0x04\n    /* \"#utility.yul\":225:240   */\n  mstore\n    /* \"#utility.yul\":259:263   */\n  0x24\n    /* \"#utility.yul\":256:257   */\n  0x00\n    /* \"#utility.yul\":249:264   */\n  revert\n    /* \"#utility.yul\":276:467   */\ntag_5:\n    /* \"#utility.yul\":316:319   */\n  0x00\n    /* \"#utility.yul\":335:355   */\n  tag_16\n    /* \"#utility.yul\":353:354   */\n  dup3\n    /* \"#utility.yul\":335:355   */\n  tag_10\n  jump\t// in\ntag_16:\n    /* \"#utility.yul\":330:355   */\n  swap2\n  pop\n    /* \"#utility.yul\":369:389   */\n  tag_17\n    /* \"#utility.yul\":387:388   */\n  dup4\n    /* \"#utility.yul\":369:389   */\n  tag_10\n  jump\t// in\ntag_17:\n    /* \"#utility.yul\":364:389   */\n  swap3\n  pop\n    /* \"#utility.yul\":412:413   */\n  dup3\n    /* \"#utility.yul\":409:410   */\n  dup3\n    /* \"#utility.yul\":405:414   */\n  add\n    /* \"#utility.yul\":398:414   */\n  swap1\n  pop\n    /* \"#utility.yul\":433:436   */\n  dup1\n    /* \"#utility.yul\":430:431   */\n  dup3\n    /* \"#utility.yul\":427:437   */\n  gt\n    /* \"#utility.yul\":424:460   */\n  iszero\n  tag_18\n  jumpi\n    /* \"#utility.yul\":440:458   */\n  tag_19\n  tag_11\n  jump\t// in\ntag_19:\n    /* \"#utility.yul\":424:460   */\ntag_18:\n    /* \"#utility.yul\":276:467   */\n  swap3\n  swap2\n  pop\n  pop\n  jump\t// out\n    /* \"#utility.yul\":473:653   */\ntag_8:\n    /* \"#utility.yul\":521:598   */\n  0x4e487b7100000000000000000000000000000000000000000000000000000000\n    /* \"#utility.yul\":518:519   */\n  0x00\n    /* \"#utility.yul\":511:599   */\n  mstore\n    /* \"#utility.yul\":618:622   */\n  0x21\n    /* \"#utility.yul\":615:616   */\n  0x04\n    /* \"#utility.yul\":608:623   */\n  mstore\n    /* \"#utility.yul\":642:646   */\n  0x24\n    /* \"#utility.yul\":639:640   */\n  0x00\n    /* \"#utility.yul\":632:647   */\n  revert\n    /* \"Tp2_Auction.sol\":190:17033  contract Tp2_Auction {... */\ntag_9:\n  dataSize(sub_0)\n  dup1\n  dataOffset(sub_0)\n  0x00\n  codecopy\n  0x00\n  return\nstop\n\nsub_0: assembly {\n        /* \"Tp2_Auction.sol\":190:17033  contract Tp2_Auction {... */\n      mstore(0x40, 0x80)\n      jumpi(tag_1, lt(calldatasize, 0x04))\n      shr(0xe0, calldataload(0x00))\n      dup1\n      0x77c468c4\n      gt\n      tag_12\n      jumpi\n      dup1\n      0x77c468c4\n      eq\n      tag_7\n      jumpi\n      dup1\n      0xb7e03264\n      eq\n      tag_8\n      jumpi\n      dup1\n      0xc19d93fb\n      eq\n      tag_9\n      jumpi\n      dup1\n      0xf5c7bc70\n      eq\n      tag_10\n      jumpi\n      dup1\n      0xfe67a54b\n      eq\n      tag_11\n      jumpi\n      jump(tag_1)\n    tag_12:\n      dup1\n      0x1f09dfa7\n      eq\n      tag_2\n      jumpi\n      dup1\n      0x464fcd69\n      eq\n      tag_3\n      jumpi\n      dup1\n      0x4665096d\n      eq\n      tag_4\n      jumpi\n      dup1\n      0x4dbe5889\n      eq\n      tag_5\n      jumpi\n      dup1\n      0x534823bf\n      eq\n      tag_6\n      jumpi\n    tag_1:\n      revert(0x00, 0x00)\n        /* \"Tp2_Auction.sol\":10227:10634  function Offer () external payable validOffer {... */\n    tag_2:\n      tag_13\n      tag_14\n      jump\t// in\n    tag_13:\n      stop\n        /* \"Tp2_Auction.sol\":11385:12369  function partialClaim() external auctionAlive isBidderM {... */\n    tag_3:\n      callvalue\n      dup1\n      iszero\n      tag_15\n      jumpi\n      revert(0x00, 0x00)\n    tag_15:\n      pop\n      tag_16\n      tag_17\n      jump\t// in\n    tag_16:\n      stop\n        /* \"Tp2_Auction.sol\":599:624  uint256 public expiration */\n    tag_4:\n      callvalue\n      dup1\n      iszero\n      tag_18\n      jumpi\n      revert(0x00, 0x00)\n    tag_18:\n      pop\n      tag_19\n      tag_20\n      jump\t// in\n    tag_19:\n      mload(0x40)\n      tag_21\n      swap2\n      swap1\n      tag_22\n      jump\t// in\n    tag_21:\n      mload(0x40)\n      dup1\n      swap2\n      sub\n      swap1\n      return\n        /* \"Tp2_Auction.sol\":16044:16282  function ownerClaim() external onlyOwner auctionEnded{... */\n    tag_5:\n      callvalue\n      dup1\n      iszero\n      tag_23\n      jumpi\n      revert(0x00, 0x00)\n    tag_23:\n      pop\n      tag_24\n      tag_25\n      jump\t// in\n    tag_24:\n      stop\n        /* \"Tp2_Auction.sol\":10828:10926  function showOffers() external view returns (Person2[] memory) {... */\n    tag_6:\n      callvalue\n      dup1\n      iszero\n      tag_26\n      jumpi\n      revert(0x00, 0x00)\n    tag_26:\n      pop\n      tag_27\n      tag_28\n      jump\t// in\n    tag_27:\n      mload(0x40)\n      tag_29\n      swap2\n      swap1\n      tag_30\n      jump\t// in\n    tag_29:\n      mload(0x40)\n      dup1\n      swap2\n      sub\n      swap1\n      return\n        /* \"Tp2_Auction.sol\":13824:15878  function returnOffers() external onlyOwner auctionEnded{... */\n    tag_7:\n      callvalue\n      dup1\n      iszero\n      tag_31\n      jumpi\n      revert(0x00, 0x00)\n    tag_31:\n      pop\n      tag_32\n      tag_33\n      jump\t// in\n    tag_32:\n      stop\n        /* \"Tp2_Auction.sol\":11098:11191  function showWinner() external view returns (Person2 memory) {... */\n    tag_8:\n      callvalue\n      dup1\n      iszero\n      tag_34\n      jumpi\n      revert(0x00, 0x00)\n    tag_34:\n      pop\n      tag_35\n      tag_36\n      jump\t// in\n    tag_35:\n      mload(0x40)\n      tag_37\n      swap2\n      swap1\n      tag_38\n      jump\t// in\n    tag_37:\n      mload(0x40)\n      dup1\n      swap2\n      sub\n      swap1\n      return\n        /* \"Tp2_Auction.sol\":764:782  State public state */\n    tag_9:\n      callvalue\n      dup1\n      iszero\n      tag_39\n      jumpi\n      revert(0x00, 0x00)\n    tag_39:\n      pop\n      tag_40\n      tag_41\n      jump\t// in\n    tag_40:\n      mload(0x40)\n      tag_42\n      swap2\n      swap1\n      tag_43\n      jump\t// in\n    tag_42:\n      mload(0x40)\n      dup1\n      swap2\n      sub\n      swap1\n      return\n        /* \"Tp2_Auction.sol\":16586:17028  function emergencyOwnerClaim() external onlyOwner {... */\n    tag_10:\n      callvalue\n      dup1\n      iszero\n      tag_44\n      jumpi\n      revert(0x00, 0x00)\n    tag_44:\n      pop\n      tag_45\n      tag_46\n      jump\t// in\n    tag_45:\n      stop\n        /* \"Tp2_Auction.sol\":13370:13652  function endAuction() external onlyOwner auctionAlive{... */\n    tag_11:\n      callvalue\n      dup1\n      iszero\n      tag_47\n      jumpi\n      revert(0x00, 0x00)\n    tag_47:\n      pop\n      tag_48\n      tag_49\n      jump\t// in\n    tag_48:\n      stop\n        /* \"Tp2_Auction.sol\":10227:10634  function Offer () external payable validOffer {... */\n    tag_14:\n        /* \"Tp2_Auction.sol\":2964:2972  State.on */\n      0x00\n        /* \"Tp2_Auction.sol\":2955:2972  state == State.on */\n      0x01\n      dup2\n      gt\n      iszero\n      tag_51\n      jumpi\n      tag_52\n      tag_53\n      jump\t// in\n    tag_52:\n    tag_51:\n        /* \"Tp2_Auction.sol\":2955:2960  state */\n      0x05\n      0x00\n      swap1\n      sload\n      swap1\n      0x0100\n      exp\n      swap1\n      div\n      0xff\n      and\n        /* \"Tp2_Auction.sol\":2955:2972  state == State.on */\n      0x01\n      dup2\n      gt\n      iszero\n      tag_54\n      jumpi\n      tag_55\n      tag_53\n      jump\t// in\n    tag_55:\n    tag_54:\n      sub\n        /* \"Tp2_Auction.sol\":2952:3205  if(state == State.on) {... */\n      tag_56\n      jumpi\n        /* \"Tp2_Auction.sol\":3012:3022  expiration */\n      sload(0x04)\n        /* \"Tp2_Auction.sol\":2994:3009  block.timestamp */\n      timestamp\n        /* \"Tp2_Auction.sol\":2994:3022  block.timestamp < expiration */\n      lt\n        /* \"Tp2_Auction.sol\":2985:3045  require((block.timestamp < expiration),\"invalid offer time\") */\n      tag_57\n      jumpi\n      mload(0x40)\n      0x08c379a000000000000000000000000000000000000000000000000000000000\n      dup2\n      mstore\n      0x04\n      add\n      tag_58\n      swap1\n      tag_59\n      jump\t// in\n    tag_58:\n      mload(0x40)\n      dup1\n      swap2\n      sub\n      swap1\n      revert\n    tag_57:\n        /* \"Tp2_Auction.sol\":3099:3102  100 */\n      0x64\n        /* \"Tp2_Auction.sol\":3093:3096  105 */\n      0x69\n        /* \"Tp2_Auction.sol\":3078:3084  winner */\n      0x08\n        /* \"Tp2_Auction.sol\":3078:3090  winner.value */\n      0x01\n      add\n      sload\n        /* \"Tp2_Auction.sol\":3078:3096  winner.value * 105 */\n      tag_60\n      swap2\n      swap1\n      tag_61\n      jump\t// in\n    tag_60:\n        /* \"Tp2_Auction.sol\":3078:3102  winner.value * 105 / 100 */\n      tag_62\n      swap2\n      swap1\n      tag_63\n      jump\t// in\n    tag_62:\n        /* \"Tp2_Auction.sol\":3065:3074  msg.value */\n      callvalue\n        /* \"Tp2_Auction.sol\":3065:3102  msg.value >= winner.value * 105 / 100 */\n      lt\n      iszero\n        /* \"Tp2_Auction.sol\":3056:3126  require((msg.value >= winner.value * 105 / 100),\"invalid offer value\") */\n      tag_64\n      jumpi\n      mload(0x40)\n      0x08c379a000000000000000000000000000000000000000000000000000000000\n      dup2\n      mstore\n      0x04\n      add\n      tag_65\n      swap1\n      tag_66\n      jump\t// in\n    tag_65:\n      mload(0x40)\n      dup1\n      swap2\n      sub\n      swap1\n      revert\n    tag_64:\n        /* \"Tp2_Auction.sol\":10294:10329  updateWinner(msg.sender, msg.value) */\n      tag_68\n        /* \"Tp2_Auction.sol\":10307:10317  msg.sender */\n      caller\n        /* \"Tp2_Auction.sol\":10319:10328  msg.value */\n      callvalue\n        /* \"Tp2_Auction.sol\":10294:10306  updateWinner */\n      tag_69\n        /* \"Tp2_Auction.sol\":10294:10329  updateWinner(msg.sender, msg.value) */\n      jump\t// in\n    tag_68:\n        /* \"Tp2_Auction.sol\":10340:10388  updateInfoMApp(msg.sender, msg.value, msg.value) */\n      tag_70\n        /* \"Tp2_Auction.sol\":10355:10365  msg.sender */\n      caller\n        /* \"Tp2_Auction.sol\":10367:10376  msg.value */\n      callvalue\n        /* \"Tp2_Auction.sol\":10378:10387  msg.value */\n      callvalue\n        /* \"Tp2_Auction.sol\":10340:10354  updateInfoMApp */\n      tag_71\n        /* \"Tp2_Auction.sol\":10340:10388  updateInfoMApp(msg.sender, msg.value, msg.value) */\n      jump\t// in\n    tag_70:\n        /* \"Tp2_Auction.sol\":10399:10437  updateInfoArray(msg.sender, msg.value) */\n      tag_72\n        /* \"Tp2_Auction.sol\":10415:10425  msg.sender */\n      caller\n        /* \"Tp2_Auction.sol\":10427:10436  msg.value */\n      callvalue\n        /* \"Tp2_Auction.sol\":10399:10414  updateInfoArray */\n      tag_73\n        /* \"Tp2_Auction.sol\":10399:10437  updateInfoArray(msg.sender, msg.value) */\n      jump\t// in\n    tag_72:\n        /* \"Tp2_Auction.sol\":10448:10466  updateExpiration() */\n      tag_74\n        /* \"Tp2_Auction.sol\":10448:10464  updateExpiration */\n      tag_75\n        /* \"Tp2_Auction.sol\":10448:10466  updateExpiration() */\n      jump\t// in\n    tag_74:\n        /* \"Tp2_Auction.sol\":10564:10574  msg.sender */\n      caller\n        /* \"Tp2_Auction.sol\":10555:10586  NewOffer(msg.sender, msg.value) */\n      0xffffffffffffffffffffffffffffffffffffffff\n      and\n      0x058d619527549e88853c641ebcec23205e5df61592e3908275721b5ad490113f\n        /* \"Tp2_Auction.sol\":10576:10585  msg.value */\n      callvalue\n        /* \"Tp2_Auction.sol\":10555:10586  NewOffer(msg.sender, msg.value) */\n      mload(0x40)\n      tag_76\n      swap2\n      swap1\n      tag_22\n      jump\t// in\n    tag_76:\n      mload(0x40)\n      dup1\n      swap2\n      sub\n      swap1\n      log2\n        /* \"Tp2_Auction.sol\":10597:10618  addUnique(msg.sender) */\n      tag_77\n        /* \"Tp2_Auction.sol\":10607:10617  msg.sender */\n      caller\n        /* \"Tp2_Auction.sol\":10597:10606  addUnique */\n      tag_78\n        /* \"Tp2_Auction.sol\":10597:10618  addUnique(msg.sender) */\n      jump\t// in\n    tag_77:\n        /* \"Tp2_Auction.sol\":2952:3205  if(state == State.on) {... */\n      jump(tag_79)\n    tag_56:\n        /* \"Tp2_Auction.sol\":3170:3193  revert(\"Auction Ended\") */\n      mload(0x40)\n      0x08c379a000000000000000000000000000000000000000000000000000000000\n      dup2\n      mstore\n      0x04\n      add\n      tag_80\n      swap1\n      tag_81\n      jump\t// in\n    tag_80:\n      mload(0x40)\n      dup1\n      swap2\n      sub\n      swap1\n      revert\n        /* \"Tp2_Auction.sol\":2952:3205  if(state == State.on) {... */\n    tag_79:\n        /* \"Tp2_Auction.sol\":10227:10634  function Offer () external payable validOffer {... */\n      jump\t// out\n        /* \"Tp2_Auction.sol\":11385:12369  function partialClaim() external auctionAlive isBidderM {... */\n    tag_17:\n        /* \"Tp2_Auction.sol\":2546:2554  State.on */\n      0x00\n        /* \"Tp2_Auction.sol\":2537:2554  state == State.on */\n      0x01\n      dup2\n      gt\n      iszero\n      tag_83\n      jumpi\n      tag_84\n      tag_53\n      jump\t// in\n    tag_84:\n    tag_83:\n        /* \"Tp2_Auction.sol\":2537:2542  state */\n      0x05\n      0x00\n      swap1\n      sload\n      swap1\n      0x0100\n      exp\n      swap1\n      div\n      0xff\n      and\n        /* \"Tp2_Auction.sol\":2537:2554  state == State.on */\n      0x01\n      dup2\n      gt\n      iszero\n      tag_85\n      jumpi\n      tag_86\n      tag_53\n      jump\t// in\n    tag_86:\n    tag_85:\n      eq\n        /* \"Tp2_Auction.sol\":2529:2579  require(state == State.on,\"auction already ended\") */\n      tag_87\n      jumpi\n      mload(0x40)\n      0x08c379a000000000000000000000000000000000000000000000000000000000\n      dup2\n      mstore\n      0x04\n      add\n      tag_88\n      swap1\n      tag_89\n      jump\t// in\n    tag_88:\n      mload(0x40)\n      dup1\n      swap2\n      sub\n      swap1\n      revert\n    tag_87:\n        /* \"Tp2_Auction.sol\":2362:2366  true */\n      0x01\n        /* \"Tp2_Auction.sol\":2338:2366  isBidder[msg.sender] == true */\n      iszero\n      iszero\n        /* \"Tp2_Auction.sol\":2338:2346  isBidder */\n      0x0b\n        /* \"Tp2_Auction.sol\":2338:2358  isBidder[msg.sender] */\n      0x00\n        /* \"Tp2_Auction.sol\":2347:2357  msg.sender */\n      caller\n        /* \"Tp2_Auction.sol\":2338:2358  isBidder[msg.sender] */\n      0xffffffffffffffffffffffffffffffffffffffff\n      and\n      0xffffffffffffffffffffffffffffffffffffffff\n      and\n      dup2\n      mstore\n      0x20\n      add\n      swap1\n      dup2\n      mstore\n      0x20\n      add\n      0x00\n      keccak256\n      0x00\n      swap1\n      sload\n      swap1\n      0x0100\n      exp\n      swap1\n      div\n      0xff\n      and\n        /* \"Tp2_Auction.sol\":2338:2366  isBidder[msg.sender] == true */\n      iszero\n      iszero\n      eq\n        /* \"Tp2_Auction.sol\":2330:2382  require(isBidder[msg.sender] == true,\"not a bidder\") */\n      tag_91\n      jumpi\n      mload(0x40)\n      0x08c379a000000000000000000000000000000000000000000000000000000000\n      dup2\n      mstore\n      0x04\n      add\n      tag_92\n      swap1\n      tag_93\n      jump\t// in\n    tag_92:\n      mload(0x40)\n      dup1\n      swap2\n      sub\n      swap1\n      revert\n    tag_91:\n        /* \"Tp2_Auction.sol\":11454:11465  bool result */\n      0x00\n        /* \"Tp2_Auction.sol\":11476:11491  uint256 aux_val */\n      0x00\n        /* \"Tp2_Auction.sol\":11524:11565  returnClaimedEthers(payable (msg.sender)) */\n      tag_95\n        /* \"Tp2_Auction.sol\":11553:11563  msg.sender */\n      caller\n        /* \"Tp2_Auction.sol\":11524:11543  returnClaimedEthers */\n      tag_96\n        /* \"Tp2_Auction.sol\":11524:11565  returnClaimedEthers(payable (msg.sender)) */\n      jump\t// in\n    tag_95:\n        /* \"Tp2_Auction.sol\":11504:11565  (result, aux_val) = returnClaimedEthers(payable (msg.sender)) */\n      dup1\n      swap3\n      pop\n      dup2\n      swap4\n      pop\n      pop\n      pop\n        /* \"Tp2_Auction.sol\":11600:11605  false */\n      0x00\n        /* \"Tp2_Auction.sol\":11590:11605  result == false */\n      iszero\n      iszero\n        /* \"Tp2_Auction.sol\":11590:11596  result */\n      dup3\n        /* \"Tp2_Auction.sol\":11590:11605  result == false */\n      iszero\n      iszero\n      sub\n        /* \"Tp2_Auction.sol\":11586:12360  if( result == false){   ... */\n      tag_97\n      jumpi\n        /* \"Tp2_Auction.sol\":11624:11650  revert(\"transaction fail\") */\n      mload(0x40)\n      0x08c379a000000000000000000000000000000000000000000000000000000000\n      dup2\n      mstore\n      0x04\n      add\n      tag_98\n      swap1\n      tag_99\n      jump\t// in\n    tag_98:\n      mload(0x40)\n      dup1\n      swap2\n      sub\n      swap1\n      revert\n        /* \"Tp2_Auction.sol\":11586:12360  if( result == false){   ... */\n    tag_97:\n        /* \"Tp2_Auction.sol\":11865:11872  aux_val */\n      dup1\n        /* \"Tp2_Auction.sol\":11833:11841  infoMapp */\n      0x06\n        /* \"Tp2_Auction.sol\":11833:11853  infoMapp[msg.sender] */\n      0x00\n        /* \"Tp2_Auction.sol\":11842:11852  msg.sender */\n      caller\n        /* \"Tp2_Auction.sol\":11833:11853  infoMapp[msg.sender] */\n      0xffffffffffffffffffffffffffffffffffffffff\n      and\n      0xffffffffffffffffffffffffffffffffffffffff\n      and\n      dup2\n      mstore\n      0x20\n      add\n      swap1\n      dup2\n      mstore\n      0x20\n      add\n      0x00\n      keccak256\n        /* \"Tp2_Auction.sol\":11833:11861  infoMapp[msg.sender].balance */\n      0x02\n      add\n      0x00\n        /* \"Tp2_Auction.sol\":11833:11872  infoMapp[msg.sender].balance -= aux_val */\n      dup3\n      dup3\n      sload\n      tag_101\n      swap2\n      swap1\n      tag_102\n      jump\t// in\n    tag_101:\n      swap3\n      pop\n      pop\n      dup2\n      swap1\n      sstore\n      pop\n        /* \"Tp2_Auction.sol\":11924:11942  Person2 memory aux */\n      tag_103\n      tag_104\n      jump\t// in\n    tag_103:\n        /* \"Tp2_Auction.sol\":11966:11976  msg.sender */\n      caller\n        /* \"Tp2_Auction.sol\":11957:11960  aux */\n      dup2\n        /* \"Tp2_Auction.sol\":11957:11963  aux.id */\n      0x00\n      add\n        /* \"Tp2_Auction.sol\":11957:11976  aux.id = msg.sender */\n      swap1\n      0xffffffffffffffffffffffffffffffffffffffff\n      and\n      swap1\n      dup2\n      0xffffffffffffffffffffffffffffffffffffffff\n      and\n      dup2\n      mstore\n      pop\n      pop\n        /* \"Tp2_Auction.sol\":12003:12004  0 */\n      0x00\n        /* \"Tp2_Auction.sol\":11991:11994  aux */\n      dup2\n        /* \"Tp2_Auction.sol\":11991:12000  aux.value */\n      0x20\n      add\n        /* \"Tp2_Auction.sol\":11991:12004  aux.value = 0 */\n      dup2\n      dup2\n      mstore\n      pop\n      pop\n        /* \"Tp2_Auction.sol\":12274:12283  infoArray */\n      0x07\n        /* \"Tp2_Auction.sol\":12289:12292  aux */\n      dup2\n        /* \"Tp2_Auction.sol\":12274:12293  infoArray.push(aux) */\n      swap1\n      dup1\n      0x01\n      dup2\n      sload\n      add\n      dup1\n      dup3\n      sstore\n      dup1\n      swap2\n      pop\n      pop\n      0x01\n      swap1\n      sub\n      swap1\n      0x00\n      mstore\n      keccak256(0x00, 0x20)\n      swap1\n      0x02\n      mul\n      add\n      0x00\n      swap1\n      swap2\n      swap1\n      swap2\n      swap1\n      swap2\n      pop\n      0x00\n      dup3\n      add\n      mload\n      dup2\n      0x00\n      add\n      exp(0x0100, 0x00)\n      dup2\n      sload\n      dup2\n      0xffffffffffffffffffffffffffffffffffffffff\n      mul\n      not\n      and\n      swap1\n      dup4\n      0xffffffffffffffffffffffffffffffffffffffff\n      and\n      mul\n      or\n      swap1\n      sstore\n      pop\n      0x20\n      dup3\n      add\n      mload\n      dup2\n      0x01\n      add\n      sstore\n      pop\n      pop\n        /* \"Tp2_Auction.sol\":12326:12336  msg.sender */\n      caller\n        /* \"Tp2_Auction.sol\":12313:12346  PartialClaim(msg.sender, aux_val) */\n      0xffffffffffffffffffffffffffffffffffffffff\n      and\n      0x5bf4ffbba2c193e74d733f69408011d333232e84b98a68ecb638621dab65fff5\n        /* \"Tp2_Auction.sol\":12338:12345  aux_val */\n      dup4\n        /* \"Tp2_Auction.sol\":12313:12346  PartialClaim(msg.sender, aux_val) */\n      mload(0x40)\n      tag_106\n      swap2\n      swap1\n      tag_22\n      jump\t// in\n    tag_106:\n      mload(0x40)\n      dup1\n      swap2\n      sub\n      swap1\n      log2\n        /* \"Tp2_Auction.sol\":11672:12360  {... */\n      pop\n        /* \"Tp2_Auction.sol\":11441:12369  {... */\n      pop\n      pop\n        /* \"Tp2_Auction.sol\":11385:12369  function partialClaim() external auctionAlive isBidderM {... */\n      jump\t// out\n        /* \"Tp2_Auction.sol\":599:624  uint256 public expiration */\n    tag_20:\n      sload(0x04)\n      dup2\n      jump\t// out\n        /* \"Tp2_Auction.sol\":16044:16282  function ownerClaim() external onlyOwner auctionEnded{... */\n    tag_25:\n        /* \"Tp2_Auction.sol\":2136:2146  msg.sender */\n      caller\n        /* \"Tp2_Auction.sol\":2129:2146  owner==msg.sender */\n      0xffffffffffffffffffffffffffffffffffffffff\n      and\n        /* \"Tp2_Auction.sol\":2129:2134  owner */\n      0x00\n      0x00\n      swap1\n      sload\n      swap1\n      0x0100\n      exp\n      swap1\n      div\n      0xffffffffffffffffffffffffffffffffffffffff\n      and\n        /* \"Tp2_Auction.sol\":2129:2146  owner==msg.sender */\n      0xffffffffffffffffffffffffffffffffffffffff\n      and\n      eq\n        /* \"Tp2_Auction.sol\":2121:2164  require(owner==msg.sender, \"not the owner\") */\n      tag_108\n      jumpi\n      mload(0x40)\n      0x08c379a000000000000000000000000000000000000000000000000000000000\n      dup2\n      mstore\n      0x04\n      add\n      tag_109\n      swap1\n      tag_110\n      jump\t// in\n    tag_109:\n      mload(0x40)\n      dup1\n      swap2\n      sub\n      swap1\n      revert\n    tag_108:\n        /* \"Tp2_Auction.sol\":2749:2758  State.off */\n      0x01\n        /* \"Tp2_Auction.sol\":2740:2758  state == State.off */\n      dup1\n      dup2\n      gt\n      iszero\n      tag_112\n      jumpi\n      tag_113\n      tag_53\n      jump\t// in\n    tag_113:\n    tag_112:\n        /* \"Tp2_Auction.sol\":2740:2745  state */\n      0x05\n      0x00\n      swap1\n      sload\n      swap1\n      0x0100\n      exp\n      swap1\n      div\n      0xff\n      and\n        /* \"Tp2_Auction.sol\":2740:2758  state == State.off */\n      0x01\n      dup2\n      gt\n      iszero\n      tag_114\n      jumpi\n      tag_115\n      tag_53\n      jump\t// in\n    tag_115:\n    tag_114:\n      eq\n        /* \"Tp2_Auction.sol\":2732:2781  require(state == State.off,\"auction still alive\") */\n      tag_116\n      jumpi\n      mload(0x40)\n      0x08c379a000000000000000000000000000000000000000000000000000000000\n      dup2\n      mstore\n      0x04\n      add\n      tag_117\n      swap1\n      tag_118\n      jump\t// in\n    tag_117:\n      mload(0x40)\n      dup1\n      swap2\n      sub\n      swap1\n      revert\n    tag_116:\n        /* \"Tp2_Auction.sol\":16111:16122  bool result */\n      0x00\n        /* \"Tp2_Auction.sol\":16128:16133  owner */\n      0x00\n      0x00\n      swap1\n      sload\n      swap1\n      0x0100\n      exp\n      swap1\n      div\n      0xffffffffffffffffffffffffffffffffffffffff\n      and\n        /* \"Tp2_Auction.sol\":16128:16138  owner.call */\n      0xffffffffffffffffffffffffffffffffffffffff\n      and\n        /* \"Tp2_Auction.sol\":16144:16148  2300 */\n      0x08fc\n        /* \"Tp2_Auction.sol\":16156:16177  address(this).balance */\n      selfbalance\n        /* \"Tp2_Auction.sol\":16128:16182  owner.call{gas: 2300, value:address(this).balance}(\"\") */\n      mload(0x40)\n      tag_120\n      swap1\n      tag_121\n      jump\t// in\n    tag_120:\n      0x00\n      mload(0x40)\n      dup1\n      dup4\n      sub\n      dup2\n      dup6\n      dup9\n      dup9\n      call\n      swap4\n      pop\n      pop\n      pop\n      pop\n      returndatasize\n      dup1\n      0x00\n      dup2\n      eq\n      tag_124\n      jumpi\n      mload(0x40)\n      swap2\n      pop\n      and(add(returndatasize, 0x3f), not(0x1f))\n      dup3\n      add\n      0x40\n      mstore\n      returndatasize\n      dup3\n      mstore\n      returndatasize\n      0x00\n      0x20\n      dup5\n      add\n      returndatacopy\n      jump(tag_123)\n    tag_124:\n      0x60\n      swap2\n      pop\n    tag_123:\n      pop\n        /* \"Tp2_Auction.sol\":16110:16182  (bool result, ) = owner.call{gas: 2300, value:address(this).balance}(\"\") */\n      pop\n      swap1\n      pop\n        /* \"Tp2_Auction.sol\":16210:16215  false */\n      0x00\n        /* \"Tp2_Auction.sol\":16200:16215  result == false */\n      iszero\n      iszero\n        /* \"Tp2_Auction.sol\":16200:16206  result */\n      dup2\n        /* \"Tp2_Auction.sol\":16200:16215  result == false */\n      iszero\n      iszero\n      sub\n        /* \"Tp2_Auction.sol\":16196:16274  if( result == false){   ... */\n      tag_125\n      jumpi\n        /* \"Tp2_Auction.sol\":16234:16260  revert(\"transaction fail\") */\n      mload(0x40)\n      0x08c379a000000000000000000000000000000000000000000000000000000000\n      dup2\n      mstore\n      0x04\n      add\n      tag_126\n      swap1\n      tag_99\n      jump\t// in\n    tag_126:\n      mload(0x40)\n      dup1\n      swap2\n      sub\n      swap1\n      revert\n        /* \"Tp2_Auction.sol\":16196:16274  if( result == false){   ... */\n    tag_125:\n        /* \"Tp2_Auction.sol\":16097:16282  {... */\n      pop\n        /* \"Tp2_Auction.sol\":16044:16282  function ownerClaim() external onlyOwner auctionEnded{... */\n      jump\t// out\n        /* \"Tp2_Auction.sol\":10828:10926  function showOffers() external view returns (Person2[] memory) {... */\n    tag_28:\n        /* \"Tp2_Auction.sol\":10873:10889  Person2[] memory */\n      0x60\n        /* \"Tp2_Auction.sol\":10909:10918  infoArray */\n      0x07\n        /* \"Tp2_Auction.sol\":10902:10918  return infoArray */\n      dup1\n      sload\n      dup1\n      0x20\n      mul\n      0x20\n      add\n      mload(0x40)\n      swap1\n      dup2\n      add\n      0x40\n      mstore\n      dup1\n      swap3\n      swap2\n      swap1\n      dup2\n      dup2\n      mstore\n      0x20\n      add\n      0x00\n      swap1\n    tag_128:\n      dup3\n      dup3\n      lt\n      iszero\n      tag_129\n      jumpi\n      dup4\n      dup3\n      swap1\n      0x00\n      mstore\n      keccak256(0x00, 0x20)\n      swap1\n      0x02\n      mul\n      add\n      mload(0x40)\n      dup1\n      0x40\n      add\n      0x40\n      mstore\n      swap1\n      dup2\n      0x00\n      dup3\n      add\n      0x00\n      swap1\n      sload\n      swap1\n      0x0100\n      exp\n      swap1\n      div\n      0xffffffffffffffffffffffffffffffffffffffff\n      and\n      0xffffffffffffffffffffffffffffffffffffffff\n      and\n      0xffffffffffffffffffffffffffffffffffffffff\n      and\n      dup2\n      mstore\n      0x20\n      add\n      0x01\n      dup3\n      add\n      sload\n      dup2\n      mstore\n      pop\n      pop\n      dup2\n      mstore\n      0x20\n      add\n      swap1\n      0x01\n      add\n      swap1\n      jump(tag_128)\n    tag_129:\n      pop\n      pop\n      pop\n      pop\n      swap1\n      pop\n        /* \"Tp2_Auction.sol\":10828:10926  function showOffers() external view returns (Person2[] memory) {... */\n      swap1\n      jump\t// out\n        /* \"Tp2_Auction.sol\":13824:15878  function returnOffers() external onlyOwner auctionEnded{... */\n    tag_33:\n        /* \"Tp2_Auction.sol\":2136:2146  msg.sender */\n      caller\n        /* \"Tp2_Auction.sol\":2129:2146  owner==msg.sender */\n      0xffffffffffffffffffffffffffffffffffffffff\n      and\n        /* \"Tp2_Auction.sol\":2129:2134  owner */\n      0x00\n      0x00\n      swap1\n      sload\n      swap1\n      0x0100\n      exp\n      swap1\n      div\n      0xffffffffffffffffffffffffffffffffffffffff\n      and\n        /* \"Tp2_Auction.sol\":2129:2146  owner==msg.sender */\n      0xffffffffffffffffffffffffffffffffffffffff\n      and\n      eq\n        /* \"Tp2_Auction.sol\":2121:2164  require(owner==msg.sender, \"not the owner\") */\n      tag_132\n      jumpi\n      mload(0x40)\n      0x08c379a000000000000000000000000000000000000000000000000000000000\n      dup2\n      mstore\n      0x04\n      add\n      tag_133\n      swap1\n      tag_110\n      jump\t// in\n    tag_133:\n      mload(0x40)\n      dup1\n      swap2\n      sub\n      swap1\n      revert\n    tag_132:\n        /* \"Tp2_Auction.sol\":2749:2758  State.off */\n      0x01\n        /* \"Tp2_Auction.sol\":2740:2758  state == State.off */\n      dup1\n      dup2\n      gt\n      iszero\n      tag_135\n      jumpi\n      tag_136\n      tag_53\n      jump\t// in\n    tag_136:\n    tag_135:\n        /* \"Tp2_Auction.sol\":2740:2745  state */\n      0x05\n      0x00\n      swap1\n      sload\n      swap1\n      0x0100\n      exp\n      swap1\n      div\n      0xff\n      and\n        /* \"Tp2_Auction.sol\":2740:2758  state == State.off */\n      0x01\n      dup2\n      gt\n      iszero\n      tag_137\n      jumpi\n      tag_138\n      tag_53\n      jump\t// in\n    tag_138:\n    tag_137:\n      eq\n        /* \"Tp2_Auction.sol\":2732:2781  require(state == State.off,\"auction still alive\") */\n      tag_139\n      jumpi\n      mload(0x40)\n      0x08c379a000000000000000000000000000000000000000000000000000000000\n      dup2\n      mstore\n      0x04\n      add\n      tag_140\n      swap1\n      tag_118\n      jump\t// in\n    tag_140:\n      mload(0x40)\n      dup1\n      swap2\n      sub\n      swap1\n      revert\n    tag_139:\n        /* \"Tp2_Auction.sol\":13892:13903  bool result */\n      0x00\n        /* \"Tp2_Auction.sol\":13914:13929  uint256 aux_val */\n      0x00\n        /* \"Tp2_Auction.sol\":13940:13951  uint length */\n      0x00\n        /* \"Tp2_Auction.sol\":13954:13965  uniqueArray */\n      0x0a\n        /* \"Tp2_Auction.sol\":13954:13972  uniqueArray.length */\n      dup1\n      sload\n      swap1\n      pop\n        /* \"Tp2_Auction.sol\":13940:13972  uint length = uniqueArray.length */\n      swap1\n      pop\n        /* \"Tp2_Auction.sol\":14078:14096  Person2 memory aux */\n      tag_142\n      tag_104\n      jump\t// in\n    tag_142:\n        /* \"Tp2_Auction.sol\":14196:14202  uint i */\n      0x00\n        /* \"Tp2_Auction.sol\":14205:14206  0 */\n      0x00\n        /* \"Tp2_Auction.sol\":14196:14206  uint i = 0 */\n      swap1\n      pop\n        /* \"Tp2_Auction.sol\":14191:15871  for (uint i = 0; i < length; i++) {... */\n    tag_143:\n        /* \"Tp2_Auction.sol\":14212:14218  length */\n      dup3\n        /* \"Tp2_Auction.sol\":14208:14209  i */\n      dup2\n        /* \"Tp2_Auction.sol\":14208:14218  i < length */\n      lt\n        /* \"Tp2_Auction.sol\":14191:15871  for (uint i = 0; i < length; i++) {... */\n      iszero\n      tag_144\n      jumpi\n        /* \"Tp2_Auction.sol\":14261:14267  winner */\n      0x08\n        /* \"Tp2_Auction.sol\":14261:14270  winner.id */\n      0x00\n      add\n      0x00\n      swap1\n      sload\n      swap1\n      0x0100\n      exp\n      swap1\n      div\n      0xffffffffffffffffffffffffffffffffffffffff\n      and\n        /* \"Tp2_Auction.sol\":14243:14270  uniqueArray[i] != winner.id */\n      0xffffffffffffffffffffffffffffffffffffffff\n      and\n        /* \"Tp2_Auction.sol\":14243:14254  uniqueArray */\n      0x0a\n        /* \"Tp2_Auction.sol\":14255:14256  i */\n      dup3\n        /* \"Tp2_Auction.sol\":14243:14257  uniqueArray[i] */\n      dup2\n      sload\n      dup2\n      lt\n      tag_146\n      jumpi\n      tag_147\n      tag_148\n      jump\t// in\n    tag_147:\n    tag_146:\n      swap1\n      0x00\n      mstore\n      keccak256(0x00, 0x20)\n      add\n      0x00\n      swap1\n      sload\n      swap1\n      0x0100\n      exp\n      swap1\n      div\n      0xffffffffffffffffffffffffffffffffffffffff\n      and\n        /* \"Tp2_Auction.sol\":14243:14270  uniqueArray[i] != winner.id */\n      0xffffffffffffffffffffffffffffffffffffffff\n      and\n      eq\n        /* \"Tp2_Auction.sol\":14240:15860  if(uniqueArray[i] != winner.id){... */\n      tag_150\n      jumpi\n        /* \"Tp2_Auction.sol\":14312:14339  returnEther(uniqueArray[i]) */\n      tag_151\n        /* \"Tp2_Auction.sol\":14324:14335  uniqueArray */\n      0x0a\n        /* \"Tp2_Auction.sol\":14336:14337  i */\n      dup3\n        /* \"Tp2_Auction.sol\":14324:14338  uniqueArray[i] */\n      dup2\n      sload\n      dup2\n      lt\n      tag_152\n      jumpi\n      tag_153\n      tag_148\n      jump\t// in\n    tag_153:\n    tag_152:\n      swap1\n      0x00\n      mstore\n      keccak256(0x00, 0x20)\n      add\n      0x00\n      swap1\n      sload\n      swap1\n      0x0100\n      exp\n      swap1\n      div\n      0xffffffffffffffffffffffffffffffffffffffff\n      and\n        /* \"Tp2_Auction.sol\":14312:14323  returnEther */\n      tag_155\n        /* \"Tp2_Auction.sol\":14312:14339  returnEther(uniqueArray[i]) */\n      jump\t// in\n    tag_151:\n        /* \"Tp2_Auction.sol\":14292:14339  (result, aux_val) = returnEther(uniqueArray[i]) */\n      dup1\n      swap6\n      pop\n      dup2\n      swap7\n      pop\n      pop\n      pop\n        /* \"Tp2_Auction.sol\":14390:14395  false */\n      0x00\n        /* \"Tp2_Auction.sol\":14380:14395  result == false */\n      iszero\n      iszero\n        /* \"Tp2_Auction.sol\":14380:14386  result */\n      dup6\n        /* \"Tp2_Auction.sol\":14380:14395  result == false */\n      iszero\n      iszero\n      sub\n        /* \"Tp2_Auction.sol\":14376:15081  if( result == false){   ... */\n      tag_156\n      jumpi\n        /* \"Tp2_Auction.sol\":14422:14448  revert(\"transaction fail\") */\n      mload(0x40)\n      0x08c379a000000000000000000000000000000000000000000000000000000000\n      dup2\n      mstore\n      0x04\n      add\n      tag_157\n      swap1\n      tag_99\n      jump\t// in\n    tag_157:\n      mload(0x40)\n      dup1\n      swap2\n      sub\n      swap1\n      revert\n        /* \"Tp2_Auction.sol\":14376:15081  if( result == false){   ... */\n    tag_156:\n        /* \"Tp2_Auction.sol\":14697:14704  aux_val */\n      dup4\n        /* \"Tp2_Auction.sol\":14661:14669  infoMapp */\n      0x06\n        /* \"Tp2_Auction.sol\":14661:14685  infoMapp[uniqueArray[i]] */\n      0x00\n        /* \"Tp2_Auction.sol\":14670:14681  uniqueArray */\n      0x0a\n        /* \"Tp2_Auction.sol\":14682:14683  i */\n      dup5\n        /* \"Tp2_Auction.sol\":14670:14684  uniqueArray[i] */\n      dup2\n      sload\n      dup2\n      lt\n      tag_159\n      jumpi\n      tag_160\n      tag_148\n      jump\t// in\n    tag_160:\n    tag_159:\n      swap1\n      0x00\n      mstore\n      keccak256(0x00, 0x20)\n      add\n      0x00\n      swap1\n      sload\n      swap1\n      0x0100\n      exp\n      swap1\n      div\n      0xffffffffffffffffffffffffffffffffffffffff\n      and\n        /* \"Tp2_Auction.sol\":14661:14685  infoMapp[uniqueArray[i]] */\n      0xffffffffffffffffffffffffffffffffffffffff\n      and\n      0xffffffffffffffffffffffffffffffffffffffff\n      and\n      dup2\n      mstore\n      0x20\n      add\n      swap1\n      dup2\n      mstore\n      0x20\n      add\n      0x00\n      keccak256\n        /* \"Tp2_Auction.sol\":14661:14693  infoMapp[uniqueArray[i]].balance */\n      0x02\n      add\n      0x00\n        /* \"Tp2_Auction.sol\":14661:14704  infoMapp[uniqueArray[i]].balance -= aux_val */\n      dup3\n      dup3\n      sload\n      tag_162\n      swap2\n      swap1\n      tag_102\n      jump\t// in\n    tag_162:\n      swap3\n      pop\n      pop\n      dup2\n      swap1\n      sstore\n      pop\n        /* \"Tp2_Auction.sol\":14907:14918  uniqueArray */\n      0x0a\n        /* \"Tp2_Auction.sol\":14919:14920  i */\n      dup2\n        /* \"Tp2_Auction.sol\":14907:14921  uniqueArray[i] */\n      dup2\n      sload\n      dup2\n      lt\n      tag_163\n      jumpi\n      tag_164\n      tag_148\n      jump\t// in\n    tag_164:\n    tag_163:\n      swap1\n      0x00\n      mstore\n      keccak256(0x00, 0x20)\n      add\n      0x00\n      swap1\n      sload\n      swap1\n      0x0100\n      exp\n      swap1\n      div\n      0xffffffffffffffffffffffffffffffffffffffff\n      and\n        /* \"Tp2_Auction.sol\":14898:14901  aux */\n      dup3\n        /* \"Tp2_Auction.sol\":14898:14904  aux.id */\n      0x00\n      add\n        /* \"Tp2_Auction.sol\":14898:14921  aux.id = uniqueArray[i] */\n      swap1\n      0xffffffffffffffffffffffffffffffffffffffff\n      and\n      swap1\n      dup2\n      0xffffffffffffffffffffffffffffffffffffffff\n      and\n      dup2\n      mstore\n      pop\n      pop\n        /* \"Tp2_Auction.sol\":14956:14957  0 */\n      0x00\n        /* \"Tp2_Auction.sol\":14944:14947  aux */\n      dup3\n        /* \"Tp2_Auction.sol\":14944:14953  aux.value */\n      0x20\n      add\n        /* \"Tp2_Auction.sol\":14944:14957  aux.value = 0 */\n      dup2\n      dup2\n      mstore\n      pop\n      pop\n        /* \"Tp2_Auction.sol\":14981:14990  infoArray */\n      0x07\n        /* \"Tp2_Auction.sol\":14996:14999  aux */\n      dup3\n        /* \"Tp2_Auction.sol\":14981:15000  infoArray.push(aux) */\n      swap1\n      dup1\n      0x01\n      dup2\n      sload\n      add\n      dup1\n      dup3\n      sstore\n      dup1\n      swap2\n      pop\n      pop\n      0x01\n      swap1\n      sub\n      swap1\n      0x00\n      mstore\n      keccak256(0x00, 0x20)\n      swap1\n      0x02\n      mul\n      add\n      0x00\n      swap1\n      swap2\n      swap1\n      swap2\n      swap1\n      swap2\n      pop\n      0x00\n      dup3\n      add\n      mload\n      dup2\n      0x00\n      add\n      exp(0x0100, 0x00)\n      dup2\n      sload\n      dup2\n      0xffffffffffffffffffffffffffffffffffffffff\n      mul\n      not\n      and\n      swap1\n      dup4\n      0xffffffffffffffffffffffffffffffffffffffff\n      and\n      mul\n      or\n      swap1\n      sstore\n      pop\n      0x20\n      dup3\n      add\n      mload\n      dup2\n      0x01\n      add\n      sstore\n      pop\n      pop\n        /* \"Tp2_Auction.sol\":15043:15046  aux */\n      dup2\n        /* \"Tp2_Auction.sol\":15043:15049  aux.id */\n      0x00\n      add\n      mload\n        /* \"Tp2_Auction.sol\":15028:15059  ReturnedAmount(aux.id, aux_val) */\n      0xffffffffffffffffffffffffffffffffffffffff\n      and\n      0x34dba9a7faf77866d1d036eb7444d95a805bcfe05b6e34819e7d44793d3922d1\n        /* \"Tp2_Auction.sol\":15051:15058  aux_val */\n      dup6\n        /* \"Tp2_Auction.sol\":15028:15059  ReturnedAmount(aux.id, aux_val) */\n      mload(0x40)\n      tag_167\n      swap2\n      swap1\n      tag_22\n      jump\t// in\n    tag_167:\n      mload(0x40)\n      dup1\n      swap2\n      sub\n      swap1\n      log2\n        /* \"Tp2_Auction.sol\":14240:15860  if(uniqueArray[i] != winner.id){... */\n      jump(tag_168)\n    tag_150:\n        /* \"Tp2_Auction.sol\":15145:15178  returnEtherWinner(uniqueArray[i]) */\n      tag_169\n        /* \"Tp2_Auction.sol\":15163:15174  uniqueArray */\n      0x0a\n        /* \"Tp2_Auction.sol\":15175:15176  i */\n      dup3\n        /* \"Tp2_Auction.sol\":15163:15177  uniqueArray[i] */\n      dup2\n      sload\n      dup2\n      lt\n      tag_170\n      jumpi\n      tag_171\n      tag_148\n      jump\t// in\n    tag_171:\n    tag_170:\n      swap1\n      0x00\n      mstore\n      keccak256(0x00, 0x20)\n      add\n      0x00\n      swap1\n      sload\n      swap1\n      0x0100\n      exp\n      swap1\n      div\n      0xffffffffffffffffffffffffffffffffffffffff\n      and\n        /* \"Tp2_Auction.sol\":15145:15162  returnEtherWinner */\n      tag_173\n        /* \"Tp2_Auction.sol\":15145:15178  returnEtherWinner(uniqueArray[i]) */\n      jump\t// in\n    tag_169:\n        /* \"Tp2_Auction.sol\":15125:15178  (result, aux_val) = returnEtherWinner(uniqueArray[i]) */\n      dup1\n      swap6\n      pop\n      dup2\n      swap7\n      pop\n      pop\n      pop\n        /* \"Tp2_Auction.sol\":15214:15219  false */\n      0x00\n        /* \"Tp2_Auction.sol\":15204:15219  result == false */\n      iszero\n      iszero\n        /* \"Tp2_Auction.sol\":15204:15210  result */\n      dup6\n        /* \"Tp2_Auction.sol\":15204:15219  result == false */\n      iszero\n      iszero\n      sub\n        /* \"Tp2_Auction.sol\":15200:15845  if( result == false){   ... */\n      tag_174\n      jumpi\n        /* \"Tp2_Auction.sol\":15246:15272  revert(\"transaction fail\") */\n      mload(0x40)\n      0x08c379a000000000000000000000000000000000000000000000000000000000\n      dup2\n      mstore\n      0x04\n      add\n      tag_175\n      swap1\n      tag_99\n      jump\t// in\n    tag_175:\n      mload(0x40)\n      dup1\n      swap2\n      sub\n      swap1\n      revert\n        /* \"Tp2_Auction.sol\":15200:15845  if( result == false){   ... */\n    tag_174:\n        /* \"Tp2_Auction.sol\":15462:15469  aux_val */\n      dup4\n        /* \"Tp2_Auction.sol\":15426:15434  infoMapp */\n      0x06\n        /* \"Tp2_Auction.sol\":15426:15450  infoMapp[uniqueArray[i]] */\n      0x00\n        /* \"Tp2_Auction.sol\":15435:15446  uniqueArray */\n      0x0a\n        /* \"Tp2_Auction.sol\":15447:15448  i */\n      dup5\n        /* \"Tp2_Auction.sol\":15435:15449  uniqueArray[i] */\n      dup2\n      sload\n      dup2\n      lt\n      tag_177\n      jumpi\n      tag_178\n      tag_148\n      jump\t// in\n    tag_178:\n    tag_177:\n      swap1\n      0x00\n      mstore\n      keccak256(0x00, 0x20)\n      add\n      0x00\n      swap1\n      sload\n      swap1\n      0x0100\n      exp\n      swap1\n      div\n      0xffffffffffffffffffffffffffffffffffffffff\n      and\n        /* \"Tp2_Auction.sol\":15426:15450  infoMapp[uniqueArray[i]] */\n      0xffffffffffffffffffffffffffffffffffffffff\n      and\n      0xffffffffffffffffffffffffffffffffffffffff\n      and\n      dup2\n      mstore\n      0x20\n      add\n      swap1\n      dup2\n      mstore\n      0x20\n      add\n      0x00\n      keccak256\n        /* \"Tp2_Auction.sol\":15426:15458  infoMapp[uniqueArray[i]].balance */\n      0x02\n      add\n      0x00\n        /* \"Tp2_Auction.sol\":15426:15469  infoMapp[uniqueArray[i]].balance -= aux_val */\n      dup3\n      dup3\n      sload\n      tag_180\n      swap2\n      swap1\n      tag_102\n      jump\t// in\n    tag_180:\n      swap3\n      pop\n      pop\n      dup2\n      swap1\n      sstore\n      pop\n        /* \"Tp2_Auction.sol\":15671:15682  uniqueArray */\n      0x0a\n        /* \"Tp2_Auction.sol\":15683:15684  i */\n      dup2\n        /* \"Tp2_Auction.sol\":15671:15685  uniqueArray[i] */\n      dup2\n      sload\n      dup2\n      lt\n      tag_181\n      jumpi\n      tag_182\n      tag_148\n      jump\t// in\n    tag_182:\n    tag_181:\n      swap1\n      0x00\n      mstore\n      keccak256(0x00, 0x20)\n      add\n      0x00\n      swap1\n      sload\n      swap1\n      0x0100\n      exp\n      swap1\n      div\n      0xffffffffffffffffffffffffffffffffffffffff\n      and\n        /* \"Tp2_Auction.sol\":15662:15665  aux */\n      dup3\n        /* \"Tp2_Auction.sol\":15662:15668  aux.id */\n      0x00\n      add\n        /* \"Tp2_Auction.sol\":15662:15685  aux.id = uniqueArray[i] */\n      swap1\n      0xffffffffffffffffffffffffffffffffffffffff\n      and\n      swap1\n      dup2\n      0xffffffffffffffffffffffffffffffffffffffff\n      and\n      dup2\n      mstore\n      pop\n      pop\n        /* \"Tp2_Auction.sol\":15720:15721  0 */\n      0x00\n        /* \"Tp2_Auction.sol\":15708:15711  aux */\n      dup3\n        /* \"Tp2_Auction.sol\":15708:15717  aux.value */\n      0x20\n      add\n        /* \"Tp2_Auction.sol\":15708:15721  aux.value = 0 */\n      dup2\n      dup2\n      mstore\n      pop\n      pop\n        /* \"Tp2_Auction.sol\":15745:15754  infoArray */\n      0x07\n        /* \"Tp2_Auction.sol\":15760:15763  aux */\n      dup3\n        /* \"Tp2_Auction.sol\":15745:15764  infoArray.push(aux) */\n      swap1\n      dup1\n      0x01\n      dup2\n      sload\n      add\n      dup1\n      dup3\n      sstore\n      dup1\n      swap2\n      pop\n      pop\n      0x01\n      swap1\n      sub\n      swap1\n      0x00\n      mstore\n      keccak256(0x00, 0x20)\n      swap1\n      0x02\n      mul\n      add\n      0x00\n      swap1\n      swap2\n      swap1\n      swap2\n      swap1\n      swap2\n      pop\n      0x00\n      dup3\n      add\n      mload\n      dup2\n      0x00\n      add\n      exp(0x0100, 0x00)\n      dup2\n      sload\n      dup2\n      0xffffffffffffffffffffffffffffffffffffffff\n      mul\n      not\n      and\n      swap1\n      dup4\n      0xffffffffffffffffffffffffffffffffffffffff\n      and\n      mul\n      or\n      swap1\n      sstore\n      pop\n      0x20\n      dup3\n      add\n      mload\n      dup2\n      0x01\n      add\n      sstore\n      pop\n      pop\n        /* \"Tp2_Auction.sol\":15807:15810  aux */\n      dup2\n        /* \"Tp2_Auction.sol\":15807:15813  aux.id */\n      0x00\n      add\n      mload\n        /* \"Tp2_Auction.sol\":15792:15823  ReturnedAmount(aux.id, aux_val) */\n      0xffffffffffffffffffffffffffffffffffffffff\n      and\n      0x34dba9a7faf77866d1d036eb7444d95a805bcfe05b6e34819e7d44793d3922d1\n        /* \"Tp2_Auction.sol\":15815:15822  aux_val */\n      dup6\n        /* \"Tp2_Auction.sol\":15792:15823  ReturnedAmount(aux.id, aux_val) */\n      mload(0x40)\n      tag_185\n      swap2\n      swap1\n      tag_22\n      jump\t// in\n    tag_185:\n      mload(0x40)\n      dup1\n      swap2\n      sub\n      swap1\n      log2\n        /* \"Tp2_Auction.sol\":14240:15860  if(uniqueArray[i] != winner.id){... */\n    tag_168:\n        /* \"Tp2_Auction.sol\":14220:14223  i++ */\n      dup1\n      dup1\n      0x01\n      add\n      swap2\n      pop\n      pop\n        /* \"Tp2_Auction.sol\":14191:15871  for (uint i = 0; i < length; i++) {... */\n      jump(tag_143)\n    tag_144:\n      pop\n        /* \"Tp2_Auction.sol\":13879:15878  {... */\n      pop\n      pop\n      pop\n      pop\n        /* \"Tp2_Auction.sol\":13824:15878  function returnOffers() external onlyOwner auctionEnded{... */\n      jump\t// out\n        /* \"Tp2_Auction.sol\":11098:11191  function showWinner() external view returns (Person2 memory) {... */\n    tag_36:\n        /* \"Tp2_Auction.sol\":11143:11157  Person2 memory */\n      tag_186\n      tag_104\n      jump\t// in\n    tag_186:\n        /* \"Tp2_Auction.sol\":11177:11183  winner */\n      0x08\n        /* \"Tp2_Auction.sol\":11170:11183  return winner */\n      mload(0x40)\n      dup1\n      0x40\n      add\n      0x40\n      mstore\n      swap1\n      dup2\n      0x00\n      dup3\n      add\n      0x00\n      swap1\n      sload\n      swap1\n      0x0100\n      exp\n      swap1\n      div\n      0xffffffffffffffffffffffffffffffffffffffff\n      and\n      0xffffffffffffffffffffffffffffffffffffffff\n      and\n      0xffffffffffffffffffffffffffffffffffffffff\n      and\n      dup2\n      mstore\n      0x20\n      add\n      0x01\n      dup3\n      add\n      sload\n      dup2\n      mstore\n      pop\n      pop\n      swap1\n      pop\n        /* \"Tp2_Auction.sol\":11098:11191  function showWinner() external view returns (Person2 memory) {... */\n      swap1\n      jump\t// out\n        /* \"Tp2_Auction.sol\":764:782  State public state */\n    tag_41:\n      0x05\n      0x00\n      swap1\n      sload\n      swap1\n      0x0100\n      exp\n      swap1\n      div\n      0xff\n      and\n      dup2\n      jump\t// out\n        /* \"Tp2_Auction.sol\":16586:17028  function emergencyOwnerClaim() external onlyOwner {... */\n    tag_46:\n        /* \"Tp2_Auction.sol\":2136:2146  msg.sender */\n      caller\n        /* \"Tp2_Auction.sol\":2129:2146  owner==msg.sender */\n      0xffffffffffffffffffffffffffffffffffffffff\n      and\n        /* \"Tp2_Auction.sol\":2129:2134  owner */\n      0x00\n      0x00\n      swap1\n      sload\n      swap1\n      0x0100\n      exp\n      swap1\n      div\n      0xffffffffffffffffffffffffffffffffffffffff\n      and\n        /* \"Tp2_Auction.sol\":2129:2146  owner==msg.sender */\n      0xffffffffffffffffffffffffffffffffffffffff\n      and\n      eq\n        /* \"Tp2_Auction.sol\":2121:2164  require(owner==msg.sender, \"not the owner\") */\n      tag_189\n      jumpi\n      mload(0x40)\n      0x08c379a000000000000000000000000000000000000000000000000000000000\n      dup2\n      mstore\n      0x04\n      add\n      tag_190\n      swap1\n      tag_110\n      jump\t// in\n    tag_190:\n      mload(0x40)\n      dup1\n      swap2\n      sub\n      swap1\n      revert\n    tag_189:\n        /* \"Tp2_Auction.sol\":16657:16666  State.off */\n      0x01\n        /* \"Tp2_Auction.sol\":16649:16654  state */\n      0x05\n      0x00\n        /* \"Tp2_Auction.sol\":16649:16666  state = State.off */\n      0x0100\n      exp\n      dup2\n      sload\n      dup2\n      0xff\n      mul\n      not\n      and\n      swap1\n      dup4\n      0x01\n      dup2\n      gt\n      iszero\n      tag_192\n      jumpi\n      tag_193\n      tag_53\n      jump\t// in\n    tag_193:\n    tag_192:\n      mul\n      or\n      swap1\n      sstore\n      pop\n        /* \"Tp2_Auction.sol\":16700:16737  AuctionEnded(winner.id, winner.value) */\n      0xdaec4582d5d9595688c8c98545fdd1c696d41c6aeaeb636737e84ed2f5c00eda\n        /* \"Tp2_Auction.sol\":16713:16719  winner */\n      0x08\n        /* \"Tp2_Auction.sol\":16713:16722  winner.id */\n      0x00\n      add\n      0x00\n      swap1\n      sload\n      swap1\n      0x0100\n      exp\n      swap1\n      div\n      0xffffffffffffffffffffffffffffffffffffffff\n      and\n        /* \"Tp2_Auction.sol\":16724:16730  winner */\n      0x08\n        /* \"Tp2_Auction.sol\":16724:16736  winner.value */\n      0x01\n      add\n      sload\n        /* \"Tp2_Auction.sol\":16700:16737  AuctionEnded(winner.id, winner.value) */\n      mload(0x40)\n      tag_194\n      swap3\n      swap2\n      swap1\n      tag_195\n      jump\t// in\n    tag_194:\n      mload(0x40)\n      dup1\n      swap2\n      sub\n      swap1\n      log1\n        /* \"Tp2_Auction.sol\":16750:16765  uint256 aux_bal */\n      0x00\n        /* \"Tp2_Auction.sol\":16768:16789  address(this).balance */\n      selfbalance\n        /* \"Tp2_Auction.sol\":16750:16789  uint256 aux_bal = address(this).balance */\n      swap1\n      pop\n        /* \"Tp2_Auction.sol\":16801:16812  bool result */\n      0x00\n        /* \"Tp2_Auction.sol\":16818:16823  owner */\n      0x00\n      0x00\n      swap1\n      sload\n      swap1\n      0x0100\n      exp\n      swap1\n      div\n      0xffffffffffffffffffffffffffffffffffffffff\n      and\n        /* \"Tp2_Auction.sol\":16818:16828  owner.call */\n      0xffffffffffffffffffffffffffffffffffffffff\n      and\n        /* \"Tp2_Auction.sol\":16834:16838  2300 */\n      0x08fc\n        /* \"Tp2_Auction.sol\":16846:16853  aux_bal */\n      dup4\n        /* \"Tp2_Auction.sol\":16818:16858  owner.call{gas: 2300, value:aux_bal}(\"\") */\n      mload(0x40)\n      tag_196\n      swap1\n      tag_121\n      jump\t// in\n    tag_196:\n      0x00\n      mload(0x40)\n      dup1\n      dup4\n      sub\n      dup2\n      dup6\n      dup9\n      dup9\n      call\n      swap4\n      pop\n      pop\n      pop\n      pop\n      returndatasize\n      dup1\n      0x00\n      dup2\n      eq\n      tag_199\n      jumpi\n      mload(0x40)\n      swap2\n      pop\n      and(add(returndatasize, 0x3f), not(0x1f))\n      dup3\n      add\n      0x40\n      mstore\n      returndatasize\n      dup3\n      mstore\n      returndatasize\n      0x00\n      0x20\n      dup5\n      add\n      returndatacopy\n      jump(tag_198)\n    tag_199:\n      0x60\n      swap2\n      pop\n    tag_198:\n      pop\n        /* \"Tp2_Auction.sol\":16800:16858  (bool result, ) = owner.call{gas: 2300, value:aux_bal}(\"\") */\n      pop\n      swap1\n      pop\n        /* \"Tp2_Auction.sol\":16886:16891  false */\n      0x00\n        /* \"Tp2_Auction.sol\":16876:16891  result == false */\n      iszero\n      iszero\n        /* \"Tp2_Auction.sol\":16876:16882  result */\n      dup2\n        /* \"Tp2_Auction.sol\":16876:16891  result == false */\n      iszero\n      iszero\n      sub\n        /* \"Tp2_Auction.sol\":16872:17021  if( result == false){   ... */\n      tag_200\n      jumpi\n        /* \"Tp2_Auction.sol\":16910:16936  revert(\"transaction fail\") */\n      mload(0x40)\n      0x08c379a000000000000000000000000000000000000000000000000000000000\n      dup2\n      mstore\n      0x04\n      add\n      tag_201\n      swap1\n      tag_99\n      jump\t// in\n    tag_201:\n      mload(0x40)\n      dup1\n      swap2\n      sub\n      swap1\n      revert\n        /* \"Tp2_Auction.sol\":16872:17021  if( result == false){   ... */\n    tag_200:\n        /* \"Tp2_Auction.sol\":16992:16997  owner */\n      0x00\n      0x00\n      swap1\n      sload\n      swap1\n      0x0100\n      exp\n      swap1\n      div\n      0xffffffffffffffffffffffffffffffffffffffff\n      and\n        /* \"Tp2_Auction.sol\":16972:17007  EmergencyOwnerClaim(owner, aux_bal) */\n      0xffffffffffffffffffffffffffffffffffffffff\n      and\n      0x8ac557ae144720724c1f4a5dc5227f34695f7f7fe698a8a2210c380d822bdf7f\n        /* \"Tp2_Auction.sol\":16999:17006  aux_bal */\n      dup4\n        /* \"Tp2_Auction.sol\":16972:17007  EmergencyOwnerClaim(owner, aux_bal) */\n      mload(0x40)\n      tag_203\n      swap2\n      swap1\n      tag_22\n      jump\t// in\n    tag_203:\n      mload(0x40)\n      dup1\n      swap2\n      sub\n      swap1\n      log2\n        /* \"Tp2_Auction.sol\":16636:17028  {... */\n      pop\n      pop\n        /* \"Tp2_Auction.sol\":16586:17028  function emergencyOwnerClaim() external onlyOwner {... */\n      jump\t// out\n        /* \"Tp2_Auction.sol\":13370:13652  function endAuction() external onlyOwner auctionAlive{... */\n    tag_49:\n        /* \"Tp2_Auction.sol\":2136:2146  msg.sender */\n      caller\n        /* \"Tp2_Auction.sol\":2129:2146  owner==msg.sender */\n      0xffffffffffffffffffffffffffffffffffffffff\n      and\n        /* \"Tp2_Auction.sol\":2129:2134  owner */\n      0x00\n      0x00\n      swap1\n      sload\n      swap1\n      0x0100\n      exp\n      swap1\n      div\n      0xffffffffffffffffffffffffffffffffffffffff\n      and\n        /* \"Tp2_Auction.sol\":2129:2146  owner==msg.sender */\n      0xffffffffffffffffffffffffffffffffffffffff\n      and\n      eq\n        /* \"Tp2_Auction.sol\":2121:2164  require(owner==msg.sender, \"not the owner\") */\n      tag_205\n      jumpi\n      mload(0x40)\n      0x08c379a000000000000000000000000000000000000000000000000000000000\n      dup2\n      mstore\n      0x04\n      add\n      tag_206\n      swap1\n      tag_110\n      jump\t// in\n    tag_206:\n      mload(0x40)\n      dup1\n      swap2\n      sub\n      swap1\n      revert\n    tag_205:\n        /* \"Tp2_Auction.sol\":2546:2554  State.on */\n      0x00\n        /* \"Tp2_Auction.sol\":2537:2554  state == State.on */\n      0x01\n      dup2\n      gt\n      iszero\n      tag_208\n      jumpi\n      tag_209\n      tag_53\n      jump\t// in\n    tag_209:\n    tag_208:\n        /* \"Tp2_Auction.sol\":2537:2542  state */\n      0x05\n      0x00\n      swap1\n      sload\n      swap1\n      0x0100\n      exp\n      swap1\n      div\n      0xff\n      and\n        /* \"Tp2_Auction.sol\":2537:2554  state == State.on */\n      0x01\n      dup2\n      gt\n      iszero\n      tag_210\n      jumpi\n      tag_211\n      tag_53\n      jump\t// in\n    tag_211:\n    tag_210:\n      eq\n        /* \"Tp2_Auction.sol\":2529:2579  require(state == State.on,\"auction already ended\") */\n      tag_212\n      jumpi\n      mload(0x40)\n      0x08c379a000000000000000000000000000000000000000000000000000000000\n      dup2\n      mstore\n      0x04\n      add\n      tag_213\n      swap1\n      tag_89\n      jump\t// in\n    tag_213:\n      mload(0x40)\n      dup1\n      swap2\n      sub\n      swap1\n      revert\n    tag_212:\n        /* \"Tp2_Auction.sol\":13456:13466  expiration */\n      sload(0x04)\n        /* \"Tp2_Auction.sol\":13438:13453  block.timestamp */\n      timestamp\n        /* \"Tp2_Auction.sol\":13438:13466  block.timestamp > expiration */\n      gt\n        /* \"Tp2_Auction.sol\":13434:13645  if (block.timestamp > expiration) {... */\n      iszero\n      tag_215\n      jumpi\n        /* \"Tp2_Auction.sol\":13491:13500  State.off */\n      0x01\n        /* \"Tp2_Auction.sol\":13483:13488  state */\n      0x05\n      0x00\n        /* \"Tp2_Auction.sol\":13483:13500  state = State.off */\n      0x0100\n      exp\n      dup2\n      sload\n      dup2\n      0xff\n      mul\n      not\n      and\n      swap1\n      dup4\n      0x01\n      dup2\n      gt\n      iszero\n      tag_216\n      jumpi\n      tag_217\n      tag_53\n      jump\t// in\n    tag_217:\n    tag_216:\n      mul\n      or\n      swap1\n      sstore\n      pop\n        /* \"Tp2_Auction.sol\":13538:13575  AuctionEnded(winner.id, winner.value) */\n      0xdaec4582d5d9595688c8c98545fdd1c696d41c6aeaeb636737e84ed2f5c00eda\n        /* \"Tp2_Auction.sol\":13551:13557  winner */\n      0x08\n        /* \"Tp2_Auction.sol\":13551:13560  winner.id */\n      0x00\n      add\n      0x00\n      swap1\n      sload\n      swap1\n      0x0100\n      exp\n      swap1\n      div\n      0xffffffffffffffffffffffffffffffffffffffff\n      and\n        /* \"Tp2_Auction.sol\":13562:13568  winner */\n      0x08\n        /* \"Tp2_Auction.sol\":13562:13574  winner.value */\n      0x01\n      add\n      sload\n        /* \"Tp2_Auction.sol\":13538:13575  AuctionEnded(winner.id, winner.value) */\n      mload(0x40)\n      tag_218\n      swap3\n      swap2\n      swap1\n      tag_195\n      jump\t// in\n    tag_218:\n      mload(0x40)\n      dup1\n      swap2\n      sub\n      swap1\n      log1\n        /* \"Tp2_Auction.sol\":13434:13645  if (block.timestamp > expiration) {... */\n      jump(tag_219)\n    tag_215:\n        /* \"Tp2_Auction.sol\":13608:13633  revert(\"not expired yet\") */\n      mload(0x40)\n      0x08c379a000000000000000000000000000000000000000000000000000000000\n      dup2\n      mstore\n      0x04\n      add\n      tag_220\n      swap1\n      tag_221\n      jump\t// in\n    tag_220:\n      mload(0x40)\n      dup1\n      swap2\n      sub\n      swap1\n      revert\n        /* \"Tp2_Auction.sol\":13434:13645  if (block.timestamp > expiration) {... */\n    tag_219:\n        /* \"Tp2_Auction.sol\":13370:13652  function endAuction() external onlyOwner auctionAlive{... */\n      jump\t// out\n        /* \"Tp2_Auction.sol\":5345:5471  function updateWinner (address _id, uint256 _value) private {... */\n    tag_69:\n        /* \"Tp2_Auction.sol\":5428:5431  _id */\n      dup2\n        /* \"Tp2_Auction.sol\":5416:5422  winner */\n      0x08\n        /* \"Tp2_Auction.sol\":5416:5425  winner.id */\n      0x00\n      add\n      0x00\n        /* \"Tp2_Auction.sol\":5416:5431  winner.id = _id */\n      0x0100\n      exp\n      dup2\n      sload\n      dup2\n      0xffffffffffffffffffffffffffffffffffffffff\n      mul\n      not\n      and\n      swap1\n      dup4\n      0xffffffffffffffffffffffffffffffffffffffff\n      and\n      mul\n      or\n      swap1\n      sstore\n      pop\n        /* \"Tp2_Auction.sol\":5457:5463  _value */\n      dup1\n        /* \"Tp2_Auction.sol\":5442:5448  winner */\n      0x08\n        /* \"Tp2_Auction.sol\":5442:5454  winner.value */\n      0x01\n      add\n        /* \"Tp2_Auction.sol\":5442:5463  winner.value = _value */\n      dup2\n      swap1\n      sstore\n      pop\n        /* \"Tp2_Auction.sol\":5345:5471  function updateWinner (address _id, uint256 _value) private {... */\n      pop\n      pop\n      jump\t// out\n        /* \"Tp2_Auction.sol\":5684:5923  function updateInfoMApp (address _id, uint256 _value, uint256 _value2) private {... */\n    tag_71:\n        /* \"Tp2_Auction.sol\":5825:5831  _value */\n      dup2\n        /* \"Tp2_Auction.sol\":5803:5811  infoMapp */\n      0x06\n        /* \"Tp2_Auction.sol\":5803:5816  infoMapp[_id] */\n      0x00\n        /* \"Tp2_Auction.sol\":5812:5815  _id */\n      dup6\n        /* \"Tp2_Auction.sol\":5803:5816  infoMapp[_id] */\n      0xffffffffffffffffffffffffffffffffffffffff\n      and\n      0xffffffffffffffffffffffffffffffffffffffff\n      and\n      dup2\n      mstore\n      0x20\n      add\n      swap1\n      dup2\n      mstore\n      0x20\n      add\n      0x00\n      keccak256\n        /* \"Tp2_Auction.sol\":5803:5822  infoMapp[_id].value */\n      0x01\n      add\n        /* \"Tp2_Auction.sol\":5803:5831  infoMapp[_id].value = _value */\n      dup2\n      swap1\n      sstore\n      pop\n        /* \"Tp2_Auction.sol\":5881:5888  _value2 */\n      dup1\n        /* \"Tp2_Auction.sol\":5856:5864  infoMapp */\n      0x06\n        /* \"Tp2_Auction.sol\":5856:5869  infoMapp[_id] */\n      0x00\n        /* \"Tp2_Auction.sol\":5865:5868  _id */\n      dup6\n        /* \"Tp2_Auction.sol\":5856:5869  infoMapp[_id] */\n      0xffffffffffffffffffffffffffffffffffffffff\n      and\n      0xffffffffffffffffffffffffffffffffffffffff\n      and\n      dup2\n      mstore\n      0x20\n      add\n      swap1\n      dup2\n      mstore\n      0x20\n      add\n      0x00\n      keccak256\n        /* \"Tp2_Auction.sol\":5856:5877  infoMapp[_id].balance */\n      0x02\n      add\n      0x00\n        /* \"Tp2_Auction.sol\":5856:5888  infoMapp[_id].balance += _value2 */\n      dup3\n      dup3\n      sload\n      tag_224\n      swap2\n      swap1\n      tag_225\n      jump\t// in\n    tag_224:\n      swap3\n      pop\n      pop\n      dup2\n      swap1\n      sstore\n      pop\n        /* \"Tp2_Auction.sol\":5684:5923  function updateInfoMApp (address _id, uint256 _value, uint256 _value2) private {... */\n      pop\n      pop\n      pop\n      jump\t// out\n        /* \"Tp2_Auction.sol\":6106:6288  function updateInfoArray (address _id, uint256 _value) private {... */\n    tag_73:\n        /* \"Tp2_Auction.sol\":6180:6198  Person2 memory aux */\n      tag_227\n      tag_104\n      jump\t// in\n    tag_227:\n        /* \"Tp2_Auction.sol\":6218:6221  _id */\n      dup3\n        /* \"Tp2_Auction.sol\":6209:6212  aux */\n      dup2\n        /* \"Tp2_Auction.sol\":6209:6215  aux.id */\n      0x00\n      add\n        /* \"Tp2_Auction.sol\":6209:6221  aux.id = _id */\n      swap1\n      0xffffffffffffffffffffffffffffffffffffffff\n      and\n      swap1\n      dup2\n      0xffffffffffffffffffffffffffffffffffffffff\n      and\n      dup2\n      mstore\n      pop\n      pop\n        /* \"Tp2_Auction.sol\":6244:6250  _value */\n      dup2\n        /* \"Tp2_Auction.sol\":6232:6235  aux */\n      dup2\n        /* \"Tp2_Auction.sol\":6232:6241  aux.value */\n      0x20\n      add\n        /* \"Tp2_Auction.sol\":6232:6250  aux.value = _value */\n      dup2\n      dup2\n      mstore\n      pop\n      pop\n        /* \"Tp2_Auction.sol\":6261:6270  infoArray */\n      0x07\n        /* \"Tp2_Auction.sol\":6276:6279  aux */\n      dup2\n        /* \"Tp2_Auction.sol\":6261:6280  infoArray.push(aux) */\n      swap1\n      dup1\n      0x01\n      dup2\n      sload\n      add\n      dup1\n      dup3\n      sstore\n      dup1\n      swap2\n      pop\n      pop\n      0x01\n      swap1\n      sub\n      swap1\n      0x00\n      mstore\n      keccak256(0x00, 0x20)\n      swap1\n      0x02\n      mul\n      add\n      0x00\n      swap1\n      swap2\n      swap1\n      swap2\n      swap1\n      swap2\n      pop\n      0x00\n      dup3\n      add\n      mload\n      dup2\n      0x00\n      add\n      exp(0x0100, 0x00)\n      dup2\n      sload\n      dup2\n      0xffffffffffffffffffffffffffffffffffffffff\n      mul\n      not\n      and\n      swap1\n      dup4\n      0xffffffffffffffffffffffffffffffffffffffff\n      and\n      mul\n      or\n      swap1\n      sstore\n      pop\n      0x20\n      dup3\n      add\n      mload\n      dup2\n      0x01\n      add\n      sstore\n      pop\n      pop\n        /* \"Tp2_Auction.sol\":6169:6288  {... */\n      pop\n        /* \"Tp2_Auction.sol\":6106:6288  function updateInfoArray (address _id, uint256 _value) private {... */\n      pop\n      pop\n      jump\t// out\n        /* \"Tp2_Auction.sol\":6411:6569  function updateExpiration () private {... */\n    tag_75:\n        /* \"Tp2_Auction.sol\":6496:6502  window */\n      sload(0x03)\n        /* \"Tp2_Auction.sol\":6483:6493  expiration */\n      sload(0x04)\n        /* \"Tp2_Auction.sol\":6483:6502  expiration - window */\n      tag_230\n      swap2\n      swap1\n      tag_102\n      jump\t// in\n    tag_230:\n        /* \"Tp2_Auction.sol\":6464:6479  block.timestamp */\n      timestamp\n        /* \"Tp2_Auction.sol\":6464:6502  block.timestamp >= expiration - window */\n      lt\n        /* \"Tp2_Auction.sol\":6460:6552  if (block.timestamp >= expiration - window) {... */\n      tag_231\n      jumpi\n        /* \"Tp2_Auction.sol\":6533:6539  window */\n      sload(0x03)\n        /* \"Tp2_Auction.sol\":6519:6529  expiration */\n      0x04\n      0x00\n        /* \"Tp2_Auction.sol\":6519:6539  expiration += window */\n      dup3\n      dup3\n      sload\n      tag_232\n      swap2\n      swap1\n      tag_225\n      jump\t// in\n    tag_232:\n      swap3\n      pop\n      pop\n      dup2\n      swap1\n      sstore\n      pop\n        /* \"Tp2_Auction.sol\":6460:6552  if (block.timestamp >= expiration - window) {... */\n    tag_231:\n        /* \"Tp2_Auction.sol\":6411:6569  function updateExpiration () private {... */\n      jump\t// out\n        /* \"Tp2_Auction.sol\":9544:9965  function addUnique(address _id) private {   // only add `msg.sender` to `uniqueArray` if it's not there yet... */\n    tag_78:\n        /* \"Tp2_Auction.sol\":9720:9725  false */\n      0x00\n        /* \"Tp2_Auction.sol\":9703:9725  isBidder[_id] == false */\n      iszero\n      iszero\n        /* \"Tp2_Auction.sol\":9703:9711  isBidder */\n      0x0b\n        /* \"Tp2_Auction.sol\":9703:9716  isBidder[_id] */\n      0x00\n        /* \"Tp2_Auction.sol\":9712:9715  _id */\n      dup4\n        /* \"Tp2_Auction.sol\":9703:9716  isBidder[_id] */\n      0xffffffffffffffffffffffffffffffffffffffff\n      and\n      0xffffffffffffffffffffffffffffffffffffffff\n      and\n      dup2\n      mstore\n      0x20\n      add\n      swap1\n      dup2\n      mstore\n      0x20\n      add\n      0x00\n      keccak256\n      0x00\n      swap1\n      sload\n      swap1\n      0x0100\n      exp\n      swap1\n      div\n      0xff\n      and\n        /* \"Tp2_Auction.sol\":9703:9725  isBidder[_id] == false */\n      iszero\n      iszero\n      sub\n        /* \"Tp2_Auction.sol\":9699:9958  if (isBidder[_id] == false) {... */\n      tag_234\n      jumpi\n        /* \"Tp2_Auction.sol\":9792:9803  uniqueArray */\n      0x0a\n        /* \"Tp2_Auction.sol\":9817:9820  _id */\n      dup2\n        /* \"Tp2_Auction.sol\":9792:9822  uniqueArray.push(payable(_id)) */\n      swap1\n      dup1\n      0x01\n      dup2\n      sload\n      add\n      dup1\n      dup3\n      sstore\n      dup1\n      swap2\n      pop\n      pop\n      0x01\n      swap1\n      sub\n      swap1\n      0x00\n      mstore\n      keccak256(0x00, 0x20)\n      add\n      0x00\n      swap1\n      swap2\n      swap1\n      swap2\n      swap1\n      swap2\n      0x0100\n      exp\n      dup2\n      sload\n      dup2\n      0xffffffffffffffffffffffffffffffffffffffff\n      mul\n      not\n      and\n      swap1\n      dup4\n      0xffffffffffffffffffffffffffffffffffffffff\n      and\n      mul\n      or\n      swap1\n      sstore\n      pop\n        /* \"Tp2_Auction.sol\":9942:9946  true */\n      0x01\n        /* \"Tp2_Auction.sol\":9926:9934  isBidder */\n      0x0b\n        /* \"Tp2_Auction.sol\":9926:9939  isBidder[_id] */\n      0x00\n        /* \"Tp2_Auction.sol\":9935:9938  _id */\n      dup4\n        /* \"Tp2_Auction.sol\":9926:9939  isBidder[_id] */\n      0xffffffffffffffffffffffffffffffffffffffff\n      and\n      0xffffffffffffffffffffffffffffffffffffffff\n      and\n      dup2\n      mstore\n      0x20\n      add\n      swap1\n      dup2\n      mstore\n      0x20\n      add\n      0x00\n      keccak256\n      0x00\n        /* \"Tp2_Auction.sol\":9926:9946  isBidder[_id] = true */\n      0x0100\n      exp\n      dup2\n      sload\n      dup2\n      0xff\n      mul\n      not\n      and\n      swap1\n      dup4\n      iszero\n      iszero\n      mul\n      or\n      swap1\n      sstore\n      pop\n        /* \"Tp2_Auction.sol\":9699:9958  if (isBidder[_id] == false) {... */\n    tag_234:\n        /* \"Tp2_Auction.sol\":9544:9965  function addUnique(address _id) private {   // only add `msg.sender` to `uniqueArray` if it's not there yet... */\n      pop\n      jump\t// out\n        /* \"Tp2_Auction.sol\":8655:9387  function returnClaimedEthers(address payable _to) internal returns (bool, uint256) {... */\n    tag_96:\n        /* \"Tp2_Auction.sol\":8723:8727  bool */\n      0x00\n        /* \"Tp2_Auction.sol\":8729:8736  uint256 */\n      0x00\n        /* \"Tp2_Auction.sol\":8779:8787  infoMapp */\n      0x06\n        /* \"Tp2_Auction.sol\":8779:8792  infoMapp[_to] */\n      0x00\n        /* \"Tp2_Auction.sol\":8788:8791  _to */\n      dup5\n        /* \"Tp2_Auction.sol\":8779:8792  infoMapp[_to] */\n      0xffffffffffffffffffffffffffffffffffffffff\n      and\n      0xffffffffffffffffffffffffffffffffffffffff\n      and\n      dup2\n      mstore\n      0x20\n      add\n      swap1\n      dup2\n      mstore\n      0x20\n      add\n      0x00\n      keccak256\n        /* \"Tp2_Auction.sol\":8779:8798  infoMapp[_to].value */\n      0x01\n      add\n      sload\n        /* \"Tp2_Auction.sol\":8755:8763  infoMapp */\n      0x06\n        /* \"Tp2_Auction.sol\":8755:8768  infoMapp[_to] */\n      0x00\n        /* \"Tp2_Auction.sol\":8764:8767  _to */\n      dup6\n        /* \"Tp2_Auction.sol\":8755:8768  infoMapp[_to] */\n      0xffffffffffffffffffffffffffffffffffffffff\n      and\n      0xffffffffffffffffffffffffffffffffffffffff\n      and\n      dup2\n      mstore\n      0x20\n      add\n      swap1\n      dup2\n      mstore\n      0x20\n      add\n      0x00\n      keccak256\n        /* \"Tp2_Auction.sol\":8755:8776  infoMapp[_to].balance */\n      0x02\n      add\n      sload\n        /* \"Tp2_Auction.sol\":8755:8798  infoMapp[_to].balance > infoMapp[_to].value */\n      gt\n        /* \"Tp2_Auction.sol\":8751:9380  if (infoMapp[_to].balance > infoMapp[_to].value) { // value in the mapp is the last valid offer ... */\n      iszero\n      tag_237\n      jumpi\n        /* \"Tp2_Auction.sol\":8874:8890  uint256 aux_val1 */\n      0x00\n        /* \"Tp2_Auction.sol\":8918:8926  infoMapp */\n      0x06\n        /* \"Tp2_Auction.sol\":8918:8931  infoMapp[_to] */\n      0x00\n        /* \"Tp2_Auction.sol\":8927:8930  _to */\n      dup6\n        /* \"Tp2_Auction.sol\":8918:8931  infoMapp[_to] */\n      0xffffffffffffffffffffffffffffffffffffffff\n      and\n      0xffffffffffffffffffffffffffffffffffffffff\n      and\n      dup2\n      mstore\n      0x20\n      add\n      swap1\n      dup2\n      mstore\n      0x20\n      add\n      0x00\n      keccak256\n        /* \"Tp2_Auction.sol\":8918:8937  infoMapp[_to].value */\n      0x01\n      add\n      sload\n        /* \"Tp2_Auction.sol\":8894:8902  infoMapp */\n      0x06\n        /* \"Tp2_Auction.sol\":8894:8907  infoMapp[_to] */\n      0x00\n        /* \"Tp2_Auction.sol\":8903:8906  _to */\n      dup7\n        /* \"Tp2_Auction.sol\":8894:8907  infoMapp[_to] */\n      0xffffffffffffffffffffffffffffffffffffffff\n      and\n      0xffffffffffffffffffffffffffffffffffffffff\n      and\n      dup2\n      mstore\n      0x20\n      add\n      swap1\n      dup2\n      mstore\n      0x20\n      add\n      0x00\n      keccak256\n        /* \"Tp2_Auction.sol\":8894:8915  infoMapp[_to].balance */\n      0x02\n      add\n      sload\n        /* \"Tp2_Auction.sol\":8894:8937  infoMapp[_to].balance - infoMapp[_to].value */\n      tag_238\n      swap2\n      swap1\n      tag_102\n      jump\t// in\n    tag_238:\n        /* \"Tp2_Auction.sol\":8874:8938  uint256 aux_val1 = (infoMapp[_to].balance - infoMapp[_to].value) */\n      swap1\n      pop\n        /* \"Tp2_Auction.sol\":8999:9015  uint256 aux_val2 */\n      0x00\n        /* \"Tp2_Auction.sol\":9035:9038  100 */\n      0x64\n        /* \"Tp2_Auction.sol\":9030:9032  98 */\n      0x62\n        /* \"Tp2_Auction.sol\":9019:9027  aux_val1 */\n      dup4\n        /* \"Tp2_Auction.sol\":9019:9032  aux_val1 * 98 */\n      tag_239\n      swap2\n      swap1\n      tag_61\n      jump\t// in\n    tag_239:\n        /* \"Tp2_Auction.sol\":9019:9038  aux_val1 * 98 / 100 */\n      tag_240\n      swap2\n      swap1\n      tag_63\n      jump\t// in\n    tag_240:\n        /* \"Tp2_Auction.sol\":8999:9039  uint256 aux_val2 = (aux_val1 * 98 / 100) */\n      swap1\n      pop\n        /* \"Tp2_Auction.sol\":9057:9068  bool result */\n      0x00\n        /* \"Tp2_Auction.sol\":9074:9077  _to */\n      dup6\n        /* \"Tp2_Auction.sol\":9074:9082  _to.call */\n      0xffffffffffffffffffffffffffffffffffffffff\n      and\n        /* \"Tp2_Auction.sol\":9088:9092  2300 */\n      0x08fc\n        /* \"Tp2_Auction.sol\":9100:9108  aux_val2 */\n      dup4\n        /* \"Tp2_Auction.sol\":9074:9113  _to.call{gas: 2300, value:aux_val2}(\"\") */\n      mload(0x40)\n      tag_241\n      swap1\n      tag_121\n      jump\t// in\n    tag_241:\n      0x00\n      mload(0x40)\n      dup1\n      dup4\n      sub\n      dup2\n      dup6\n      dup9\n      dup9\n      call\n      swap4\n      pop\n      pop\n      pop\n      pop\n      returndatasize\n      dup1\n      0x00\n      dup2\n      eq\n      tag_244\n      jumpi\n      mload(0x40)\n      swap2\n      pop\n      and(add(returndatasize, 0x3f), not(0x1f))\n      dup3\n      add\n      0x40\n      mstore\n      returndatasize\n      dup3\n      mstore\n      returndatasize\n      0x00\n      0x20\n      dup5\n      add\n      returndatacopy\n      jump(tag_243)\n    tag_244:\n      0x60\n      swap2\n      pop\n    tag_243:\n      pop\n        /* \"Tp2_Auction.sol\":9056:9113  (bool result, ) = _to.call{gas: 2300, value:aux_val2}(\"\") */\n      pop\n      swap1\n      pop\n        /* \"Tp2_Auction.sol\":9145:9150  false */\n      0x00\n        /* \"Tp2_Auction.sol\":9135:9150  result == false */\n      iszero\n      iszero\n        /* \"Tp2_Auction.sol\":9135:9141  result */\n      dup2\n        /* \"Tp2_Auction.sol\":9135:9150  result == false */\n      iszero\n      iszero\n      sub\n        /* \"Tp2_Auction.sol\":9131:9311  if( result == false){   ... */\n      tag_245\n      jumpi\n        /* \"Tp2_Auction.sol\":9184:9185  0 */\n      0x00\n        /* \"Tp2_Auction.sol\":9173:9185  aux_val1 = 0 */\n      swap3\n      pop\n        /* \"Tp2_Auction.sol\":9212:9218  result */\n      dup1\n        /* \"Tp2_Auction.sol\":9220:9228  aux_val1 */\n      dup4\n        /* \"Tp2_Auction.sol\":9204:9229  return (result, aux_val1) */\n      swap5\n      pop\n      swap5\n      pop\n      pop\n      pop\n      pop\n      jump(tag_236)\n        /* \"Tp2_Auction.sol\":9131:9311  if( result == false){   ... */\n    tag_245:\n        /* \"Tp2_Auction.sol\":9278:9284  result */\n      dup1\n        /* \"Tp2_Auction.sol\":9286:9294  aux_val1 */\n      dup4\n        /* \"Tp2_Auction.sol\":9270:9295  return (result, aux_val1) */\n      swap5\n      pop\n      swap5\n      pop\n      pop\n      pop\n      pop\n      jump(tag_236)\n        /* \"Tp2_Auction.sol\":8751:9380  if (infoMapp[_to].balance > infoMapp[_to].value) { // value in the mapp is the last valid offer ... */\n    tag_237:\n        /* \"Tp2_Auction.sol\":9355:9359  true */\n      0x01\n        /* \"Tp2_Auction.sol\":9361:9362  0 */\n      0x00\n        /* \"Tp2_Auction.sol\":9347:9363  return (true, 0) */\n      swap2\n      pop\n      swap2\n      pop\n        /* \"Tp2_Auction.sol\":8655:9387  function returnClaimedEthers(address payable _to) internal returns (bool, uint256) {... */\n    tag_236:\n      swap2\n      pop\n      swap2\n      jump\t// out\n        /* \"Tp2_Auction.sol\":6796:7727  function returnEther(address payable _to) internal returns (bool, uint256) {... */\n    tag_155:\n        /* \"Tp2_Auction.sol\":6856:6860  bool */\n      0x00\n        /* \"Tp2_Auction.sol\":6862:6869  uint256 */\n      0x00\n        /* \"Tp2_Auction.sol\":7270:7286  uint256 aux_val1 */\n      0x00\n        /* \"Tp2_Auction.sol\":7290:7298  infoMapp */\n      0x06\n        /* \"Tp2_Auction.sol\":7290:7303  infoMapp[_to] */\n      0x00\n        /* \"Tp2_Auction.sol\":7299:7302  _to */\n      dup6\n        /* \"Tp2_Auction.sol\":7290:7303  infoMapp[_to] */\n      0xffffffffffffffffffffffffffffffffffffffff\n      and\n      0xffffffffffffffffffffffffffffffffffffffff\n      and\n      dup2\n      mstore\n      0x20\n      add\n      swap1\n      dup2\n      mstore\n      0x20\n      add\n      0x00\n      keccak256\n        /* \"Tp2_Auction.sol\":7290:7311  infoMapp[_to].balance */\n      0x02\n      add\n      sload\n        /* \"Tp2_Auction.sol\":7270:7312  uint256 aux_val1 = (infoMapp[_to].balance) */\n      swap1\n      pop\n        /* \"Tp2_Auction.sol\":7323:7339  uint256 aux_val2 */\n      0x00\n        /* \"Tp2_Auction.sol\":7359:7362  100 */\n      0x64\n        /* \"Tp2_Auction.sol\":7354:7356  98 */\n      0x62\n        /* \"Tp2_Auction.sol\":7343:7351  aux_val1 */\n      dup4\n        /* \"Tp2_Auction.sol\":7343:7356  aux_val1 * 98 */\n      tag_249\n      swap2\n      swap1\n      tag_61\n      jump\t// in\n    tag_249:\n        /* \"Tp2_Auction.sol\":7343:7362  aux_val1 * 98 / 100 */\n      tag_250\n      swap2\n      swap1\n      tag_63\n      jump\t// in\n    tag_250:\n        /* \"Tp2_Auction.sol\":7323:7363  uint256 aux_val2 = (aux_val1 * 98 / 100) */\n      swap1\n      pop\n        /* \"Tp2_Auction.sol\":7377:7388  bool result */\n      0x00\n        /* \"Tp2_Auction.sol\":7394:7397  _to */\n      dup6\n        /* \"Tp2_Auction.sol\":7394:7402  _to.call */\n      0xffffffffffffffffffffffffffffffffffffffff\n      and\n        /* \"Tp2_Auction.sol\":7408:7412  2300 */\n      0x08fc\n        /* \"Tp2_Auction.sol\":7420:7428  aux_val2 */\n      dup4\n        /* \"Tp2_Auction.sol\":7394:7433  _to.call{gas: 2300, value:aux_val2}(\"\") */\n      mload(0x40)\n      tag_251\n      swap1\n      tag_121\n      jump\t// in\n    tag_251:\n      0x00\n      mload(0x40)\n      dup1\n      dup4\n      sub\n      dup2\n      dup6\n      dup9\n      dup9\n      call\n      swap4\n      pop\n      pop\n      pop\n      pop\n      returndatasize\n      dup1\n      0x00\n      dup2\n      eq\n      tag_254\n      jumpi\n      mload(0x40)\n      swap2\n      pop\n      and(add(returndatasize, 0x3f), not(0x1f))\n      dup3\n      add\n      0x40\n      mstore\n      returndatasize\n      dup3\n      mstore\n      returndatasize\n      0x00\n      0x20\n      dup5\n      add\n      returndatacopy\n      jump(tag_253)\n    tag_254:\n      0x60\n      swap2\n      pop\n    tag_253:\n      pop\n        /* \"Tp2_Auction.sol\":7376:7433  (bool result, ) = _to.call{gas: 2300, value:aux_val2}(\"\") */\n      pop\n      swap1\n      pop\n        /* \"Tp2_Auction.sol\":7461:7466  false */\n      0x00\n        /* \"Tp2_Auction.sol\":7451:7466  result == false */\n      iszero\n      iszero\n        /* \"Tp2_Auction.sol\":7451:7457  result */\n      dup2\n        /* \"Tp2_Auction.sol\":7451:7466  result == false */\n      iszero\n      iszero\n      sub\n        /* \"Tp2_Auction.sol\":7447:7720  if( result == false){   // The function does not revert; it returns True/False, so the return value must be checked... */\n      tag_255\n      jumpi\n        /* \"Tp2_Auction.sol\":7587:7588  0 */\n      0x00\n        /* \"Tp2_Auction.sol\":7576:7588  aux_val1 = 0 */\n      swap3\n      pop\n        /* \"Tp2_Auction.sol\":7611:7617  result */\n      dup1\n        /* \"Tp2_Auction.sol\":7619:7627  aux_val1 */\n      dup4\n        /* \"Tp2_Auction.sol\":7603:7628  return (result, aux_val1) */\n      swap5\n      pop\n      swap5\n      pop\n      pop\n      pop\n      pop\n      jump(tag_248)\n        /* \"Tp2_Auction.sol\":7447:7720  if( result == false){   // The function does not revert; it returns True/False, so the return value must be checked... */\n    tag_255:\n        /* \"Tp2_Auction.sol\":7691:7697  result */\n      dup1\n        /* \"Tp2_Auction.sol\":7699:7707  aux_val1 */\n      dup4\n        /* \"Tp2_Auction.sol\":7683:7708  return (result, aux_val1) */\n      swap5\n      pop\n      swap5\n      pop\n      pop\n      pop\n      pop\n        /* \"Tp2_Auction.sol\":6796:7727  function returnEther(address payable _to) internal returns (bool, uint256) {... */\n    tag_248:\n      swap2\n      pop\n      swap2\n      jump\t// out\n        /* \"Tp2_Auction.sol\":7968:8421  function returnEtherWinner(address payable _to) internal returns (bool, uint256) {... */\n    tag_173:\n        /* \"Tp2_Auction.sol\":8034:8038  bool */\n      0x00\n        /* \"Tp2_Auction.sol\":8040:8047  uint256 */\n      0x00\n        /* \"Tp2_Auction.sol\":8062:8078  uint256 aux_val1 */\n      0x00\n        /* \"Tp2_Auction.sol\":8106:8112  winner */\n      0x08\n        /* \"Tp2_Auction.sol\":8106:8118  winner.value */\n      0x01\n      add\n      sload\n        /* \"Tp2_Auction.sol\":8082:8090  infoMapp */\n      0x06\n        /* \"Tp2_Auction.sol\":8082:8095  infoMapp[_to] */\n      0x00\n        /* \"Tp2_Auction.sol\":8091:8094  _to */\n      dup7\n        /* \"Tp2_Auction.sol\":8082:8095  infoMapp[_to] */\n      0xffffffffffffffffffffffffffffffffffffffff\n      and\n      0xffffffffffffffffffffffffffffffffffffffff\n      and\n      dup2\n      mstore\n      0x20\n      add\n      swap1\n      dup2\n      mstore\n      0x20\n      add\n      0x00\n      keccak256\n        /* \"Tp2_Auction.sol\":8082:8103  infoMapp[_to].balance */\n      0x02\n      add\n      sload\n        /* \"Tp2_Auction.sol\":8082:8118  infoMapp[_to].balance - winner.value */\n      tag_258\n      swap2\n      swap1\n      tag_102\n      jump\t// in\n    tag_258:\n        /* \"Tp2_Auction.sol\":8062:8119  uint256 aux_val1 = (infoMapp[_to].balance - winner.value) */\n      swap1\n      pop\n        /* \"Tp2_Auction.sol\":8130:8146  uint256 aux_val2 */\n      0x00\n        /* \"Tp2_Auction.sol\":8166:8169  100 */\n      0x64\n        /* \"Tp2_Auction.sol\":8161:8163  98 */\n      0x62\n        /* \"Tp2_Auction.sol\":8150:8158  aux_val1 */\n      dup4\n        /* \"Tp2_Auction.sol\":8150:8163  aux_val1 * 98 */\n      tag_259\n      swap2\n      swap1\n      tag_61\n      jump\t// in\n    tag_259:\n        /* \"Tp2_Auction.sol\":8150:8169  aux_val1 * 98 / 100 */\n      tag_260\n      swap2\n      swap1\n      tag_63\n      jump\t// in\n    tag_260:\n        /* \"Tp2_Auction.sol\":8130:8170  uint256 aux_val2 = (aux_val1 * 98 / 100) */\n      swap1\n      pop\n        /* \"Tp2_Auction.sol\":8184:8195  bool result */\n      0x00\n        /* \"Tp2_Auction.sol\":8201:8204  _to */\n      dup6\n        /* \"Tp2_Auction.sol\":8201:8209  _to.call */\n      0xffffffffffffffffffffffffffffffffffffffff\n      and\n        /* \"Tp2_Auction.sol\":8215:8219  2300 */\n      0x08fc\n        /* \"Tp2_Auction.sol\":8227:8235  aux_val2 */\n      dup4\n        /* \"Tp2_Auction.sol\":8201:8240  _to.call{gas: 2300, value:aux_val2}(\"\") */\n      mload(0x40)\n      tag_261\n      swap1\n      tag_121\n      jump\t// in\n    tag_261:\n      0x00\n      mload(0x40)\n      dup1\n      dup4\n      sub\n      dup2\n      dup6\n      dup9\n      dup9\n      call\n      swap4\n      pop\n      pop\n      pop\n      pop\n      returndatasize\n      dup1\n      0x00\n      dup2\n      eq\n      tag_264\n      jumpi\n      mload(0x40)\n      swap2\n      pop\n      and(add(returndatasize, 0x3f), not(0x1f))\n      dup3\n      add\n      0x40\n      mstore\n      returndatasize\n      dup3\n      mstore\n      returndatasize\n      0x00\n      0x20\n      dup5\n      add\n      returndatacopy\n      jump(tag_263)\n    tag_264:\n      0x60\n      swap2\n      pop\n    tag_263:\n      pop\n        /* \"Tp2_Auction.sol\":8183:8240  (bool result, ) = _to.call{gas: 2300, value:aux_val2}(\"\") */\n      pop\n      swap1\n      pop\n        /* \"Tp2_Auction.sol\":8268:8273  false */\n      0x00\n        /* \"Tp2_Auction.sol\":8258:8273  result == false */\n      iszero\n      iszero\n        /* \"Tp2_Auction.sol\":8258:8264  result */\n      dup2\n        /* \"Tp2_Auction.sol\":8258:8273  result == false */\n      iszero\n      iszero\n      sub\n        /* \"Tp2_Auction.sol\":8254:8414  if( result == false){   ... */\n      tag_265\n      jumpi\n        /* \"Tp2_Auction.sol\":8303:8304  0 */\n      0x00\n        /* \"Tp2_Auction.sol\":8292:8304  aux_val1 = 0 */\n      swap3\n      pop\n        /* \"Tp2_Auction.sol\":8327:8333  result */\n      dup1\n        /* \"Tp2_Auction.sol\":8335:8343  aux_val1 */\n      dup4\n        /* \"Tp2_Auction.sol\":8319:8344  return (result, aux_val1) */\n      swap5\n      pop\n      swap5\n      pop\n      pop\n      pop\n      pop\n      jump(tag_257)\n        /* \"Tp2_Auction.sol\":8254:8414  if( result == false){   ... */\n    tag_265:\n        /* \"Tp2_Auction.sol\":8385:8391  result */\n      dup1\n        /* \"Tp2_Auction.sol\":8393:8401  aux_val1 */\n      dup4\n        /* \"Tp2_Auction.sol\":8377:8402  return (result, aux_val1) */\n      swap5\n      pop\n      swap5\n      pop\n      pop\n      pop\n      pop\n        /* \"Tp2_Auction.sol\":7968:8421  function returnEtherWinner(address payable _to) internal returns (bool, uint256) {... */\n    tag_257:\n      swap2\n      pop\n      swap2\n      jump\t// out\n    tag_104:\n      mload(0x40)\n      dup1\n      0x40\n      add\n      0x40\n      mstore\n      dup1\n      and(0xffffffffffffffffffffffffffffffffffffffff, 0x00)\n      dup2\n      mstore\n      0x20\n      add\n      0x00\n      dup2\n      mstore\n      pop\n      swap1\n      jump\t// out\n        /* \"#utility.yul\":7:84   */\n    tag_267:\n        /* \"#utility.yul\":44:51   */\n      0x00\n        /* \"#utility.yul\":73:78   */\n      dup2\n        /* \"#utility.yul\":62:78   */\n      swap1\n      pop\n        /* \"#utility.yul\":7:84   */\n      swap2\n      swap1\n      pop\n      jump\t// out\n        /* \"#utility.yul\":90:208   */\n    tag_268:\n        /* \"#utility.yul\":177:201   */\n      tag_313\n        /* \"#utility.yul\":195:200   */\n      dup2\n        /* \"#utility.yul\":177:201   */\n      tag_267\n      jump\t// in\n    tag_313:\n        /* \"#utility.yul\":172:175   */\n      dup3\n        /* \"#utility.yul\":165:202   */\n      mstore\n        /* \"#utility.yul\":90:208   */\n      pop\n      pop\n      jump\t// out\n        /* \"#utility.yul\":214:436   */\n    tag_22:\n        /* \"#utility.yul\":307:311   */\n      0x00\n        /* \"#utility.yul\":345:347   */\n      0x20\n        /* \"#utility.yul\":334:343   */\n      dup3\n        /* \"#utility.yul\":330:348   */\n      add\n        /* \"#utility.yul\":322:348   */\n      swap1\n      pop\n        /* \"#utility.yul\":358:429   */\n      tag_315\n        /* \"#utility.yul\":426:427   */\n      0x00\n        /* \"#utility.yul\":415:424   */\n      dup4\n        /* \"#utility.yul\":411:428   */\n      add\n        /* \"#utility.yul\":402:408   */\n      dup5\n        /* \"#utility.yul\":358:429   */\n      tag_268\n      jump\t// in\n    tag_315:\n        /* \"#utility.yul\":214:436   */\n      swap3\n      swap2\n      pop\n      pop\n      jump\t// out\n        /* \"#utility.yul\":442:579   */\n    tag_269:\n        /* \"#utility.yul\":532:538   */\n      0x00\n        /* \"#utility.yul\":566:571   */\n      dup2\n        /* \"#utility.yul\":560:572   */\n      mload\n        /* \"#utility.yul\":550:572   */\n      swap1\n      pop\n        /* \"#utility.yul\":442:579   */\n      swap2\n      swap1\n      pop\n      jump\t// out\n        /* \"#utility.yul\":585:792   */\n    tag_270:\n        /* \"#utility.yul\":707:718   */\n      0x00\n        /* \"#utility.yul\":741:747   */\n      dup3\n        /* \"#utility.yul\":736:739   */\n      dup3\n        /* \"#utility.yul\":729:748   */\n      mstore\n        /* \"#utility.yul\":781:785   */\n      0x20\n        /* \"#utility.yul\":776:779   */\n      dup3\n        /* \"#utility.yul\":772:786   */\n      add\n        /* \"#utility.yul\":757:786   */\n      swap1\n      pop\n        /* \"#utility.yul\":585:792   */\n      swap3\n      swap2\n      pop\n      pop\n      jump\t// out\n        /* \"#utility.yul\":798:953   */\n    tag_271:\n        /* \"#utility.yul\":888:892   */\n      0x00\n        /* \"#utility.yul\":911:914   */\n      dup2\n        /* \"#utility.yul\":903:914   */\n      swap1\n      pop\n        /* \"#utility.yul\":941:945   */\n      0x20\n        /* \"#utility.yul\":936:939   */\n      dup3\n        /* \"#utility.yul\":932:946   */\n      add\n        /* \"#utility.yul\":924:946   */\n      swap1\n      pop\n        /* \"#utility.yul\":798:953   */\n      swap2\n      swap1\n      pop\n      jump\t// out\n        /* \"#utility.yul\":959:1085   */\n    tag_272:\n        /* \"#utility.yul\":996:1003   */\n      0x00\n        /* \"#utility.yul\":1036:1078   */\n      0xffffffffffffffffffffffffffffffffffffffff\n        /* \"#utility.yul\":1029:1034   */\n      dup3\n        /* \"#utility.yul\":1025:1079   */\n      and\n        /* \"#utility.yul\":1014:1079   */\n      swap1\n      pop\n        /* \"#utility.yul\":959:1085   */\n      swap2\n      swap1\n      pop\n      jump\t// out\n        /* \"#utility.yul\":1091:1187   */\n    tag_273:\n        /* \"#utility.yul\":1128:1135   */\n      0x00\n        /* \"#utility.yul\":1157:1181   */\n      tag_321\n        /* \"#utility.yul\":1175:1180   */\n      dup3\n        /* \"#utility.yul\":1157:1181   */\n      tag_272\n      jump\t// in\n    tag_321:\n        /* \"#utility.yul\":1146:1181   */\n      swap1\n      pop\n        /* \"#utility.yul\":1091:1187   */\n      swap2\n      swap1\n      pop\n      jump\t// out\n        /* \"#utility.yul\":1193:1301   */\n    tag_274:\n        /* \"#utility.yul\":1270:1294   */\n      tag_323\n        /* \"#utility.yul\":1288:1293   */\n      dup2\n        /* \"#utility.yul\":1270:1294   */\n      tag_273\n      jump\t// in\n    tag_323:\n        /* \"#utility.yul\":1265:1268   */\n      dup3\n        /* \"#utility.yul\":1258:1295   */\n      mstore\n        /* \"#utility.yul\":1193:1301   */\n      pop\n      pop\n      jump\t// out\n        /* \"#utility.yul\":1307:1415   */\n    tag_275:\n        /* \"#utility.yul\":1384:1408   */\n      tag_325\n        /* \"#utility.yul\":1402:1407   */\n      dup2\n        /* \"#utility.yul\":1384:1408   */\n      tag_267\n      jump\t// in\n    tag_325:\n        /* \"#utility.yul\":1379:1382   */\n      dup3\n        /* \"#utility.yul\":1372:1409   */\n      mstore\n        /* \"#utility.yul\":1307:1415   */\n      pop\n      pop\n      jump\t// out\n        /* \"#utility.yul\":1485:1977   */\n    tag_276:\n        /* \"#utility.yul\":1618:1622   */\n      0x40\n        /* \"#utility.yul\":1613:1616   */\n      dup3\n        /* \"#utility.yul\":1609:1623   */\n      add\n        /* \"#utility.yul\":1703:1707   */\n      0x00\n        /* \"#utility.yul\":1696:1701   */\n      dup3\n        /* \"#utility.yul\":1692:1708   */\n      add\n        /* \"#utility.yul\":1686:1709   */\n      mload\n        /* \"#utility.yul\":1722:1785   */\n      tag_327\n        /* \"#utility.yul\":1779:1783   */\n      0x00\n        /* \"#utility.yul\":1774:1777   */\n      dup6\n        /* \"#utility.yul\":1770:1784   */\n      add\n        /* \"#utility.yul\":1756:1768   */\n      dup3\n        /* \"#utility.yul\":1722:1785   */\n      tag_274\n      jump\t// in\n    tag_327:\n        /* \"#utility.yul\":1633:1795   */\n      pop\n        /* \"#utility.yul\":1878:1882   */\n      0x20\n        /* \"#utility.yul\":1871:1876   */\n      dup3\n        /* \"#utility.yul\":1867:1883   */\n      add\n        /* \"#utility.yul\":1861:1884   */\n      mload\n        /* \"#utility.yul\":1897:1960   */\n      tag_328\n        /* \"#utility.yul\":1954:1958   */\n      0x20\n        /* \"#utility.yul\":1949:1952   */\n      dup6\n        /* \"#utility.yul\":1945:1959   */\n      add\n        /* \"#utility.yul\":1931:1943   */\n      dup3\n        /* \"#utility.yul\":1897:1960   */\n      tag_275\n      jump\t// in\n    tag_328:\n        /* \"#utility.yul\":1805:1970   */\n      pop\n        /* \"#utility.yul\":1587:1977   */\n      pop\n        /* \"#utility.yul\":1485:1977   */\n      pop\n      pop\n      jump\t// out\n        /* \"#utility.yul\":1983:2254   */\n    tag_277:\n        /* \"#utility.yul\":2098:2108   */\n      0x00\n        /* \"#utility.yul\":2119:2211   */\n      tag_330\n        /* \"#utility.yul\":2207:2210   */\n      dup4\n        /* \"#utility.yul\":2199:2205   */\n      dup4\n        /* \"#utility.yul\":2119:2211   */\n      tag_276\n      jump\t// in\n    tag_330:\n        /* \"#utility.yul\":2243:2247   */\n      0x40\n        /* \"#utility.yul\":2238:2241   */\n      dup4\n        /* \"#utility.yul\":2234:2248   */\n      add\n        /* \"#utility.yul\":2220:2248   */\n      swap1\n      pop\n        /* \"#utility.yul\":1983:2254   */\n      swap3\n      swap2\n      pop\n      pop\n      jump\t// out\n        /* \"#utility.yul\":2260:2396   */\n    tag_278:\n        /* \"#utility.yul\":2353:2357   */\n      0x00\n        /* \"#utility.yul\":2385:2389   */\n      0x20\n        /* \"#utility.yul\":2380:2383   */\n      dup3\n        /* \"#utility.yul\":2376:2390   */\n      add\n        /* \"#utility.yul\":2368:2390   */\n      swap1\n      pop\n        /* \"#utility.yul\":2260:2396   */\n      swap2\n      swap1\n      pop\n      jump\t// out\n        /* \"#utility.yul\":2470:3386   */\n    tag_279:\n        /* \"#utility.yul\":2635:2638   */\n      0x00\n        /* \"#utility.yul\":2664:2741   */\n      tag_333\n        /* \"#utility.yul\":2735:2740   */\n      dup3\n        /* \"#utility.yul\":2664:2741   */\n      tag_269\n      jump\t// in\n    tag_333:\n        /* \"#utility.yul\":2757:2866   */\n      tag_334\n        /* \"#utility.yul\":2859:2865   */\n      dup2\n        /* \"#utility.yul\":2854:2857   */\n      dup6\n        /* \"#utility.yul\":2757:2866   */\n      tag_270\n      jump\t// in\n    tag_334:\n        /* \"#utility.yul\":2750:2866   */\n      swap4\n      pop\n        /* \"#utility.yul\":2890:2969   */\n      tag_335\n        /* \"#utility.yul\":2963:2968   */\n      dup4\n        /* \"#utility.yul\":2890:2969   */\n      tag_271\n      jump\t// in\n    tag_335:\n        /* \"#utility.yul\":2992:2999   */\n      dup1\n        /* \"#utility.yul\":3023:3024   */\n      0x00\n        /* \"#utility.yul\":3008:3361   */\n    tag_336:\n        /* \"#utility.yul\":3033:3039   */\n      dup4\n        /* \"#utility.yul\":3030:3031   */\n      dup2\n        /* \"#utility.yul\":3027:3040   */\n      lt\n        /* \"#utility.yul\":3008:3361   */\n      iszero\n      tag_338\n      jumpi\n        /* \"#utility.yul\":3109:3115   */\n      dup2\n        /* \"#utility.yul\":3103:3116   */\n      mload\n        /* \"#utility.yul\":3136:3245   */\n      tag_339\n        /* \"#utility.yul\":3241:3244   */\n      dup9\n        /* \"#utility.yul\":3226:3239   */\n      dup3\n        /* \"#utility.yul\":3136:3245   */\n      tag_277\n      jump\t// in\n    tag_339:\n        /* \"#utility.yul\":3129:3245   */\n      swap8\n      pop\n        /* \"#utility.yul\":3268:3351   */\n      tag_340\n        /* \"#utility.yul\":3344:3350   */\n      dup4\n        /* \"#utility.yul\":3268:3351   */\n      tag_278\n      jump\t// in\n    tag_340:\n        /* \"#utility.yul\":3258:3351   */\n      swap3\n      pop\n        /* \"#utility.yul\":3068:3361   */\n      pop\n        /* \"#utility.yul\":3055:3056   */\n      0x01\n        /* \"#utility.yul\":3052:3053   */\n      dup2\n        /* \"#utility.yul\":3048:3057   */\n      add\n        /* \"#utility.yul\":3043:3057   */\n      swap1\n      pop\n        /* \"#utility.yul\":3008:3361   */\n      jump(tag_336)\n    tag_338:\n        /* \"#utility.yul\":3012:3026   */\n      pop\n        /* \"#utility.yul\":3377:3380   */\n      dup6\n        /* \"#utility.yul\":3370:3380   */\n      swap4\n      pop\n        /* \"#utility.yul\":2640:3386   */\n      pop\n      pop\n      pop\n        /* \"#utility.yul\":2470:3386   */\n      swap3\n      swap2\n      pop\n      pop\n      jump\t// out\n        /* \"#utility.yul\":3392:3857   */\n    tag_30:\n        /* \"#utility.yul\":3581:3585   */\n      0x00\n        /* \"#utility.yul\":3619:3621   */\n      0x20\n        /* \"#utility.yul\":3608:3617   */\n      dup3\n        /* \"#utility.yul\":3604:3622   */\n      add\n        /* \"#utility.yul\":3596:3622   */\n      swap1\n      pop\n        /* \"#utility.yul\":3668:3677   */\n      dup2\n        /* \"#utility.yul\":3662:3666   */\n      dup2\n        /* \"#utility.yul\":3658:3678   */\n      sub\n        /* \"#utility.yul\":3654:3655   */\n      0x00\n        /* \"#utility.yul\":3643:3652   */\n      dup4\n        /* \"#utility.yul\":3639:3656   */\n      add\n        /* \"#utility.yul\":3632:3679   */\n      mstore\n        /* \"#utility.yul\":3696:3850   */\n      tag_342\n        /* \"#utility.yul\":3845:3849   */\n      dup2\n        /* \"#utility.yul\":3836:3842   */\n      dup5\n        /* \"#utility.yul\":3696:3850   */\n      tag_279\n      jump\t// in\n    tag_342:\n        /* \"#utility.yul\":3688:3850   */\n      swap1\n      pop\n        /* \"#utility.yul\":3392:3857   */\n      swap3\n      swap2\n      pop\n      pop\n      jump\t// out\n        /* \"#utility.yul\":3927:4429   */\n    tag_280:\n        /* \"#utility.yul\":4070:4074   */\n      0x40\n        /* \"#utility.yul\":4065:4068   */\n      dup3\n        /* \"#utility.yul\":4061:4075   */\n      add\n        /* \"#utility.yul\":4155:4159   */\n      0x00\n        /* \"#utility.yul\":4148:4153   */\n      dup3\n        /* \"#utility.yul\":4144:4160   */\n      add\n        /* \"#utility.yul\":4138:4161   */\n      mload\n        /* \"#utility.yul\":4174:4237   */\n      tag_344\n        /* \"#utility.yul\":4231:4235   */\n      0x00\n        /* \"#utility.yul\":4226:4229   */\n      dup6\n        /* \"#utility.yul\":4222:4236   */\n      add\n        /* \"#utility.yul\":4208:4220   */\n      dup3\n        /* \"#utility.yul\":4174:4237   */\n      tag_274\n      jump\t// in\n    tag_344:\n        /* \"#utility.yul\":4085:4247   */\n      pop\n        /* \"#utility.yul\":4330:4334   */\n      0x20\n        /* \"#utility.yul\":4323:4328   */\n      dup3\n        /* \"#utility.yul\":4319:4335   */\n      add\n        /* \"#utility.yul\":4313:4336   */\n      mload\n        /* \"#utility.yul\":4349:4412   */\n      tag_345\n        /* \"#utility.yul\":4406:4410   */\n      0x20\n        /* \"#utility.yul\":4401:4404   */\n      dup6\n        /* \"#utility.yul\":4397:4411   */\n      add\n        /* \"#utility.yul\":4383:4395   */\n      dup3\n        /* \"#utility.yul\":4349:4412   */\n      tag_275\n      jump\t// in\n    tag_345:\n        /* \"#utility.yul\":4257:4422   */\n      pop\n        /* \"#utility.yul\":4039:4429   */\n      pop\n        /* \"#utility.yul\":3927:4429   */\n      pop\n      pop\n      jump\t// out\n        /* \"#utility.yul\":4435:4749   */\n    tag_38:\n        /* \"#utility.yul\":4574:4578   */\n      0x00\n        /* \"#utility.yul\":4612:4614   */\n      0x40\n        /* \"#utility.yul\":4601:4610   */\n      dup3\n        /* \"#utility.yul\":4597:4615   */\n      add\n        /* \"#utility.yul\":4589:4615   */\n      swap1\n      pop\n        /* \"#utility.yul\":4625:4742   */\n      tag_347\n        /* \"#utility.yul\":4739:4740   */\n      0x00\n        /* \"#utility.yul\":4728:4737   */\n      dup4\n        /* \"#utility.yul\":4724:4741   */\n      add\n        /* \"#utility.yul\":4715:4721   */\n      dup5\n        /* \"#utility.yul\":4625:4742   */\n      tag_280\n      jump\t// in\n    tag_347:\n        /* \"#utility.yul\":4435:4749   */\n      swap3\n      swap2\n      pop\n      pop\n      jump\t// out\n        /* \"#utility.yul\":4755:4935   */\n    tag_53:\n        /* \"#utility.yul\":4803:4880   */\n      0x4e487b7100000000000000000000000000000000000000000000000000000000\n        /* \"#utility.yul\":4800:4801   */\n      0x00\n        /* \"#utility.yul\":4793:4881   */\n      mstore\n        /* \"#utility.yul\":4900:4904   */\n      0x21\n        /* \"#utility.yul\":4897:4898   */\n      0x04\n        /* \"#utility.yul\":4890:4905   */\n      mstore\n        /* \"#utility.yul\":4924:4928   */\n      0x24\n        /* \"#utility.yul\":4921:4922   */\n      0x00\n        /* \"#utility.yul\":4914:4929   */\n      revert\n        /* \"#utility.yul\":4941:5054   */\n    tag_281:\n        /* \"#utility.yul\":5022:5023   */\n      0x02\n        /* \"#utility.yul\":5015:5020   */\n      dup2\n        /* \"#utility.yul\":5012:5024   */\n      lt\n        /* \"#utility.yul\":5002:5048   */\n      tag_350\n      jumpi\n        /* \"#utility.yul\":5028:5046   */\n      tag_351\n      tag_53\n      jump\t// in\n    tag_351:\n        /* \"#utility.yul\":5002:5048   */\n    tag_350:\n        /* \"#utility.yul\":4941:5054   */\n      pop\n      jump\t// out\n        /* \"#utility.yul\":5060:5187   */\n    tag_282:\n        /* \"#utility.yul\":5105:5112   */\n      0x00\n        /* \"#utility.yul\":5134:5139   */\n      dup2\n        /* \"#utility.yul\":5123:5139   */\n      swap1\n      pop\n        /* \"#utility.yul\":5140:5181   */\n      tag_353\n        /* \"#utility.yul\":5175:5180   */\n      dup3\n        /* \"#utility.yul\":5140:5181   */\n      tag_281\n      jump\t// in\n    tag_353:\n        /* \"#utility.yul\":5060:5187   */\n      swap2\n      swap1\n      pop\n      jump\t// out\n        /* \"#utility.yul\":5193:5320   */\n    tag_283:\n        /* \"#utility.yul\":5249:5258   */\n      0x00\n        /* \"#utility.yul\":5282:5314   */\n      tag_355\n        /* \"#utility.yul\":5308:5313   */\n      dup3\n        /* \"#utility.yul\":5282:5314   */\n      tag_282\n      jump\t// in\n    tag_355:\n        /* \"#utility.yul\":5269:5314   */\n      swap1\n      pop\n        /* \"#utility.yul\":5193:5320   */\n      swap2\n      swap1\n      pop\n      jump\t// out\n        /* \"#utility.yul\":5326:5469   */\n    tag_284:\n        /* \"#utility.yul\":5419:5462   */\n      tag_357\n        /* \"#utility.yul\":5456:5461   */\n      dup2\n        /* \"#utility.yul\":5419:5462   */\n      tag_283\n      jump\t// in\n    tag_357:\n        /* \"#utility.yul\":5414:5417   */\n      dup3\n        /* \"#utility.yul\":5407:5463   */\n      mstore\n        /* \"#utility.yul\":5326:5469   */\n      pop\n      pop\n      jump\t// out\n        /* \"#utility.yul\":5475:5709   */\n    tag_43:\n        /* \"#utility.yul\":5574:5578   */\n      0x00\n        /* \"#utility.yul\":5612:5614   */\n      0x20\n        /* \"#utility.yul\":5601:5610   */\n      dup3\n        /* \"#utility.yul\":5597:5615   */\n      add\n        /* \"#utility.yul\":5589:5615   */\n      swap1\n      pop\n        /* \"#utility.yul\":5625:5702   */\n      tag_359\n        /* \"#utility.yul\":5699:5700   */\n      0x00\n        /* \"#utility.yul\":5688:5697   */\n      dup4\n        /* \"#utility.yul\":5684:5701   */\n      add\n        /* \"#utility.yul\":5675:5681   */\n      dup5\n        /* \"#utility.yul\":5625:5702   */\n      tag_284\n      jump\t// in\n    tag_359:\n        /* \"#utility.yul\":5475:5709   */\n      swap3\n      swap2\n      pop\n      pop\n      jump\t// out\n        /* \"#utility.yul\":5715:5884   */\n    tag_285:\n        /* \"#utility.yul\":5799:5810   */\n      0x00\n        /* \"#utility.yul\":5833:5839   */\n      dup3\n        /* \"#utility.yul\":5828:5831   */\n      dup3\n        /* \"#utility.yul\":5821:5840   */\n      mstore\n        /* \"#utility.yul\":5873:5877   */\n      0x20\n        /* \"#utility.yul\":5868:5871   */\n      dup3\n        /* \"#utility.yul\":5864:5878   */\n      add\n        /* \"#utility.yul\":5849:5878   */\n      swap1\n      pop\n        /* \"#utility.yul\":5715:5884   */\n      swap3\n      swap2\n      pop\n      pop\n      jump\t// out\n        /* \"#utility.yul\":5890:6058   */\n    tag_286:\n        /* \"#utility.yul\":6030:6050   */\n      0x696e76616c6964206f666665722074696d650000000000000000000000000000\n        /* \"#utility.yul\":6026:6027   */\n      0x00\n        /* \"#utility.yul\":6018:6024   */\n      dup3\n        /* \"#utility.yul\":6014:6028   */\n      add\n        /* \"#utility.yul\":6007:6051   */\n      mstore\n        /* \"#utility.yul\":5890:6058   */\n      pop\n      jump\t// out\n        /* \"#utility.yul\":6064:6430   */\n    tag_287:\n        /* \"#utility.yul\":6206:6209   */\n      0x00\n        /* \"#utility.yul\":6227:6294   */\n      tag_363\n        /* \"#utility.yul\":6291:6293   */\n      0x12\n        /* \"#utility.yul\":6286:6289   */\n      dup4\n        /* \"#utility.yul\":6227:6294   */\n      tag_285\n      jump\t// in\n    tag_363:\n        /* \"#utility.yul\":6220:6294   */\n      swap2\n      pop\n        /* \"#utility.yul\":6303:6396   */\n      tag_364\n        /* \"#utility.yul\":6392:6395   */\n      dup3\n        /* \"#utility.yul\":6303:6396   */\n      tag_286\n      jump\t// in\n    tag_364:\n        /* \"#utility.yul\":6421:6423   */\n      0x20\n        /* \"#utility.yul\":6416:6419   */\n      dup3\n        /* \"#utility.yul\":6412:6424   */\n      add\n        /* \"#utility.yul\":6405:6424   */\n      swap1\n      pop\n        /* \"#utility.yul\":6064:6430   */\n      swap2\n      swap1\n      pop\n      jump\t// out\n        /* \"#utility.yul\":6436:6855   */\n    tag_59:\n        /* \"#utility.yul\":6602:6606   */\n      0x00\n        /* \"#utility.yul\":6640:6642   */\n      0x20\n        /* \"#utility.yul\":6629:6638   */\n      dup3\n        /* \"#utility.yul\":6625:6643   */\n      add\n        /* \"#utility.yul\":6617:6643   */\n      swap1\n      pop\n        /* \"#utility.yul\":6689:6698   */\n      dup2\n        /* \"#utility.yul\":6683:6687   */\n      dup2\n        /* \"#utility.yul\":6679:6699   */\n      sub\n        /* \"#utility.yul\":6675:6676   */\n      0x00\n        /* \"#utility.yul\":6664:6673   */\n      dup4\n        /* \"#utility.yul\":6660:6677   */\n      add\n        /* \"#utility.yul\":6653:6700   */\n      mstore\n        /* \"#utility.yul\":6717:6848   */\n      tag_366\n        /* \"#utility.yul\":6843:6847   */\n      dup2\n        /* \"#utility.yul\":6717:6848   */\n      tag_287\n      jump\t// in\n    tag_366:\n        /* \"#utility.yul\":6709:6848   */\n      swap1\n      pop\n        /* \"#utility.yul\":6436:6855   */\n      swap2\n      swap1\n      pop\n      jump\t// out\n        /* \"#utility.yul\":6861:7041   */\n    tag_288:\n        /* \"#utility.yul\":6909:6986   */\n      0x4e487b7100000000000000000000000000000000000000000000000000000000\n        /* \"#utility.yul\":6906:6907   */\n      0x00\n        /* \"#utility.yul\":6899:6987   */\n      mstore\n        /* \"#utility.yul\":7006:7010   */\n      0x11\n        /* \"#utility.yul\":7003:7004   */\n      0x04\n        /* \"#utility.yul\":6996:7011   */\n      mstore\n        /* \"#utility.yul\":7030:7034   */\n      0x24\n        /* \"#utility.yul\":7027:7028   */\n      0x00\n        /* \"#utility.yul\":7020:7035   */\n      revert\n        /* \"#utility.yul\":7047:7457   */\n    tag_61:\n        /* \"#utility.yul\":7087:7094   */\n      0x00\n        /* \"#utility.yul\":7110:7130   */\n      tag_369\n        /* \"#utility.yul\":7128:7129   */\n      dup3\n        /* \"#utility.yul\":7110:7130   */\n      tag_267\n      jump\t// in\n    tag_369:\n        /* \"#utility.yul\":7105:7130   */\n      swap2\n      pop\n        /* \"#utility.yul\":7144:7164   */\n      tag_370\n        /* \"#utility.yul\":7162:7163   */\n      dup4\n        /* \"#utility.yul\":7144:7164   */\n      tag_267\n      jump\t// in\n    tag_370:\n        /* \"#utility.yul\":7139:7164   */\n      swap3\n      pop\n        /* \"#utility.yul\":7199:7200   */\n      dup3\n        /* \"#utility.yul\":7196:7197   */\n      dup3\n        /* \"#utility.yul\":7192:7201   */\n      mul\n        /* \"#utility.yul\":7221:7251   */\n      tag_371\n        /* \"#utility.yul\":7239:7250   */\n      dup2\n        /* \"#utility.yul\":7221:7251   */\n      tag_267\n      jump\t// in\n    tag_371:\n        /* \"#utility.yul\":7210:7251   */\n      swap2\n      pop\n        /* \"#utility.yul\":7400:7401   */\n      dup3\n        /* \"#utility.yul\":7391:7398   */\n      dup3\n        /* \"#utility.yul\":7387:7402   */\n      div\n        /* \"#utility.yul\":7384:7385   */\n      dup5\n        /* \"#utility.yul\":7381:7403   */\n      eq\n        /* \"#utility.yul\":7361:7362   */\n      dup4\n        /* \"#utility.yul\":7354:7363   */\n      iszero\n        /* \"#utility.yul\":7334:7417   */\n      or\n        /* \"#utility.yul\":7311:7450   */\n      tag_372\n      jumpi\n        /* \"#utility.yul\":7430:7448   */\n      tag_373\n      tag_288\n      jump\t// in\n    tag_373:\n        /* \"#utility.yul\":7311:7450   */\n    tag_372:\n        /* \"#utility.yul\":7095:7457   */\n      pop\n        /* \"#utility.yul\":7047:7457   */\n      swap3\n      swap2\n      pop\n      pop\n      jump\t// out\n        /* \"#utility.yul\":7463:7643   */\n    tag_289:\n        /* \"#utility.yul\":7511:7588   */\n      0x4e487b7100000000000000000000000000000000000000000000000000000000\n        /* \"#utility.yul\":7508:7509   */\n      0x00\n        /* \"#utility.yul\":7501:7589   */\n      mstore\n        /* \"#utility.yul\":7608:7612   */\n      0x12\n        /* \"#utility.yul\":7605:7606   */\n      0x04\n        /* \"#utility.yul\":7598:7613   */\n      mstore\n        /* \"#utility.yul\":7632:7636   */\n      0x24\n        /* \"#utility.yul\":7629:7630   */\n      0x00\n        /* \"#utility.yul\":7622:7637   */\n      revert\n        /* \"#utility.yul\":7649:7834   */\n    tag_63:\n        /* \"#utility.yul\":7689:7690   */\n      0x00\n        /* \"#utility.yul\":7706:7726   */\n      tag_376\n        /* \"#utility.yul\":7724:7725   */\n      dup3\n        /* \"#utility.yul\":7706:7726   */\n      tag_267\n      jump\t// in\n    tag_376:\n        /* \"#utility.yul\":7701:7726   */\n      swap2\n      pop\n        /* \"#utility.yul\":7740:7760   */\n      tag_377\n        /* \"#utility.yul\":7758:7759   */\n      dup4\n        /* \"#utility.yul\":7740:7760   */\n      tag_267\n      jump\t// in\n    tag_377:\n        /* \"#utility.yul\":7735:7760   */\n      swap3\n      pop\n        /* \"#utility.yul\":7779:7780   */\n      dup3\n        /* \"#utility.yul\":7769:7804   */\n      tag_378\n      jumpi\n        /* \"#utility.yul\":7784:7802   */\n      tag_379\n      tag_289\n      jump\t// in\n    tag_379:\n        /* \"#utility.yul\":7769:7804   */\n    tag_378:\n        /* \"#utility.yul\":7826:7827   */\n      dup3\n        /* \"#utility.yul\":7823:7824   */\n      dup3\n        /* \"#utility.yul\":7819:7828   */\n      div\n        /* \"#utility.yul\":7814:7828   */\n      swap1\n      pop\n        /* \"#utility.yul\":7649:7834   */\n      swap3\n      swap2\n      pop\n      pop\n      jump\t// out\n        /* \"#utility.yul\":7840:8009   */\n    tag_290:\n        /* \"#utility.yul\":7980:8001   */\n      0x696e76616c6964206f666665722076616c756500000000000000000000000000\n        /* \"#utility.yul\":7976:7977   */\n      0x00\n        /* \"#utility.yul\":7968:7974   */\n      dup3\n        /* \"#utility.yul\":7964:7978   */\n      add\n        /* \"#utility.yul\":7957:8002   */\n      mstore\n        /* \"#utility.yul\":7840:8009   */\n      pop\n      jump\t// out\n        /* \"#utility.yul\":8015:8381   */\n    tag_291:\n        /* \"#utility.yul\":8157:8160   */\n      0x00\n        /* \"#utility.yul\":8178:8245   */\n      tag_382\n        /* \"#utility.yul\":8242:8244   */\n      0x13\n        /* \"#utility.yul\":8237:8240   */\n      dup4\n        /* \"#utility.yul\":8178:8245   */\n      tag_285\n      jump\t// in\n    tag_382:\n        /* \"#utility.yul\":8171:8245   */\n      swap2\n      pop\n        /* \"#utility.yul\":8254:8347   */\n      tag_383\n        /* \"#utility.yul\":8343:8346   */\n      dup3\n        /* \"#utility.yul\":8254:8347   */\n      tag_290\n      jump\t// in\n    tag_383:\n        /* \"#utility.yul\":8372:8374   */\n      0x20\n        /* \"#utility.yul\":8367:8370   */\n      dup3\n        /* \"#utility.yul\":8363:8375   */\n      add\n        /* \"#utility.yul\":8356:8375   */\n      swap1\n      pop\n        /* \"#utility.yul\":8015:8381   */\n      swap2\n      swap1\n      pop\n      jump\t// out\n        /* \"#utility.yul\":8387:8806   */\n    tag_66:\n        /* \"#utility.yul\":8553:8557   */\n      0x00\n        /* \"#utility.yul\":8591:8593   */\n      0x20\n        /* \"#utility.yul\":8580:8589   */\n      dup3\n        /* \"#utility.yul\":8576:8594   */\n      add\n        /* \"#utility.yul\":8568:8594   */\n      swap1\n      pop\n        /* \"#utility.yul\":8640:8649   */\n      dup2\n        /* \"#utility.yul\":8634:8638   */\n      dup2\n        /* \"#utility.yul\":8630:8650   */\n      sub\n        /* \"#utility.yul\":8626:8627   */\n      0x00\n        /* \"#utility.yul\":8615:8624   */\n      dup4\n        /* \"#utility.yul\":8611:8628   */\n      add\n        /* \"#utility.yul\":8604:8651   */\n      mstore\n        /* \"#utility.yul\":8668:8799   */\n      tag_385\n        /* \"#utility.yul\":8794:8798   */\n      dup2\n        /* \"#utility.yul\":8668:8799   */\n      tag_291\n      jump\t// in\n    tag_385:\n        /* \"#utility.yul\":8660:8799   */\n      swap1\n      pop\n        /* \"#utility.yul\":8387:8806   */\n      swap2\n      swap1\n      pop\n      jump\t// out\n        /* \"#utility.yul\":8812:8975   */\n    tag_292:\n        /* \"#utility.yul\":8952:8967   */\n      0x41756374696f6e20456e64656400000000000000000000000000000000000000\n        /* \"#utility.yul\":8948:8949   */\n      0x00\n        /* \"#utility.yul\":8940:8946   */\n      dup3\n        /* \"#utility.yul\":8936:8950   */\n      add\n        /* \"#utility.yul\":8929:8968   */\n      mstore\n        /* \"#utility.yul\":8812:8975   */\n      pop\n      jump\t// out\n        /* \"#utility.yul\":8981:9347   */\n    tag_293:\n        /* \"#utility.yul\":9123:9126   */\n      0x00\n        /* \"#utility.yul\":9144:9211   */\n      tag_388\n        /* \"#utility.yul\":9208:9210   */\n      0x0d\n        /* \"#utility.yul\":9203:9206   */\n      dup4\n        /* \"#utility.yul\":9144:9211   */\n      tag_285\n      jump\t// in\n    tag_388:\n        /* \"#utility.yul\":9137:9211   */\n      swap2\n      pop\n        /* \"#utility.yul\":9220:9313   */\n      tag_389\n        /* \"#utility.yul\":9309:9312   */\n      dup3\n        /* \"#utility.yul\":9220:9313   */\n      tag_292\n      jump\t// in\n    tag_389:\n        /* \"#utility.yul\":9338:9340   */\n      0x20\n        /* \"#utility.yul\":9333:9336   */\n      dup3\n        /* \"#utility.yul\":9329:9341   */\n      add\n        /* \"#utility.yul\":9322:9341   */\n      swap1\n      pop\n        /* \"#utility.yul\":8981:9347   */\n      swap2\n      swap1\n      pop\n      jump\t// out\n        /* \"#utility.yul\":9353:9772   */\n    tag_81:\n        /* \"#utility.yul\":9519:9523   */\n      0x00\n        /* \"#utility.yul\":9557:9559   */\n      0x20\n        /* \"#utility.yul\":9546:9555   */\n      dup3\n        /* \"#utility.yul\":9542:9560   */\n      add\n        /* \"#utility.yul\":9534:9560   */\n      swap1\n      pop\n        /* \"#utility.yul\":9606:9615   */\n      dup2\n        /* \"#utility.yul\":9600:9604   */\n      dup2\n        /* \"#utility.yul\":9596:9616   */\n      sub\n        /* \"#utility.yul\":9592:9593   */\n      0x00\n        /* \"#utility.yul\":9581:9590   */\n      dup4\n        /* \"#utility.yul\":9577:9594   */\n      add\n        /* \"#utility.yul\":9570:9617   */\n      mstore\n        /* \"#utility.yul\":9634:9765   */\n      tag_391\n        /* \"#utility.yul\":9760:9764   */\n      dup2\n        /* \"#utility.yul\":9634:9765   */\n      tag_293\n      jump\t// in\n    tag_391:\n        /* \"#utility.yul\":9626:9765   */\n      swap1\n      pop\n        /* \"#utility.yul\":9353:9772   */\n      swap2\n      swap1\n      pop\n      jump\t// out\n        /* \"#utility.yul\":9778:9949   */\n    tag_294:\n        /* \"#utility.yul\":9918:9941   */\n      0x61756374696f6e20616c726561647920656e6465640000000000000000000000\n        /* \"#utility.yul\":9914:9915   */\n      0x00\n        /* \"#utility.yul\":9906:9912   */\n      dup3\n        /* \"#utility.yul\":9902:9916   */\n      add\n        /* \"#utility.yul\":9895:9942   */\n      mstore\n        /* \"#utility.yul\":9778:9949   */\n      pop\n      jump\t// out\n        /* \"#utility.yul\":9955:10321   */\n    tag_295:\n        /* \"#utility.yul\":10097:10100   */\n      0x00\n        /* \"#utility.yul\":10118:10185   */\n      tag_394\n        /* \"#utility.yul\":10182:10184   */\n      0x15\n        /* \"#utility.yul\":10177:10180   */\n      dup4\n        /* \"#utility.yul\":10118:10185   */\n      tag_285\n      jump\t// in\n    tag_394:\n        /* \"#utility.yul\":10111:10185   */\n      swap2\n      pop\n        /* \"#utility.yul\":10194:10287   */\n      tag_395\n        /* \"#utility.yul\":10283:10286   */\n      dup3\n        /* \"#utility.yul\":10194:10287   */\n      tag_294\n      jump\t// in\n    tag_395:\n        /* \"#utility.yul\":10312:10314   */\n      0x20\n        /* \"#utility.yul\":10307:10310   */\n      dup3\n        /* \"#utility.yul\":10303:10315   */\n      add\n        /* \"#utility.yul\":10296:10315   */\n      swap1\n      pop\n        /* \"#utility.yul\":9955:10321   */\n      swap2\n      swap1\n      pop\n      jump\t// out\n        /* \"#utility.yul\":10327:10746   */\n    tag_89:\n        /* \"#utility.yul\":10493:10497   */\n      0x00\n        /* \"#utility.yul\":10531:10533   */\n      0x20\n        /* \"#utility.yul\":10520:10529   */\n      dup3\n        /* \"#utility.yul\":10516:10534   */\n      add\n        /* \"#utility.yul\":10508:10534   */\n      swap1\n      pop\n        /* \"#utility.yul\":10580:10589   */\n      dup2\n        /* \"#utility.yul\":10574:10578   */\n      dup2\n        /* \"#utility.yul\":10570:10590   */\n      sub\n        /* \"#utility.yul\":10566:10567   */\n      0x00\n        /* \"#utility.yul\":10555:10564   */\n      dup4\n        /* \"#utility.yul\":10551:10568   */\n      add\n        /* \"#utility.yul\":10544:10591   */\n      mstore\n        /* \"#utility.yul\":10608:10739   */\n      tag_397\n        /* \"#utility.yul\":10734:10738   */\n      dup2\n        /* \"#utility.yul\":10608:10739   */\n      tag_295\n      jump\t// in\n    tag_397:\n        /* \"#utility.yul\":10600:10739   */\n      swap1\n      pop\n        /* \"#utility.yul\":10327:10746   */\n      swap2\n      swap1\n      pop\n      jump\t// out\n        /* \"#utility.yul\":10752:10914   */\n    tag_296:\n        /* \"#utility.yul\":10892:10906   */\n      0x6e6f742061206269646465720000000000000000000000000000000000000000\n        /* \"#utility.yul\":10888:10889   */\n      0x00\n        /* \"#utility.yul\":10880:10886   */\n      dup3\n        /* \"#utility.yul\":10876:10890   */\n      add\n        /* \"#utility.yul\":10869:10907   */\n      mstore\n        /* \"#utility.yul\":10752:10914   */\n      pop\n      jump\t// out\n        /* \"#utility.yul\":10920:11286   */\n    tag_297:\n        /* \"#utility.yul\":11062:11065   */\n      0x00\n        /* \"#utility.yul\":11083:11150   */\n      tag_400\n        /* \"#utility.yul\":11147:11149   */\n      0x0c\n        /* \"#utility.yul\":11142:11145   */\n      dup4\n        /* \"#utility.yul\":11083:11150   */\n      tag_285\n      jump\t// in\n    tag_400:\n        /* \"#utility.yul\":11076:11150   */\n      swap2\n      pop\n        /* \"#utility.yul\":11159:11252   */\n      tag_401\n        /* \"#utility.yul\":11248:11251   */\n      dup3\n        /* \"#utility.yul\":11159:11252   */\n      tag_296\n      jump\t// in\n    tag_401:\n        /* \"#utility.yul\":11277:11279   */\n      0x20\n        /* \"#utility.yul\":11272:11275   */\n      dup3\n        /* \"#utility.yul\":11268:11280   */\n      add\n        /* \"#utility.yul\":11261:11280   */\n      swap1\n      pop\n        /* \"#utility.yul\":10920:11286   */\n      swap2\n      swap1\n      pop\n      jump\t// out\n        /* \"#utility.yul\":11292:11711   */\n    tag_93:\n        /* \"#utility.yul\":11458:11462   */\n      0x00\n        /* \"#utility.yul\":11496:11498   */\n      0x20\n        /* \"#utility.yul\":11485:11494   */\n      dup3\n        /* \"#utility.yul\":11481:11499   */\n      add\n        /* \"#utility.yul\":11473:11499   */\n      swap1\n      pop\n        /* \"#utility.yul\":11545:11554   */\n      dup2\n        /* \"#utility.yul\":11539:11543   */\n      dup2\n        /* \"#utility.yul\":11535:11555   */\n      sub\n        /* \"#utility.yul\":11531:11532   */\n      0x00\n        /* \"#utility.yul\":11520:11529   */\n      dup4\n        /* \"#utility.yul\":11516:11533   */\n      add\n        /* \"#utility.yul\":11509:11556   */\n      mstore\n        /* \"#utility.yul\":11573:11704   */\n      tag_403\n        /* \"#utility.yul\":11699:11703   */\n      dup2\n        /* \"#utility.yul\":11573:11704   */\n      tag_297\n      jump\t// in\n    tag_403:\n        /* \"#utility.yul\":11565:11704   */\n      swap1\n      pop\n        /* \"#utility.yul\":11292:11711   */\n      swap2\n      swap1\n      pop\n      jump\t// out\n        /* \"#utility.yul\":11717:11883   */\n    tag_298:\n        /* \"#utility.yul\":11857:11875   */\n      0x7472616e73616374696f6e206661696c00000000000000000000000000000000\n        /* \"#utility.yul\":11853:11854   */\n      0x00\n        /* \"#utility.yul\":11845:11851   */\n      dup3\n        /* \"#utility.yul\":11841:11855   */\n      add\n        /* \"#utility.yul\":11834:11876   */\n      mstore\n        /* \"#utility.yul\":11717:11883   */\n      pop\n      jump\t// out\n        /* \"#utility.yul\":11889:12255   */\n    tag_299:\n        /* \"#utility.yul\":12031:12034   */\n      0x00\n        /* \"#utility.yul\":12052:12119   */\n      tag_406\n        /* \"#utility.yul\":12116:12118   */\n      0x10\n        /* \"#utility.yul\":12111:12114   */\n      dup4\n        /* \"#utility.yul\":12052:12119   */\n      tag_285\n      jump\t// in\n    tag_406:\n        /* \"#utility.yul\":12045:12119   */\n      swap2\n      pop\n        /* \"#utility.yul\":12128:12221   */\n      tag_407\n        /* \"#utility.yul\":12217:12220   */\n      dup3\n        /* \"#utility.yul\":12128:12221   */\n      tag_298\n      jump\t// in\n    tag_407:\n        /* \"#utility.yul\":12246:12248   */\n      0x20\n        /* \"#utility.yul\":12241:12244   */\n      dup3\n        /* \"#utility.yul\":12237:12249   */\n      add\n        /* \"#utility.yul\":12230:12249   */\n      swap1\n      pop\n        /* \"#utility.yul\":11889:12255   */\n      swap2\n      swap1\n      pop\n      jump\t// out\n        /* \"#utility.yul\":12261:12680   */\n    tag_99:\n        /* \"#utility.yul\":12427:12431   */\n      0x00\n        /* \"#utility.yul\":12465:12467   */\n      0x20\n        /* \"#utility.yul\":12454:12463   */\n      dup3\n        /* \"#utility.yul\":12450:12468   */\n      add\n        /* \"#utility.yul\":12442:12468   */\n      swap1\n      pop\n        /* \"#utility.yul\":12514:12523   */\n      dup2\n        /* \"#utility.yul\":12508:12512   */\n      dup2\n        /* \"#utility.yul\":12504:12524   */\n      sub\n        /* \"#utility.yul\":12500:12501   */\n      0x00\n        /* \"#utility.yul\":12489:12498   */\n      dup4\n        /* \"#utility.yul\":12485:12502   */\n      add\n        /* \"#utility.yul\":12478:12525   */\n      mstore\n        /* \"#utility.yul\":12542:12673   */\n      tag_409\n        /* \"#utility.yul\":12668:12672   */\n      dup2\n        /* \"#utility.yul\":12542:12673   */\n      tag_299\n      jump\t// in\n    tag_409:\n        /* \"#utility.yul\":12534:12673   */\n      swap1\n      pop\n        /* \"#utility.yul\":12261:12680   */\n      swap2\n      swap1\n      pop\n      jump\t// out\n        /* \"#utility.yul\":12686:12880   */\n    tag_102:\n        /* \"#utility.yul\":12726:12730   */\n      0x00\n        /* \"#utility.yul\":12746:12766   */\n      tag_411\n        /* \"#utility.yul\":12764:12765   */\n      dup3\n        /* \"#utility.yul\":12746:12766   */\n      tag_267\n      jump\t// in\n    tag_411:\n        /* \"#utility.yul\":12741:12766   */\n      swap2\n      pop\n        /* \"#utility.yul\":12780:12800   */\n      tag_412\n        /* \"#utility.yul\":12798:12799   */\n      dup4\n        /* \"#utility.yul\":12780:12800   */\n      tag_267\n      jump\t// in\n    tag_412:\n        /* \"#utility.yul\":12775:12800   */\n      swap3\n      pop\n        /* \"#utility.yul\":12824:12825   */\n      dup3\n        /* \"#utility.yul\":12821:12822   */\n      dup3\n        /* \"#utility.yul\":12817:12826   */\n      sub\n        /* \"#utility.yul\":12809:12826   */\n      swap1\n      pop\n        /* \"#utility.yul\":12848:12849   */\n      dup2\n        /* \"#utility.yul\":12842:12846   */\n      dup2\n        /* \"#utility.yul\":12839:12850   */\n      gt\n        /* \"#utility.yul\":12836:12873   */\n      iszero\n      tag_413\n      jumpi\n        /* \"#utility.yul\":12853:12871   */\n      tag_414\n      tag_288\n      jump\t// in\n    tag_414:\n        /* \"#utility.yul\":12836:12873   */\n    tag_413:\n        /* \"#utility.yul\":12686:12880   */\n      swap3\n      swap2\n      pop\n      pop\n      jump\t// out\n        /* \"#utility.yul\":12886:13049   */\n    tag_300:\n        /* \"#utility.yul\":13026:13041   */\n      0x6e6f7420746865206f776e657200000000000000000000000000000000000000\n        /* \"#utility.yul\":13022:13023   */\n      0x00\n        /* \"#utility.yul\":13014:13020   */\n      dup3\n        /* \"#utility.yul\":13010:13024   */\n      add\n        /* \"#utility.yul\":13003:13042   */\n      mstore\n        /* \"#utility.yul\":12886:13049   */\n      pop\n      jump\t// out\n        /* \"#utility.yul\":13055:13421   */\n    tag_301:\n        /* \"#utility.yul\":13197:13200   */\n      0x00\n        /* \"#utility.yul\":13218:13285   */\n      tag_417\n        /* \"#utility.yul\":13282:13284   */\n      0x0d\n        /* \"#utility.yul\":13277:13280   */\n      dup4\n        /* \"#utility.yul\":13218:13285   */\n      tag_285\n      jump\t// in\n    tag_417:\n        /* \"#utility.yul\":13211:13285   */\n      swap2\n      pop\n        /* \"#utility.yul\":13294:13387   */\n      tag_418\n        /* \"#utility.yul\":13383:13386   */\n      dup3\n        /* \"#utility.yul\":13294:13387   */\n      tag_300\n      jump\t// in\n    tag_418:\n        /* \"#utility.yul\":13412:13414   */\n      0x20\n        /* \"#utility.yul\":13407:13410   */\n      dup3\n        /* \"#utility.yul\":13403:13415   */\n      add\n        /* \"#utility.yul\":13396:13415   */\n      swap1\n      pop\n        /* \"#utility.yul\":13055:13421   */\n      swap2\n      swap1\n      pop\n      jump\t// out\n        /* \"#utility.yul\":13427:13846   */\n    tag_110:\n        /* \"#utility.yul\":13593:13597   */\n      0x00\n        /* \"#utility.yul\":13631:13633   */\n      0x20\n        /* \"#utility.yul\":13620:13629   */\n      dup3\n        /* \"#utility.yul\":13616:13634   */\n      add\n        /* \"#utility.yul\":13608:13634   */\n      swap1\n      pop\n        /* \"#utility.yul\":13680:13689   */\n      dup2\n        /* \"#utility.yul\":13674:13678   */\n      dup2\n        /* \"#utility.yul\":13670:13690   */\n      sub\n        /* \"#utility.yul\":13666:13667   */\n      0x00\n        /* \"#utility.yul\":13655:13664   */\n      dup4\n        /* \"#utility.yul\":13651:13668   */\n      add\n        /* \"#utility.yul\":13644:13691   */\n      mstore\n        /* \"#utility.yul\":13708:13839   */\n      tag_420\n        /* \"#utility.yul\":13834:13838   */\n      dup2\n        /* \"#utility.yul\":13708:13839   */\n      tag_301\n      jump\t// in\n    tag_420:\n        /* \"#utility.yul\":13700:13839   */\n      swap1\n      pop\n        /* \"#utility.yul\":13427:13846   */\n      swap2\n      swap1\n      pop\n      jump\t// out\n        /* \"#utility.yul\":13852:14021   */\n    tag_302:\n        /* \"#utility.yul\":13992:14013   */\n      0x61756374696f6e207374696c6c20616c69766500000000000000000000000000\n        /* \"#utility.yul\":13988:13989   */\n      0x00\n        /* \"#utility.yul\":13980:13986   */\n      dup3\n        /* \"#utility.yul\":13976:13990   */\n      add\n        /* \"#utility.yul\":13969:14014   */\n      mstore\n        /* \"#utility.yul\":13852:14021   */\n      pop\n      jump\t// out\n        /* \"#utility.yul\":14027:14393   */\n    tag_303:\n        /* \"#utility.yul\":14169:14172   */\n      0x00\n        /* \"#utility.yul\":14190:14257   */\n      tag_423\n        /* \"#utility.yul\":14254:14256   */\n      0x13\n        /* \"#utility.yul\":14249:14252   */\n      dup4\n        /* \"#utility.yul\":14190:14257   */\n      tag_285\n      jump\t// in\n    tag_423:\n        /* \"#utility.yul\":14183:14257   */\n      swap2\n      pop\n        /* \"#utility.yul\":14266:14359   */\n      tag_424\n        /* \"#utility.yul\":14355:14358   */\n      dup3\n        /* \"#utility.yul\":14266:14359   */\n      tag_302\n      jump\t// in\n    tag_424:\n        /* \"#utility.yul\":14384:14386   */\n      0x20\n        /* \"#utility.yul\":14379:14382   */\n      dup3\n        /* \"#utility.yul\":14375:14387   */\n      add\n        /* \"#utility.yul\":14368:14387   */\n      swap1\n      pop\n        /* \"#utility.yul\":14027:14393   */\n      swap2\n      swap1\n      pop\n      jump\t// out\n        /* \"#utility.yul\":14399:14818   */\n    tag_118:\n        /* \"#utility.yul\":14565:14569   */\n      0x00\n        /* \"#utility.yul\":14603:14605   */\n      0x20\n        /* \"#utility.yul\":14592:14601   */\n      dup3\n        /* \"#utility.yul\":14588:14606   */\n      add\n        /* \"#utility.yul\":14580:14606   */\n      swap1\n      pop\n        /* \"#utility.yul\":14652:14661   */\n      dup2\n        /* \"#utility.yul\":14646:14650   */\n      dup2\n        /* \"#utility.yul\":14642:14662   */\n      sub\n        /* \"#utility.yul\":14638:14639   */\n      0x00\n        /* \"#utility.yul\":14627:14636   */\n      dup4\n        /* \"#utility.yul\":14623:14640   */\n      add\n        /* \"#utility.yul\":14616:14663   */\n      mstore\n        /* \"#utility.yul\":14680:14811   */\n      tag_426\n        /* \"#utility.yul\":14806:14810   */\n      dup2\n        /* \"#utility.yul\":14680:14811   */\n      tag_303\n      jump\t// in\n    tag_426:\n        /* \"#utility.yul\":14672:14811   */\n      swap1\n      pop\n        /* \"#utility.yul\":14399:14818   */\n      swap2\n      swap1\n      pop\n      jump\t// out\n        /* \"#utility.yul\":14824:14971   */\n    tag_304:\n        /* \"#utility.yul\":14925:14936   */\n      0x00\n        /* \"#utility.yul\":14962:14965   */\n      dup2\n        /* \"#utility.yul\":14947:14965   */\n      swap1\n      pop\n        /* \"#utility.yul\":14824:14971   */\n      swap3\n      swap2\n      pop\n      pop\n      jump\t// out\n        /* \"#utility.yul\":14977:15091   */\n    tag_305:\n      pop\n      jump\t// out\n        /* \"#utility.yul\":15097:15495   */\n    tag_306:\n        /* \"#utility.yul\":15256:15259   */\n      0x00\n        /* \"#utility.yul\":15277:15360   */\n      tag_430\n        /* \"#utility.yul\":15358:15359   */\n      0x00\n        /* \"#utility.yul\":15353:15356   */\n      dup4\n        /* \"#utility.yul\":15277:15360   */\n      tag_304\n      jump\t// in\n    tag_430:\n        /* \"#utility.yul\":15270:15360   */\n      swap2\n      pop\n        /* \"#utility.yul\":15369:15462   */\n      tag_431\n        /* \"#utility.yul\":15458:15461   */\n      dup3\n        /* \"#utility.yul\":15369:15462   */\n      tag_305\n      jump\t// in\n    tag_431:\n        /* \"#utility.yul\":15487:15488   */\n      0x00\n        /* \"#utility.yul\":15482:15485   */\n      dup3\n        /* \"#utility.yul\":15478:15489   */\n      add\n        /* \"#utility.yul\":15471:15489   */\n      swap1\n      pop\n        /* \"#utility.yul\":15097:15495   */\n      swap2\n      swap1\n      pop\n      jump\t// out\n        /* \"#utility.yul\":15501:15880   */\n    tag_121:\n        /* \"#utility.yul\":15685:15688   */\n      0x00\n        /* \"#utility.yul\":15707:15854   */\n      tag_433\n        /* \"#utility.yul\":15850:15853   */\n      dup3\n        /* \"#utility.yul\":15707:15854   */\n      tag_306\n      jump\t// in\n    tag_433:\n        /* \"#utility.yul\":15700:15854   */\n      swap2\n      pop\n        /* \"#utility.yul\":15871:15874   */\n      dup2\n        /* \"#utility.yul\":15864:15874   */\n      swap1\n      pop\n        /* \"#utility.yul\":15501:15880   */\n      swap2\n      swap1\n      pop\n      jump\t// out\n        /* \"#utility.yul\":15886:16066   */\n    tag_148:\n        /* \"#utility.yul\":15934:16011   */\n      0x4e487b7100000000000000000000000000000000000000000000000000000000\n        /* \"#utility.yul\":15931:15932   */\n      0x00\n        /* \"#utility.yul\":15924:16012   */\n      mstore\n        /* \"#utility.yul\":16031:16035   */\n      0x32\n        /* \"#utility.yul\":16028:16029   */\n      0x04\n        /* \"#utility.yul\":16021:16036   */\n      mstore\n        /* \"#utility.yul\":16055:16059   */\n      0x24\n        /* \"#utility.yul\":16052:16053   */\n      0x00\n        /* \"#utility.yul\":16045:16060   */\n      revert\n        /* \"#utility.yul\":16072:16190   */\n    tag_307:\n        /* \"#utility.yul\":16159:16183   */\n      tag_436\n        /* \"#utility.yul\":16177:16182   */\n      dup2\n        /* \"#utility.yul\":16159:16183   */\n      tag_273\n      jump\t// in\n    tag_436:\n        /* \"#utility.yul\":16154:16157   */\n      dup3\n        /* \"#utility.yul\":16147:16184   */\n      mstore\n        /* \"#utility.yul\":16072:16190   */\n      pop\n      pop\n      jump\t// out\n        /* \"#utility.yul\":16196:16528   */\n    tag_195:\n        /* \"#utility.yul\":16317:16321   */\n      0x00\n        /* \"#utility.yul\":16355:16357   */\n      0x40\n        /* \"#utility.yul\":16344:16353   */\n      dup3\n        /* \"#utility.yul\":16340:16358   */\n      add\n        /* \"#utility.yul\":16332:16358   */\n      swap1\n      pop\n        /* \"#utility.yul\":16368:16439   */\n      tag_438\n        /* \"#utility.yul\":16436:16437   */\n      0x00\n        /* \"#utility.yul\":16425:16434   */\n      dup4\n        /* \"#utility.yul\":16421:16438   */\n      add\n        /* \"#utility.yul\":16412:16418   */\n      dup6\n        /* \"#utility.yul\":16368:16439   */\n      tag_307\n      jump\t// in\n    tag_438:\n        /* \"#utility.yul\":16449:16521   */\n      tag_439\n        /* \"#utility.yul\":16517:16519   */\n      0x20\n        /* \"#utility.yul\":16506:16515   */\n      dup4\n        /* \"#utility.yul\":16502:16520   */\n      add\n        /* \"#utility.yul\":16493:16499   */\n      dup5\n        /* \"#utility.yul\":16449:16521   */\n      tag_268\n      jump\t// in\n    tag_439:\n        /* \"#utility.yul\":16196:16528   */\n      swap4\n      swap3\n      pop\n      pop\n      pop\n      jump\t// out\n        /* \"#utility.yul\":16534:16699   */\n    tag_308:\n        /* \"#utility.yul\":16674:16691   */\n      0x6e6f742065787069726564207965740000000000000000000000000000000000\n        /* \"#utility.yul\":16670:16671   */\n      0x00\n        /* \"#utility.yul\":16662:16668   */\n      dup3\n        /* \"#utility.yul\":16658:16672   */\n      add\n        /* \"#utility.yul\":16651:16692   */\n      mstore\n        /* \"#utility.yul\":16534:16699   */\n      pop\n      jump\t// out\n        /* \"#utility.yul\":16705:17071   */\n    tag_309:\n        /* \"#utility.yul\":16847:16850   */\n      0x00\n        /* \"#utility.yul\":16868:16935   */\n      tag_442\n        /* \"#utility.yul\":16932:16934   */\n      0x0f\n        /* \"#utility.yul\":16927:16930   */\n      dup4\n        /* \"#utility.yul\":16868:16935   */\n      tag_285\n      jump\t// in\n    tag_442:\n        /* \"#utility.yul\":16861:16935   */\n      swap2\n      pop\n        /* \"#utility.yul\":16944:17037   */\n      tag_443\n        /* \"#utility.yul\":17033:17036   */\n      dup3\n        /* \"#utility.yul\":16944:17037   */\n      tag_308\n      jump\t// in\n    tag_443:\n        /* \"#utility.yul\":17062:17064   */\n      0x20\n        /* \"#utility.yul\":17057:17060   */\n      dup3\n        /* \"#utility.yul\":17053:17065   */\n      add\n        /* \"#utility.yul\":17046:17065   */\n      swap1\n      pop\n        /* \"#utility.yul\":16705:17071   */\n      swap2\n      swap1\n      pop\n      jump\t// out\n        /* \"#utility.yul\":17077:17496   */\n    tag_221:\n        /* \"#utility.yul\":17243:17247   */\n      0x00\n        /* \"#utility.yul\":17281:17283   */\n      0x20\n        /* \"#utility.yul\":17270:17279   */\n      dup3\n        /* \"#utility.yul\":17266:17284   */\n      add\n        /* \"#utility.yul\":17258:17284   */\n      swap1\n      pop\n        /* \"#utility.yul\":17330:17339   */\n      dup2\n        /* \"#utility.yul\":17324:17328   */\n      dup2\n        /* \"#utility.yul\":17320:17340   */\n      sub\n        /* \"#utility.yul\":17316:17317   */\n      0x00\n        /* \"#utility.yul\":17305:17314   */\n      dup4\n        /* \"#utility.yul\":17301:17318   */\n      add\n        /* \"#utility.yul\":17294:17341   */\n      mstore\n        /* \"#utility.yul\":17358:17489   */\n      tag_445\n        /* \"#utility.yul\":17484:17488   */\n      dup2\n        /* \"#utility.yul\":17358:17489   */\n      tag_309\n      jump\t// in\n    tag_445:\n        /* \"#utility.yul\":17350:17489   */\n      swap1\n      pop\n        /* \"#utility.yul\":17077:17496   */\n      swap2\n      swap1\n      pop\n      jump\t// out\n        /* \"#utility.yul\":17502:17693   */\n    tag_225:\n        /* \"#utility.yul\":17542:17545   */\n      0x00\n        /* \"#utility.yul\":17561:17581   */\n      tag_447\n        /* \"#utility.yul\":17579:17580   */\n      dup3\n        /* \"#utility.yul\":17561:17581   */\n      tag_267\n      jump\t// in\n    tag_447:\n        /* \"#utility.yul\":17556:17581   */\n      swap2\n      pop\n        /* \"#utility.yul\":17595:17615   */\n      tag_448\n        /* \"#utility.yul\":17613:17614   */\n      dup4\n        /* \"#utility.yul\":17595:17615   */\n      tag_267\n      jump\t// in\n    tag_448:\n        /* \"#utility.yul\":17590:17615   */\n      swap3\n      pop\n        /* \"#utility.yul\":17638:17639   */\n      dup3\n        /* \"#utility.yul\":17635:17636   */\n      dup3\n        /* \"#utility.yul\":17631:17640   */\n      add\n        /* \"#utility.yul\":17624:17640   */\n      swap1\n      pop\n        /* \"#utility.yul\":17659:17662   */\n      dup1\n        /* \"#utility.yul\":17656:17657   */\n      dup3\n        /* \"#utility.yul\":17653:17663   */\n      gt\n        /* \"#utility.yul\":17650:17686   */\n      iszero\n      tag_449\n      jumpi\n        /* \"#utility.yul\":17666:17684   */\n      tag_450\n      tag_288\n      jump\t// in\n    tag_450:\n        /* \"#utility.yul\":17650:17686   */\n    tag_449:\n        /* \"#utility.yul\":17502:17693   */\n      swap3\n      swap2\n      pop\n      pop\n      jump\t// out\n\n    auxdata: 0xa2646970667358221220b51754a0c83644c034204e7c8b1d2b50c4d580691047ca859a2cd5ed216105f964736f6c634300081e0033\n}\n",
				"bytecode": {
					"linkReferences": {},
					"object": "608060405234801561000f575f5ffd5b50335f5f6101000a81548173ffffffffffffffffffffffffffffffffffffffff021916908373ffffffffffffffffffffffffffffffffffffffff1602179055504260028190555062093a806002546100679190610152565b600481905550610258600381905550620f42406001819055505f5f9054906101000a900473ffffffffffffffffffffffffffffffffffffffff1660085f015f6101000a81548173ffffffffffffffffffffffffffffffffffffffff021916908373ffffffffffffffffffffffffffffffffffffffff1602179055506001546008600101819055505f60055f6101000a81548160ff0219169083600181111561011257610111610185565b5b02179055506101b2565b5f819050919050565b7f4e487b71000000000000000000000000000000000000000000000000000000005f52601160045260245ffd5b5f61015c8261011c565b91506101678361011c565b925082820190508082111561017f5761017e610125565b5b92915050565b7f4e487b71000000000000000000000000000000000000000000000000000000005f52602160045260245ffd5b61231b806101bf5f395ff3fe608060405260043610610090575f3560e01c806377c468c41161005857806377c468c41461011e578063b7e0326414610134578063c19d93fb1461015e578063f5c7bc7014610188578063fe67a54b1461019e57610090565b80631f09dfa714610094578063464fcd691461009e5780634665096d146100b45780634dbe5889146100de578063534823bf146100f4575b5f5ffd5b61009c6101b4565b005b3480156100a9575f5ffd5b506100b2610351565b005b3480156100bf575f5ffd5b506100c8610619565b6040516100d59190611b2a565b60405180910390f35b3480156100e9575f5ffd5b506100f261061f565b005b3480156100ff575f5ffd5b506101086107f6565b6040516101159190611c66565b60405180910390f35b348015610129575f5ffd5b506101326108b0565b005b34801561013f575f5ffd5b50610148610f4f565b6040516101559190611cb3565b60405180910390f35b348015610169575f5ffd5b50610172610fc7565b60405161017f9190611d3f565b60405180910390f35b348015610193575f5ffd5b5061019c610fd9565b005b3480156101a9575f5ffd5b506101b261123a565b005b5f60018111156101c7576101c6611ccc565b5b60055f9054906101000a900460ff1660018111156101e8576101e7611ccc565b5b03610314576004544210610231576040517f08c379a000000000000000000000000000000000000000000000000000000000815260040161022890611db2565b60405180910390fd5b606460696008600101546102459190611dfd565b61024f9190611e6b565b341015610291576040517f08c379a000000000000000000000000000000000000000000000000000000000815260040161028890611ee5565b60405180910390fd5b61029b3334611413565b6102a6333434611463565b6102b03334611503565b6102b86115ca565b3373ffffffffffffffffffffffffffffffffffffffff167f058d619527549e88853c641ebcec23205e5df61592e3908275721b5ad490113f346040516102fe9190611b2a565b60405180910390a261030f336115fd565b61034f565b6040517f08c379a000000000000000000000000000000000000000000000000000000000815260040161034690611f4d565b60405180910390fd5b565b5f600181111561036457610363611ccc565b5b60055f9054906101000a900460ff16600181111561038557610384611ccc565b5b146103c5576040517f08c379a00000000000000000000000000000000000000000000000000000000081526004016103bc90611fb5565b60405180910390fd5b60011515600b5f3373ffffffffffffffffffffffffffffffffffffffff1673ffffffffffffffffffffffffffffffffffffffff1681526020019081526020015f205f9054906101000a900460ff16151514610455576040517f08c379a000000000000000000000000000000000000000000000000000000000815260040161044c9061201d565b60405180910390fd5b5f5f6104603361170a565b80925081935050505f1515821515036104ae576040517f08c379a00000000000000000000000000000000000000000000000000000000081526004016104a590612085565b60405180910390fd5b8060065f3373ffffffffffffffffffffffffffffffffffffffff1673ffffffffffffffffffffffffffffffffffffffff1681526020019081526020015f206002015f8282546104fd91906120a3565b9250508190555061050c611ae4565b33815f019073ffffffffffffffffffffffffffffffffffffffff16908173ffffffffffffffffffffffffffffffffffffffff16815250505f816020018181525050600781908060018154018082558091505060019003905f5260205f2090600202015f909190919091505f820151815f015f6101000a81548173ffffffffffffffffffffffffffffffffffffffff021916908373ffffffffffffffffffffffffffffffffffffffff1602179055506020820151816001015550503373ffffffffffffffffffffffffffffffffffffffff167f5bf4ffbba2c193e74d733f69408011d333232e84b98a68ecb638621dab65fff58360405161060c9190611b2a565b60405180910390a2505050565b60045481565b3373ffffffffffffffffffffffffffffffffffffffff165f5f9054906101000a900473ffffffffffffffffffffffffffffffffffffffff1673ffffffffffffffffffffffffffffffffffffffff16146106ad576040517f08c379a00000000000000000000000000000000000000000000000000000000081526004016106a490612120565b60405180910390fd5b6001808111156106c0576106bf611ccc565b5b60055f9054906101000a900460ff1660018111156106e1576106e0611ccc565b5b14610721576040517f08c379a000000000000000000000000000000000000000000000000000000000815260040161071890612188565b60405180910390fd5b5f5f5f9054906101000a900473ffffffffffffffffffffffffffffffffffffffff1673ffffffffffffffffffffffffffffffffffffffff166108fc47604051610769906121d3565b5f60405180830381858888f193505050503d805f81146107a4576040519150601f19603f3d011682016040523d82523d5f602084013e6107a9565b606091505b505090505f1515811515036107f3576040517f08c379a00000000000000000000000000000000000000000000000000000000081526004016107ea90612085565b60405180910390fd5b50565b60606007805480602002602001604051908101604052809291908181526020015f905b828210156108a7578382905f5260205f2090600202016040518060400160405290815f82015f9054906101000a900473ffffffffffffffffffffffffffffffffffffffff1673ffffffffffffffffffffffffffffffffffffffff1673ffffffffffffffffffffffffffffffffffffffff16815260200160018201548152505081526020019060010190610819565b50505050905090565b3373ffffffffffffffffffffffffffffffffffffffff165f5f9054906101000a900473ffffffffffffffffffffffffffffffffffffffff1673ffffffffffffffffffffffffffffffffffffffff161461093e576040517f08c379a000000000000000000000000000000000000000000000000000000000815260040161093590612120565b60405180910390fd5b60018081111561095157610950611ccc565b5b60055f9054906101000a900460ff16600181111561097257610971611ccc565b5b146109b2576040517f08c379a00000000000000000000000000000000000000000000000000000000081526004016109a990612188565b60405180910390fd5b5f5f5f600a8054905090506109c5611ae4565b5f5f90505b82811015610f485760085f015f9054906101000a900473ffffffffffffffffffffffffffffffffffffffff1673ffffffffffffffffffffffffffffffffffffffff16600a8281548110610a2057610a1f6121e7565b5b905f5260205f20015f9054906101000a900473ffffffffffffffffffffffffffffffffffffffff1673ffffffffffffffffffffffffffffffffffffffff1614610cd157610aa7600a8281548110610a7a57610a796121e7565b5b905f5260205f20015f9054906101000a900473ffffffffffffffffffffffffffffffffffffffff166118e2565b80955081965050505f151585151503610af5576040517f08c379a0000000000000000000000000000000000000000000000000000000008152600401610aec90612085565b60405180910390fd5b8360065f600a8481548110610b0d57610b0c6121e7565b5b905f5260205f20015f9054906101000a900473ffffffffffffffffffffffffffffffffffffffff1673ffffffffffffffffffffffffffffffffffffffff1673ffffffffffffffffffffffffffffffffffffffff1681526020019081526020015f206002015f828254610b7f91906120a3565b92505081905550600a8181548110610b9a57610b996121e7565b5b905f5260205f20015f9054906101000a900473ffffffffffffffffffffffffffffffffffffffff16825f019073ffffffffffffffffffffffffffffffffffffffff16908173ffffffffffffffffffffffffffffffffffffffff16815250505f826020018181525050600782908060018154018082558091505060019003905f5260205f2090600202015f909190919091505f820151815f015f6101000a81548173ffffffffffffffffffffffffffffffffffffffff021916908373ffffffffffffffffffffffffffffffffffffffff160217905550602082015181600101555050815f015173ffffffffffffffffffffffffffffffffffffffff167f34dba9a7faf77866d1d036eb7444d95a805bcfe05b6e34819e7d44793d3922d185604051610cc49190611b2a565b60405180910390a2610f3b565b610d15600a8281548110610ce857610ce76121e7565b5b905f5260205f20015f9054906101000a900473ffffffffffffffffffffffffffffffffffffffff166119db565b80955081965050505f151585151503610d63576040517f08c379a0000000000000000000000000000000000000000000000000000000008152600401610d5a90612085565b60405180910390fd5b8360065f600a8481548110610d7b57610d7a6121e7565b5b905f5260205f20015f9054906101000a900473ffffffffffffffffffffffffffffffffffffffff1673ffffffffffffffffffffffffffffffffffffffff1673ffffffffffffffffffffffffffffffffffffffff1681526020019081526020015f206002015f828254610ded91906120a3565b92505081905550600a8181548110610e0857610e076121e7565b5b905f5260205f20015f9054906101000a900473ffffffffffffffffffffffffffffffffffffffff16825f019073ffffffffffffffffffffffffffffffffffffffff16908173ffffffffffffffffffffffffffffffffffffffff16815250505f826020018181525050600782908060018154018082558091505060019003905f5260205f2090600202015f909190919091505f820151815f015f6101000a81548173ffffffffffffffffffffffffffffffffffffffff021916908373ffffffffffffffffffffffffffffffffffffffff160217905550602082015181600101555050815f015173ffffffffffffffffffffffffffffffffffffffff167f34dba9a7faf77866d1d036eb7444d95a805bcfe05b6e34819e7d44793d3922d185604051610f329190611b2a565b60405180910390a25b80806001019150506109ca565b5050505050565b610f57611ae4565b60086040518060400160405290815f82015f9054906101000a900473ffffffffffffffffffffffffffffffffffffffff1673ffffffffffffffffffffffffffffffffffffffff1673ffffffffffffffffffffffffffffffffffffffff168152602001600182015481525050905090565b60055f9054906101000a900460ff1681565b3373ffffffffffffffffffffffffffffffffffffffff165f5f9054906101000a900473ffffffffffffffffffffffffffffffffffffffff1673ffffffffffffffffffffffffffffffffffffffff1614611067576040517f08c379a000000000000000000000000000000000000000000000000000000000815260040161105e90612120565b60405180910390fd5b600160055f6101000a81548160ff0219169083600181111561108c5761108b611ccc565b5b02179055507fdaec4582d5d9595688c8c98545fdd1c696d41c6aeaeb636737e84ed2f5c00eda60085f015f9054906101000a900473ffffffffffffffffffffffffffffffffffffffff166008600101546040516110ea929190612223565b60405180910390a15f4790505f5f5f9054906101000a900473ffffffffffffffffffffffffffffffffffffffff1673ffffffffffffffffffffffffffffffffffffffff166108fc8360405161113e906121d3565b5f60405180830381858888f193505050503d805f8114611179576040519150601f19603f3d011682016040523d82523d5f602084013e61117e565b606091505b505090505f1515811515036111c8576040517f08c379a00000000000000000000000000000000000000000000000000000000081526004016111bf90612085565b60405180910390fd5b5f5f9054906101000a900473ffffffffffffffffffffffffffffffffffffffff1673ffffffffffffffffffffffffffffffffffffffff167f8ac557ae144720724c1f4a5dc5227f34695f7f7fe698a8a2210c380d822bdf7f8360405161122e9190611b2a565b60405180910390a25050565b3373ffffffffffffffffffffffffffffffffffffffff165f5f9054906101000a900473ffffffffffffffffffffffffffffffffffffffff1673ffffffffffffffffffffffffffffffffffffffff16146112c8576040517f08c379a00000000000000000000000000000000000000000000000000000000081526004016112bf90612120565b60405180910390fd5b5f60018111156112db576112da611ccc565b5b60055f9054906101000a900460ff1660018111156112fc576112fb611ccc565b5b1461133c576040517f08c379a000000000000000000000000000000000000000000000000000000000815260040161133390611fb5565b60405180910390fd5b6004544211156113d657600160055f6101000a81548160ff0219169083600181111561136b5761136a611ccc565b5b02179055507fdaec4582d5d9595688c8c98545fdd1c696d41c6aeaeb636737e84ed2f5c00eda60085f015f9054906101000a900473ffffffffffffffffffffffffffffffffffffffff166008600101546040516113c9929190612223565b60405180910390a1611411565b6040517f08c379a000000000000000000000000000000000000000000000000000000000815260040161140890612294565b60405180910390fd5b565b8160085f015f6101000a81548173ffffffffffffffffffffffffffffffffffffffff021916908373ffffffffffffffffffffffffffffffffffffffff160217905550806008600101819055505050565b8160065f8573ffffffffffffffffffffffffffffffffffffffff1673ffffffffffffffffffffffffffffffffffffffff1681526020019081526020015f20600101819055508060065f8573ffffffffffffffffffffffffffffffffffffffff1673ffffffffffffffffffffffffffffffffffffffff1681526020019081526020015f206002015f8282546114f791906122b2565b92505081905550505050565b61150b611ae4565b82815f019073ffffffffffffffffffffffffffffffffffffffff16908173ffffffffffffffffffffffffffffffffffffffff168152505081816020018181525050600781908060018154018082558091505060019003905f5260205f2090600202015f909190919091505f820151815f015f6101000a81548173ffffffffffffffffffffffffffffffffffffffff021916908373ffffffffffffffffffffffffffffffffffffffff160217905550602082015181600101555050505050565b6003546004546115da91906120a3565b42106115fb5760035460045f8282546115f391906122b2565b925050819055505b565b5f1515600b5f8373ffffffffffffffffffffffffffffffffffffffff1673ffffffffffffffffffffffffffffffffffffffff1681526020019081526020015f205f9054906101000a900460ff1615150361170757600a81908060018154018082558091505060019003905f5260205f20015f9091909190916101000a81548173ffffffffffffffffffffffffffffffffffffffff021916908373ffffffffffffffffffffffffffffffffffffffff1602179055506001600b5f8373ffffffffffffffffffffffffffffffffffffffff1673ffffffffffffffffffffffffffffffffffffffff1681526020019081526020015f205f6101000a81548160ff0219169083151502179055505b50565b5f5f60065f8473ffffffffffffffffffffffffffffffffffffffff1673ffffffffffffffffffffffffffffffffffffffff1681526020019081526020015f206001015460065f8573ffffffffffffffffffffffffffffffffffffffff1673ffffffffffffffffffffffffffffffffffffffff1681526020019081526020015f206002015411156118d5575f60065f8573ffffffffffffffffffffffffffffffffffffffff1673ffffffffffffffffffffffffffffffffffffffff1681526020019081526020015f206001015460065f8673ffffffffffffffffffffffffffffffffffffffff1673ffffffffffffffffffffffffffffffffffffffff1681526020019081526020015f206002015461182191906120a3565b90505f60646062836118339190611dfd565b61183d9190611e6b565b90505f8573ffffffffffffffffffffffffffffffffffffffff166108fc83604051611867906121d3565b5f60405180830381858888f193505050503d805f81146118a2576040519150601f19603f3d011682016040523d82523d5f602084013e6118a7565b606091505b505090505f1515811515036118c7575f92508083945094505050506118dd565b8083945094505050506118dd565b60015f915091505b915091565b5f5f5f60065f8573ffffffffffffffffffffffffffffffffffffffff1673ffffffffffffffffffffffffffffffffffffffff1681526020019081526020015f206002015490505f60646062836119389190611dfd565b6119429190611e6b565b90505f8573ffffffffffffffffffffffffffffffffffffffff166108fc8360405161196c906121d3565b5f60405180830381858888f193505050503d805f81146119a7576040519150601f19603f3d011682016040523d82523d5f602084013e6119ac565b606091505b505090505f1515811515036119cc575f92508083945094505050506119d6565b8083945094505050505b915091565b5f5f5f60086001015460065f8673ffffffffffffffffffffffffffffffffffffffff1673ffffffffffffffffffffffffffffffffffffffff1681526020019081526020015f2060020154611a2f91906120a3565b90505f6064606283611a419190611dfd565b611a4b9190611e6b565b90505f8573ffffffffffffffffffffffffffffffffffffffff166108fc83604051611a75906121d3565b5f60405180830381858888f193505050503d805f8114611ab0576040519150601f19603f3d011682016040523d82523d5f602084013e611ab5565b606091505b505090505f151581151503611ad5575f9250808394509450505050611adf565b8083945094505050505b915091565b60405180604001604052805f73ffffffffffffffffffffffffffffffffffffffff1681526020015f81525090565b5f819050919050565b611b2481611b12565b82525050565b5f602082019050611b3d5f830184611b1b565b92915050565b5f81519050919050565b5f82825260208201905092915050565b5f819050602082019050919050565b5f73ffffffffffffffffffffffffffffffffffffffff82169050919050565b5f611b9582611b6c565b9050919050565b611ba581611b8b565b82525050565b611bb481611b12565b82525050565b604082015f820151611bce5f850182611b9c565b506020820151611be16020850182611bab565b50505050565b5f611bf28383611bba565b60408301905092915050565b5f602082019050919050565b5f611c1482611b43565b611c1e8185611b4d565b9350611c2983611b5d565b805f5b83811015611c59578151611c408882611be7565b9750611c4b83611bfe565b925050600181019050611c2c565b5085935050505092915050565b5f6020820190508181035f830152611c7e8184611c0a565b905092915050565b604082015f820151611c9a5f850182611b9c565b506020820151611cad6020850182611bab565b50505050565b5f604082019050611cc65f830184611c86565b92915050565b7f4e487b71000000000000000000000000000000000000000000000000000000005f52602160045260245ffd5b60028110611d0a57611d09611ccc565b5b50565b5f819050611d1a82611cf9565b919050565b5f611d2982611d0d565b9050919050565b611d3981611d1f565b82525050565b5f602082019050611d525f830184611d30565b92915050565b5f82825260208201905092915050565b7f696e76616c6964206f666665722074696d6500000000000000000000000000005f82015250565b5f611d9c601283611d58565b9150611da782611d68565b602082019050919050565b5f6020820190508181035f830152611dc981611d90565b9050919050565b7f4e487b71000000000000000000000000000000000000000000000000000000005f52601160045260245ffd5b5f611e0782611b12565b9150611e1283611b12565b9250828202611e2081611b12565b91508282048414831517611e3757611e36611dd0565b5b5092915050565b7f4e487b71000000000000000000000000000000000000000000000000000000005f52601260045260245ffd5b5f611e7582611b12565b9150611e8083611b12565b925082611e9057611e8f611e3e565b5b828204905092915050565b7f696e76616c6964206f666665722076616c7565000000000000000000000000005f82015250565b5f611ecf601383611d58565b9150611eda82611e9b565b602082019050919050565b5f6020820190508181035f830152611efc81611ec3565b9050919050565b7f41756374696f6e20456e646564000000000000000000000000000000000000005f82015250565b5f611f37600d83611d58565b9150611f4282611f03565b602082019050919050565b5f6020820190508181035f830152611f6481611f2b565b9050919050565b7f61756374696f6e20616c726561647920656e64656400000000000000000000005f82015250565b5f611f9f601583611d58565b9150611faa82611f6b565b602082019050919050565b5f6020820190508181035f830152611fcc81611f93565b9050919050565b7f6e6f7420612062696464657200000000000000000000000000000000000000005f82015250565b5f612007600c83611d58565b915061201282611fd3565b602082019050919050565b5f6020820190508181035f83015261203481611ffb565b9050919050565b7f7472616e73616374696f6e206661696c000000000000000000000000000000005f82015250565b5f61206f601083611d58565b915061207a8261203b565b602082019050919050565b5f6020820190508181035f83015261209c81612063565b9050919050565b5f6120ad82611b12565b91506120b883611b12565b92508282039050818111156120d0576120cf611dd0565b5b92915050565b7f6e6f7420746865206f776e6572000000000000000000000000000000000000005f82015250565b5f61210a600d83611d58565b9150612115826120d6565b602082019050919050565b5f6020820190508181035f830152612137816120fe565b9050919050565b7f61756374696f6e207374696c6c20616c697665000000000000000000000000005f82015250565b5f612172601383611d58565b915061217d8261213e565b602082019050919050565b5f6020820190508181035f83015261219f81612166565b9050919050565b5f81905092915050565b50565b5f6121be5f836121a6565b91506121c9826121b0565b5f82019050919050565b5f6121dd826121b3565b9150819050919050565b7f4e487b71000000000000000000000000000000000000000000000000000000005f52603260045260245ffd5b61221d81611b8b565b82525050565b5f6040820190506122365f830185612214565b6122436020830184611b1b565b9392505050565b7f6e6f7420657870697265642079657400000000000000000000000000000000005f82015250565b5f61227e600f83611d58565b91506122898261224a565b602082019050919050565b5f6020820190508181035f8301526122ab81612272565b9050919050565b5f6122bc82611b12565b91506122c783611b12565b92508282019050808211156122df576122de611dd0565b5b9291505056fea2646970667358221220b51754a0c83644c034204e7c8b1d2b50c4d580691047ca859a2cd5ed216105f964736f6c634300081e0033",
					"opcodes": "PUSH1 0x80 PUSH1 0x40 MSTORE CALLVALUE DUP1 ISZERO PUSH2 0xF JUMPI PUSH0 PUSH0 REVERT JUMPDEST POP CALLER PUSH0 PUSH0 PUSH2 0x100 EXP DUP2 SLOAD DUP2 PUSH20 0xFFFFFFFFFFFFFFFFFFFFFFFFFFFFFFFFFFFFFFFF MUL NOT AND SWAP1 DUP4 PUSH20 0xFFFFFFFFFFFFFFFFFFFFFFFFFFFFFFFFFFFFFFFF AND MUL OR SWAP1 SSTORE POP TIMESTAMP PUSH1 0x2 DUP2 SWAP1 SSTORE POP PUSH3 0x93A80 PUSH1 0x2 SLOAD PUSH2 0x67 SWAP2 SWAP1 PUSH2 0x152 JUMP JUMPDEST PUSH1 0x4 DUP2 SWAP1 SSTORE POP PUSH2 0x258 PUSH1 0x3 DUP2 SWAP1 SSTORE POP PUSH3 0xF4240 PUSH1 0x1 DUP2 SWAP1 SSTORE POP PUSH0 PUSH0 SWAP1 SLOAD SWAP1 PUSH2 0x100 EXP SWAP1 DIV PUSH20 0xFFFFFFFFFFFFFFFFFFFFFFFFFFFFFFFFFFFFFFFF AND PUSH1 0x8 PUSH0 ADD PUSH0 PUSH2 0x100 EXP DUP2 SLOAD DUP2 PUSH20 0xFFFFFFFFFFFFFFFFFFFFFFFFFFFFFFFFFFFFFFFF MUL NOT AND SWAP1 DUP4 PUSH20 0xFFFFFFFFFFFFFFFFFFFFFFFFFFFFFFFFFFFFFFFF AND MUL OR SWAP1 SSTORE POP PUSH1 0x1 SLOAD PUSH1 0x8 PUSH1 0x1 ADD DUP2 SWAP1 SSTORE POP PUSH0 PUSH1 0x5 PUSH0 PUSH2 0x100 EXP DUP2 SLOAD DUP2 PUSH1 0xFF MUL NOT AND SWAP1 DUP4 PUSH1 0x1 DUP2 GT ISZERO PUSH2 0x112 JUMPI PUSH2 0x111 PUSH2 0x185 JUMP JUMPDEST JUMPDEST MUL OR SWAP1 SSTORE POP PUSH2 0x1B2 JUMP JUMPDEST PUSH0 DUP2 SWAP1 POP SWAP2 SWAP1 POP JUMP JUMPDEST PUSH32 0x4E487B7100000000000000000000000000000000000000000000000000000000 PUSH0 MSTORE PUSH1 0x11 PUSH1 0x4 MSTORE PUSH1 0x24 PUSH0 REVERT JUMPDEST PUSH0 PUSH2 0x15C DUP3 PUSH2 0x11C JUMP JUMPDEST SWAP2 POP PUSH2 0x167 DUP4 PUSH2 0x11C JUMP JUMPDEST SWAP3 POP DUP3 DUP3 ADD SWAP1 POP DUP1 DUP3 GT ISZERO PUSH2 0x17F JUMPI PUSH2 0x17E PUSH2 0x125 JUMP JUMPDEST JUMPDEST SWAP3 SWAP2 POP POP JUMP JUMPDEST PUSH32 0x4E487B7100000000000000000000000000000000000000000000000000000000 PUSH0 MSTORE PUSH1 0x21 PUSH1 0x4 MSTORE PUSH1 0x24 PUSH0 REVERT JUMPDEST PUSH2 0x231B DUP1 PUSH2 0x1BF PUSH0 CODECOPY PUSH0 RETURN INVALID PUSH1 0x80 PUSH1 0x40 MSTORE PUSH1 0x4 CALLDATASIZE LT PUSH2 0x90 JUMPI PUSH0 CALLDATALOAD PUSH1 0xE0 SHR DUP1 PUSH4 0x77C468C4 GT PUSH2 0x58 JUMPI DUP1 PUSH4 0x77C468C4 EQ PUSH2 0x11E JUMPI DUP1 PUSH4 0xB7E03264 EQ PUSH2 0x134 JUMPI DUP1 PUSH4 0xC19D93FB EQ PUSH2 0x15E JUMPI DUP1 PUSH4 0xF5C7BC70 EQ PUSH2 0x188 JUMPI DUP1 PUSH4 0xFE67A54B EQ PUSH2 0x19E JUMPI PUSH2 0x90 JUMP JUMPDEST DUP1 PUSH4 0x1F09DFA7 EQ PUSH2 0x94 JUMPI DUP1 PUSH4 0x464FCD69 EQ PUSH2 0x9E JUMPI DUP1 PUSH4 0x4665096D EQ PUSH2 0xB4 JUMPI DUP1 PUSH4 0x4DBE5889 EQ PUSH2 0xDE JUMPI DUP1 PUSH4 0x534823BF EQ PUSH2 0xF4 JUMPI JUMPDEST PUSH0 PUSH0 REVERT JUMPDEST PUSH2 0x9C PUSH2 0x1B4 JUMP JUMPDEST STOP JUMPDEST CALLVALUE DUP1 ISZERO PUSH2 0xA9 JUMPI PUSH0 PUSH0 REVERT JUMPDEST POP PUSH2 0xB2 PUSH2 0x351 JUMP JUMPDEST STOP JUMPDEST CALLVALUE DUP1 ISZERO PUSH2 0xBF JUMPI PUSH0 PUSH0 REVERT JUMPDEST POP PUSH2 0xC8 PUSH2 0x619 JUMP JUMPDEST PUSH1 0x40 MLOAD PUSH2 0xD5 SWAP2 SWAP1 PUSH2 0x1B2A JUMP JUMPDEST PUSH1 0x40 MLOAD DUP1 SWAP2 SUB SWAP1 RETURN JUMPDEST CALLVALUE DUP1 ISZERO PUSH2 0xE9 JUMPI PUSH0 PUSH0 REVERT JUMPDEST POP PUSH2 0xF2 PUSH2 0x61F JUMP JUMPDEST STOP JUMPDEST CALLVALUE DUP1 ISZERO PUSH2 0xFF JUMPI PUSH0 PUSH0 REVERT JUMPDEST POP PUSH2 0x108 PUSH2 0x7F6 JUMP JUMPDEST PUSH1 0x40 MLOAD PUSH2 0x115 SWAP2 SWAP1 PUSH2 0x1C66 JUMP JUMPDEST PUSH1 0x40 MLOAD DUP1 SWAP2 SUB SWAP1 RETURN JUMPDEST CALLVALUE DUP1 ISZERO PUSH2 0x129 JUMPI PUSH0 PUSH0 REVERT JUMPDEST POP PUSH2 0x132 PUSH2 0x8B0 JUMP JUMPDEST STOP JUMPDEST CALLVALUE DUP1 ISZERO PUSH2 0x13F JUMPI PUSH0 PUSH0 REVERT JUMPDEST POP PUSH2 0x148 PUSH2 0xF4F JUMP JUMPDEST PUSH1 0x40 MLOAD PUSH2 0x155 SWAP2 SWAP1 PUSH2 0x1CB3 JUMP JUMPDEST PUSH1 0x40 MLOAD DUP1 SWAP2 SUB SWAP1 RETURN JUMPDEST CALLVALUE DUP1 ISZERO PUSH2 0x169 JUMPI PUSH0 PUSH0 REVERT JUMPDEST POP PUSH2 0x172 PUSH2 0xFC7 JUMP JUMPDEST PUSH1 0x40 MLOAD PUSH2 0x17F SWAP2 SWAP1 PUSH2 0x1D3F JUMP JUMPDEST PUSH1 0x40 MLOAD DUP1 SWAP2 SUB SWAP1 RETURN JUMPDEST CALLVALUE DUP1 ISZERO PUSH2 0x193 JUMPI PUSH0 PUSH0 REVERT JUMPDEST POP PUSH2 0x19C PUSH2 0xFD9 JUMP JUMPDEST STOP JUMPDEST CALLVALUE DUP1 ISZERO PUSH2 0x1A9 JUMPI PUSH0 PUSH0 REVERT JUMPDEST POP PUSH2 0x1B2 PUSH2 0x123A JUMP JUMPDEST STOP JUMPDEST PUSH0 PUSH1 0x1 DUP2 GT ISZERO PUSH2 0x1C7 JUMPI PUSH2 0x1C6 PUSH2 0x1CCC JUMP JUMPDEST JUMPDEST PUSH1 0x5 PUSH0 SWAP1 SLOAD SWAP1 PUSH2 0x100 EXP SWAP1 DIV PUSH1 0xFF AND PUSH1 0x1 DUP2 GT ISZERO PUSH2 0x1E8 JUMPI PUSH2 0x1E7 PUSH2 0x1CCC JUMP JUMPDEST JUMPDEST SUB PUSH2 0x314 JUMPI PUSH1 0x4 SLOAD TIMESTAMP LT PUSH2 0x231 JUMPI PUSH1 0x40 MLOAD PUSH32 0x8C379A000000000000000000000000000000000000000000000000000000000 DUP2 MSTORE PUSH1 0x4 ADD PUSH2 0x228 SWAP1 PUSH2 0x1DB2 JUMP JUMPDEST PUSH1 0x40 MLOAD DUP1 SWAP2 SUB SWAP1 REVERT JUMPDEST PUSH1 0x64 PUSH1 0x69 PUSH1 0x8 PUSH1 0x1 ADD SLOAD PUSH2 0x245 SWAP2 SWAP1 PUSH2 0x1DFD JUMP JUMPDEST PUSH2 0x24F SWAP2 SWAP1 PUSH2 0x1E6B JUMP JUMPDEST CALLVALUE LT ISZERO PUSH2 0x291 JUMPI PUSH1 0x40 MLOAD PUSH32 0x8C379A000000000000000000000000000000000000000000000000000000000 DUP2 MSTORE PUSH1 0x4 ADD PUSH2 0x288 SWAP1 PUSH2 0x1EE5 JUMP JUMPDEST PUSH1 0x40 MLOAD DUP1 SWAP2 SUB SWAP1 REVERT JUMPDEST PUSH2 0x29B CALLER CALLVALUE PUSH2 0x1413 JUMP JUMPDEST PUSH2 0x2A6 CALLER CALLVALUE CALLVALUE PUSH2 0x1463 JUMP JUMPDEST PUSH2 0x2B0 CALLER CALLVALUE PUSH2 0x1503 JUMP JUMPDEST PUSH2 0x2B8 PUSH2 0x15CA JUMP JUMPDEST CALLER PUSH20 0xFFFFFFFFFFFFFFFFFFFFFFFFFFFFFFFFFFFFFFFF AND PUSH32 0x58D619527549E88853C641EBCEC23205E5DF61592E3908275721B5AD490113F CALLVALUE PUSH1 0x40 MLOAD PUSH2 0x2FE SWAP2 SWAP1 PUSH2 0x1B2A JUMP JUMPDEST PUSH1 0x40 MLOAD DUP1 SWAP2 SUB SWAP1 LOG2 PUSH2 0x30F CALLER PUSH2 0x15FD JUMP JUMPDEST PUSH2 0x34F JUMP JUMPDEST PUSH1 0x40 MLOAD PUSH32 0x8C379A000000000000000000000000000000000000000000000000000000000 DUP2 MSTORE PUSH1 0x4 ADD PUSH2 0x346 SWAP1 PUSH2 0x1F4D JUMP JUMPDEST PUSH1 0x40 MLOAD DUP1 SWAP2 SUB SWAP1 REVERT JUMPDEST JUMP JUMPDEST PUSH0 PUSH1 0x1 DUP2 GT ISZERO PUSH2 0x364 JUMPI PUSH2 0x363 PUSH2 0x1CCC JUMP JUMPDEST JUMPDEST PUSH1 0x5 PUSH0 SWAP1 SLOAD SWAP1 PUSH2 0x100 EXP SWAP1 DIV PUSH1 0xFF AND PUSH1 0x1 DUP2 GT ISZERO PUSH2 0x385 JUMPI PUSH2 0x384 PUSH2 0x1CCC JUMP JUMPDEST JUMPDEST EQ PUSH2 0x3C5 JUMPI PUSH1 0x40 MLOAD PUSH32 0x8C379A000000000000000000000000000000000000000000000000000000000 DUP2 MSTORE PUSH1 0x4 ADD PUSH2 0x3BC SWAP1 PUSH2 0x1FB5 JUMP JUMPDEST PUSH1 0x40 MLOAD DUP1 SWAP2 SUB SWAP1 REVERT JUMPDEST PUSH1 0x1 ISZERO ISZERO PUSH1 0xB PUSH0 CALLER PUSH20 0xFFFFFFFFFFFFFFFFFFFFFFFFFFFFFFFFFFFFFFFF AND PUSH20 0xFFFFFFFFFFFFFFFFFFFFFFFFFFFFFFFFFFFFFFFF AND DUP2 MSTORE PUSH1 0x20 ADD SWAP1 DUP2 MSTORE PUSH1 0x20 ADD PUSH0 KECCAK256 PUSH0 SWAP1 SLOAD SWAP1 PUSH2 0x100 EXP SWAP1 DIV PUSH1 0xFF AND ISZERO ISZERO EQ PUSH2 0x455 JUMPI PUSH1 0x40 MLOAD PUSH32 0x8C379A000000000000000000000000000000000000000000000000000000000 DUP2 MSTORE PUSH1 0x4 ADD PUSH2 0x44C SWAP1 PUSH2 0x201D JUMP JUMPDEST PUSH1 0x40 MLOAD DUP1 SWAP2 SUB SWAP1 REVERT JUMPDEST PUSH0 PUSH0 PUSH2 0x460 CALLER PUSH2 0x170A JUMP JUMPDEST DUP1 SWAP3 POP DUP2 SWAP4 POP POP POP PUSH0 ISZERO ISZERO DUP3 ISZERO ISZERO SUB PUSH2 0x4AE JUMPI PUSH1 0x40 MLOAD PUSH32 0x8C379A000000000000000000000000000000000000000000000000000000000 DUP2 MSTORE PUSH1 0x4 ADD PUSH2 0x4A5 SWAP1 PUSH2 0x2085 JUMP JUMPDEST PUSH1 0x40 MLOAD DUP1 SWAP2 SUB SWAP1 REVERT JUMPDEST DUP1 PUSH1 0x6 PUSH0 CALLER PUSH20 0xFFFFFFFFFFFFFFFFFFFFFFFFFFFFFFFFFFFFFFFF AND PUSH20 0xFFFFFFFFFFFFFFFFFFFFFFFFFFFFFFFFFFFFFFFF AND DUP2 MSTORE PUSH1 0x20 ADD SWAP1 DUP2 MSTORE PUSH1 0x20 ADD PUSH0 KECCAK256 PUSH1 0x2 ADD PUSH0 DUP3 DUP3 SLOAD PUSH2 0x4FD SWAP2 SWAP1 PUSH2 0x20A3 JUMP JUMPDEST SWAP3 POP POP DUP2 SWAP1 SSTORE POP PUSH2 0x50C PUSH2 0x1AE4 JUMP JUMPDEST CALLER DUP2 PUSH0 ADD SWAP1 PUSH20 0xFFFFFFFFFFFFFFFFFFFFFFFFFFFFFFFFFFFFFFFF AND SWAP1 DUP2 PUSH20 0xFFFFFFFFFFFFFFFFFFFFFFFFFFFFFFFFFFFFFFFF AND DUP2 MSTORE POP POP PUSH0 DUP2 PUSH1 0x20 ADD DUP2 DUP2 MSTORE POP POP PUSH1 0x7 DUP2 SWAP1 DUP1 PUSH1 0x1 DUP2 SLOAD ADD DUP1 DUP3 SSTORE DUP1 SWAP2 POP POP PUSH1 0x1 SWAP1 SUB SWAP1 PUSH0 MSTORE PUSH1 0x20 PUSH0 KECCAK256 SWAP1 PUSH1 0x2 MUL ADD PUSH0 SWAP1 SWAP2 SWAP1 SWAP2 SWAP1 SWAP2 POP PUSH0 DUP3 ADD MLOAD DUP2 PUSH0 ADD PUSH0 PUSH2 0x100 EXP DUP2 SLOAD DUP2 PUSH20 0xFFFFFFFFFFFFFFFFFFFFFFFFFFFFFFFFFFFFFFFF MUL NOT AND SWAP1 DUP4 PUSH20 0xFFFFFFFFFFFFFFFFFFFFFFFFFFFFFFFFFFFFFFFF AND MUL OR SWAP1 SSTORE POP PUSH1 0x20 DUP3 ADD MLOAD DUP2 PUSH1 0x1 ADD SSTORE POP POP CALLER PUSH20 0xFFFFFFFFFFFFFFFFFFFFFFFFFFFFFFFFFFFFFFFF AND PUSH32 0x5BF4FFBBA2C193E74D733F69408011D333232E84B98A68ECB638621DAB65FFF5 DUP4 PUSH1 0x40 MLOAD PUSH2 0x60C SWAP2 SWAP1 PUSH2 0x1B2A JUMP JUMPDEST PUSH1 0x40 MLOAD DUP1 SWAP2 SUB SWAP1 LOG2 POP POP POP JUMP JUMPDEST PUSH1 0x4 SLOAD DUP2 JUMP JUMPDEST CALLER PUSH20 0xFFFFFFFFFFFFFFFFFFFFFFFFFFFFFFFFFFFFFFFF AND PUSH0 PUSH0 SWAP1 SLOAD SWAP1 PUSH2 0x100 EXP SWAP1 DIV PUSH20 0xFFFFFFFFFFFFFFFFFFFFFFFFFFFFFFFFFFFFFFFF AND PUSH20 0xFFFFFFFFFFFFFFFFFFFFFFFFFFFFFFFFFFFFFFFF AND EQ PUSH2 0x6AD JUMPI PUSH1 0x40 MLOAD PUSH32 0x8C379A000000000000000000000000000000000000000000000000000000000 DUP2 MSTORE PUSH1 0x4 ADD PUSH2 0x6A4 SWAP1 PUSH2 0x2120 JUMP JUMPDEST PUSH1 0x40 MLOAD DUP1 SWAP2 SUB SWAP1 REVERT JUMPDEST PUSH1 0x1 DUP1 DUP2 GT ISZERO PUSH2 0x6C0 JUMPI PUSH2 0x6BF PUSH2 0x1CCC JUMP JUMPDEST JUMPDEST PUSH1 0x5 PUSH0 SWAP1 SLOAD SWAP1 PUSH2 0x100 EXP SWAP1 DIV PUSH1 0xFF AND PUSH1 0x1 DUP2 GT ISZERO PUSH2 0x6E1 JUMPI PUSH2 0x6E0 PUSH2 0x1CCC JUMP JUMPDEST JUMPDEST EQ PUSH2 0x721 JUMPI PUSH1 0x40 MLOAD PUSH32 0x8C379A000000000000000000000000000000000000000000000000000000000 DUP2 MSTORE PUSH1 0x4 ADD PUSH2 0x718 SWAP1 PUSH2 0x2188 JUMP JUMPDEST PUSH1 0x40 MLOAD DUP1 SWAP2 SUB SWAP1 REVERT JUMPDEST PUSH0 PUSH0 PUSH0 SWAP1 SLOAD SWAP1 PUSH2 0x100 EXP SWAP1 DIV PUSH20 0xFFFFFFFFFFFFFFFFFFFFFFFFFFFFFFFFFFFFFFFF AND PUSH20 0xFFFFFFFFFFFFFFFFFFFFFFFFFFFFFFFFFFFFFFFF AND PUSH2 0x8FC SELFBALANCE PUSH1 0x40 MLOAD PUSH2 0x769 SWAP1 PUSH2 0x21D3 JUMP JUMPDEST PUSH0 PUSH1 0x40 MLOAD DUP1 DUP4 SUB DUP2 DUP6 DUP9 DUP9 CALL SWAP4 POP POP POP POP RETURNDATASIZE DUP1 PUSH0 DUP2 EQ PUSH2 0x7A4 JUMPI PUSH1 0x40 MLOAD SWAP2 POP PUSH1 0x1F NOT PUSH1 0x3F RETURNDATASIZE ADD AND DUP3 ADD PUSH1 0x40 MSTORE RETURNDATASIZE DUP3 MSTORE RETURNDATASIZE PUSH0 PUSH1 0x20 DUP5 ADD RETURNDATACOPY PUSH2 0x7A9 JUMP JUMPDEST PUSH1 0x60 SWAP2 POP JUMPDEST POP POP SWAP1 POP PUSH0 ISZERO ISZERO DUP2 ISZERO ISZERO SUB PUSH2 0x7F3 JUMPI PUSH1 0x40 MLOAD PUSH32 0x8C379A000000000000000000000000000000000000000000000000000000000 DUP2 MSTORE PUSH1 0x4 ADD PUSH2 0x7EA SWAP1 PUSH2 0x2085 JUMP JUMPDEST PUSH1 0x40 MLOAD DUP1 SWAP2 SUB SWAP1 REVERT JUMPDEST POP JUMP JUMPDEST PUSH1 0x60 PUSH1 0x7 DUP1 SLOAD DUP1 PUSH1 0x20 MUL PUSH1 0x20 ADD PUSH1 0x40 MLOAD SWAP1 DUP2 ADD PUSH1 0x40 MSTORE DUP1 SWAP3 SWAP2 SWAP1 DUP2 DUP2 MSTORE PUSH1 0x20 ADD PUSH0 SWAP1 JUMPDEST DUP3 DUP3 LT ISZERO PUSH2 0x8A7 JUMPI DUP4 DUP3 SWAP1 PUSH0 MSTORE PUSH1 0x20 PUSH0 KECCAK256 SWAP1 PUSH1 0x2 MUL ADD PUSH1 0x40 MLOAD DUP1 PUSH1 0x40 ADD PUSH1 0x40 MSTORE SWAP1 DUP2 PUSH0 DUP3 ADD PUSH0 SWAP1 SLOAD SWAP1 PUSH2 0x100 EXP SWAP1 DIV PUSH20 0xFFFFFFFFFFFFFFFFFFFFFFFFFFFFFFFFFFFFFFFF AND PUSH20 0xFFFFFFFFFFFFFFFFFFFFFFFFFFFFFFFFFFFFFFFF AND PUSH20 0xFFFFFFFFFFFFFFFFFFFFFFFFFFFFFFFFFFFFFFFF AND DUP2 MSTORE PUSH1 0x20 ADD PUSH1 0x1 DUP3 ADD SLOAD DUP2 MSTORE POP POP DUP2 MSTORE PUSH1 0x20 ADD SWAP1 PUSH1 0x1 ADD SWAP1 PUSH2 0x819 JUMP JUMPDEST POP POP POP POP SWAP1 POP SWAP1 JUMP JUMPDEST CALLER PUSH20 0xFFFFFFFFFFFFFFFFFFFFFFFFFFFFFFFFFFFFFFFF AND PUSH0 PUSH0 SWAP1 SLOAD SWAP1 PUSH2 0x100 EXP SWAP1 DIV PUSH20 0xFFFFFFFFFFFFFFFFFFFFFFFFFFFFFFFFFFFFFFFF AND PUSH20 0xFFFFFFFFFFFFFFFFFFFFFFFFFFFFFFFFFFFFFFFF AND EQ PUSH2 0x93E JUMPI PUSH1 0x40 MLOAD PUSH32 0x8C379A000000000000000000000000000000000000000000000000000000000 DUP2 MSTORE PUSH1 0x4 ADD PUSH2 0x935 SWAP1 PUSH2 0x2120 JUMP JUMPDEST PUSH1 0x40 MLOAD DUP1 SWAP2 SUB SWAP1 REVERT JUMPDEST PUSH1 0x1 DUP1 DUP2 GT ISZERO PUSH2 0x951 JUMPI PUSH2 0x950 PUSH2 0x1CCC JUMP JUMPDEST JUMPDEST PUSH1 0x5 PUSH0 SWAP1 SLOAD SWAP1 PUSH2 0x100 EXP SWAP1 DIV PUSH1 0xFF AND PUSH1 0x1 DUP2 GT ISZERO PUSH2 0x972 JUMPI PUSH2 0x971 PUSH2 0x1CCC JUMP JUMPDEST JUMPDEST EQ PUSH2 0x9B2 JUMPI PUSH1 0x40 MLOAD PUSH32 0x8C379A000000000000000000000000000000000000000000000000000000000 DUP2 MSTORE PUSH1 0x4 ADD PUSH2 0x9A9 SWAP1 PUSH2 0x2188 JUMP JUMPDEST PUSH1 0x40 MLOAD DUP1 SWAP2 SUB SWAP1 REVERT JUMPDEST PUSH0 PUSH0 PUSH0 PUSH1 0xA DUP1 SLOAD SWAP1 POP SWAP1 POP PUSH2 0x9C5 PUSH2 0x1AE4 JUMP JUMPDEST PUSH0 PUSH0 SWAP1 POP JUMPDEST DUP3 DUP2 LT ISZERO PUSH2 0xF48 JUMPI PUSH1 0x8 PUSH0 ADD PUSH0 SWAP1 SLOAD SWAP1 PUSH2 0x100 EXP SWAP1 DIV PUSH20 0xFFFFFFFFFFFFFFFFFFFFFFFFFFFFFFFFFFFFFFFF AND PUSH20 0xFFFFFFFFFFFFFFFFFFFFFFFFFFFFFFFFFFFFFFFF AND PUSH1 0xA DUP3 DUP2 SLOAD DUP2 LT PUSH2 0xA20 JUMPI PUSH2 0xA1F PUSH2 0x21E7 JUMP JUMPDEST JUMPDEST SWAP1 PUSH0 MSTORE PUSH1 0x20 PUSH0 KECCAK256 ADD PUSH0 SWAP1 SLOAD SWAP1 PUSH2 0x100 EXP SWAP1 DIV PUSH20 0xFFFFFFFFFFFFFFFFFFFFFFFFFFFFFFFFFFFFFFFF AND PUSH20 0xFFFFFFFFFFFFFFFFFFFFFFFFFFFFFFFFFFFFFFFF AND EQ PUSH2 0xCD1 JUMPI PUSH2 0xAA7 PUSH1 0xA DUP3 DUP2 SLOAD DUP2 LT PUSH2 0xA7A JUMPI PUSH2 0xA79 PUSH2 0x21E7 JUMP JUMPDEST JUMPDEST SWAP1 PUSH0 MSTORE PUSH1 0x20 PUSH0 KECCAK256 ADD PUSH0 SWAP1 SLOAD SWAP1 PUSH2 0x100 EXP SWAP1 DIV PUSH20 0xFFFFFFFFFFFFFFFFFFFFFFFFFFFFFFFFFFFFFFFF AND PUSH2 0x18E2 JUMP JUMPDEST DUP1 SWAP6 POP DUP2 SWAP7 POP POP POP PUSH0 ISZERO ISZERO DUP6 ISZERO ISZERO SUB PUSH2 0xAF5 JUMPI PUSH1 0x40 MLOAD PUSH32 0x8C379A000000000000000000000000000000000000000000000000000000000 DUP2 MSTORE PUSH1 0x4 ADD PUSH2 0xAEC SWAP1 PUSH2 0x2085 JUMP JUMPDEST PUSH1 0x40 MLOAD DUP1 SWAP2 SUB SWAP1 REVERT JUMPDEST DUP4 PUSH1 0x6 PUSH0 PUSH1 0xA DUP5 DUP2 SLOAD DUP2 LT PUSH2 0xB0D JUMPI PUSH2 0xB0C PUSH2 0x21E7 JUMP JUMPDEST JUMPDEST SWAP1 PUSH0 MSTORE PUSH1 0x20 PUSH0 KECCAK256 ADD PUSH0 SWAP1 SLOAD SWAP1 PUSH2 0x100 EXP SWAP1 DIV PUSH20 0xFFFFFFFFFFFFFFFFFFFFFFFFFFFFFFFFFFFFFFFF AND PUSH20 0xFFFFFFFFFFFFFFFFFFFFFFFFFFFFFFFFFFFFFFFF AND PUSH20 0xFFFFFFFFFFFFFFFFFFFFFFFFFFFFFFFFFFFFFFFF AND DUP2 MSTORE PUSH1 0x20 ADD SWAP1 DUP2 MSTORE PUSH1 0x20 ADD PUSH0 KECCAK256 PUSH1 0x2 ADD PUSH0 DUP3 DUP3 SLOAD PUSH2 0xB7F SWAP2 SWAP1 PUSH2 0x20A3 JUMP JUMPDEST SWAP3 POP POP DUP2 SWAP1 SSTORE POP PUSH1 0xA DUP2 DUP2 SLOAD DUP2 LT PUSH2 0xB9A JUMPI PUSH2 0xB99 PUSH2 0x21E7 JUMP JUMPDEST JUMPDEST SWAP1 PUSH0 MSTORE PUSH1 0x20 PUSH0 KECCAK256 ADD PUSH0 SWAP1 SLOAD SWAP1 PUSH2 0x100 EXP SWAP1 DIV PUSH20 0xFFFFFFFFFFFFFFFFFFFFFFFFFFFFFFFFFFFFFFFF AND DUP3 PUSH0 ADD SWAP1 PUSH20 0xFFFFFFFFFFFFFFFFFFFFFFFFFFFFFFFFFFFFFFFF AND SWAP1 DUP2 PUSH20 0xFFFFFFFFFFFFFFFFFFFFFFFFFFFFFFFFFFFFFFFF AND DUP2 MSTORE POP POP PUSH0 DUP3 PUSH1 0x20 ADD DUP2 DUP2 MSTORE POP POP PUSH1 0x7 DUP3 SWAP1 DUP1 PUSH1 0x1 DUP2 SLOAD ADD DUP1 DUP3 SSTORE DUP1 SWAP2 POP POP PUSH1 0x1 SWAP1 SUB SWAP1 PUSH0 MSTORE PUSH1 0x20 PUSH0 KECCAK256 SWAP1 PUSH1 0x2 MUL ADD PUSH0 SWAP1 SWAP2 SWAP1 SWAP2 SWAP1 SWAP2 POP PUSH0 DUP3 ADD MLOAD DUP2 PUSH0 ADD PUSH0 PUSH2 0x100 EXP DUP2 SLOAD DUP2 PUSH20 0xFFFFFFFFFFFFFFFFFFFFFFFFFFFFFFFFFFFFFFFF MUL NOT AND SWAP1 DUP4 PUSH20 0xFFFFFFFFFFFFFFFFFFFFFFFFFFFFFFFFFFFFFFFF AND MUL OR SWAP1 SSTORE POP PUSH1 0x20 DUP3 ADD MLOAD DUP2 PUSH1 0x1 ADD SSTORE POP POP DUP2 PUSH0 ADD MLOAD PUSH20 0xFFFFFFFFFFFFFFFFFFFFFFFFFFFFFFFFFFFFFFFF AND PUSH32 0x34DBA9A7FAF77866D1D036EB7444D95A805BCFE05B6E34819E7D44793D3922D1 DUP6 PUSH1 0x40 MLOAD PUSH2 0xCC4 SWAP2 SWAP1 PUSH2 0x1B2A JUMP JUMPDEST PUSH1 0x40 MLOAD DUP1 SWAP2 SUB SWAP1 LOG2 PUSH2 0xF3B JUMP JUMPDEST PUSH2 0xD15 PUSH1 0xA DUP3 DUP2 SLOAD DUP2 LT PUSH2 0xCE8 JUMPI PUSH2 0xCE7 PUSH2 0x21E7 JUMP JUMPDEST JUMPDEST SWAP1 PUSH0 MSTORE PUSH1 0x20 PUSH0 KECCAK256 ADD PUSH0 SWAP1 SLOAD SWAP1 PUSH2 0x100 EXP SWAP1 DIV PUSH20 0xFFFFFFFFFFFFFFFFFFFFFFFFFFFFFFFFFFFFFFFF AND PUSH2 0x19DB JUMP JUMPDEST DUP1 SWAP6 POP DUP2 SWAP7 POP POP POP PUSH0 ISZERO ISZERO DUP6 ISZERO ISZERO SUB PUSH2 0xD63 JUMPI PUSH1 0x40 MLOAD PUSH32 0x8C379A000000000000000000000000000000000000000000000000000000000 DUP2 MSTORE PUSH1 0x4 ADD PUSH2 0xD5A SWAP1 PUSH2 0x2085 JUMP JUMPDEST PUSH1 0x40 MLOAD DUP1 SWAP2 SUB SWAP1 REVERT JUMPDEST DUP4 PUSH1 0x6 PUSH0 PUSH1 0xA DUP5 DUP2 SLOAD DUP2 LT PUSH2 0xD7B JUMPI PUSH2 0xD7A PUSH2 0x21E7 JUMP JUMPDEST JUMPDEST SWAP1 PUSH0 MSTORE PUSH1 0x20 PUSH0 KECCAK256 ADD PUSH0 SWAP1 SLOAD SWAP1 PUSH2 0x100 EXP SWAP1 DIV PUSH20 0xFFFFFFFFFFFFFFFFFFFFFFFFFFFFFFFFFFFFFFFF AND PUSH20 0xFFFFFFFFFFFFFFFFFFFFFFFFFFFFFFFFFFFFFFFF AND PUSH20 0xFFFFFFFFFFFFFFFFFFFFFFFFFFFFFFFFFFFFFFFF AND DUP2 MSTORE PUSH1 0x20 ADD SWAP1 DUP2 MSTORE PUSH1 0x20 ADD PUSH0 KECCAK256 PUSH1 0x2 ADD PUSH0 DUP3 DUP3 SLOAD PUSH2 0xDED SWAP2 SWAP1 PUSH2 0x20A3 JUMP JUMPDEST SWAP3 POP POP DUP2 SWAP1 SSTORE POP PUSH1 0xA DUP2 DUP2 SLOAD DUP2 LT PUSH2 0xE08 JUMPI PUSH2 0xE07 PUSH2 0x21E7 JUMP JUMPDEST JUMPDEST SWAP1 PUSH0 MSTORE PUSH1 0x20 PUSH0 KECCAK256 ADD PUSH0 SWAP1 SLOAD SWAP1 PUSH2 0x100 EXP SWAP1 DIV PUSH20 0xFFFFFFFFFFFFFFFFFFFFFFFFFFFFFFFFFFFFFFFF AND DUP3 PUSH0 ADD SWAP1 PUSH20 0xFFFFFFFFFFFFFFFFFFFFFFFFFFFFFFFFFFFFFFFF AND SWAP1 DUP2 PUSH20 0xFFFFFFFFFFFFFFFFFFFFFFFFFFFFFFFFFFFFFFFF AND DUP2 MSTORE POP POP PUSH0 DUP3 PUSH1 0x20 ADD DUP2 DUP2 MSTORE POP POP PUSH1 0x7 DUP3 SWAP1 DUP1 PUSH1 0x1 DUP2 SLOAD ADD DUP1 DUP3 SSTORE DUP1 SWAP2 POP POP PUSH1 0x1 SWAP1 SUB SWAP1 PUSH0 MSTORE PUSH1 0x20 PUSH0 KECCAK256 SWAP1 PUSH1 0x2 MUL ADD PUSH0 SWAP1 SWAP2 SWAP1 SWAP2 SWAP1 SWAP2 POP PUSH0 DUP3 ADD MLOAD DUP2 PUSH0 ADD PUSH0 PUSH2 0x100 EXP DUP2 SLOAD DUP2 PUSH20 0xFFFFFFFFFFFFFFFFFFFFFFFFFFFFFFFFFFFFFFFF MUL NOT AND SWAP1 DUP4 PUSH20 0xFFFFFFFFFFFFFFFFFFFFFFFFFFFFFFFFFFFFFFFF AND MUL OR SWAP1 SSTORE POP PUSH1 0x20 DUP3 ADD MLOAD DUP2 PUSH1 0x1 ADD SSTORE POP POP DUP2 PUSH0 ADD MLOAD PUSH20 0xFFFFFFFFFFFFFFFFFFFFFFFFFFFFFFFFFFFFFFFF AND PUSH32 0x34DBA9A7FAF77866D1D036EB7444D95A805BCFE05B6E34819E7D44793D3922D1 DUP6 PUSH1 0x40 MLOAD PUSH2 0xF32 SWAP2 SWAP1 PUSH2 0x1B2A JUMP JUMPDEST PUSH1 0x40 MLOAD DUP1 SWAP2 SUB SWAP1 LOG2 JUMPDEST DUP1 DUP1 PUSH1 0x1 ADD SWAP2 POP POP PUSH2 0x9CA JUMP JUMPDEST POP POP POP POP POP JUMP JUMPDEST PUSH2 0xF57 PUSH2 0x1AE4 JUMP JUMPDEST PUSH1 0x8 PUSH1 0x40 MLOAD DUP1 PUSH1 0x40 ADD PUSH1 0x40 MSTORE SWAP1 DUP2 PUSH0 DUP3 ADD PUSH0 SWAP1 SLOAD SWAP1 PUSH2 0x100 EXP SWAP1 DIV PUSH20 0xFFFFFFFFFFFFFFFFFFFFFFFFFFFFFFFFFFFFFFFF AND PUSH20 0xFFFFFFFFFFFFFFFFFFFFFFFFFFFFFFFFFFFFFFFF AND PUSH20 0xFFFFFFFFFFFFFFFFFFFFFFFFFFFFFFFFFFFFFFFF AND DUP2 MSTORE PUSH1 0x20 ADD PUSH1 0x1 DUP3 ADD SLOAD DUP2 MSTORE POP POP SWAP1 POP SWAP1 JUMP JUMPDEST PUSH1 0x5 PUSH0 SWAP1 SLOAD SWAP1 PUSH2 0x100 EXP SWAP1 DIV PUSH1 0xFF AND DUP2 JUMP JUMPDEST CALLER PUSH20 0xFFFFFFFFFFFFFFFFFFFFFFFFFFFFFFFFFFFFFFFF AND PUSH0 PUSH0 SWAP1 SLOAD SWAP1 PUSH2 0x100 EXP SWAP1 DIV PUSH20 0xFFFFFFFFFFFFFFFFFFFFFFFFFFFFFFFFFFFFFFFF AND PUSH20 0xFFFFFFFFFFFFFFFFFFFFFFFFFFFFFFFFFFFFFFFF AND EQ PUSH2 0x1067 JUMPI PUSH1 0x40 MLOAD PUSH32 0x8C379A000000000000000000000000000000000000000000000000000000000 DUP2 MSTORE PUSH1 0x4 ADD PUSH2 0x105E SWAP1 PUSH2 0x2120 JUMP JUMPDEST PUSH1 0x40 MLOAD DUP1 SWAP2 SUB SWAP1 REVERT JUMPDEST PUSH1 0x1 PUSH1 0x5 PUSH0 PUSH2 0x100 EXP DUP2 SLOAD DUP2 PUSH1 0xFF MUL NOT AND SWAP1 DUP4 PUSH1 0x1 DUP2 GT ISZERO PUSH2 0x108C JUMPI PUSH2 0x108B PUSH2 0x1CCC JUMP JUMPDEST JUMPDEST MUL OR SWAP1 SSTORE POP PUSH32 0xDAEC4582D5D9595688C8C98545FDD1C696D41C6AEAEB636737E84ED2F5C00EDA PUSH1 0x8 PUSH0 ADD PUSH0 SWAP1 SLOAD SWAP1 PUSH2 0x100 EXP SWAP1 DIV PUSH20 0xFFFFFFFFFFFFFFFFFFFFFFFFFFFFFFFFFFFFFFFF AND PUSH1 0x8 PUSH1 0x1 ADD SLOAD PUSH1 0x40 MLOAD PUSH2 0x10EA SWAP3 SWAP2 SWAP1 PUSH2 0x2223 JUMP JUMPDEST PUSH1 0x40 MLOAD DUP1 SWAP2 SUB SWAP1 LOG1 PUSH0 SELFBALANCE SWAP1 POP PUSH0 PUSH0 PUSH0 SWAP1 SLOAD SWAP1 PUSH2 0x100 EXP SWAP1 DIV PUSH20 0xFFFFFFFFFFFFFFFFFFFFFFFFFFFFFFFFFFFFFFFF AND PUSH20 0xFFFFFFFFFFFFFFFFFFFFFFFFFFFFFFFFFFFFFFFF AND PUSH2 0x8FC DUP4 PUSH1 0x40 MLOAD PUSH2 0x113E SWAP1 PUSH2 0x21D3 JUMP JUMPDEST PUSH0 PUSH1 0x40 MLOAD DUP1 DUP4 SUB DUP2 DUP6 DUP9 DUP9 CALL SWAP4 POP POP POP POP RETURNDATASIZE DUP1 PUSH0 DUP2 EQ PUSH2 0x1179 JUMPI PUSH1 0x40 MLOAD SWAP2 POP PUSH1 0x1F NOT PUSH1 0x3F RETURNDATASIZE ADD AND DUP3 ADD PUSH1 0x40 MSTORE RETURNDATASIZE DUP3 MSTORE RETURNDATASIZE PUSH0 PUSH1 0x20 DUP5 ADD RETURNDATACOPY PUSH2 0x117E JUMP JUMPDEST PUSH1 0x60 SWAP2 POP JUMPDEST POP POP SWAP1 POP PUSH0 ISZERO ISZERO DUP2 ISZERO ISZERO SUB PUSH2 0x11C8 JUMPI PUSH1 0x40 MLOAD PUSH32 0x8C379A000000000000000000000000000000000000000000000000000000000 DUP2 MSTORE PUSH1 0x4 ADD PUSH2 0x11BF SWAP1 PUSH2 0x2085 JUMP JUMPDEST PUSH1 0x40 MLOAD DUP1 SWAP2 SUB SWAP1 REVERT JUMPDEST PUSH0 PUSH0 SWAP1 SLOAD SWAP1 PUSH2 0x100 EXP SWAP1 DIV PUSH20 0xFFFFFFFFFFFFFFFFFFFFFFFFFFFFFFFFFFFFFFFF AND PUSH20 0xFFFFFFFFFFFFFFFFFFFFFFFFFFFFFFFFFFFFFFFF AND PUSH32 0x8AC557AE144720724C1F4A5DC5227F34695F7F7FE698A8A2210C380D822BDF7F DUP4 PUSH1 0x40 MLOAD PUSH2 0x122E SWAP2 SWAP1 PUSH2 0x1B2A JUMP JUMPDEST PUSH1 0x40 MLOAD DUP1 SWAP2 SUB SWAP1 LOG2 POP POP JUMP JUMPDEST CALLER PUSH20 0xFFFFFFFFFFFFFFFFFFFFFFFFFFFFFFFFFFFFFFFF AND PUSH0 PUSH0 SWAP1 SLOAD SWAP1 PUSH2 0x100 EXP SWAP1 DIV PUSH20 0xFFFFFFFFFFFFFFFFFFFFFFFFFFFFFFFFFFFFFFFF AND PUSH20 0xFFFFFFFFFFFFFFFFFFFFFFFFFFFFFFFFFFFFFFFF AND EQ PUSH2 0x12C8 JUMPI PUSH1 0x40 MLOAD PUSH32 0x8C379A000000000000000000000000000000000000000000000000000000000 DUP2 MSTORE PUSH1 0x4 ADD PUSH2 0x12BF SWAP1 PUSH2 0x2120 JUMP JUMPDEST PUSH1 0x40 MLOAD DUP1 SWAP2 SUB SWAP1 REVERT JUMPDEST PUSH0 PUSH1 0x1 DUP2 GT ISZERO PUSH2 0x12DB JUMPI PUSH2 0x12DA PUSH2 0x1CCC JUMP JUMPDEST JUMPDEST PUSH1 0x5 PUSH0 SWAP1 SLOAD SWAP1 PUSH2 0x100 EXP SWAP1 DIV PUSH1 0xFF AND PUSH1 0x1 DUP2 GT ISZERO PUSH2 0x12FC JUMPI PUSH2 0x12FB PUSH2 0x1CCC JUMP JUMPDEST JUMPDEST EQ PUSH2 0x133C JUMPI PUSH1 0x40 MLOAD PUSH32 0x8C379A000000000000000000000000000000000000000000000000000000000 DUP2 MSTORE PUSH1 0x4 ADD PUSH2 0x1333 SWAP1 PUSH2 0x1FB5 JUMP JUMPDEST PUSH1 0x40 MLOAD DUP1 SWAP2 SUB SWAP1 REVERT JUMPDEST PUSH1 0x4 SLOAD TIMESTAMP GT ISZERO PUSH2 0x13D6 JUMPI PUSH1 0x1 PUSH1 0x5 PUSH0 PUSH2 0x100 EXP DUP2 SLOAD DUP2 PUSH1 0xFF MUL NOT AND SWAP1 DUP4 PUSH1 0x1 DUP2 GT ISZERO PUSH2 0x136B JUMPI PUSH2 0x136A PUSH2 0x1CCC JUMP JUMPDEST JUMPDEST MUL OR SWAP1 SSTORE POP PUSH32 0xDAEC4582D5D9595688C8C98545FDD1C696D41C6AEAEB636737E84ED2F5C00EDA PUSH1 0x8 PUSH0 ADD PUSH0 SWAP1 SLOAD SWAP1 PUSH2 0x100 EXP SWAP1 DIV PUSH20 0xFFFFFFFFFFFFFFFFFFFFFFFFFFFFFFFFFFFFFFFF AND PUSH1 0x8 PUSH1 0x1 ADD SLOAD PUSH1 0x40 MLOAD PUSH2 0x13C9 SWAP3 SWAP2 SWAP1 PUSH2 0x2223 JUMP JUMPDEST PUSH1 0x40 MLOAD DUP1 SWAP2 SUB SWAP1 LOG1 PUSH2 0x1411 JUMP JUMPDEST PUSH1 0x40 MLOAD PUSH32 0x8C379A000000000000000000000000000000000000000000000000000000000 DUP2 MSTORE PUSH1 0x4 ADD PUSH2 0x1408 SWAP1 PUSH2 0x2294 JUMP JUMPDEST PUSH1 0x40 MLOAD DUP1 SWAP2 SUB SWAP1 REVERT JUMPDEST JUMP JUMPDEST DUP2 PUSH1 0x8 PUSH0 ADD PUSH0 PUSH2 0x100 EXP DUP2 SLOAD DUP2 PUSH20 0xFFFFFFFFFFFFFFFFFFFFFFFFFFFFFFFFFFFFFFFF MUL NOT AND SWAP1 DUP4 PUSH20 0xFFFFFFFFFFFFFFFFFFFFFFFFFFFFFFFFFFFFFFFF AND MUL OR SWAP1 SSTORE POP DUP1 PUSH1 0x8 PUSH1 0x1 ADD DUP2 SWAP1 SSTORE POP POP POP JUMP JUMPDEST DUP2 PUSH1 0x6 PUSH0 DUP6 PUSH20 0xFFFFFFFFFFFFFFFFFFFFFFFFFFFFFFFFFFFFFFFF AND PUSH20 0xFFFFFFFFFFFFFFFFFFFFFFFFFFFFFFFFFFFFFFFF AND DUP2 MSTORE PUSH1 0x20 ADD SWAP1 DUP2 MSTORE PUSH1 0x20 ADD PUSH0 KECCAK256 PUSH1 0x1 ADD DUP2 SWAP1 SSTORE POP DUP1 PUSH1 0x6 PUSH0 DUP6 PUSH20 0xFFFFFFFFFFFFFFFFFFFFFFFFFFFFFFFFFFFFFFFF AND PUSH20 0xFFFFFFFFFFFFFFFFFFFFFFFFFFFFFFFFFFFFFFFF AND DUP2 MSTORE PUSH1 0x20 ADD SWAP1 DUP2 MSTORE PUSH1 0x20 ADD PUSH0 KECCAK256 PUSH1 0x2 ADD PUSH0 DUP3 DUP3 SLOAD PUSH2 0x14F7 SWAP2 SWAP1 PUSH2 0x22B2 JUMP JUMPDEST SWAP3 POP POP DUP2 SWAP1 SSTORE POP POP POP POP JUMP JUMPDEST PUSH2 0x150B PUSH2 0x1AE4 JUMP JUMPDEST DUP3 DUP2 PUSH0 ADD SWAP1 PUSH20 0xFFFFFFFFFFFFFFFFFFFFFFFFFFFFFFFFFFFFFFFF AND SWAP1 DUP2 PUSH20 0xFFFFFFFFFFFFFFFFFFFFFFFFFFFFFFFFFFFFFFFF AND DUP2 MSTORE POP POP DUP2 DUP2 PUSH1 0x20 ADD DUP2 DUP2 MSTORE POP POP PUSH1 0x7 DUP2 SWAP1 DUP1 PUSH1 0x1 DUP2 SLOAD ADD DUP1 DUP3 SSTORE DUP1 SWAP2 POP POP PUSH1 0x1 SWAP1 SUB SWAP1 PUSH0 MSTORE PUSH1 0x20 PUSH0 KECCAK256 SWAP1 PUSH1 0x2 MUL ADD PUSH0 SWAP1 SWAP2 SWAP1 SWAP2 SWAP1 SWAP2 POP PUSH0 DUP3 ADD MLOAD DUP2 PUSH0 ADD PUSH0 PUSH2 0x100 EXP DUP2 SLOAD DUP2 PUSH20 0xFFFFFFFFFFFFFFFFFFFFFFFFFFFFFFFFFFFFFFFF MUL NOT AND SWAP1 DUP4 PUSH20 0xFFFFFFFFFFFFFFFFFFFFFFFFFFFFFFFFFFFFFFFF AND MUL OR SWAP1 SSTORE POP PUSH1 0x20 DUP3 ADD MLOAD DUP2 PUSH1 0x1 ADD SSTORE POP POP POP POP POP JUMP JUMPDEST PUSH1 0x3 SLOAD PUSH1 0x4 SLOAD PUSH2 0x15DA SWAP2 SWAP1 PUSH2 0x20A3 JUMP JUMPDEST TIMESTAMP LT PUSH2 0x15FB JUMPI PUSH1 0x3 SLOAD PUSH1 0x4 PUSH0 DUP3 DUP3 SLOAD PUSH2 0x15F3 SWAP2 SWAP1 PUSH2 0x22B2 JUMP JUMPDEST SWAP3 POP POP DUP2 SWAP1 SSTORE POP JUMPDEST JUMP JUMPDEST PUSH0 ISZERO ISZERO PUSH1 0xB PUSH0 DUP4 PUSH20 0xFFFFFFFFFFFFFFFFFFFFFFFFFFFFFFFFFFFFFFFF AND PUSH20 0xFFFFFFFFFFFFFFFFFFFFFFFFFFFFFFFFFFFFFFFF AND DUP2 MSTORE PUSH1 0x20 ADD SWAP1 DUP2 MSTORE PUSH1 0x20 ADD PUSH0 KECCAK256 PUSH0 SWAP1 SLOAD SWAP1 PUSH2 0x100 EXP SWAP1 DIV PUSH1 0xFF AND ISZERO ISZERO SUB PUSH2 0x1707 JUMPI PUSH1 0xA DUP2 SWAP1 DUP1 PUSH1 0x1 DUP2 SLOAD ADD DUP1 DUP3 SSTORE DUP1 SWAP2 POP POP PUSH1 0x1 SWAP1 SUB SWAP1 PUSH0 MSTORE PUSH1 0x20 PUSH0 KECCAK256 ADD PUSH0 SWAP1 SWAP2 SWAP1 SWAP2 SWAP1 SWAP2 PUSH2 0x100 EXP DUP2 SLOAD DUP2 PUSH20 0xFFFFFFFFFFFFFFFFFFFFFFFFFFFFFFFFFFFFFFFF MUL NOT AND SWAP1 DUP4 PUSH20 0xFFFFFFFFFFFFFFFFFFFFFFFFFFFFFFFFFFFFFFFF AND MUL OR SWAP1 SSTORE POP PUSH1 0x1 PUSH1 0xB PUSH0 DUP4 PUSH20 0xFFFFFFFFFFFFFFFFFFFFFFFFFFFFFFFFFFFFFFFF AND PUSH20 0xFFFFFFFFFFFFFFFFFFFFFFFFFFFFFFFFFFFFFFFF AND DUP2 MSTORE PUSH1 0x20 ADD SWAP1 DUP2 MSTORE PUSH1 0x20 ADD PUSH0 KECCAK256 PUSH0 PUSH2 0x100 EXP DUP2 SLOAD DUP2 PUSH1 0xFF MUL NOT AND SWAP1 DUP4 ISZERO ISZERO MUL OR SWAP1 SSTORE POP JUMPDEST POP JUMP JUMPDEST PUSH0 PUSH0 PUSH1 0x6 PUSH0 DUP5 PUSH20 0xFFFFFFFFFFFFFFFFFFFFFFFFFFFFFFFFFFFFFFFF AND PUSH20 0xFFFFFFFFFFFFFFFFFFFFFFFFFFFFFFFFFFFFFFFF AND DUP2 MSTORE PUSH1 0x20 ADD SWAP1 DUP2 MSTORE PUSH1 0x20 ADD PUSH0 KECCAK256 PUSH1 0x1 ADD SLOAD PUSH1 0x6 PUSH0 DUP6 PUSH20 0xFFFFFFFFFFFFFFFFFFFFFFFFFFFFFFFFFFFFFFFF AND PUSH20 0xFFFFFFFFFFFFFFFFFFFFFFFFFFFFFFFFFFFFFFFF AND DUP2 MSTORE PUSH1 0x20 ADD SWAP1 DUP2 MSTORE PUSH1 0x20 ADD PUSH0 KECCAK256 PUSH1 0x2 ADD SLOAD GT ISZERO PUSH2 0x18D5 JUMPI PUSH0 PUSH1 0x6 PUSH0 DUP6 PUSH20 0xFFFFFFFFFFFFFFFFFFFFFFFFFFFFFFFFFFFFFFFF AND PUSH20 0xFFFFFFFFFFFFFFFFFFFFFFFFFFFFFFFFFFFFFFFF AND DUP2 MSTORE PUSH1 0x20 ADD SWAP1 DUP2 MSTORE PUSH1 0x20 ADD PUSH0 KECCAK256 PUSH1 0x1 ADD SLOAD PUSH1 0x6 PUSH0 DUP7 PUSH20 0xFFFFFFFFFFFFFFFFFFFFFFFFFFFFFFFFFFFFFFFF AND PUSH20 0xFFFFFFFFFFFFFFFFFFFFFFFFFFFFFFFFFFFFFFFF AND DUP2 MSTORE PUSH1 0x20 ADD SWAP1 DUP2 MSTORE PUSH1 0x20 ADD PUSH0 KECCAK256 PUSH1 0x2 ADD SLOAD PUSH2 0x1821 SWAP2 SWAP1 PUSH2 0x20A3 JUMP JUMPDEST SWAP1 POP PUSH0 PUSH1 0x64 PUSH1 0x62 DUP4 PUSH2 0x1833 SWAP2 SWAP1 PUSH2 0x1DFD JUMP JUMPDEST PUSH2 0x183D SWAP2 SWAP1 PUSH2 0x1E6B JUMP JUMPDEST SWAP1 POP PUSH0 DUP6 PUSH20 0xFFFFFFFFFFFFFFFFFFFFFFFFFFFFFFFFFFFFFFFF AND PUSH2 0x8FC DUP4 PUSH1 0x40 MLOAD PUSH2 0x1867 SWAP1 PUSH2 0x21D3 JUMP JUMPDEST PUSH0 PUSH1 0x40 MLOAD DUP1 DUP4 SUB DUP2 DUP6 DUP9 DUP9 CALL SWAP4 POP POP POP POP RETURNDATASIZE DUP1 PUSH0 DUP2 EQ PUSH2 0x18A2 JUMPI PUSH1 0x40 MLOAD SWAP2 POP PUSH1 0x1F NOT PUSH1 0x3F RETURNDATASIZE ADD AND DUP3 ADD PUSH1 0x40 MSTORE RETURNDATASIZE DUP3 MSTORE RETURNDATASIZE PUSH0 PUSH1 0x20 DUP5 ADD RETURNDATACOPY PUSH2 0x18A7 JUMP JUMPDEST PUSH1 0x60 SWAP2 POP JUMPDEST POP POP SWAP1 POP PUSH0 ISZERO ISZERO DUP2 ISZERO ISZERO SUB PUSH2 0x18C7 JUMPI PUSH0 SWAP3 POP DUP1 DUP4 SWAP5 POP SWAP5 POP POP POP POP PUSH2 0x18DD JUMP JUMPDEST DUP1 DUP4 SWAP5 POP SWAP5 POP POP POP POP PUSH2 0x18DD JUMP JUMPDEST PUSH1 0x1 PUSH0 SWAP2 POP SWAP2 POP JUMPDEST SWAP2 POP SWAP2 JUMP JUMPDEST PUSH0 PUSH0 PUSH0 PUSH1 0x6 PUSH0 DUP6 PUSH20 0xFFFFFFFFFFFFFFFFFFFFFFFFFFFFFFFFFFFFFFFF AND PUSH20 0xFFFFFFFFFFFFFFFFFFFFFFFFFFFFFFFFFFFFFFFF AND DUP2 MSTORE PUSH1 0x20 ADD SWAP1 DUP2 MSTORE PUSH1 0x20 ADD PUSH0 KECCAK256 PUSH1 0x2 ADD SLOAD SWAP1 POP PUSH0 PUSH1 0x64 PUSH1 0x62 DUP4 PUSH2 0x1938 SWAP2 SWAP1 PUSH2 0x1DFD JUMP JUMPDEST PUSH2 0x1942 SWAP2 SWAP1 PUSH2 0x1E6B JUMP JUMPDEST SWAP1 POP PUSH0 DUP6 PUSH20 0xFFFFFFFFFFFFFFFFFFFFFFFFFFFFFFFFFFFFFFFF AND PUSH2 0x8FC DUP4 PUSH1 0x40 MLOAD PUSH2 0x196C SWAP1 PUSH2 0x21D3 JUMP JUMPDEST PUSH0 PUSH1 0x40 MLOAD DUP1 DUP4 SUB DUP2 DUP6 DUP9 DUP9 CALL SWAP4 POP POP POP POP RETURNDATASIZE DUP1 PUSH0 DUP2 EQ PUSH2 0x19A7 JUMPI PUSH1 0x40 MLOAD SWAP2 POP PUSH1 0x1F NOT PUSH1 0x3F RETURNDATASIZE ADD AND DUP3 ADD PUSH1 0x40 MSTORE RETURNDATASIZE DUP3 MSTORE RETURNDATASIZE PUSH0 PUSH1 0x20 DUP5 ADD RETURNDATACOPY PUSH2 0x19AC JUMP JUMPDEST PUSH1 0x60 SWAP2 POP JUMPDEST POP POP SWAP1 POP PUSH0 ISZERO ISZERO DUP2 ISZERO ISZERO SUB PUSH2 0x19CC JUMPI PUSH0 SWAP3 POP DUP1 DUP4 SWAP5 POP SWAP5 POP POP POP POP PUSH2 0x19D6 JUMP JUMPDEST DUP1 DUP4 SWAP5 POP SWAP5 POP POP POP POP JUMPDEST SWAP2 POP SWAP2 JUMP JUMPDEST PUSH0 PUSH0 PUSH0 PUSH1 0x8 PUSH1 0x1 ADD SLOAD PUSH1 0x6 PUSH0 DUP7 PUSH20 0xFFFFFFFFFFFFFFFFFFFFFFFFFFFFFFFFFFFFFFFF AND PUSH20 0xFFFFFFFFFFFFFFFFFFFFFFFFFFFFFFFFFFFFFFFF AND DUP2 MSTORE PUSH1 0x20 ADD SWAP1 DUP2 MSTORE PUSH1 0x20 ADD PUSH0 KECCAK256 PUSH1 0x2 ADD SLOAD PUSH2 0x1A2F SWAP2 SWAP1 PUSH2 0x20A3 JUMP JUMPDEST SWAP1 POP PUSH0 PUSH1 0x64 PUSH1 0x62 DUP4 PUSH2 0x1A41 SWAP2 SWAP1 PUSH2 0x1DFD JUMP JUMPDEST PUSH2 0x1A4B SWAP2 SWAP1 PUSH2 0x1E6B JUMP JUMPDEST SWAP1 POP PUSH0 DUP6 PUSH20 0xFFFFFFFFFFFFFFFFFFFFFFFFFFFFFFFFFFFFFFFF AND PUSH2 0x8FC DUP4 PUSH1 0x40 MLOAD PUSH2 0x1A75 SWAP1 PUSH2 0x21D3 JUMP JUMPDEST PUSH0 PUSH1 0x40 MLOAD DUP1 DUP4 SUB DUP2 DUP6 DUP9 DUP9 CALL SWAP4 POP POP POP POP RETURNDATASIZE DUP1 PUSH0 DUP2 EQ PUSH2 0x1AB0 JUMPI PUSH1 0x40 MLOAD SWAP2 POP PUSH1 0x1F NOT PUSH1 0x3F RETURNDATASIZE ADD AND DUP3 ADD PUSH1 0x40 MSTORE RETURNDATASIZE DUP3 MSTORE RETURNDATASIZE PUSH0 PUSH1 0x20 DUP5 ADD RETURNDATACOPY PUSH2 0x1AB5 JUMP JUMPDEST PUSH1 0x60 SWAP2 POP JUMPDEST POP POP SWAP1 POP PUSH0 ISZERO ISZERO DUP2 ISZERO ISZERO SUB PUSH2 0x1AD5 JUMPI PUSH0 SWAP3 POP DUP1 DUP4 SWAP5 POP SWAP5 POP POP POP POP PUSH2 0x1ADF JUMP JUMPDEST DUP1 DUP4 SWAP5 POP SWAP5 POP POP POP POP JUMPDEST SWAP2 POP SWAP2 JUMP JUMPDEST PUSH1 0x40 MLOAD DUP1 PUSH1 0x40 ADD PUSH1 0x40 MSTORE DUP1 PUSH0 PUSH20 0xFFFFFFFFFFFFFFFFFFFFFFFFFFFFFFFFFFFFFFFF AND DUP2 MSTORE PUSH1 0x20 ADD PUSH0 DUP2 MSTORE POP SWAP1 JUMP JUMPDEST PUSH0 DUP2 SWAP1 POP SWAP2 SWAP1 POP JUMP JUMPDEST PUSH2 0x1B24 DUP2 PUSH2 0x1B12 JUMP JUMPDEST DUP3 MSTORE POP POP JUMP JUMPDEST PUSH0 PUSH1 0x20 DUP3 ADD SWAP1 POP PUSH2 0x1B3D PUSH0 DUP4 ADD DUP5 PUSH2 0x1B1B JUMP JUMPDEST SWAP3 SWAP2 POP POP JUMP JUMPDEST PUSH0 DUP2 MLOAD SWAP1 POP SWAP2 SWAP1 POP JUMP JUMPDEST PUSH0 DUP3 DUP3 MSTORE PUSH1 0x20 DUP3 ADD SWAP1 POP SWAP3 SWAP2 POP POP JUMP JUMPDEST PUSH0 DUP2 SWAP1 POP PUSH1 0x20 DUP3 ADD SWAP1 POP SWAP2 SWAP1 POP JUMP JUMPDEST PUSH0 PUSH20 0xFFFFFFFFFFFFFFFFFFFFFFFFFFFFFFFFFFFFFFFF DUP3 AND SWAP1 POP SWAP2 SWAP1 POP JUMP JUMPDEST PUSH0 PUSH2 0x1B95 DUP3 PUSH2 0x1B6C JUMP JUMPDEST SWAP1 POP SWAP2 SWAP1 POP JUMP JUMPDEST PUSH2 0x1BA5 DUP2 PUSH2 0x1B8B JUMP JUMPDEST DUP3 MSTORE POP POP JUMP JUMPDEST PUSH2 0x1BB4 DUP2 PUSH2 0x1B12 JUMP JUMPDEST DUP3 MSTORE POP POP JUMP JUMPDEST PUSH1 0x40 DUP3 ADD PUSH0 DUP3 ADD MLOAD PUSH2 0x1BCE PUSH0 DUP6 ADD DUP3 PUSH2 0x1B9C JUMP JUMPDEST POP PUSH1 0x20 DUP3 ADD MLOAD PUSH2 0x1BE1 PUSH1 0x20 DUP6 ADD DUP3 PUSH2 0x1BAB JUMP JUMPDEST POP POP POP POP JUMP JUMPDEST PUSH0 PUSH2 0x1BF2 DUP4 DUP4 PUSH2 0x1BBA JUMP JUMPDEST PUSH1 0x40 DUP4 ADD SWAP1 POP SWAP3 SWAP2 POP POP JUMP JUMPDEST PUSH0 PUSH1 0x20 DUP3 ADD SWAP1 POP SWAP2 SWAP1 POP JUMP JUMPDEST PUSH0 PUSH2 0x1C14 DUP3 PUSH2 0x1B43 JUMP JUMPDEST PUSH2 0x1C1E DUP2 DUP6 PUSH2 0x1B4D JUMP JUMPDEST SWAP4 POP PUSH2 0x1C29 DUP4 PUSH2 0x1B5D JUMP JUMPDEST DUP1 PUSH0 JUMPDEST DUP4 DUP2 LT ISZERO PUSH2 0x1C59 JUMPI DUP2 MLOAD PUSH2 0x1C40 DUP9 DUP3 PUSH2 0x1BE7 JUMP JUMPDEST SWAP8 POP PUSH2 0x1C4B DUP4 PUSH2 0x1BFE JUMP JUMPDEST SWAP3 POP POP PUSH1 0x1 DUP2 ADD SWAP1 POP PUSH2 0x1C2C JUMP JUMPDEST POP DUP6 SWAP4 POP POP POP POP SWAP3 SWAP2 POP POP JUMP JUMPDEST PUSH0 PUSH1 0x20 DUP3 ADD SWAP1 POP DUP2 DUP2 SUB PUSH0 DUP4 ADD MSTORE PUSH2 0x1C7E DUP2 DUP5 PUSH2 0x1C0A JUMP JUMPDEST SWAP1 POP SWAP3 SWAP2 POP POP JUMP JUMPDEST PUSH1 0x40 DUP3 ADD PUSH0 DUP3 ADD MLOAD PUSH2 0x1C9A PUSH0 DUP6 ADD DUP3 PUSH2 0x1B9C JUMP JUMPDEST POP PUSH1 0x20 DUP3 ADD MLOAD PUSH2 0x1CAD PUSH1 0x20 DUP6 ADD DUP3 PUSH2 0x1BAB JUMP JUMPDEST POP POP POP POP JUMP JUMPDEST PUSH0 PUSH1 0x40 DUP3 ADD SWAP1 POP PUSH2 0x1CC6 PUSH0 DUP4 ADD DUP5 PUSH2 0x1C86 JUMP JUMPDEST SWAP3 SWAP2 POP POP JUMP JUMPDEST PUSH32 0x4E487B7100000000000000000000000000000000000000000000000000000000 PUSH0 MSTORE PUSH1 0x21 PUSH1 0x4 MSTORE PUSH1 0x24 PUSH0 REVERT JUMPDEST PUSH1 0x2 DUP2 LT PUSH2 0x1D0A JUMPI PUSH2 0x1D09 PUSH2 0x1CCC JUMP JUMPDEST JUMPDEST POP JUMP JUMPDEST PUSH0 DUP2 SWAP1 POP PUSH2 0x1D1A DUP3 PUSH2 0x1CF9 JUMP JUMPDEST SWAP2 SWAP1 POP JUMP JUMPDEST PUSH0 PUSH2 0x1D29 DUP3 PUSH2 0x1D0D JUMP JUMPDEST SWAP1 POP SWAP2 SWAP1 POP JUMP JUMPDEST PUSH2 0x1D39 DUP2 PUSH2 0x1D1F JUMP JUMPDEST DUP3 MSTORE POP POP JUMP JUMPDEST PUSH0 PUSH1 0x20 DUP3 ADD SWAP1 POP PUSH2 0x1D52 PUSH0 DUP4 ADD DUP5 PUSH2 0x1D30 JUMP JUMPDEST SWAP3 SWAP2 POP POP JUMP JUMPDEST PUSH0 DUP3 DUP3 MSTORE PUSH1 0x20 DUP3 ADD SWAP1 POP SWAP3 SWAP2 POP POP JUMP JUMPDEST PUSH32 0x696E76616C6964206F666665722074696D650000000000000000000000000000 PUSH0 DUP3 ADD MSTORE POP JUMP JUMPDEST PUSH0 PUSH2 0x1D9C PUSH1 0x12 DUP4 PUSH2 0x1D58 JUMP JUMPDEST SWAP2 POP PUSH2 0x1DA7 DUP3 PUSH2 0x1D68 JUMP JUMPDEST PUSH1 0x20 DUP3 ADD SWAP1 POP SWAP2 SWAP1 POP JUMP JUMPDEST PUSH0 PUSH1 0x20 DUP3 ADD SWAP1 POP DUP2 DUP2 SUB PUSH0 DUP4 ADD MSTORE PUSH2 0x1DC9 DUP2 PUSH2 0x1D90 JUMP JUMPDEST SWAP1 POP SWAP2 SWAP1 POP JUMP JUMPDEST PUSH32 0x4E487B7100000000000000000000000000000000000000000000000000000000 PUSH0 MSTORE PUSH1 0x11 PUSH1 0x4 MSTORE PUSH1 0x24 PUSH0 REVERT JUMPDEST PUSH0 PUSH2 0x1E07 DUP3 PUSH2 0x1B12 JUMP JUMPDEST SWAP2 POP PUSH2 0x1E12 DUP4 PUSH2 0x1B12 JUMP JUMPDEST SWAP3 POP DUP3 DUP3 MUL PUSH2 0x1E20 DUP2 PUSH2 0x1B12 JUMP JUMPDEST SWAP2 POP DUP3 DUP3 DIV DUP5 EQ DUP4 ISZERO OR PUSH2 0x1E37 JUMPI PUSH2 0x1E36 PUSH2 0x1DD0 JUMP JUMPDEST JUMPDEST POP SWAP3 SWAP2 POP POP JUMP JUMPDEST PUSH32 0x4E487B7100000000000000000000000000000000000000000000000000000000 PUSH0 MSTORE PUSH1 0x12 PUSH1 0x4 MSTORE PUSH1 0x24 PUSH0 REVERT JUMPDEST PUSH0 PUSH2 0x1E75 DUP3 PUSH2 0x1B12 JUMP JUMPDEST SWAP2 POP PUSH2 0x1E80 DUP4 PUSH2 0x1B12 JUMP JUMPDEST SWAP3 POP DUP3 PUSH2 0x1E90 JUMPI PUSH2 0x1E8F PUSH2 0x1E3E JUMP JUMPDEST JUMPDEST DUP3 DUP3 DIV SWAP1 POP SWAP3 SWAP2 POP POP JUMP JUMPDEST PUSH32 0x696E76616C6964206F666665722076616C756500000000000000000000000000 PUSH0 DUP3 ADD MSTORE POP JUMP JUMPDEST PUSH0 PUSH2 0x1ECF PUSH1 0x13 DUP4 PUSH2 0x1D58 JUMP JUMPDEST SWAP2 POP PUSH2 0x1EDA DUP3 PUSH2 0x1E9B JUMP JUMPDEST PUSH1 0x20 DUP3 ADD SWAP1 POP SWAP2 SWAP1 POP JUMP JUMPDEST PUSH0 PUSH1 0x20 DUP3 ADD SWAP1 POP DUP2 DUP2 SUB PUSH0 DUP4 ADD MSTORE PUSH2 0x1EFC DUP2 PUSH2 0x1EC3 JUMP JUMPDEST SWAP1 POP SWAP2 SWAP1 POP JUMP JUMPDEST PUSH32 0x41756374696F6E20456E64656400000000000000000000000000000000000000 PUSH0 DUP3 ADD MSTORE POP JUMP JUMPDEST PUSH0 PUSH2 0x1F37 PUSH1 0xD DUP4 PUSH2 0x1D58 JUMP JUMPDEST SWAP2 POP PUSH2 0x1F42 DUP3 PUSH2 0x1F03 JUMP JUMPDEST PUSH1 0x20 DUP3 ADD SWAP1 POP SWAP2 SWAP1 POP JUMP JUMPDEST PUSH0 PUSH1 0x20 DUP3 ADD SWAP1 POP DUP2 DUP2 SUB PUSH0 DUP4 ADD MSTORE PUSH2 0x1F64 DUP2 PUSH2 0x1F2B JUMP JUMPDEST SWAP1 POP SWAP2 SWAP1 POP JUMP JUMPDEST PUSH32 0x61756374696F6E20616C726561647920656E6465640000000000000000000000 PUSH0 DUP3 ADD MSTORE POP JUMP JUMPDEST PUSH0 PUSH2 0x1F9F PUSH1 0x15 DUP4 PUSH2 0x1D58 JUMP JUMPDEST SWAP2 POP PUSH2 0x1FAA DUP3 PUSH2 0x1F6B JUMP JUMPDEST PUSH1 0x20 DUP3 ADD SWAP1 POP SWAP2 SWAP1 POP JUMP JUMPDEST PUSH0 PUSH1 0x20 DUP3 ADD SWAP1 POP DUP2 DUP2 SUB PUSH0 DUP4 ADD MSTORE PUSH2 0x1FCC DUP2 PUSH2 0x1F93 JUMP JUMPDEST SWAP1 POP SWAP2 SWAP1 POP JUMP JUMPDEST PUSH32 0x6E6F742061206269646465720000000000000000000000000000000000000000 PUSH0 DUP3 ADD MSTORE POP JUMP JUMPDEST PUSH0 PUSH2 0x2007 PUSH1 0xC DUP4 PUSH2 0x1D58 JUMP JUMPDEST SWAP2 POP PUSH2 0x2012 DUP3 PUSH2 0x1FD3 JUMP JUMPDEST PUSH1 0x20 DUP3 ADD SWAP1 POP SWAP2 SWAP1 POP JUMP JUMPDEST PUSH0 PUSH1 0x20 DUP3 ADD SWAP1 POP DUP2 DUP2 SUB PUSH0 DUP4 ADD MSTORE PUSH2 0x2034 DUP2 PUSH2 0x1FFB JUMP JUMPDEST SWAP1 POP SWAP2 SWAP1 POP JUMP JUMPDEST PUSH32 0x7472616E73616374696F6E206661696C00000000000000000000000000000000 PUSH0 DUP3 ADD MSTORE POP JUMP JUMPDEST PUSH0 PUSH2 0x206F PUSH1 0x10 DUP4 PUSH2 0x1D58 JUMP JUMPDEST SWAP2 POP PUSH2 0x207A DUP3 PUSH2 0x203B JUMP JUMPDEST PUSH1 0x20 DUP3 ADD SWAP1 POP SWAP2 SWAP1 POP JUMP JUMPDEST PUSH0 PUSH1 0x20 DUP3 ADD SWAP1 POP DUP2 DUP2 SUB PUSH0 DUP4 ADD MSTORE PUSH2 0x209C DUP2 PUSH2 0x2063 JUMP JUMPDEST SWAP1 POP SWAP2 SWAP1 POP JUMP JUMPDEST PUSH0 PUSH2 0x20AD DUP3 PUSH2 0x1B12 JUMP JUMPDEST SWAP2 POP PUSH2 0x20B8 DUP4 PUSH2 0x1B12 JUMP JUMPDEST SWAP3 POP DUP3 DUP3 SUB SWAP1 POP DUP2 DUP2 GT ISZERO PUSH2 0x20D0 JUMPI PUSH2 0x20CF PUSH2 0x1DD0 JUMP JUMPDEST JUMPDEST SWAP3 SWAP2 POP POP JUMP JUMPDEST PUSH32 0x6E6F7420746865206F776E657200000000000000000000000000000000000000 PUSH0 DUP3 ADD MSTORE POP JUMP JUMPDEST PUSH0 PUSH2 0x210A PUSH1 0xD DUP4 PUSH2 0x1D58 JUMP JUMPDEST SWAP2 POP PUSH2 0x2115 DUP3 PUSH2 0x20D6 JUMP JUMPDEST PUSH1 0x20 DUP3 ADD SWAP1 POP SWAP2 SWAP1 POP JUMP JUMPDEST PUSH0 PUSH1 0x20 DUP3 ADD SWAP1 POP DUP2 DUP2 SUB PUSH0 DUP4 ADD MSTORE PUSH2 0x2137 DUP2 PUSH2 0x20FE JUMP JUMPDEST SWAP1 POP SWAP2 SWAP1 POP JUMP JUMPDEST PUSH32 0x61756374696F6E207374696C6C20616C69766500000000000000000000000000 PUSH0 DUP3 ADD MSTORE POP JUMP JUMPDEST PUSH0 PUSH2 0x2172 PUSH1 0x13 DUP4 PUSH2 0x1D58 JUMP JUMPDEST SWAP2 POP PUSH2 0x217D DUP3 PUSH2 0x213E JUMP JUMPDEST PUSH1 0x20 DUP3 ADD SWAP1 POP SWAP2 SWAP1 POP JUMP JUMPDEST PUSH0 PUSH1 0x20 DUP3 ADD SWAP1 POP DUP2 DUP2 SUB PUSH0 DUP4 ADD MSTORE PUSH2 0x219F DUP2 PUSH2 0x2166 JUMP JUMPDEST SWAP1 POP SWAP2 SWAP1 POP JUMP JUMPDEST PUSH0 DUP2 SWAP1 POP SWAP3 SWAP2 POP POP JUMP JUMPDEST POP JUMP JUMPDEST PUSH0 PUSH2 0x21BE PUSH0 DUP4 PUSH2 0x21A6 JUMP JUMPDEST SWAP2 POP PUSH2 0x21C9 DUP3 PUSH2 0x21B0 JUMP JUMPDEST PUSH0 DUP3 ADD SWAP1 POP SWAP2 SWAP1 POP JUMP JUMPDEST PUSH0 PUSH2 0x21DD DUP3 PUSH2 0x21B3 JUMP JUMPDEST SWAP2 POP DUP2 SWAP1 POP SWAP2 SWAP1 POP JUMP JUMPDEST PUSH32 0x4E487B7100000000000000000000000000000000000000000000000000000000 PUSH0 MSTORE PUSH1 0x32 PUSH1 0x4 MSTORE PUSH1 0x24 PUSH0 REVERT JUMPDEST PUSH2 0x221D DUP2 PUSH2 0x1B8B JUMP JUMPDEST DUP3 MSTORE POP POP JUMP JUMPDEST PUSH0 PUSH1 0x40 DUP3 ADD SWAP1 POP PUSH2 0x2236 PUSH0 DUP4 ADD DUP6 PUSH2 0x2214 JUMP JUMPDEST PUSH2 0x2243 PUSH1 0x20 DUP4 ADD DUP5 PUSH2 0x1B1B JUMP JUMPDEST SWAP4 SWAP3 POP POP POP JUMP JUMPDEST PUSH32 0x6E6F742065787069726564207965740000000000000000000000000000000000 PUSH0 DUP3 ADD MSTORE POP JUMP JUMPDEST PUSH0 PUSH2 0x227E PUSH1 0xF DUP4 PUSH2 0x1D58 JUMP JUMPDEST SWAP2 POP PUSH2 0x2289 DUP3 PUSH2 0x224A JUMP JUMPDEST PUSH1 0x20 DUP3 ADD SWAP1 POP SWAP2 SWAP1 POP JUMP JUMPDEST PUSH0 PUSH1 0x20 DUP3 ADD SWAP1 POP DUP2 DUP2 SUB PUSH0 DUP4 ADD MSTORE PUSH2 0x22AB DUP2 PUSH2 0x2272 JUMP JUMPDEST SWAP1 POP SWAP2 SWAP1 POP JUMP JUMPDEST PUSH0 PUSH2 0x22BC DUP3 PUSH2 0x1B12 JUMP JUMPDEST SWAP2 POP PUSH2 0x22C7 DUP4 PUSH2 0x1B12 JUMP JUMPDEST SWAP3 POP DUP3 DUP3 ADD SWAP1 POP DUP1 DUP3 GT ISZERO PUSH2 0x22DF JUMPI PUSH2 0x22DE PUSH2 0x1DD0 JUMP JUMPDEST JUMPDEST SWAP3 SWAP2 POP POP JUMP INVALID LOG2 PUSH5 0x6970667358 0x22 SLT KECCAK256 0xB5 OR SLOAD LOG0 0xC8 CALLDATASIZE PREVRANDAO 0xC0 CALLVALUE KECCAK256 0x4E PUSH29 0x8B1D2B50C4D580691047CA859A2CD5ED216105F964736F6C634300081E STOP CALLER "
				},
				"gasEstimates": {
					"creation": {
						"codeDepositCost": "1797400",
						"executionCost": "infinite",
						"totalCost": "infinite"
					},
					"external": {
						"Offer()": "infinite",
						"emergencyOwnerClaim()": "infinite",
						"endAuction()": "36870",
						"expiration()": "2470",
						"ownerClaim()": "infinite",
						"partialClaim()": "infinite",
						"returnOffers()": "infinite",
						"showOffers()": "infinite",
						"showWinner()": "4977",
						"state()": "2598"
					},
					"internal": {
						"addUnique(address)": "75204",
						"returnClaimedEthers(address payable)": "infinite",
						"returnEther(address payable)": "infinite",
						"returnEtherWinner(address payable)": "infinite",
						"updateExpiration()": "infinite",
						"updateInfoArray(address,uint256)": "infinite",
						"updateInfoMApp(address,uint256,uint256)": "infinite",
						"updateWinner(address,uint256)": "46404"
					}
				},
				"methodIdentifiers": {
					"Offer()": "1f09dfa7",
					"emergencyOwnerClaim()": "f5c7bc70",
					"endAuction()": "fe67a54b",
					"expiration()": "4665096d",
					"ownerClaim()": "4dbe5889",
					"partialClaim()": "464fcd69",
					"returnOffers()": "77c468c4",
					"showOffers()": "534823bf",
					"showWinner()": "b7e03264",
					"state()": "c19d93fb"
				}
			},
			"storageLayout": {
				"storage": [
					{
						"astId": 3,
						"contract": "Tp2_Auction.sol:Tp2_Auction",
						"label": "owner",
						"offset": 0,
						"slot": "0",
						"type": "t_address"
					},
					{
						"astId": 5,
						"contract": "Tp2_Auction.sol:Tp2_Auction",
						"label": "init_value",
						"offset": 0,
						"slot": "1",
						"type": "t_uint256"
					},
					{
						"astId": 7,
						"contract": "Tp2_Auction.sol:Tp2_Auction",
						"label": "init_time",
						"offset": 0,
						"slot": "2",
						"type": "t_uint256"
					},
					{
						"astId": 9,
						"contract": "Tp2_Auction.sol:Tp2_Auction",
						"label": "window",
						"offset": 0,
						"slot": "3",
						"type": "t_uint256"
					},
					{
						"astId": 11,
						"contract": "Tp2_Auction.sol:Tp2_Auction",
						"label": "expiration",
						"offset": 0,
						"slot": "4",
						"type": "t_uint256"
					},
					{
						"astId": 17,
						"contract": "Tp2_Auction.sol:Tp2_Auction",
						"label": "state",
						"offset": 0,
						"slot": "5",
						"type": "t_enum(State)14"
					},
					{
						"astId": 29,
						"contract": "Tp2_Auction.sol:Tp2_Auction",
						"label": "infoMapp",
						"offset": 0,
						"slot": "6",
						"type": "t_mapping(t_address,t_struct(Person)24_storage)"
					},
					{
						"astId": 38,
						"contract": "Tp2_Auction.sol:Tp2_Auction",
						"label": "infoArray",
						"offset": 0,
						"slot": "7",
						"type": "t_array(t_struct(Person2)34_storage)dyn_storage"
					},
					{
						"astId": 41,
						"contract": "Tp2_Auction.sol:Tp2_Auction",
						"label": "winner",
						"offset": 0,
						"slot": "8",
						"type": "t_struct(Person2)34_storage"
					},
					{
						"astId": 44,
						"contract": "Tp2_Auction.sol:Tp2_Auction",
						"label": "uniqueArray",
						"offset": 0,
						"slot": "10",
						"type": "t_array(t_address_payable)dyn_storage"
					},
					{
						"astId": 48,
						"contract": "Tp2_Auction.sol:Tp2_Auction",
						"label": "isBidder",
						"offset": 0,
						"slot": "11",
						"type": "t_mapping(t_address,t_bool)"
					}
				],
				"types": {
					"t_address": {
						"encoding": "inplace",
						"label": "address",
						"numberOfBytes": "20"
					},
					"t_address_payable": {
						"encoding": "inplace",
						"label": "address payable",
						"numberOfBytes": "20"
					},
					"t_array(t_address_payable)dyn_storage": {
						"base": "t_address_payable",
						"encoding": "dynamic_array",
						"label": "address payable[]",
						"numberOfBytes": "32"
					},
					"t_array(t_struct(Person2)34_storage)dyn_storage": {
						"base": "t_struct(Person2)34_storage",
						"encoding": "dynamic_array",
						"label": "struct Tp2_Auction.Person2[]",
						"numberOfBytes": "32"
					},
					"t_bool": {
						"encoding": "inplace",
						"label": "bool",
						"numberOfBytes": "1"
					},
					"t_enum(State)14": {
						"encoding": "inplace",
						"label": "enum Tp2_Auction.State",
						"numberOfBytes": "1"
					},
					"t_mapping(t_address,t_bool)": {
						"encoding": "mapping",
						"key": "t_address",
						"label": "mapping(address => bool)",
						"numberOfBytes": "32",
						"value": "t_bool"
					},
					"t_mapping(t_address,t_struct(Person)24_storage)": {
						"encoding": "mapping",
						"key": "t_address",
						"label": "mapping(address => struct Tp2_Auction.Person)",
						"numberOfBytes": "32",
						"value": "t_struct(Person)24_storage"
					},
					"t_struct(Person)24_storage": {
						"encoding": "inplace",
						"label": "struct Tp2_Auction.Person",
						"members": [
							{
								"astId": 19,
								"contract": "Tp2_Auction.sol:Tp2_Auction",
								"label": "id",
								"offset": 0,
								"slot": "0",
								"type": "t_address"
							},
							{
								"astId": 21,
								"contract": "Tp2_Auction.sol:Tp2_Auction",
								"label": "value",
								"offset": 0,
								"slot": "1",
								"type": "t_uint256"
							},
							{
								"astId": 23,
								"contract": "Tp2_Auction.sol:Tp2_Auction",
								"label": "balance",
								"offset": 0,
								"slot": "2",
								"type": "t_uint256"
							}
						],
						"numberOfBytes": "96"
					},
					"t_struct(Person2)34_storage": {
						"encoding": "inplace",
						"label": "struct Tp2_Auction.Person2",
						"members": [
							{
								"astId": 31,
								"contract": "Tp2_Auction.sol:Tp2_Auction",
								"label": "id",
								"offset": 0,
								"slot": "0",
								"type": "t_address"
							},
							{
								"astId": 33,
								"contract": "Tp2_Auction.sol:Tp2_Auction",
								"label": "value",
								"offset": 0,
								"slot": "1",
								"type": "t_uint256"
							}
						],
						"numberOfBytes": "64"
					},
					"t_uint256": {
						"encoding": "inplace",
						"label": "uint256",
						"numberOfBytes": "32"
					}
				}
			},
			"userdoc": {
				"kind": "user",
				"methods": {},
				"version": 1
			}
		}
	}
}