{
	"Tp2_Auction.sol": {
		"Tp2_Auction": {
			"abi": [
				{
					"inputs": [],
					"stateMutability": "nonpayable",
					"type": "constructor"
				},
				{
					"anonymous": false,
					"inputs": [
						{
							"indexed": false,
							"internalType": "address",
							"name": "_id",
							"type": "address"
						},
						{
							"indexed": false,
							"internalType": "uint256",
							"name": "_value",
							"type": "uint256"
						}
					],
					"name": "AuctionEnded",
					"type": "event"
				},
				{
					"anonymous": false,
					"inputs": [
						{
							"indexed": true,
							"internalType": "address",
							"name": "_id",
							"type": "address"
						},
						{
							"indexed": false,
							"internalType": "uint256",
							"name": "_value",
							"type": "uint256"
						}
					],
					"name": "NewOffer",
					"type": "event"
				},
				{
					"inputs": [],
					"name": "Offer",
					"outputs": [],
					"stateMutability": "payable",
					"type": "function"
				},
				{
					"inputs": [],
					"name": "claim",
					"outputs": [],
					"stateMutability": "nonpayable",
					"type": "function"
				},
				{
					"inputs": [],
					"name": "endAuction",
					"outputs": [],
					"stateMutability": "nonpayable",
					"type": "function"
				},
				{
					"inputs": [],
					"name": "expiration",
					"outputs": [
						{
							"internalType": "uint256",
							"name": "",
							"type": "uint256"
						}
					],
					"stateMutability": "view",
					"type": "function"
				},
				{
					"inputs": [],
					"name": "ownerClaim",
					"outputs": [],
					"stateMutability": "nonpayable",
					"type": "function"
				},
				{
					"inputs": [],
					"name": "returnOffers",
					"outputs": [],
					"stateMutability": "nonpayable",
					"type": "function"
				},
				{
					"inputs": [],
					"name": "showOffers",
					"outputs": [
						{
							"components": [
								{
									"internalType": "address",
									"name": "id",
									"type": "address"
								},
								{
									"internalType": "uint256",
									"name": "value",
									"type": "uint256"
								}
							],
							"internalType": "struct Tp2_Auction.Person2[]",
							"name": "",
							"type": "tuple[]"
						}
					],
					"stateMutability": "view",
					"type": "function"
				},
				{
					"inputs": [],
					"name": "showWinner",
					"outputs": [
						{
							"components": [
								{
									"internalType": "address",
									"name": "id",
									"type": "address"
								},
								{
									"internalType": "uint256",
									"name": "value",
									"type": "uint256"
								}
							],
							"internalType": "struct Tp2_Auction.Person2",
							"name": "",
							"type": "tuple"
						}
					],
					"stateMutability": "view",
					"type": "function"
				},
				{
					"inputs": [],
					"name": "state",
					"outputs": [
						{
							"internalType": "enum Tp2_Auction.State",
							"name": "",
							"type": "uint8"
						}
					],
					"stateMutability": "view",
					"type": "function"
				}
			],
			"devdoc": {
				"kind": "dev",
				"methods": {},
				"version": 1
			},
			"evm": {
				"assembly": "    /* \"Tp2_Auction.sol\":190:14752  contract Tp2_Auction {... */\n  mstore(0x40, 0x80)\n    /* \"Tp2_Auction.sol\":2608:3029  constructor() {... */\n  callvalue\n  dup1\n  iszero\n  tag_1\n  jumpi\n  revert(0x00, 0x00)\ntag_1:\n  pop\n    /* \"Tp2_Auction.sol\":2639:2649  msg.sender */\n  caller\n    /* \"Tp2_Auction.sol\":2633:2638  owner */\n  0x00\n  0x00\n    /* \"Tp2_Auction.sol\":2633:2649  owner=msg.sender */\n  0x0100\n  exp\n  dup2\n  sload\n  dup2\n  0xffffffffffffffffffffffffffffffffffffffff\n  mul\n  not\n  and\n  swap1\n  dup4\n  0xffffffffffffffffffffffffffffffffffffffff\n  and\n  mul\n  or\n  swap1\n  sstore\n  pop\n    /* \"Tp2_Auction.sol\":2682:2697  block.timestamp */\n  timestamp\n    /* \"Tp2_Auction.sol\":2670:2679  init_time */\n  0x02\n    /* \"Tp2_Auction.sol\":2670:2697  init_time = block.timestamp */\n  dup2\n  swap1\n  sstore\n  pop\n    /* \"Tp2_Auction.sol\":2733:2740  1 weeks */\n  0x093a80\n    /* \"Tp2_Auction.sol\":2721:2730  init_time */\n  sload(0x02)\n    /* \"Tp2_Auction.sol\":2721:2740  init_time + 1 weeks */\n  tag_4\n  swap2\n  swap1\n  tag_5\n  jump\t// in\ntag_4:\n    /* \"Tp2_Auction.sol\":2708:2718  expiration */\n  0x04\n    /* \"Tp2_Auction.sol\":2708:2740  expiration = init_time + 1 weeks */\n  dup2\n  swap1\n  sstore\n  pop\n    /* \"Tp2_Auction.sol\":2788:2798  10 minutes */\n  0x0258\n    /* \"Tp2_Auction.sol\":2779:2785  window */\n  0x03\n    /* \"Tp2_Auction.sol\":2779:2798  window = 10 minutes */\n  dup2\n  swap1\n  sstore\n  pop\n    /* \"Tp2_Auction.sol\":2876:2887  1000000 wei */\n  0x0f4240\n    /* \"Tp2_Auction.sol\":2863:2873  init_value */\n  0x01\n    /* \"Tp2_Auction.sol\":2863:2887  init_value = 1000000 wei */\n  dup2\n  swap1\n  sstore\n  pop\n    /* \"Tp2_Auction.sol\":2935:2940  owner */\n  0x00\n  0x00\n  swap1\n  sload\n  swap1\n  0x0100\n  exp\n  swap1\n  div\n  0xffffffffffffffffffffffffffffffffffffffff\n  and\n    /* \"Tp2_Auction.sol\":2923:2929  winner */\n  0x08\n    /* \"Tp2_Auction.sol\":2923:2932  winner.id */\n  0x00\n  add\n  0x00\n    /* \"Tp2_Auction.sol\":2923:2940  winner.id = owner */\n  0x0100\n  exp\n  dup2\n  sload\n  dup2\n  0xffffffffffffffffffffffffffffffffffffffff\n  mul\n  not\n  and\n  swap1\n  dup4\n  0xffffffffffffffffffffffffffffffffffffffff\n  and\n  mul\n  or\n  swap1\n  sstore\n  pop\n    /* \"Tp2_Auction.sol\":2966:2976  init_value */\n  sload(0x01)\n    /* \"Tp2_Auction.sol\":2951:2957  winner */\n  0x08\n    /* \"Tp2_Auction.sol\":2951:2963  winner.value */\n  0x01\n  add\n    /* \"Tp2_Auction.sol\":2951:2976  winner.value = init_value */\n  dup2\n  swap1\n  sstore\n  pop\n    /* \"Tp2_Auction.sol\":2997:3005  State.on */\n  0x00\n    /* \"Tp2_Auction.sol\":2989:2994  state */\n  0x05\n  0x00\n    /* \"Tp2_Auction.sol\":2989:3005  state = State.on */\n  0x0100\n  exp\n  dup2\n  sload\n  dup2\n  0xff\n  mul\n  not\n  and\n  swap1\n  dup4\n  0x01\n  dup2\n  gt\n  iszero\n  tag_6\n  jumpi\n  tag_7\n  tag_8\n  jump\t// in\ntag_7:\ntag_6:\n  mul\n  or\n  swap1\n  sstore\n  pop\n    /* \"Tp2_Auction.sol\":190:14752  contract Tp2_Auction {... */\n  jump(tag_9)\n    /* \"#utility.yul\":7:84   */\ntag_10:\n    /* \"#utility.yul\":44:51   */\n  0x00\n    /* \"#utility.yul\":73:78   */\n  dup2\n    /* \"#utility.yul\":62:78   */\n  swap1\n  pop\n    /* \"#utility.yul\":7:84   */\n  swap2\n  swap1\n  pop\n  jump\t// out\n    /* \"#utility.yul\":90:270   */\ntag_11:\n    /* \"#utility.yul\":138:215   */\n  0x4e487b7100000000000000000000000000000000000000000000000000000000\n    /* \"#utility.yul\":135:136   */\n  0x00\n    /* \"#utility.yul\":128:216   */\n  mstore\n    /* \"#utility.yul\":235:239   */\n  0x11\n    /* \"#utility.yul\":232:233   */\n  0x04\n    /* \"#utility.yul\":225:240   */\n  mstore\n    /* \"#utility.yul\":259:263   */\n  0x24\n    /* \"#utility.yul\":256:257   */\n  0x00\n    /* \"#utility.yul\":249:264   */\n  revert\n    /* \"#utility.yul\":276:467   */\ntag_5:\n    /* \"#utility.yul\":316:319   */\n  0x00\n    /* \"#utility.yul\":335:355   */\n  tag_16\n    /* \"#utility.yul\":353:354   */\n  dup3\n    /* \"#utility.yul\":335:355   */\n  tag_10\n  jump\t// in\ntag_16:\n    /* \"#utility.yul\":330:355   */\n  swap2\n  pop\n    /* \"#utility.yul\":369:389   */\n  tag_17\n    /* \"#utility.yul\":387:388   */\n  dup4\n    /* \"#utility.yul\":369:389   */\n  tag_10\n  jump\t// in\ntag_17:\n    /* \"#utility.yul\":364:389   */\n  swap3\n  pop\n    /* \"#utility.yul\":412:413   */\n  dup3\n    /* \"#utility.yul\":409:410   */\n  dup3\n    /* \"#utility.yul\":405:414   */\n  add\n    /* \"#utility.yul\":398:414   */\n  swap1\n  pop\n    /* \"#utility.yul\":433:436   */\n  dup1\n    /* \"#utility.yul\":430:431   */\n  dup3\n    /* \"#utility.yul\":427:437   */\n  gt\n    /* \"#utility.yul\":424:460   */\n  iszero\n  tag_18\n  jumpi\n    /* \"#utility.yul\":440:458   */\n  tag_19\n  tag_11\n  jump\t// in\ntag_19:\n    /* \"#utility.yul\":424:460   */\ntag_18:\n    /* \"#utility.yul\":276:467   */\n  swap3\n  swap2\n  pop\n  pop\n  jump\t// out\n    /* \"#utility.yul\":473:653   */\ntag_8:\n    /* \"#utility.yul\":521:598   */\n  0x4e487b7100000000000000000000000000000000000000000000000000000000\n    /* \"#utility.yul\":518:519   */\n  0x00\n    /* \"#utility.yul\":511:599   */\n  mstore\n    /* \"#utility.yul\":618:622   */\n  0x21\n    /* \"#utility.yul\":615:616   */\n  0x04\n    /* \"#utility.yul\":608:623   */\n  mstore\n    /* \"#utility.yul\":642:646   */\n  0x24\n    /* \"#utility.yul\":639:640   */\n  0x00\n    /* \"#utility.yul\":632:647   */\n  revert\n    /* \"Tp2_Auction.sol\":190:14752  contract Tp2_Auction {... */\ntag_9:\n  dataSize(sub_0)\n  dup1\n  dataOffset(sub_0)\n  0x00\n  codecopy\n  0x00\n  return\nstop\n\nsub_0: assembly {\n        /* \"Tp2_Auction.sol\":190:14752  contract Tp2_Auction {... */\n      mstore(0x40, 0x80)\n      jumpi(tag_1, lt(calldatasize, 0x04))\n      shr(0xe0, calldataload(0x00))\n      dup1\n      0x534823bf\n      gt\n      tag_11\n      jumpi\n      dup1\n      0x534823bf\n      eq\n      tag_6\n      jumpi\n      dup1\n      0x77c468c4\n      eq\n      tag_7\n      jumpi\n      dup1\n      0xb7e03264\n      eq\n      tag_8\n      jumpi\n      dup1\n      0xc19d93fb\n      eq\n      tag_9\n      jumpi\n      dup1\n      0xfe67a54b\n      eq\n      tag_10\n      jumpi\n      jump(tag_1)\n    tag_11:\n      dup1\n      0x1f09dfa7\n      eq\n      tag_2\n      jumpi\n      dup1\n      0x4665096d\n      eq\n      tag_3\n      jumpi\n      dup1\n      0x4dbe5889\n      eq\n      tag_4\n      jumpi\n      dup1\n      0x4e71d92d\n      eq\n      tag_5\n      jumpi\n    tag_1:\n      revert(0x00, 0x00)\n        /* \"Tp2_Auction.sol\":9356:9690  function Offer () external payable validOffer {... */\n    tag_2:\n      tag_12\n      tag_13\n      jump\t// in\n    tag_12:\n      stop\n        /* \"Tp2_Auction.sol\":646:671  uint256 public expiration */\n    tag_3:\n      callvalue\n      dup1\n      iszero\n      tag_14\n      jumpi\n      revert(0x00, 0x00)\n    tag_14:\n      pop\n      tag_15\n      tag_16\n      jump\t// in\n    tag_15:\n      mload(0x40)\n      tag_17\n      swap2\n      swap1\n      tag_18\n      jump\t// in\n    tag_17:\n      mload(0x40)\n      dup1\n      swap2\n      sub\n      swap1\n      return\n        /* \"Tp2_Auction.sol\":14511:14747  function ownerClaim() external onlyOwner auctionEnded{... */\n    tag_4:\n      callvalue\n      dup1\n      iszero\n      tag_19\n      jumpi\n      revert(0x00, 0x00)\n    tag_19:\n      pop\n      tag_20\n      tag_21\n      jump\t// in\n    tag_20:\n      stop\n        /* \"Tp2_Auction.sol\":10452:11372  function claim() external auctionAlive isBidderM {... */\n    tag_5:\n      callvalue\n      dup1\n      iszero\n      tag_22\n      jumpi\n      revert(0x00, 0x00)\n    tag_22:\n      pop\n      tag_23\n      tag_24\n      jump\t// in\n    tag_23:\n      stop\n        /* \"Tp2_Auction.sol\":9884:9982  function showOffers() external view returns (Person2[] memory) {... */\n    tag_6:\n      callvalue\n      dup1\n      iszero\n      tag_25\n      jumpi\n      revert(0x00, 0x00)\n    tag_25:\n      pop\n      tag_26\n      tag_27\n      jump\t// in\n    tag_26:\n      mload(0x40)\n      tag_28\n      swap2\n      swap1\n      tag_29\n      jump\t// in\n    tag_28:\n      mload(0x40)\n      dup1\n      swap2\n      sub\n      swap1\n      return\n        /* \"Tp2_Auction.sol\":12825:14345  function returnOffers() external onlyOwner auctionEnded{... */\n    tag_7:\n      callvalue\n      dup1\n      iszero\n      tag_30\n      jumpi\n      revert(0x00, 0x00)\n    tag_30:\n      pop\n      tag_31\n      tag_32\n      jump\t// in\n    tag_31:\n      stop\n        /* \"Tp2_Auction.sol\":10154:10247  function showWinner() external view returns (Person2 memory) {... */\n    tag_8:\n      callvalue\n      dup1\n      iszero\n      tag_33\n      jumpi\n      revert(0x00, 0x00)\n    tag_33:\n      pop\n      tag_34\n      tag_35\n      jump\t// in\n    tag_34:\n      mload(0x40)\n      tag_36\n      swap2\n      swap1\n      tag_37\n      jump\t// in\n    tag_36:\n      mload(0x40)\n      dup1\n      swap2\n      sub\n      swap1\n      return\n        /* \"Tp2_Auction.sol\":811:829  State public state */\n    tag_9:\n      callvalue\n      dup1\n      iszero\n      tag_38\n      jumpi\n      revert(0x00, 0x00)\n    tag_38:\n      pop\n      tag_39\n      tag_40\n      jump\t// in\n    tag_39:\n      mload(0x40)\n      tag_41\n      swap2\n      swap1\n      tag_42\n      jump\t// in\n    tag_41:\n      mload(0x40)\n      dup1\n      swap2\n      sub\n      swap1\n      return\n        /* \"Tp2_Auction.sol\":12373:12653  function endAuction() external onlyOwner auctionAlive{... */\n    tag_10:\n      callvalue\n      dup1\n      iszero\n      tag_43\n      jumpi\n      revert(0x00, 0x00)\n    tag_43:\n      pop\n      tag_44\n      tag_45\n      jump\t// in\n    tag_44:\n      stop\n        /* \"Tp2_Auction.sol\":9356:9690  function Offer () external payable validOffer {... */\n    tag_13:\n        /* \"Tp2_Auction.sol\":4045:4053  State.on */\n      0x00\n        /* \"Tp2_Auction.sol\":4036:4053  state == State.on */\n      0x01\n      dup2\n      gt\n      iszero\n      tag_47\n      jumpi\n      tag_48\n      tag_49\n      jump\t// in\n    tag_48:\n    tag_47:\n        /* \"Tp2_Auction.sol\":4036:4041  state */\n      0x05\n      0x00\n      swap1\n      sload\n      swap1\n      0x0100\n      exp\n      swap1\n      div\n      0xff\n      and\n        /* \"Tp2_Auction.sol\":4036:4053  state == State.on */\n      0x01\n      dup2\n      gt\n      iszero\n      tag_50\n      jumpi\n      tag_51\n      tag_49\n      jump\t// in\n    tag_51:\n    tag_50:\n      sub\n        /* \"Tp2_Auction.sol\":4033:4286  if(state == State.on) {... */\n      tag_52\n      jumpi\n        /* \"Tp2_Auction.sol\":4093:4103  expiration */\n      sload(0x04)\n        /* \"Tp2_Auction.sol\":4075:4090  block.timestamp */\n      timestamp\n        /* \"Tp2_Auction.sol\":4075:4103  block.timestamp < expiration */\n      lt\n        /* \"Tp2_Auction.sol\":4066:4126  require((block.timestamp < expiration),\"invalid offer time\") */\n      tag_53\n      jumpi\n      mload(0x40)\n      0x08c379a000000000000000000000000000000000000000000000000000000000\n      dup2\n      mstore\n      0x04\n      add\n      tag_54\n      swap1\n      tag_55\n      jump\t// in\n    tag_54:\n      mload(0x40)\n      dup1\n      swap2\n      sub\n      swap1\n      revert\n    tag_53:\n        /* \"Tp2_Auction.sol\":4180:4183  100 */\n      0x64\n        /* \"Tp2_Auction.sol\":4174:4177  105 */\n      0x69\n        /* \"Tp2_Auction.sol\":4159:4165  winner */\n      0x08\n        /* \"Tp2_Auction.sol\":4159:4171  winner.value */\n      0x01\n      add\n      sload\n        /* \"Tp2_Auction.sol\":4159:4177  winner.value * 105 */\n      tag_56\n      swap2\n      swap1\n      tag_57\n      jump\t// in\n    tag_56:\n        /* \"Tp2_Auction.sol\":4159:4183  winner.value * 105 / 100 */\n      tag_58\n      swap2\n      swap1\n      tag_59\n      jump\t// in\n    tag_58:\n        /* \"Tp2_Auction.sol\":4146:4155  msg.value */\n      callvalue\n        /* \"Tp2_Auction.sol\":4146:4183  msg.value >= winner.value * 105 / 100 */\n      lt\n      iszero\n        /* \"Tp2_Auction.sol\":4137:4207  require((msg.value >= winner.value * 105 / 100),\"invalid offer value\") */\n      tag_60\n      jumpi\n      mload(0x40)\n      0x08c379a000000000000000000000000000000000000000000000000000000000\n      dup2\n      mstore\n      0x04\n      add\n      tag_61\n      swap1\n      tag_62\n      jump\t// in\n    tag_61:\n      mload(0x40)\n      dup1\n      swap2\n      sub\n      swap1\n      revert\n    tag_60:\n        /* \"Tp2_Auction.sol\":9423:9458  updateWinner(msg.sender, msg.value) */\n      tag_64\n        /* \"Tp2_Auction.sol\":9436:9446  msg.sender */\n      caller\n        /* \"Tp2_Auction.sol\":9448:9457  msg.value */\n      callvalue\n        /* \"Tp2_Auction.sol\":9423:9435  updateWinner */\n      tag_65\n        /* \"Tp2_Auction.sol\":9423:9458  updateWinner(msg.sender, msg.value) */\n      jump\t// in\n    tag_64:\n        /* \"Tp2_Auction.sol\":9469:9517  updateInfoMApp(msg.sender, msg.value, msg.value) */\n      tag_66\n        /* \"Tp2_Auction.sol\":9484:9494  msg.sender */\n      caller\n        /* \"Tp2_Auction.sol\":9496:9505  msg.value */\n      callvalue\n        /* \"Tp2_Auction.sol\":9507:9516  msg.value */\n      callvalue\n        /* \"Tp2_Auction.sol\":9469:9483  updateInfoMApp */\n      tag_67\n        /* \"Tp2_Auction.sol\":9469:9517  updateInfoMApp(msg.sender, msg.value, msg.value) */\n      jump\t// in\n    tag_66:\n        /* \"Tp2_Auction.sol\":9528:9566  updateInfoArray(msg.sender, msg.value) */\n      tag_68\n        /* \"Tp2_Auction.sol\":9544:9554  msg.sender */\n      caller\n        /* \"Tp2_Auction.sol\":9556:9565  msg.value */\n      callvalue\n        /* \"Tp2_Auction.sol\":9528:9543  updateInfoArray */\n      tag_69\n        /* \"Tp2_Auction.sol\":9528:9566  updateInfoArray(msg.sender, msg.value) */\n      jump\t// in\n    tag_68:\n        /* \"Tp2_Auction.sol\":9577:9595  updateExpiration() */\n      tag_70\n        /* \"Tp2_Auction.sol\":9577:9593  updateExpiration */\n      tag_71\n        /* \"Tp2_Auction.sol\":9577:9595  updateExpiration() */\n      jump\t// in\n    tag_70:\n        /* \"Tp2_Auction.sol\":9620:9630  msg.sender */\n      caller\n        /* \"Tp2_Auction.sol\":9611:9642  NewOffer(msg.sender, msg.value) */\n      0xffffffffffffffffffffffffffffffffffffffff\n      and\n      0x058d619527549e88853c641ebcec23205e5df61592e3908275721b5ad490113f\n        /* \"Tp2_Auction.sol\":9632:9641  msg.value */\n      callvalue\n        /* \"Tp2_Auction.sol\":9611:9642  NewOffer(msg.sender, msg.value) */\n      mload(0x40)\n      tag_72\n      swap2\n      swap1\n      tag_18\n      jump\t// in\n    tag_72:\n      mload(0x40)\n      dup1\n      swap2\n      sub\n      swap1\n      log2\n        /* \"Tp2_Auction.sol\":9653:9674  addUnique(msg.sender) */\n      tag_73\n        /* \"Tp2_Auction.sol\":9663:9673  msg.sender */\n      caller\n        /* \"Tp2_Auction.sol\":9653:9662  addUnique */\n      tag_74\n        /* \"Tp2_Auction.sol\":9653:9674  addUnique(msg.sender) */\n      jump\t// in\n    tag_73:\n        /* \"Tp2_Auction.sol\":4033:4286  if(state == State.on) {... */\n      jump(tag_75)\n    tag_52:\n        /* \"Tp2_Auction.sol\":4251:4274  revert(\"Auction Ended\") */\n      mload(0x40)\n      0x08c379a000000000000000000000000000000000000000000000000000000000\n      dup2\n      mstore\n      0x04\n      add\n      tag_76\n      swap1\n      tag_77\n      jump\t// in\n    tag_76:\n      mload(0x40)\n      dup1\n      swap2\n      sub\n      swap1\n      revert\n        /* \"Tp2_Auction.sol\":4033:4286  if(state == State.on) {... */\n    tag_75:\n        /* \"Tp2_Auction.sol\":9356:9690  function Offer () external payable validOffer {... */\n      jump\t// out\n        /* \"Tp2_Auction.sol\":646:671  uint256 public expiration */\n    tag_16:\n      sload(0x04)\n      dup2\n      jump\t// out\n        /* \"Tp2_Auction.sol\":14511:14747  function ownerClaim() external onlyOwner auctionEnded{... */\n    tag_21:\n        /* \"Tp2_Auction.sol\":3218:3228  msg.sender */\n      caller\n        /* \"Tp2_Auction.sol\":3211:3228  owner==msg.sender */\n      0xffffffffffffffffffffffffffffffffffffffff\n      and\n        /* \"Tp2_Auction.sol\":3211:3216  owner */\n      0x00\n      0x00\n      swap1\n      sload\n      swap1\n      0x0100\n      exp\n      swap1\n      div\n      0xffffffffffffffffffffffffffffffffffffffff\n      and\n        /* \"Tp2_Auction.sol\":3211:3228  owner==msg.sender */\n      0xffffffffffffffffffffffffffffffffffffffff\n      and\n      eq\n        /* \"Tp2_Auction.sol\":3203:3245  require(owner==msg.sender,\"not the owner\") */\n      tag_79\n      jumpi\n      mload(0x40)\n      0x08c379a000000000000000000000000000000000000000000000000000000000\n      dup2\n      mstore\n      0x04\n      add\n      tag_80\n      swap1\n      tag_81\n      jump\t// in\n    tag_80:\n      mload(0x40)\n      dup1\n      swap2\n      sub\n      swap1\n      revert\n    tag_79:\n        /* \"Tp2_Auction.sol\":3830:3839  State.off */\n      0x01\n        /* \"Tp2_Auction.sol\":3821:3839  state == State.off */\n      dup1\n      dup2\n      gt\n      iszero\n      tag_83\n      jumpi\n      tag_84\n      tag_49\n      jump\t// in\n    tag_84:\n    tag_83:\n        /* \"Tp2_Auction.sol\":3821:3826  state */\n      0x05\n      0x00\n      swap1\n      sload\n      swap1\n      0x0100\n      exp\n      swap1\n      div\n      0xff\n      and\n        /* \"Tp2_Auction.sol\":3821:3839  state == State.off */\n      0x01\n      dup2\n      gt\n      iszero\n      tag_85\n      jumpi\n      tag_86\n      tag_49\n      jump\t// in\n    tag_86:\n    tag_85:\n      eq\n        /* \"Tp2_Auction.sol\":3813:3862  require(state == State.off,\"auction still alive\") */\n      tag_87\n      jumpi\n      mload(0x40)\n      0x08c379a000000000000000000000000000000000000000000000000000000000\n      dup2\n      mstore\n      0x04\n      add\n      tag_88\n      swap1\n      tag_89\n      jump\t// in\n    tag_88:\n      mload(0x40)\n      dup1\n      swap2\n      sub\n      swap1\n      revert\n    tag_87:\n        /* \"Tp2_Auction.sol\":14578:14589  bool result */\n      0x00\n        /* \"Tp2_Auction.sol\":14595:14600  owner */\n      0x00\n      0x00\n      swap1\n      sload\n      swap1\n      0x0100\n      exp\n      swap1\n      div\n      0xffffffffffffffffffffffffffffffffffffffff\n      and\n        /* \"Tp2_Auction.sol\":14595:14605  owner.call */\n      0xffffffffffffffffffffffffffffffffffffffff\n      and\n        /* \"Tp2_Auction.sol\":14611:14615  2300 */\n      0x08fc\n        /* \"Tp2_Auction.sol\":14623:14644  address(this).balance */\n      selfbalance\n        /* \"Tp2_Auction.sol\":14595:14649  owner.call{gas: 2300, value:address(this).balance}(\"\") */\n      mload(0x40)\n      tag_91\n      swap1\n      tag_92\n      jump\t// in\n    tag_91:\n      0x00\n      mload(0x40)\n      dup1\n      dup4\n      sub\n      dup2\n      dup6\n      dup9\n      dup9\n      call\n      swap4\n      pop\n      pop\n      pop\n      pop\n      returndatasize\n      dup1\n      0x00\n      dup2\n      eq\n      tag_95\n      jumpi\n      mload(0x40)\n      swap2\n      pop\n      and(add(returndatasize, 0x3f), not(0x1f))\n      dup3\n      add\n      0x40\n      mstore\n      returndatasize\n      dup3\n      mstore\n      returndatasize\n      0x00\n      0x20\n      dup5\n      add\n      returndatacopy\n      jump(tag_94)\n    tag_95:\n      0x60\n      swap2\n      pop\n    tag_94:\n      pop\n        /* \"Tp2_Auction.sol\":14577:14649  (bool result, ) = owner.call{gas: 2300, value:address(this).balance}(\"\") */\n      pop\n      swap1\n      pop\n        /* \"Tp2_Auction.sol\":14677:14682  false */\n      0x00\n        /* \"Tp2_Auction.sol\":14667:14682  result == false */\n      iszero\n      iszero\n        /* \"Tp2_Auction.sol\":14667:14673  result */\n      dup2\n        /* \"Tp2_Auction.sol\":14667:14682  result == false */\n      iszero\n      iszero\n      sub\n        /* \"Tp2_Auction.sol\":14663:14739  if( result == false){   ... */\n      tag_96\n      jumpi\n        /* \"Tp2_Auction.sol\":14701:14725  revert(\"fallo el envio\") */\n      mload(0x40)\n      0x08c379a000000000000000000000000000000000000000000000000000000000\n      dup2\n      mstore\n      0x04\n      add\n      tag_97\n      swap1\n      tag_98\n      jump\t// in\n    tag_97:\n      mload(0x40)\n      dup1\n      swap2\n      sub\n      swap1\n      revert\n        /* \"Tp2_Auction.sol\":14663:14739  if( result == false){   ... */\n    tag_96:\n        /* \"Tp2_Auction.sol\":14564:14747  {... */\n      pop\n        /* \"Tp2_Auction.sol\":14511:14747  function ownerClaim() external onlyOwner auctionEnded{... */\n      jump\t// out\n        /* \"Tp2_Auction.sol\":10452:11372  function claim() external auctionAlive isBidderM {... */\n    tag_24:\n        /* \"Tp2_Auction.sol\":3627:3635  State.on */\n      0x00\n        /* \"Tp2_Auction.sol\":3618:3635  state == State.on */\n      0x01\n      dup2\n      gt\n      iszero\n      tag_100\n      jumpi\n      tag_101\n      tag_49\n      jump\t// in\n    tag_101:\n    tag_100:\n        /* \"Tp2_Auction.sol\":3618:3623  state */\n      0x05\n      0x00\n      swap1\n      sload\n      swap1\n      0x0100\n      exp\n      swap1\n      div\n      0xff\n      and\n        /* \"Tp2_Auction.sol\":3618:3635  state == State.on */\n      0x01\n      dup2\n      gt\n      iszero\n      tag_102\n      jumpi\n      tag_103\n      tag_49\n      jump\t// in\n    tag_103:\n    tag_102:\n      eq\n        /* \"Tp2_Auction.sol\":3610:3660  require(state == State.on,\"auction already ended\") */\n      tag_104\n      jumpi\n      mload(0x40)\n      0x08c379a000000000000000000000000000000000000000000000000000000000\n      dup2\n      mstore\n      0x04\n      add\n      tag_105\n      swap1\n      tag_106\n      jump\t// in\n    tag_105:\n      mload(0x40)\n      dup1\n      swap2\n      sub\n      swap1\n      revert\n    tag_104:\n        /* \"Tp2_Auction.sol\":3443:3447  true */\n      0x01\n        /* \"Tp2_Auction.sol\":3419:3447  isBidder[msg.sender] == true */\n      iszero\n      iszero\n        /* \"Tp2_Auction.sol\":3419:3427  isBidder */\n      0x0b\n        /* \"Tp2_Auction.sol\":3419:3439  isBidder[msg.sender] */\n      0x00\n        /* \"Tp2_Auction.sol\":3428:3438  msg.sender */\n      caller\n        /* \"Tp2_Auction.sol\":3419:3439  isBidder[msg.sender] */\n      0xffffffffffffffffffffffffffffffffffffffff\n      and\n      0xffffffffffffffffffffffffffffffffffffffff\n      and\n      dup2\n      mstore\n      0x20\n      add\n      swap1\n      dup2\n      mstore\n      0x20\n      add\n      0x00\n      keccak256\n      0x00\n      swap1\n      sload\n      swap1\n      0x0100\n      exp\n      swap1\n      div\n      0xff\n      and\n        /* \"Tp2_Auction.sol\":3419:3447  isBidder[msg.sender] == true */\n      iszero\n      iszero\n      eq\n        /* \"Tp2_Auction.sol\":3411:3463  require(isBidder[msg.sender] == true,\"not a bidder\") */\n      tag_108\n      jumpi\n      mload(0x40)\n      0x08c379a000000000000000000000000000000000000000000000000000000000\n      dup2\n      mstore\n      0x04\n      add\n      tag_109\n      swap1\n      tag_110\n      jump\t// in\n    tag_109:\n      mload(0x40)\n      dup1\n      swap2\n      sub\n      swap1\n      revert\n    tag_108:\n        /* \"Tp2_Auction.sol\":10514:10525  bool result */\n      0x00\n        /* \"Tp2_Auction.sol\":10536:10551  uint256 aux_val */\n      0x00\n        /* \"Tp2_Auction.sol\":10584:10625  returnClaimedEthers(payable (msg.sender)) */\n      tag_112\n        /* \"Tp2_Auction.sol\":10613:10623  msg.sender */\n      caller\n        /* \"Tp2_Auction.sol\":10584:10603  returnClaimedEthers */\n      tag_113\n        /* \"Tp2_Auction.sol\":10584:10625  returnClaimedEthers(payable (msg.sender)) */\n      jump\t// in\n    tag_112:\n        /* \"Tp2_Auction.sol\":10564:10625  (result, aux_val) = returnClaimedEthers(payable (msg.sender)) */\n      dup1\n      swap3\n      pop\n      dup2\n      swap4\n      pop\n      pop\n      pop\n        /* \"Tp2_Auction.sol\":10660:10665  false */\n      0x00\n        /* \"Tp2_Auction.sol\":10650:10665  result == false */\n      iszero\n      iszero\n        /* \"Tp2_Auction.sol\":10650:10656  result */\n      dup3\n        /* \"Tp2_Auction.sol\":10650:10665  result == false */\n      iszero\n      iszero\n      sub\n        /* \"Tp2_Auction.sol\":10646:11363  if( result == false){   ... */\n      tag_114\n      jumpi\n        /* \"Tp2_Auction.sol\":10684:10708  revert(\"fallo el envio\") */\n      mload(0x40)\n      0x08c379a000000000000000000000000000000000000000000000000000000000\n      dup2\n      mstore\n      0x04\n      add\n      tag_115\n      swap1\n      tag_98\n      jump\t// in\n    tag_115:\n      mload(0x40)\n      dup1\n      swap2\n      sub\n      swap1\n      revert\n        /* \"Tp2_Auction.sol\":10646:11363  if( result == false){   ... */\n    tag_114:\n        /* \"Tp2_Auction.sol\":10923:10930  aux_val */\n      dup1\n        /* \"Tp2_Auction.sol\":10891:10899  infoMapp */\n      0x06\n        /* \"Tp2_Auction.sol\":10891:10911  infoMapp[msg.sender] */\n      0x00\n        /* \"Tp2_Auction.sol\":10900:10910  msg.sender */\n      caller\n        /* \"Tp2_Auction.sol\":10891:10911  infoMapp[msg.sender] */\n      0xffffffffffffffffffffffffffffffffffffffff\n      and\n      0xffffffffffffffffffffffffffffffffffffffff\n      and\n      dup2\n      mstore\n      0x20\n      add\n      swap1\n      dup2\n      mstore\n      0x20\n      add\n      0x00\n      keccak256\n        /* \"Tp2_Auction.sol\":10891:10919  infoMapp[msg.sender].balance */\n      0x02\n      add\n      0x00\n        /* \"Tp2_Auction.sol\":10891:10930  infoMapp[msg.sender].balance -= aux_val */\n      dup3\n      dup3\n      sload\n      tag_117\n      swap2\n      swap1\n      tag_118\n      jump\t// in\n    tag_117:\n      swap3\n      pop\n      pop\n      dup2\n      swap1\n      sstore\n      pop\n        /* \"Tp2_Auction.sol\":10982:11000  Person2 memory aux */\n      tag_119\n      tag_120\n      jump\t// in\n    tag_119:\n        /* \"Tp2_Auction.sol\":11024:11034  msg.sender */\n      caller\n        /* \"Tp2_Auction.sol\":11015:11018  aux */\n      dup2\n        /* \"Tp2_Auction.sol\":11015:11021  aux.id */\n      0x00\n      add\n        /* \"Tp2_Auction.sol\":11015:11034  aux.id = msg.sender */\n      swap1\n      0xffffffffffffffffffffffffffffffffffffffff\n      and\n      swap1\n      dup2\n      0xffffffffffffffffffffffffffffffffffffffff\n      and\n      dup2\n      mstore\n      pop\n      pop\n        /* \"Tp2_Auction.sol\":11061:11062  0 */\n      0x00\n        /* \"Tp2_Auction.sol\":11049:11052  aux */\n      dup2\n        /* \"Tp2_Auction.sol\":11049:11058  aux.value */\n      0x20\n      add\n        /* \"Tp2_Auction.sol\":11049:11062  aux.value = 0 */\n      dup2\n      dup2\n      mstore\n      pop\n      pop\n        /* \"Tp2_Auction.sol\":11332:11341  infoArray */\n      0x07\n        /* \"Tp2_Auction.sol\":11347:11350  aux */\n      dup2\n        /* \"Tp2_Auction.sol\":11332:11351  infoArray.push(aux) */\n      swap1\n      dup1\n      0x01\n      dup2\n      sload\n      add\n      dup1\n      dup3\n      sstore\n      dup1\n      swap2\n      pop\n      pop\n      0x01\n      swap1\n      sub\n      swap1\n      0x00\n      mstore\n      keccak256(0x00, 0x20)\n      swap1\n      0x02\n      mul\n      add\n      0x00\n      swap1\n      swap2\n      swap1\n      swap2\n      swap1\n      swap2\n      pop\n      0x00\n      dup3\n      add\n      mload\n      dup2\n      0x00\n      add\n      exp(0x0100, 0x00)\n      dup2\n      sload\n      dup2\n      0xffffffffffffffffffffffffffffffffffffffff\n      mul\n      not\n      and\n      swap1\n      dup4\n      0xffffffffffffffffffffffffffffffffffffffff\n      and\n      mul\n      or\n      swap1\n      sstore\n      pop\n      0x20\n      dup3\n      add\n      mload\n      dup2\n      0x01\n      add\n      sstore\n      pop\n      pop\n        /* \"Tp2_Auction.sol\":10730:11363  {... */\n      pop\n        /* \"Tp2_Auction.sol\":10501:11372  {... */\n      pop\n      pop\n        /* \"Tp2_Auction.sol\":10452:11372  function claim() external auctionAlive isBidderM {... */\n      jump\t// out\n        /* \"Tp2_Auction.sol\":9884:9982  function showOffers() external view returns (Person2[] memory) {... */\n    tag_27:\n        /* \"Tp2_Auction.sol\":9929:9945  Person2[] memory */\n      0x60\n        /* \"Tp2_Auction.sol\":9965:9974  infoArray */\n      0x07\n        /* \"Tp2_Auction.sol\":9958:9974  return infoArray */\n      dup1\n      sload\n      dup1\n      0x20\n      mul\n      0x20\n      add\n      mload(0x40)\n      swap1\n      dup2\n      add\n      0x40\n      mstore\n      dup1\n      swap3\n      swap2\n      swap1\n      dup2\n      dup2\n      mstore\n      0x20\n      add\n      0x00\n      swap1\n    tag_123:\n      dup3\n      dup3\n      lt\n      iszero\n      tag_124\n      jumpi\n      dup4\n      dup3\n      swap1\n      0x00\n      mstore\n      keccak256(0x00, 0x20)\n      swap1\n      0x02\n      mul\n      add\n      mload(0x40)\n      dup1\n      0x40\n      add\n      0x40\n      mstore\n      swap1\n      dup2\n      0x00\n      dup3\n      add\n      0x00\n      swap1\n      sload\n      swap1\n      0x0100\n      exp\n      swap1\n      div\n      0xffffffffffffffffffffffffffffffffffffffff\n      and\n      0xffffffffffffffffffffffffffffffffffffffff\n      and\n      0xffffffffffffffffffffffffffffffffffffffff\n      and\n      dup2\n      mstore\n      0x20\n      add\n      0x01\n      dup3\n      add\n      sload\n      dup2\n      mstore\n      pop\n      pop\n      dup2\n      mstore\n      0x20\n      add\n      swap1\n      0x01\n      add\n      swap1\n      jump(tag_123)\n    tag_124:\n      pop\n      pop\n      pop\n      pop\n      swap1\n      pop\n        /* \"Tp2_Auction.sol\":9884:9982  function showOffers() external view returns (Person2[] memory) {... */\n      swap1\n      jump\t// out\n        /* \"Tp2_Auction.sol\":12825:14345  function returnOffers() external onlyOwner auctionEnded{... */\n    tag_32:\n        /* \"Tp2_Auction.sol\":3218:3228  msg.sender */\n      caller\n        /* \"Tp2_Auction.sol\":3211:3228  owner==msg.sender */\n      0xffffffffffffffffffffffffffffffffffffffff\n      and\n        /* \"Tp2_Auction.sol\":3211:3216  owner */\n      0x00\n      0x00\n      swap1\n      sload\n      swap1\n      0x0100\n      exp\n      swap1\n      div\n      0xffffffffffffffffffffffffffffffffffffffff\n      and\n        /* \"Tp2_Auction.sol\":3211:3228  owner==msg.sender */\n      0xffffffffffffffffffffffffffffffffffffffff\n      and\n      eq\n        /* \"Tp2_Auction.sol\":3203:3245  require(owner==msg.sender,\"not the owner\") */\n      tag_127\n      jumpi\n      mload(0x40)\n      0x08c379a000000000000000000000000000000000000000000000000000000000\n      dup2\n      mstore\n      0x04\n      add\n      tag_128\n      swap1\n      tag_81\n      jump\t// in\n    tag_128:\n      mload(0x40)\n      dup1\n      swap2\n      sub\n      swap1\n      revert\n    tag_127:\n        /* \"Tp2_Auction.sol\":3830:3839  State.off */\n      0x01\n        /* \"Tp2_Auction.sol\":3821:3839  state == State.off */\n      dup1\n      dup2\n      gt\n      iszero\n      tag_130\n      jumpi\n      tag_131\n      tag_49\n      jump\t// in\n    tag_131:\n    tag_130:\n        /* \"Tp2_Auction.sol\":3821:3826  state */\n      0x05\n      0x00\n      swap1\n      sload\n      swap1\n      0x0100\n      exp\n      swap1\n      div\n      0xff\n      and\n        /* \"Tp2_Auction.sol\":3821:3839  state == State.off */\n      0x01\n      dup2\n      gt\n      iszero\n      tag_132\n      jumpi\n      tag_133\n      tag_49\n      jump\t// in\n    tag_133:\n    tag_132:\n      eq\n        /* \"Tp2_Auction.sol\":3813:3862  require(state == State.off,\"auction still alive\") */\n      tag_134\n      jumpi\n      mload(0x40)\n      0x08c379a000000000000000000000000000000000000000000000000000000000\n      dup2\n      mstore\n      0x04\n      add\n      tag_135\n      swap1\n      tag_89\n      jump\t// in\n    tag_135:\n      mload(0x40)\n      dup1\n      swap2\n      sub\n      swap1\n      revert\n    tag_134:\n        /* \"Tp2_Auction.sol\":12893:12904  bool result */\n      0x00\n        /* \"Tp2_Auction.sol\":12915:12930  uint256 aux_val */\n      0x00\n        /* \"Tp2_Auction.sol\":12947:12953  uint i */\n      0x00\n        /* \"Tp2_Auction.sol\":12956:12957  0 */\n      0x00\n        /* \"Tp2_Auction.sol\":12947:12957  uint i = 0 */\n      swap1\n      pop\n        /* \"Tp2_Auction.sol\":12942:14338  for (uint i = 0; i < uniqueArray.length; i++) {... */\n    tag_137:\n        /* \"Tp2_Auction.sol\":12963:12974  uniqueArray */\n      0x0a\n        /* \"Tp2_Auction.sol\":12963:12981  uniqueArray.length */\n      dup1\n      sload\n      swap1\n      pop\n        /* \"Tp2_Auction.sol\":12959:12960  i */\n      dup2\n        /* \"Tp2_Auction.sol\":12959:12981  i < uniqueArray.length */\n      lt\n        /* \"Tp2_Auction.sol\":12942:14338  for (uint i = 0; i < uniqueArray.length; i++) {... */\n      iszero\n      tag_138\n      jumpi\n        /* \"Tp2_Auction.sol\":13024:13030  winner */\n      0x08\n        /* \"Tp2_Auction.sol\":13024:13033  winner.id */\n      0x00\n      add\n      0x00\n      swap1\n      sload\n      swap1\n      0x0100\n      exp\n      swap1\n      div\n      0xffffffffffffffffffffffffffffffffffffffff\n      and\n        /* \"Tp2_Auction.sol\":13006:13033  uniqueArray[i] != winner.id */\n      0xffffffffffffffffffffffffffffffffffffffff\n      and\n        /* \"Tp2_Auction.sol\":13006:13017  uniqueArray */\n      0x0a\n        /* \"Tp2_Auction.sol\":13018:13019  i */\n      dup3\n        /* \"Tp2_Auction.sol\":13006:13020  uniqueArray[i] */\n      dup2\n      sload\n      dup2\n      lt\n      tag_140\n      jumpi\n      tag_141\n      tag_142\n      jump\t// in\n    tag_141:\n    tag_140:\n      swap1\n      0x00\n      mstore\n      keccak256(0x00, 0x20)\n      add\n      0x00\n      swap1\n      sload\n      swap1\n      0x0100\n      exp\n      swap1\n      div\n      0xffffffffffffffffffffffffffffffffffffffff\n      and\n        /* \"Tp2_Auction.sol\":13006:13033  uniqueArray[i] != winner.id */\n      0xffffffffffffffffffffffffffffffffffffffff\n      and\n      eq\n        /* \"Tp2_Auction.sol\":13003:14327  if(uniqueArray[i] != winner.id){... */\n      tag_144\n      jumpi\n        /* \"Tp2_Auction.sol\":13075:13102  returnEther(uniqueArray[i]) */\n      tag_145\n        /* \"Tp2_Auction.sol\":13087:13098  uniqueArray */\n      0x0a\n        /* \"Tp2_Auction.sol\":13099:13100  i */\n      dup3\n        /* \"Tp2_Auction.sol\":13087:13101  uniqueArray[i] */\n      dup2\n      sload\n      dup2\n      lt\n      tag_146\n      jumpi\n      tag_147\n      tag_142\n      jump\t// in\n    tag_147:\n    tag_146:\n      swap1\n      0x00\n      mstore\n      keccak256(0x00, 0x20)\n      add\n      0x00\n      swap1\n      sload\n      swap1\n      0x0100\n      exp\n      swap1\n      div\n      0xffffffffffffffffffffffffffffffffffffffff\n      and\n        /* \"Tp2_Auction.sol\":13075:13086  returnEther */\n      tag_149\n        /* \"Tp2_Auction.sol\":13075:13102  returnEther(uniqueArray[i]) */\n      jump\t// in\n    tag_145:\n        /* \"Tp2_Auction.sol\":13055:13102  (result, aux_val) = returnEther(uniqueArray[i]) */\n      dup1\n      swap4\n      pop\n      dup2\n      swap5\n      pop\n      pop\n      pop\n        /* \"Tp2_Auction.sol\":13153:13158  false */\n      0x00\n        /* \"Tp2_Auction.sol\":13143:13158  result == false */\n      iszero\n      iszero\n        /* \"Tp2_Auction.sol\":13143:13149  result */\n      dup4\n        /* \"Tp2_Auction.sol\":13143:13158  result == false */\n      iszero\n      iszero\n      sub\n        /* \"Tp2_Auction.sol\":13139:13696  if( result == false){   ... */\n      tag_150\n      jumpi\n        /* \"Tp2_Auction.sol\":13185:13209  revert(\"fallo el envio\") */\n      mload(0x40)\n      0x08c379a000000000000000000000000000000000000000000000000000000000\n      dup2\n      mstore\n      0x04\n      add\n      tag_151\n      swap1\n      tag_98\n      jump\t// in\n    tag_151:\n      mload(0x40)\n      dup1\n      swap2\n      sub\n      swap1\n      revert\n        /* \"Tp2_Auction.sol\":13139:13696  if( result == false){   ... */\n    tag_150:\n        /* \"Tp2_Auction.sol\":13458:13465  aux_val */\n      dup2\n        /* \"Tp2_Auction.sol\":13422:13430  infoMapp */\n      0x06\n        /* \"Tp2_Auction.sol\":13422:13446  infoMapp[uniqueArray[i]] */\n      0x00\n        /* \"Tp2_Auction.sol\":13431:13442  uniqueArray */\n      0x0a\n        /* \"Tp2_Auction.sol\":13443:13444  i */\n      dup5\n        /* \"Tp2_Auction.sol\":13431:13445  uniqueArray[i] */\n      dup2\n      sload\n      dup2\n      lt\n      tag_153\n      jumpi\n      tag_154\n      tag_142\n      jump\t// in\n    tag_154:\n    tag_153:\n      swap1\n      0x00\n      mstore\n      keccak256(0x00, 0x20)\n      add\n      0x00\n      swap1\n      sload\n      swap1\n      0x0100\n      exp\n      swap1\n      div\n      0xffffffffffffffffffffffffffffffffffffffff\n      and\n        /* \"Tp2_Auction.sol\":13422:13446  infoMapp[uniqueArray[i]] */\n      0xffffffffffffffffffffffffffffffffffffffff\n      and\n      0xffffffffffffffffffffffffffffffffffffffff\n      and\n      dup2\n      mstore\n      0x20\n      add\n      swap1\n      dup2\n      mstore\n      0x20\n      add\n      0x00\n      keccak256\n        /* \"Tp2_Auction.sol\":13422:13454  infoMapp[uniqueArray[i]].balance */\n      0x02\n      add\n      0x00\n        /* \"Tp2_Auction.sol\":13422:13465  infoMapp[uniqueArray[i]].balance -= aux_val */\n      dup3\n      dup3\n      sload\n      tag_156\n      swap2\n      swap1\n      tag_118\n      jump\t// in\n    tag_156:\n      swap3\n      pop\n      pop\n      dup2\n      swap1\n      sstore\n      pop\n        /* \"Tp2_Auction.sol\":13533:13551  Person2 memory aux */\n      tag_157\n      tag_120\n      jump\t// in\n    tag_157:\n        /* \"Tp2_Auction.sol\":13583:13594  uniqueArray */\n      0x0a\n        /* \"Tp2_Auction.sol\":13595:13596  i */\n      dup3\n        /* \"Tp2_Auction.sol\":13583:13597  uniqueArray[i] */\n      dup2\n      sload\n      dup2\n      lt\n      tag_158\n      jumpi\n      tag_159\n      tag_142\n      jump\t// in\n    tag_159:\n    tag_158:\n      swap1\n      0x00\n      mstore\n      keccak256(0x00, 0x20)\n      add\n      0x00\n      swap1\n      sload\n      swap1\n      0x0100\n      exp\n      swap1\n      div\n      0xffffffffffffffffffffffffffffffffffffffff\n      and\n        /* \"Tp2_Auction.sol\":13574:13577  aux */\n      dup2\n        /* \"Tp2_Auction.sol\":13574:13580  aux.id */\n      0x00\n      add\n        /* \"Tp2_Auction.sol\":13574:13597  aux.id = uniqueArray[i] */\n      swap1\n      0xffffffffffffffffffffffffffffffffffffffff\n      and\n      swap1\n      dup2\n      0xffffffffffffffffffffffffffffffffffffffff\n      and\n      dup2\n      mstore\n      pop\n      pop\n        /* \"Tp2_Auction.sol\":13632:13633  0 */\n      0x00\n        /* \"Tp2_Auction.sol\":13620:13623  aux */\n      dup2\n        /* \"Tp2_Auction.sol\":13620:13629  aux.value */\n      0x20\n      add\n        /* \"Tp2_Auction.sol\":13620:13633  aux.value = 0 */\n      dup2\n      dup2\n      mstore\n      pop\n      pop\n        /* \"Tp2_Auction.sol\":13657:13666  infoArray */\n      0x07\n        /* \"Tp2_Auction.sol\":13672:13675  aux */\n      dup2\n        /* \"Tp2_Auction.sol\":13657:13676  infoArray.push(aux) */\n      swap1\n      dup1\n      0x01\n      dup2\n      sload\n      add\n      dup1\n      dup3\n      sstore\n      dup1\n      swap2\n      pop\n      pop\n      0x01\n      swap1\n      sub\n      swap1\n      0x00\n      mstore\n      keccak256(0x00, 0x20)\n      swap1\n      0x02\n      mul\n      add\n      0x00\n      swap1\n      swap2\n      swap1\n      swap2\n      swap1\n      swap2\n      pop\n      0x00\n      dup3\n      add\n      mload\n      dup2\n      0x00\n      add\n      exp(0x0100, 0x00)\n      dup2\n      sload\n      dup2\n      0xffffffffffffffffffffffffffffffffffffffff\n      mul\n      not\n      and\n      swap1\n      dup4\n      0xffffffffffffffffffffffffffffffffffffffff\n      and\n      mul\n      or\n      swap1\n      sstore\n      pop\n      0x20\n      dup3\n      add\n      mload\n      dup2\n      0x01\n      add\n      sstore\n      pop\n      pop\n        /* \"Tp2_Auction.sol\":13237:13696  {... */\n      pop\n        /* \"Tp2_Auction.sol\":13003:14327  if(uniqueArray[i] != winner.id){... */\n      jump(tag_162)\n    tag_144:\n        /* \"Tp2_Auction.sol\":13760:13793  returnEtherWinner(uniqueArray[i]) */\n      tag_163\n        /* \"Tp2_Auction.sol\":13778:13789  uniqueArray */\n      0x0a\n        /* \"Tp2_Auction.sol\":13790:13791  i */\n      dup3\n        /* \"Tp2_Auction.sol\":13778:13792  uniqueArray[i] */\n      dup2\n      sload\n      dup2\n      lt\n      tag_164\n      jumpi\n      tag_165\n      tag_142\n      jump\t// in\n    tag_165:\n    tag_164:\n      swap1\n      0x00\n      mstore\n      keccak256(0x00, 0x20)\n      add\n      0x00\n      swap1\n      sload\n      swap1\n      0x0100\n      exp\n      swap1\n      div\n      0xffffffffffffffffffffffffffffffffffffffff\n      and\n        /* \"Tp2_Auction.sol\":13760:13777  returnEtherWinner */\n      tag_167\n        /* \"Tp2_Auction.sol\":13760:13793  returnEtherWinner(uniqueArray[i]) */\n      jump\t// in\n    tag_163:\n        /* \"Tp2_Auction.sol\":13740:13793  (result, aux_val) = returnEtherWinner(uniqueArray[i]) */\n      dup1\n      swap4\n      pop\n      dup2\n      swap5\n      pop\n      pop\n      pop\n        /* \"Tp2_Auction.sol\":13829:13834  false */\n      0x00\n        /* \"Tp2_Auction.sol\":13819:13834  result == false */\n      iszero\n      iszero\n        /* \"Tp2_Auction.sol\":13819:13825  result */\n      dup4\n        /* \"Tp2_Auction.sol\":13819:13834  result == false */\n      iszero\n      iszero\n      sub\n        /* \"Tp2_Auction.sol\":13815:14312  if( result == false){   ... */\n      tag_168\n      jumpi\n        /* \"Tp2_Auction.sol\":13861:13885  revert(\"fallo el envio\") */\n      mload(0x40)\n      0x08c379a000000000000000000000000000000000000000000000000000000000\n      dup2\n      mstore\n      0x04\n      add\n      tag_169\n      swap1\n      tag_98\n      jump\t// in\n    tag_169:\n      mload(0x40)\n      dup1\n      swap2\n      sub\n      swap1\n      revert\n        /* \"Tp2_Auction.sol\":13815:14312  if( result == false){   ... */\n    tag_168:\n        /* \"Tp2_Auction.sol\":14075:14082  aux_val */\n      dup2\n        /* \"Tp2_Auction.sol\":14039:14047  infoMapp */\n      0x06\n        /* \"Tp2_Auction.sol\":14039:14063  infoMapp[uniqueArray[i]] */\n      0x00\n        /* \"Tp2_Auction.sol\":14048:14059  uniqueArray */\n      0x0a\n        /* \"Tp2_Auction.sol\":14060:14061  i */\n      dup5\n        /* \"Tp2_Auction.sol\":14048:14062  uniqueArray[i] */\n      dup2\n      sload\n      dup2\n      lt\n      tag_171\n      jumpi\n      tag_172\n      tag_142\n      jump\t// in\n    tag_172:\n    tag_171:\n      swap1\n      0x00\n      mstore\n      keccak256(0x00, 0x20)\n      add\n      0x00\n      swap1\n      sload\n      swap1\n      0x0100\n      exp\n      swap1\n      div\n      0xffffffffffffffffffffffffffffffffffffffff\n      and\n        /* \"Tp2_Auction.sol\":14039:14063  infoMapp[uniqueArray[i]] */\n      0xffffffffffffffffffffffffffffffffffffffff\n      and\n      0xffffffffffffffffffffffffffffffffffffffff\n      and\n      dup2\n      mstore\n      0x20\n      add\n      swap1\n      dup2\n      mstore\n      0x20\n      add\n      0x00\n      keccak256\n        /* \"Tp2_Auction.sol\":14039:14071  infoMapp[uniqueArray[i]].balance */\n      0x02\n      add\n      0x00\n        /* \"Tp2_Auction.sol\":14039:14082  infoMapp[uniqueArray[i]].balance -= aux_val */\n      dup3\n      dup3\n      sload\n      tag_174\n      swap2\n      swap1\n      tag_118\n      jump\t// in\n    tag_174:\n      swap3\n      pop\n      pop\n      dup2\n      swap1\n      sstore\n      pop\n        /* \"Tp2_Auction.sol\":14149:14167  Person2 memory aux */\n      tag_175\n      tag_120\n      jump\t// in\n    tag_175:\n        /* \"Tp2_Auction.sol\":14199:14210  uniqueArray */\n      0x0a\n        /* \"Tp2_Auction.sol\":14211:14212  i */\n      dup3\n        /* \"Tp2_Auction.sol\":14199:14213  uniqueArray[i] */\n      dup2\n      sload\n      dup2\n      lt\n      tag_176\n      jumpi\n      tag_177\n      tag_142\n      jump\t// in\n    tag_177:\n    tag_176:\n      swap1\n      0x00\n      mstore\n      keccak256(0x00, 0x20)\n      add\n      0x00\n      swap1\n      sload\n      swap1\n      0x0100\n      exp\n      swap1\n      div\n      0xffffffffffffffffffffffffffffffffffffffff\n      and\n        /* \"Tp2_Auction.sol\":14190:14193  aux */\n      dup2\n        /* \"Tp2_Auction.sol\":14190:14196  aux.id */\n      0x00\n      add\n        /* \"Tp2_Auction.sol\":14190:14213  aux.id = uniqueArray[i] */\n      swap1\n      0xffffffffffffffffffffffffffffffffffffffff\n      and\n      swap1\n      dup2\n      0xffffffffffffffffffffffffffffffffffffffff\n      and\n      dup2\n      mstore\n      pop\n      pop\n        /* \"Tp2_Auction.sol\":14248:14249  0 */\n      0x00\n        /* \"Tp2_Auction.sol\":14236:14239  aux */\n      dup2\n        /* \"Tp2_Auction.sol\":14236:14245  aux.value */\n      0x20\n      add\n        /* \"Tp2_Auction.sol\":14236:14249  aux.value = 0 */\n      dup2\n      dup2\n      mstore\n      pop\n      pop\n        /* \"Tp2_Auction.sol\":14273:14282  infoArray */\n      0x07\n        /* \"Tp2_Auction.sol\":14288:14291  aux */\n      dup2\n        /* \"Tp2_Auction.sol\":14273:14292  infoArray.push(aux) */\n      swap1\n      dup1\n      0x01\n      dup2\n      sload\n      add\n      dup1\n      dup3\n      sstore\n      dup1\n      swap2\n      pop\n      pop\n      0x01\n      swap1\n      sub\n      swap1\n      0x00\n      mstore\n      keccak256(0x00, 0x20)\n      swap1\n      0x02\n      mul\n      add\n      0x00\n      swap1\n      swap2\n      swap1\n      swap2\n      swap1\n      swap2\n      pop\n      0x00\n      dup3\n      add\n      mload\n      dup2\n      0x00\n      add\n      exp(0x0100, 0x00)\n      dup2\n      sload\n      dup2\n      0xffffffffffffffffffffffffffffffffffffffff\n      mul\n      not\n      and\n      swap1\n      dup4\n      0xffffffffffffffffffffffffffffffffffffffff\n      and\n      mul\n      or\n      swap1\n      sstore\n      pop\n      0x20\n      dup3\n      add\n      mload\n      dup2\n      0x01\n      add\n      sstore\n      pop\n      pop\n        /* \"Tp2_Auction.sol\":13913:14312  {... */\n      pop\n        /* \"Tp2_Auction.sol\":13003:14327  if(uniqueArray[i] != winner.id){... */\n    tag_162:\n        /* \"Tp2_Auction.sol\":12983:12986  i++ */\n      dup1\n      dup1\n      0x01\n      add\n      swap2\n      pop\n      pop\n        /* \"Tp2_Auction.sol\":12942:14338  for (uint i = 0; i < uniqueArray.length; i++) {... */\n      jump(tag_137)\n    tag_138:\n      pop\n        /* \"Tp2_Auction.sol\":12880:14345  {... */\n      pop\n      pop\n        /* \"Tp2_Auction.sol\":12825:14345  function returnOffers() external onlyOwner auctionEnded{... */\n      jump\t// out\n        /* \"Tp2_Auction.sol\":10154:10247  function showWinner() external view returns (Person2 memory) {... */\n    tag_35:\n        /* \"Tp2_Auction.sol\":10199:10213  Person2 memory */\n      tag_180\n      tag_120\n      jump\t// in\n    tag_180:\n        /* \"Tp2_Auction.sol\":10233:10239  winner */\n      0x08\n        /* \"Tp2_Auction.sol\":10226:10239  return winner */\n      mload(0x40)\n      dup1\n      0x40\n      add\n      0x40\n      mstore\n      swap1\n      dup2\n      0x00\n      dup3\n      add\n      0x00\n      swap1\n      sload\n      swap1\n      0x0100\n      exp\n      swap1\n      div\n      0xffffffffffffffffffffffffffffffffffffffff\n      and\n      0xffffffffffffffffffffffffffffffffffffffff\n      and\n      0xffffffffffffffffffffffffffffffffffffffff\n      and\n      dup2\n      mstore\n      0x20\n      add\n      0x01\n      dup3\n      add\n      sload\n      dup2\n      mstore\n      pop\n      pop\n      swap1\n      pop\n        /* \"Tp2_Auction.sol\":10154:10247  function showWinner() external view returns (Person2 memory) {... */\n      swap1\n      jump\t// out\n        /* \"Tp2_Auction.sol\":811:829  State public state */\n    tag_40:\n      0x05\n      0x00\n      swap1\n      sload\n      swap1\n      0x0100\n      exp\n      swap1\n      div\n      0xff\n      and\n      dup2\n      jump\t// out\n        /* \"Tp2_Auction.sol\":12373:12653  function endAuction() external onlyOwner auctionAlive{... */\n    tag_45:\n        /* \"Tp2_Auction.sol\":3218:3228  msg.sender */\n      caller\n        /* \"Tp2_Auction.sol\":3211:3228  owner==msg.sender */\n      0xffffffffffffffffffffffffffffffffffffffff\n      and\n        /* \"Tp2_Auction.sol\":3211:3216  owner */\n      0x00\n      0x00\n      swap1\n      sload\n      swap1\n      0x0100\n      exp\n      swap1\n      div\n      0xffffffffffffffffffffffffffffffffffffffff\n      and\n        /* \"Tp2_Auction.sol\":3211:3228  owner==msg.sender */\n      0xffffffffffffffffffffffffffffffffffffffff\n      and\n      eq\n        /* \"Tp2_Auction.sol\":3203:3245  require(owner==msg.sender,\"not the owner\") */\n      tag_183\n      jumpi\n      mload(0x40)\n      0x08c379a000000000000000000000000000000000000000000000000000000000\n      dup2\n      mstore\n      0x04\n      add\n      tag_184\n      swap1\n      tag_81\n      jump\t// in\n    tag_184:\n      mload(0x40)\n      dup1\n      swap2\n      sub\n      swap1\n      revert\n    tag_183:\n        /* \"Tp2_Auction.sol\":3627:3635  State.on */\n      0x00\n        /* \"Tp2_Auction.sol\":3618:3635  state == State.on */\n      0x01\n      dup2\n      gt\n      iszero\n      tag_186\n      jumpi\n      tag_187\n      tag_49\n      jump\t// in\n    tag_187:\n    tag_186:\n        /* \"Tp2_Auction.sol\":3618:3623  state */\n      0x05\n      0x00\n      swap1\n      sload\n      swap1\n      0x0100\n      exp\n      swap1\n      div\n      0xff\n      and\n        /* \"Tp2_Auction.sol\":3618:3635  state == State.on */\n      0x01\n      dup2\n      gt\n      iszero\n      tag_188\n      jumpi\n      tag_189\n      tag_49\n      jump\t// in\n    tag_189:\n    tag_188:\n      eq\n        /* \"Tp2_Auction.sol\":3610:3660  require(state == State.on,\"auction already ended\") */\n      tag_190\n      jumpi\n      mload(0x40)\n      0x08c379a000000000000000000000000000000000000000000000000000000000\n      dup2\n      mstore\n      0x04\n      add\n      tag_191\n      swap1\n      tag_106\n      jump\t// in\n    tag_191:\n      mload(0x40)\n      dup1\n      swap2\n      sub\n      swap1\n      revert\n    tag_190:\n        /* \"Tp2_Auction.sol\":12459:12469  expiration */\n      sload(0x04)\n        /* \"Tp2_Auction.sol\":12441:12456  block.timestamp */\n      timestamp\n        /* \"Tp2_Auction.sol\":12441:12469  block.timestamp > expiration */\n      gt\n        /* \"Tp2_Auction.sol\":12437:12646  if (block.timestamp > expiration) {... */\n      iszero\n      tag_193\n      jumpi\n        /* \"Tp2_Auction.sol\":12494:12503  State.off */\n      0x01\n        /* \"Tp2_Auction.sol\":12486:12491  state */\n      0x05\n      0x00\n        /* \"Tp2_Auction.sol\":12486:12503  state = State.off */\n      0x0100\n      exp\n      dup2\n      sload\n      dup2\n      0xff\n      mul\n      not\n      and\n      swap1\n      dup4\n      0x01\n      dup2\n      gt\n      iszero\n      tag_194\n      jumpi\n      tag_195\n      tag_49\n      jump\t// in\n    tag_195:\n    tag_194:\n      mul\n      or\n      swap1\n      sstore\n      pop\n        /* \"Tp2_Auction.sol\":12541:12578  AuctionEnded(winner.id, winner.value) */\n      0xdaec4582d5d9595688c8c98545fdd1c696d41c6aeaeb636737e84ed2f5c00eda\n        /* \"Tp2_Auction.sol\":12554:12560  winner */\n      0x08\n        /* \"Tp2_Auction.sol\":12554:12563  winner.id */\n      0x00\n      add\n      0x00\n      swap1\n      sload\n      swap1\n      0x0100\n      exp\n      swap1\n      div\n      0xffffffffffffffffffffffffffffffffffffffff\n      and\n        /* \"Tp2_Auction.sol\":12565:12571  winner */\n      0x08\n        /* \"Tp2_Auction.sol\":12565:12577  winner.value */\n      0x01\n      add\n      sload\n        /* \"Tp2_Auction.sol\":12541:12578  AuctionEnded(winner.id, winner.value) */\n      mload(0x40)\n      tag_196\n      swap3\n      swap2\n      swap1\n      tag_197\n      jump\t// in\n    tag_196:\n      mload(0x40)\n      dup1\n      swap2\n      sub\n      swap1\n      log1\n        /* \"Tp2_Auction.sol\":12437:12646  if (block.timestamp > expiration) {... */\n      jump(tag_198)\n    tag_193:\n        /* \"Tp2_Auction.sol\":12611:12634  revert(\"aun no expiro\") */\n      mload(0x40)\n      0x08c379a000000000000000000000000000000000000000000000000000000000\n      dup2\n      mstore\n      0x04\n      add\n      tag_199\n      swap1\n      tag_200\n      jump\t// in\n    tag_199:\n      mload(0x40)\n      dup1\n      swap2\n      sub\n      swap1\n      revert\n        /* \"Tp2_Auction.sol\":12437:12646  if (block.timestamp > expiration) {... */\n    tag_198:\n        /* \"Tp2_Auction.sol\":12373:12653  function endAuction() external onlyOwner auctionAlive{... */\n      jump\t// out\n        /* \"Tp2_Auction.sol\":4474:4600  function updateWinner (address _id, uint256 _value) private {... */\n    tag_65:\n        /* \"Tp2_Auction.sol\":4557:4560  _id */\n      dup2\n        /* \"Tp2_Auction.sol\":4545:4551  winner */\n      0x08\n        /* \"Tp2_Auction.sol\":4545:4554  winner.id */\n      0x00\n      add\n      0x00\n        /* \"Tp2_Auction.sol\":4545:4560  winner.id = _id */\n      0x0100\n      exp\n      dup2\n      sload\n      dup2\n      0xffffffffffffffffffffffffffffffffffffffff\n      mul\n      not\n      and\n      swap1\n      dup4\n      0xffffffffffffffffffffffffffffffffffffffff\n      and\n      mul\n      or\n      swap1\n      sstore\n      pop\n        /* \"Tp2_Auction.sol\":4586:4592  _value */\n      dup1\n        /* \"Tp2_Auction.sol\":4571:4577  winner */\n      0x08\n        /* \"Tp2_Auction.sol\":4571:4583  winner.value */\n      0x01\n      add\n        /* \"Tp2_Auction.sol\":4571:4592  winner.value = _value */\n      dup2\n      swap1\n      sstore\n      pop\n        /* \"Tp2_Auction.sol\":4474:4600  function updateWinner (address _id, uint256 _value) private {... */\n      pop\n      pop\n      jump\t// out\n        /* \"Tp2_Auction.sol\":4813:5052  function updateInfoMApp (address _id, uint256 _value, uint256 _value2) private {... */\n    tag_67:\n        /* \"Tp2_Auction.sol\":4954:4960  _value */\n      dup2\n        /* \"Tp2_Auction.sol\":4932:4940  infoMapp */\n      0x06\n        /* \"Tp2_Auction.sol\":4932:4945  infoMapp[_id] */\n      0x00\n        /* \"Tp2_Auction.sol\":4941:4944  _id */\n      dup6\n        /* \"Tp2_Auction.sol\":4932:4945  infoMapp[_id] */\n      0xffffffffffffffffffffffffffffffffffffffff\n      and\n      0xffffffffffffffffffffffffffffffffffffffff\n      and\n      dup2\n      mstore\n      0x20\n      add\n      swap1\n      dup2\n      mstore\n      0x20\n      add\n      0x00\n      keccak256\n        /* \"Tp2_Auction.sol\":4932:4951  infoMapp[_id].value */\n      0x01\n      add\n        /* \"Tp2_Auction.sol\":4932:4960  infoMapp[_id].value = _value */\n      dup2\n      swap1\n      sstore\n      pop\n        /* \"Tp2_Auction.sol\":5010:5017  _value2 */\n      dup1\n        /* \"Tp2_Auction.sol\":4985:4993  infoMapp */\n      0x06\n        /* \"Tp2_Auction.sol\":4985:4998  infoMapp[_id] */\n      0x00\n        /* \"Tp2_Auction.sol\":4994:4997  _id */\n      dup6\n        /* \"Tp2_Auction.sol\":4985:4998  infoMapp[_id] */\n      0xffffffffffffffffffffffffffffffffffffffff\n      and\n      0xffffffffffffffffffffffffffffffffffffffff\n      and\n      dup2\n      mstore\n      0x20\n      add\n      swap1\n      dup2\n      mstore\n      0x20\n      add\n      0x00\n      keccak256\n        /* \"Tp2_Auction.sol\":4985:5006  infoMapp[_id].balance */\n      0x02\n      add\n      0x00\n        /* \"Tp2_Auction.sol\":4985:5017  infoMapp[_id].balance += _value2 */\n      dup3\n      dup3\n      sload\n      tag_203\n      swap2\n      swap1\n      tag_204\n      jump\t// in\n    tag_203:\n      swap3\n      pop\n      pop\n      dup2\n      swap1\n      sstore\n      pop\n        /* \"Tp2_Auction.sol\":4813:5052  function updateInfoMApp (address _id, uint256 _value, uint256 _value2) private {... */\n      pop\n      pop\n      pop\n      jump\t// out\n        /* \"Tp2_Auction.sol\":5235:5417  function updateInfoArray (address _id, uint256 _value) private {... */\n    tag_69:\n        /* \"Tp2_Auction.sol\":5309:5327  Person2 memory aux */\n      tag_206\n      tag_120\n      jump\t// in\n    tag_206:\n        /* \"Tp2_Auction.sol\":5347:5350  _id */\n      dup3\n        /* \"Tp2_Auction.sol\":5338:5341  aux */\n      dup2\n        /* \"Tp2_Auction.sol\":5338:5344  aux.id */\n      0x00\n      add\n        /* \"Tp2_Auction.sol\":5338:5350  aux.id = _id */\n      swap1\n      0xffffffffffffffffffffffffffffffffffffffff\n      and\n      swap1\n      dup2\n      0xffffffffffffffffffffffffffffffffffffffff\n      and\n      dup2\n      mstore\n      pop\n      pop\n        /* \"Tp2_Auction.sol\":5373:5379  _value */\n      dup2\n        /* \"Tp2_Auction.sol\":5361:5364  aux */\n      dup2\n        /* \"Tp2_Auction.sol\":5361:5370  aux.value */\n      0x20\n      add\n        /* \"Tp2_Auction.sol\":5361:5379  aux.value = _value */\n      dup2\n      dup2\n      mstore\n      pop\n      pop\n        /* \"Tp2_Auction.sol\":5390:5399  infoArray */\n      0x07\n        /* \"Tp2_Auction.sol\":5405:5408  aux */\n      dup2\n        /* \"Tp2_Auction.sol\":5390:5409  infoArray.push(aux) */\n      swap1\n      dup1\n      0x01\n      dup2\n      sload\n      add\n      dup1\n      dup3\n      sstore\n      dup1\n      swap2\n      pop\n      pop\n      0x01\n      swap1\n      sub\n      swap1\n      0x00\n      mstore\n      keccak256(0x00, 0x20)\n      swap1\n      0x02\n      mul\n      add\n      0x00\n      swap1\n      swap2\n      swap1\n      swap2\n      swap1\n      swap2\n      pop\n      0x00\n      dup3\n      add\n      mload\n      dup2\n      0x00\n      add\n      exp(0x0100, 0x00)\n      dup2\n      sload\n      dup2\n      0xffffffffffffffffffffffffffffffffffffffff\n      mul\n      not\n      and\n      swap1\n      dup4\n      0xffffffffffffffffffffffffffffffffffffffff\n      and\n      mul\n      or\n      swap1\n      sstore\n      pop\n      0x20\n      dup3\n      add\n      mload\n      dup2\n      0x01\n      add\n      sstore\n      pop\n      pop\n        /* \"Tp2_Auction.sol\":5298:5417  {... */\n      pop\n        /* \"Tp2_Auction.sol\":5235:5417  function updateInfoArray (address _id, uint256 _value) private {... */\n      pop\n      pop\n      jump\t// out\n        /* \"Tp2_Auction.sol\":5540:5698  function updateExpiration () private {... */\n    tag_71:\n        /* \"Tp2_Auction.sol\":5625:5631  window */\n      sload(0x03)\n        /* \"Tp2_Auction.sol\":5612:5622  expiration */\n      sload(0x04)\n        /* \"Tp2_Auction.sol\":5612:5631  expiration - window */\n      tag_209\n      swap2\n      swap1\n      tag_118\n      jump\t// in\n    tag_209:\n        /* \"Tp2_Auction.sol\":5593:5608  block.timestamp */\n      timestamp\n        /* \"Tp2_Auction.sol\":5593:5631  block.timestamp >= expiration - window */\n      lt\n        /* \"Tp2_Auction.sol\":5589:5681  if (block.timestamp >= expiration - window) {... */\n      tag_210\n      jumpi\n        /* \"Tp2_Auction.sol\":5662:5668  window */\n      sload(0x03)\n        /* \"Tp2_Auction.sol\":5648:5658  expiration */\n      0x04\n      0x00\n        /* \"Tp2_Auction.sol\":5648:5668  expiration += window */\n      dup3\n      dup3\n      sload\n      tag_211\n      swap2\n      swap1\n      tag_204\n      jump\t// in\n    tag_211:\n      swap3\n      pop\n      pop\n      dup2\n      swap1\n      sstore\n      pop\n        /* \"Tp2_Auction.sol\":5589:5681  if (block.timestamp >= expiration - window) {... */\n    tag_210:\n        /* \"Tp2_Auction.sol\":5540:5698  function updateExpiration () private {... */\n      jump\t// out\n        /* \"Tp2_Auction.sol\":8673:9094  function addUnique(address _id) private {   // only add `msg.sender` to `uniqueArray` if it's not there yet... */\n    tag_74:\n        /* \"Tp2_Auction.sol\":8849:8854  false */\n      0x00\n        /* \"Tp2_Auction.sol\":8832:8854  isBidder[_id] == false */\n      iszero\n      iszero\n        /* \"Tp2_Auction.sol\":8832:8840  isBidder */\n      0x0b\n        /* \"Tp2_Auction.sol\":8832:8845  isBidder[_id] */\n      0x00\n        /* \"Tp2_Auction.sol\":8841:8844  _id */\n      dup4\n        /* \"Tp2_Auction.sol\":8832:8845  isBidder[_id] */\n      0xffffffffffffffffffffffffffffffffffffffff\n      and\n      0xffffffffffffffffffffffffffffffffffffffff\n      and\n      dup2\n      mstore\n      0x20\n      add\n      swap1\n      dup2\n      mstore\n      0x20\n      add\n      0x00\n      keccak256\n      0x00\n      swap1\n      sload\n      swap1\n      0x0100\n      exp\n      swap1\n      div\n      0xff\n      and\n        /* \"Tp2_Auction.sol\":8832:8854  isBidder[_id] == false */\n      iszero\n      iszero\n      sub\n        /* \"Tp2_Auction.sol\":8828:9087  if (isBidder[_id] == false) {... */\n      tag_213\n      jumpi\n        /* \"Tp2_Auction.sol\":8921:8932  uniqueArray */\n      0x0a\n        /* \"Tp2_Auction.sol\":8946:8949  _id */\n      dup2\n        /* \"Tp2_Auction.sol\":8921:8951  uniqueArray.push(payable(_id)) */\n      swap1\n      dup1\n      0x01\n      dup2\n      sload\n      add\n      dup1\n      dup3\n      sstore\n      dup1\n      swap2\n      pop\n      pop\n      0x01\n      swap1\n      sub\n      swap1\n      0x00\n      mstore\n      keccak256(0x00, 0x20)\n      add\n      0x00\n      swap1\n      swap2\n      swap1\n      swap2\n      swap1\n      swap2\n      0x0100\n      exp\n      dup2\n      sload\n      dup2\n      0xffffffffffffffffffffffffffffffffffffffff\n      mul\n      not\n      and\n      swap1\n      dup4\n      0xffffffffffffffffffffffffffffffffffffffff\n      and\n      mul\n      or\n      swap1\n      sstore\n      pop\n        /* \"Tp2_Auction.sol\":9071:9075  true */\n      0x01\n        /* \"Tp2_Auction.sol\":9055:9063  isBidder */\n      0x0b\n        /* \"Tp2_Auction.sol\":9055:9068  isBidder[_id] */\n      0x00\n        /* \"Tp2_Auction.sol\":9064:9067  _id */\n      dup4\n        /* \"Tp2_Auction.sol\":9055:9068  isBidder[_id] */\n      0xffffffffffffffffffffffffffffffffffffffff\n      and\n      0xffffffffffffffffffffffffffffffffffffffff\n      and\n      dup2\n      mstore\n      0x20\n      add\n      swap1\n      dup2\n      mstore\n      0x20\n      add\n      0x00\n      keccak256\n      0x00\n        /* \"Tp2_Auction.sol\":9055:9075  isBidder[_id] = true */\n      0x0100\n      exp\n      dup2\n      sload\n      dup2\n      0xff\n      mul\n      not\n      and\n      swap1\n      dup4\n      iszero\n      iszero\n      mul\n      or\n      swap1\n      sstore\n      pop\n        /* \"Tp2_Auction.sol\":8828:9087  if (isBidder[_id] == false) {... */\n    tag_213:\n        /* \"Tp2_Auction.sol\":8673:9094  function addUnique(address _id) private {   // only add `msg.sender` to `uniqueArray` if it's not there yet... */\n      pop\n      jump\t// out\n        /* \"Tp2_Auction.sol\":7784:8516  function returnClaimedEthers(address payable _to) internal returns (bool, uint256) {... */\n    tag_113:\n        /* \"Tp2_Auction.sol\":7852:7856  bool */\n      0x00\n        /* \"Tp2_Auction.sol\":7858:7865  uint256 */\n      0x00\n        /* \"Tp2_Auction.sol\":7908:7916  infoMapp */\n      0x06\n        /* \"Tp2_Auction.sol\":7908:7921  infoMapp[_to] */\n      0x00\n        /* \"Tp2_Auction.sol\":7917:7920  _to */\n      dup5\n        /* \"Tp2_Auction.sol\":7908:7921  infoMapp[_to] */\n      0xffffffffffffffffffffffffffffffffffffffff\n      and\n      0xffffffffffffffffffffffffffffffffffffffff\n      and\n      dup2\n      mstore\n      0x20\n      add\n      swap1\n      dup2\n      mstore\n      0x20\n      add\n      0x00\n      keccak256\n        /* \"Tp2_Auction.sol\":7908:7927  infoMapp[_to].value */\n      0x01\n      add\n      sload\n        /* \"Tp2_Auction.sol\":7884:7892  infoMapp */\n      0x06\n        /* \"Tp2_Auction.sol\":7884:7897  infoMapp[_to] */\n      0x00\n        /* \"Tp2_Auction.sol\":7893:7896  _to */\n      dup6\n        /* \"Tp2_Auction.sol\":7884:7897  infoMapp[_to] */\n      0xffffffffffffffffffffffffffffffffffffffff\n      and\n      0xffffffffffffffffffffffffffffffffffffffff\n      and\n      dup2\n      mstore\n      0x20\n      add\n      swap1\n      dup2\n      mstore\n      0x20\n      add\n      0x00\n      keccak256\n        /* \"Tp2_Auction.sol\":7884:7905  infoMapp[_to].balance */\n      0x02\n      add\n      sload\n        /* \"Tp2_Auction.sol\":7884:7927  infoMapp[_to].balance > infoMapp[_to].value */\n      gt\n        /* \"Tp2_Auction.sol\":7880:8509  if (infoMapp[_to].balance > infoMapp[_to].value) { // value in the mapp is the last valid offer ... */\n      iszero\n      tag_216\n      jumpi\n        /* \"Tp2_Auction.sol\":8003:8019  uint256 aux_val1 */\n      0x00\n        /* \"Tp2_Auction.sol\":8047:8055  infoMapp */\n      0x06\n        /* \"Tp2_Auction.sol\":8047:8060  infoMapp[_to] */\n      0x00\n        /* \"Tp2_Auction.sol\":8056:8059  _to */\n      dup6\n        /* \"Tp2_Auction.sol\":8047:8060  infoMapp[_to] */\n      0xffffffffffffffffffffffffffffffffffffffff\n      and\n      0xffffffffffffffffffffffffffffffffffffffff\n      and\n      dup2\n      mstore\n      0x20\n      add\n      swap1\n      dup2\n      mstore\n      0x20\n      add\n      0x00\n      keccak256\n        /* \"Tp2_Auction.sol\":8047:8066  infoMapp[_to].value */\n      0x01\n      add\n      sload\n        /* \"Tp2_Auction.sol\":8023:8031  infoMapp */\n      0x06\n        /* \"Tp2_Auction.sol\":8023:8036  infoMapp[_to] */\n      0x00\n        /* \"Tp2_Auction.sol\":8032:8035  _to */\n      dup7\n        /* \"Tp2_Auction.sol\":8023:8036  infoMapp[_to] */\n      0xffffffffffffffffffffffffffffffffffffffff\n      and\n      0xffffffffffffffffffffffffffffffffffffffff\n      and\n      dup2\n      mstore\n      0x20\n      add\n      swap1\n      dup2\n      mstore\n      0x20\n      add\n      0x00\n      keccak256\n        /* \"Tp2_Auction.sol\":8023:8044  infoMapp[_to].balance */\n      0x02\n      add\n      sload\n        /* \"Tp2_Auction.sol\":8023:8066  infoMapp[_to].balance - infoMapp[_to].value */\n      tag_217\n      swap2\n      swap1\n      tag_118\n      jump\t// in\n    tag_217:\n        /* \"Tp2_Auction.sol\":8003:8067  uint256 aux_val1 = (infoMapp[_to].balance - infoMapp[_to].value) */\n      swap1\n      pop\n        /* \"Tp2_Auction.sol\":8128:8144  uint256 aux_val2 */\n      0x00\n        /* \"Tp2_Auction.sol\":8164:8167  100 */\n      0x64\n        /* \"Tp2_Auction.sol\":8159:8161  98 */\n      0x62\n        /* \"Tp2_Auction.sol\":8148:8156  aux_val1 */\n      dup4\n        /* \"Tp2_Auction.sol\":8148:8161  aux_val1 * 98 */\n      tag_218\n      swap2\n      swap1\n      tag_57\n      jump\t// in\n    tag_218:\n        /* \"Tp2_Auction.sol\":8148:8167  aux_val1 * 98 / 100 */\n      tag_219\n      swap2\n      swap1\n      tag_59\n      jump\t// in\n    tag_219:\n        /* \"Tp2_Auction.sol\":8128:8168  uint256 aux_val2 = (aux_val1 * 98 / 100) */\n      swap1\n      pop\n        /* \"Tp2_Auction.sol\":8186:8197  bool result */\n      0x00\n        /* \"Tp2_Auction.sol\":8203:8206  _to */\n      dup6\n        /* \"Tp2_Auction.sol\":8203:8211  _to.call */\n      0xffffffffffffffffffffffffffffffffffffffff\n      and\n        /* \"Tp2_Auction.sol\":8217:8221  2300 */\n      0x08fc\n        /* \"Tp2_Auction.sol\":8229:8237  aux_val2 */\n      dup4\n        /* \"Tp2_Auction.sol\":8203:8242  _to.call{gas: 2300, value:aux_val2}(\"\") */\n      mload(0x40)\n      tag_220\n      swap1\n      tag_92\n      jump\t// in\n    tag_220:\n      0x00\n      mload(0x40)\n      dup1\n      dup4\n      sub\n      dup2\n      dup6\n      dup9\n      dup9\n      call\n      swap4\n      pop\n      pop\n      pop\n      pop\n      returndatasize\n      dup1\n      0x00\n      dup2\n      eq\n      tag_223\n      jumpi\n      mload(0x40)\n      swap2\n      pop\n      and(add(returndatasize, 0x3f), not(0x1f))\n      dup3\n      add\n      0x40\n      mstore\n      returndatasize\n      dup3\n      mstore\n      returndatasize\n      0x00\n      0x20\n      dup5\n      add\n      returndatacopy\n      jump(tag_222)\n    tag_223:\n      0x60\n      swap2\n      pop\n    tag_222:\n      pop\n        /* \"Tp2_Auction.sol\":8185:8242  (bool result, ) = _to.call{gas: 2300, value:aux_val2}(\"\") */\n      pop\n      swap1\n      pop\n        /* \"Tp2_Auction.sol\":8274:8279  false */\n      0x00\n        /* \"Tp2_Auction.sol\":8264:8279  result == false */\n      iszero\n      iszero\n        /* \"Tp2_Auction.sol\":8264:8270  result */\n      dup2\n        /* \"Tp2_Auction.sol\":8264:8279  result == false */\n      iszero\n      iszero\n      sub\n        /* \"Tp2_Auction.sol\":8260:8440  if( result == false){   ... */\n      tag_224\n      jumpi\n        /* \"Tp2_Auction.sol\":8313:8314  0 */\n      0x00\n        /* \"Tp2_Auction.sol\":8302:8314  aux_val1 = 0 */\n      swap3\n      pop\n        /* \"Tp2_Auction.sol\":8341:8347  result */\n      dup1\n        /* \"Tp2_Auction.sol\":8349:8357  aux_val1 */\n      dup4\n        /* \"Tp2_Auction.sol\":8333:8358  return (result, aux_val1) */\n      swap5\n      pop\n      swap5\n      pop\n      pop\n      pop\n      pop\n      jump(tag_215)\n        /* \"Tp2_Auction.sol\":8260:8440  if( result == false){   ... */\n    tag_224:\n        /* \"Tp2_Auction.sol\":8407:8413  result */\n      dup1\n        /* \"Tp2_Auction.sol\":8415:8423  aux_val1 */\n      dup4\n        /* \"Tp2_Auction.sol\":8399:8424  return (result, aux_val1) */\n      swap5\n      pop\n      swap5\n      pop\n      pop\n      pop\n      pop\n      jump(tag_215)\n        /* \"Tp2_Auction.sol\":7880:8509  if (infoMapp[_to].balance > infoMapp[_to].value) { // value in the mapp is the last valid offer ... */\n    tag_216:\n        /* \"Tp2_Auction.sol\":8484:8488  true */\n      0x01\n        /* \"Tp2_Auction.sol\":8490:8491  0 */\n      0x00\n        /* \"Tp2_Auction.sol\":8476:8492  return (true, 0) */\n      swap2\n      pop\n      swap2\n      pop\n        /* \"Tp2_Auction.sol\":7784:8516  function returnClaimedEthers(address payable _to) internal returns (bool, uint256) {... */\n    tag_215:\n      swap2\n      pop\n      swap2\n      jump\t// out\n        /* \"Tp2_Auction.sol\":5925:6856  function returnEther(address payable _to) internal returns (bool, uint256) {... */\n    tag_149:\n        /* \"Tp2_Auction.sol\":5985:5989  bool */\n      0x00\n        /* \"Tp2_Auction.sol\":5991:5998  uint256 */\n      0x00\n        /* \"Tp2_Auction.sol\":6399:6415  uint256 aux_val1 */\n      0x00\n        /* \"Tp2_Auction.sol\":6419:6427  infoMapp */\n      0x06\n        /* \"Tp2_Auction.sol\":6419:6432  infoMapp[_to] */\n      0x00\n        /* \"Tp2_Auction.sol\":6428:6431  _to */\n      dup6\n        /* \"Tp2_Auction.sol\":6419:6432  infoMapp[_to] */\n      0xffffffffffffffffffffffffffffffffffffffff\n      and\n      0xffffffffffffffffffffffffffffffffffffffff\n      and\n      dup2\n      mstore\n      0x20\n      add\n      swap1\n      dup2\n      mstore\n      0x20\n      add\n      0x00\n      keccak256\n        /* \"Tp2_Auction.sol\":6419:6440  infoMapp[_to].balance */\n      0x02\n      add\n      sload\n        /* \"Tp2_Auction.sol\":6399:6441  uint256 aux_val1 = (infoMapp[_to].balance) */\n      swap1\n      pop\n        /* \"Tp2_Auction.sol\":6452:6468  uint256 aux_val2 */\n      0x00\n        /* \"Tp2_Auction.sol\":6488:6491  100 */\n      0x64\n        /* \"Tp2_Auction.sol\":6483:6485  98 */\n      0x62\n        /* \"Tp2_Auction.sol\":6472:6480  aux_val1 */\n      dup4\n        /* \"Tp2_Auction.sol\":6472:6485  aux_val1 * 98 */\n      tag_228\n      swap2\n      swap1\n      tag_57\n      jump\t// in\n    tag_228:\n        /* \"Tp2_Auction.sol\":6472:6491  aux_val1 * 98 / 100 */\n      tag_229\n      swap2\n      swap1\n      tag_59\n      jump\t// in\n    tag_229:\n        /* \"Tp2_Auction.sol\":6452:6492  uint256 aux_val2 = (aux_val1 * 98 / 100) */\n      swap1\n      pop\n        /* \"Tp2_Auction.sol\":6506:6517  bool result */\n      0x00\n        /* \"Tp2_Auction.sol\":6523:6526  _to */\n      dup6\n        /* \"Tp2_Auction.sol\":6523:6531  _to.call */\n      0xffffffffffffffffffffffffffffffffffffffff\n      and\n        /* \"Tp2_Auction.sol\":6537:6541  2300 */\n      0x08fc\n        /* \"Tp2_Auction.sol\":6549:6557  aux_val2 */\n      dup4\n        /* \"Tp2_Auction.sol\":6523:6562  _to.call{gas: 2300, value:aux_val2}(\"\") */\n      mload(0x40)\n      tag_230\n      swap1\n      tag_92\n      jump\t// in\n    tag_230:\n      0x00\n      mload(0x40)\n      dup1\n      dup4\n      sub\n      dup2\n      dup6\n      dup9\n      dup9\n      call\n      swap4\n      pop\n      pop\n      pop\n      pop\n      returndatasize\n      dup1\n      0x00\n      dup2\n      eq\n      tag_233\n      jumpi\n      mload(0x40)\n      swap2\n      pop\n      and(add(returndatasize, 0x3f), not(0x1f))\n      dup3\n      add\n      0x40\n      mstore\n      returndatasize\n      dup3\n      mstore\n      returndatasize\n      0x00\n      0x20\n      dup5\n      add\n      returndatacopy\n      jump(tag_232)\n    tag_233:\n      0x60\n      swap2\n      pop\n    tag_232:\n      pop\n        /* \"Tp2_Auction.sol\":6505:6562  (bool result, ) = _to.call{gas: 2300, value:aux_val2}(\"\") */\n      pop\n      swap1\n      pop\n        /* \"Tp2_Auction.sol\":6590:6595  false */\n      0x00\n        /* \"Tp2_Auction.sol\":6580:6595  result == false */\n      iszero\n      iszero\n        /* \"Tp2_Auction.sol\":6580:6586  result */\n      dup2\n        /* \"Tp2_Auction.sol\":6580:6595  result == false */\n      iszero\n      iszero\n      sub\n        /* \"Tp2_Auction.sol\":6576:6849  if( result == false){   // The function does not revert; it returns True/False, so the return value must be checked... */\n      tag_234\n      jumpi\n        /* \"Tp2_Auction.sol\":6716:6717  0 */\n      0x00\n        /* \"Tp2_Auction.sol\":6705:6717  aux_val1 = 0 */\n      swap3\n      pop\n        /* \"Tp2_Auction.sol\":6740:6746  result */\n      dup1\n        /* \"Tp2_Auction.sol\":6748:6756  aux_val1 */\n      dup4\n        /* \"Tp2_Auction.sol\":6732:6757  return (result, aux_val1) */\n      swap5\n      pop\n      swap5\n      pop\n      pop\n      pop\n      pop\n      jump(tag_227)\n        /* \"Tp2_Auction.sol\":6576:6849  if( result == false){   // The function does not revert; it returns True/False, so the return value must be checked... */\n    tag_234:\n        /* \"Tp2_Auction.sol\":6820:6826  result */\n      dup1\n        /* \"Tp2_Auction.sol\":6828:6836  aux_val1 */\n      dup4\n        /* \"Tp2_Auction.sol\":6812:6837  return (result, aux_val1) */\n      swap5\n      pop\n      swap5\n      pop\n      pop\n      pop\n      pop\n        /* \"Tp2_Auction.sol\":5925:6856  function returnEther(address payable _to) internal returns (bool, uint256) {... */\n    tag_227:\n      swap2\n      pop\n      swap2\n      jump\t// out\n        /* \"Tp2_Auction.sol\":7097:7550  function returnEtherWinner(address payable _to) internal returns (bool, uint256) {... */\n    tag_167:\n        /* \"Tp2_Auction.sol\":7163:7167  bool */\n      0x00\n        /* \"Tp2_Auction.sol\":7169:7176  uint256 */\n      0x00\n        /* \"Tp2_Auction.sol\":7191:7207  uint256 aux_val1 */\n      0x00\n        /* \"Tp2_Auction.sol\":7235:7241  winner */\n      0x08\n        /* \"Tp2_Auction.sol\":7235:7247  winner.value */\n      0x01\n      add\n      sload\n        /* \"Tp2_Auction.sol\":7211:7219  infoMapp */\n      0x06\n        /* \"Tp2_Auction.sol\":7211:7224  infoMapp[_to] */\n      0x00\n        /* \"Tp2_Auction.sol\":7220:7223  _to */\n      dup7\n        /* \"Tp2_Auction.sol\":7211:7224  infoMapp[_to] */\n      0xffffffffffffffffffffffffffffffffffffffff\n      and\n      0xffffffffffffffffffffffffffffffffffffffff\n      and\n      dup2\n      mstore\n      0x20\n      add\n      swap1\n      dup2\n      mstore\n      0x20\n      add\n      0x00\n      keccak256\n        /* \"Tp2_Auction.sol\":7211:7232  infoMapp[_to].balance */\n      0x02\n      add\n      sload\n        /* \"Tp2_Auction.sol\":7211:7247  infoMapp[_to].balance - winner.value */\n      tag_237\n      swap2\n      swap1\n      tag_118\n      jump\t// in\n    tag_237:\n        /* \"Tp2_Auction.sol\":7191:7248  uint256 aux_val1 = (infoMapp[_to].balance - winner.value) */\n      swap1\n      pop\n        /* \"Tp2_Auction.sol\":7259:7275  uint256 aux_val2 */\n      0x00\n        /* \"Tp2_Auction.sol\":7295:7298  100 */\n      0x64\n        /* \"Tp2_Auction.sol\":7290:7292  98 */\n      0x62\n        /* \"Tp2_Auction.sol\":7279:7287  aux_val1 */\n      dup4\n        /* \"Tp2_Auction.sol\":7279:7292  aux_val1 * 98 */\n      tag_238\n      swap2\n      swap1\n      tag_57\n      jump\t// in\n    tag_238:\n        /* \"Tp2_Auction.sol\":7279:7298  aux_val1 * 98 / 100 */\n      tag_239\n      swap2\n      swap1\n      tag_59\n      jump\t// in\n    tag_239:\n        /* \"Tp2_Auction.sol\":7259:7299  uint256 aux_val2 = (aux_val1 * 98 / 100) */\n      swap1\n      pop\n        /* \"Tp2_Auction.sol\":7313:7324  bool result */\n      0x00\n        /* \"Tp2_Auction.sol\":7330:7333  _to */\n      dup6\n        /* \"Tp2_Auction.sol\":7330:7338  _to.call */\n      0xffffffffffffffffffffffffffffffffffffffff\n      and\n        /* \"Tp2_Auction.sol\":7344:7348  2300 */\n      0x08fc\n        /* \"Tp2_Auction.sol\":7356:7364  aux_val2 */\n      dup4\n        /* \"Tp2_Auction.sol\":7330:7369  _to.call{gas: 2300, value:aux_val2}(\"\") */\n      mload(0x40)\n      tag_240\n      swap1\n      tag_92\n      jump\t// in\n    tag_240:\n      0x00\n      mload(0x40)\n      dup1\n      dup4\n      sub\n      dup2\n      dup6\n      dup9\n      dup9\n      call\n      swap4\n      pop\n      pop\n      pop\n      pop\n      returndatasize\n      dup1\n      0x00\n      dup2\n      eq\n      tag_243\n      jumpi\n      mload(0x40)\n      swap2\n      pop\n      and(add(returndatasize, 0x3f), not(0x1f))\n      dup3\n      add\n      0x40\n      mstore\n      returndatasize\n      dup3\n      mstore\n      returndatasize\n      0x00\n      0x20\n      dup5\n      add\n      returndatacopy\n      jump(tag_242)\n    tag_243:\n      0x60\n      swap2\n      pop\n    tag_242:\n      pop\n        /* \"Tp2_Auction.sol\":7312:7369  (bool result, ) = _to.call{gas: 2300, value:aux_val2}(\"\") */\n      pop\n      swap1\n      pop\n        /* \"Tp2_Auction.sol\":7397:7402  false */\n      0x00\n        /* \"Tp2_Auction.sol\":7387:7402  result == false */\n      iszero\n      iszero\n        /* \"Tp2_Auction.sol\":7387:7393  result */\n      dup2\n        /* \"Tp2_Auction.sol\":7387:7402  result == false */\n      iszero\n      iszero\n      sub\n        /* \"Tp2_Auction.sol\":7383:7543  if( result == false){   ... */\n      tag_244\n      jumpi\n        /* \"Tp2_Auction.sol\":7432:7433  0 */\n      0x00\n        /* \"Tp2_Auction.sol\":7421:7433  aux_val1 = 0 */\n      swap3\n      pop\n        /* \"Tp2_Auction.sol\":7456:7462  result */\n      dup1\n        /* \"Tp2_Auction.sol\":7464:7472  aux_val1 */\n      dup4\n        /* \"Tp2_Auction.sol\":7448:7473  return (result, aux_val1) */\n      swap5\n      pop\n      swap5\n      pop\n      pop\n      pop\n      pop\n      jump(tag_236)\n        /* \"Tp2_Auction.sol\":7383:7543  if( result == false){   ... */\n    tag_244:\n        /* \"Tp2_Auction.sol\":7514:7520  result */\n      dup1\n        /* \"Tp2_Auction.sol\":7522:7530  aux_val1 */\n      dup4\n        /* \"Tp2_Auction.sol\":7506:7531  return (result, aux_val1) */\n      swap5\n      pop\n      swap5\n      pop\n      pop\n      pop\n      pop\n        /* \"Tp2_Auction.sol\":7097:7550  function returnEtherWinner(address payable _to) internal returns (bool, uint256) {... */\n    tag_236:\n      swap2\n      pop\n      swap2\n      jump\t// out\n    tag_120:\n      mload(0x40)\n      dup1\n      0x40\n      add\n      0x40\n      mstore\n      dup1\n      and(0xffffffffffffffffffffffffffffffffffffffff, 0x00)\n      dup2\n      mstore\n      0x20\n      add\n      0x00\n      dup2\n      mstore\n      pop\n      swap1\n      jump\t// out\n        /* \"#utility.yul\":7:84   */\n    tag_246:\n        /* \"#utility.yul\":44:51   */\n      0x00\n        /* \"#utility.yul\":73:78   */\n      dup2\n        /* \"#utility.yul\":62:78   */\n      swap1\n      pop\n        /* \"#utility.yul\":7:84   */\n      swap2\n      swap1\n      pop\n      jump\t// out\n        /* \"#utility.yul\":90:208   */\n    tag_247:\n        /* \"#utility.yul\":177:201   */\n      tag_292\n        /* \"#utility.yul\":195:200   */\n      dup2\n        /* \"#utility.yul\":177:201   */\n      tag_246\n      jump\t// in\n    tag_292:\n        /* \"#utility.yul\":172:175   */\n      dup3\n        /* \"#utility.yul\":165:202   */\n      mstore\n        /* \"#utility.yul\":90:208   */\n      pop\n      pop\n      jump\t// out\n        /* \"#utility.yul\":214:436   */\n    tag_18:\n        /* \"#utility.yul\":307:311   */\n      0x00\n        /* \"#utility.yul\":345:347   */\n      0x20\n        /* \"#utility.yul\":334:343   */\n      dup3\n        /* \"#utility.yul\":330:348   */\n      add\n        /* \"#utility.yul\":322:348   */\n      swap1\n      pop\n        /* \"#utility.yul\":358:429   */\n      tag_294\n        /* \"#utility.yul\":426:427   */\n      0x00\n        /* \"#utility.yul\":415:424   */\n      dup4\n        /* \"#utility.yul\":411:428   */\n      add\n        /* \"#utility.yul\":402:408   */\n      dup5\n        /* \"#utility.yul\":358:429   */\n      tag_247\n      jump\t// in\n    tag_294:\n        /* \"#utility.yul\":214:436   */\n      swap3\n      swap2\n      pop\n      pop\n      jump\t// out\n        /* \"#utility.yul\":442:579   */\n    tag_248:\n        /* \"#utility.yul\":532:538   */\n      0x00\n        /* \"#utility.yul\":566:571   */\n      dup2\n        /* \"#utility.yul\":560:572   */\n      mload\n        /* \"#utility.yul\":550:572   */\n      swap1\n      pop\n        /* \"#utility.yul\":442:579   */\n      swap2\n      swap1\n      pop\n      jump\t// out\n        /* \"#utility.yul\":585:792   */\n    tag_249:\n        /* \"#utility.yul\":707:718   */\n      0x00\n        /* \"#utility.yul\":741:747   */\n      dup3\n        /* \"#utility.yul\":736:739   */\n      dup3\n        /* \"#utility.yul\":729:748   */\n      mstore\n        /* \"#utility.yul\":781:785   */\n      0x20\n        /* \"#utility.yul\":776:779   */\n      dup3\n        /* \"#utility.yul\":772:786   */\n      add\n        /* \"#utility.yul\":757:786   */\n      swap1\n      pop\n        /* \"#utility.yul\":585:792   */\n      swap3\n      swap2\n      pop\n      pop\n      jump\t// out\n        /* \"#utility.yul\":798:953   */\n    tag_250:\n        /* \"#utility.yul\":888:892   */\n      0x00\n        /* \"#utility.yul\":911:914   */\n      dup2\n        /* \"#utility.yul\":903:914   */\n      swap1\n      pop\n        /* \"#utility.yul\":941:945   */\n      0x20\n        /* \"#utility.yul\":936:939   */\n      dup3\n        /* \"#utility.yul\":932:946   */\n      add\n        /* \"#utility.yul\":924:946   */\n      swap1\n      pop\n        /* \"#utility.yul\":798:953   */\n      swap2\n      swap1\n      pop\n      jump\t// out\n        /* \"#utility.yul\":959:1085   */\n    tag_251:\n        /* \"#utility.yul\":996:1003   */\n      0x00\n        /* \"#utility.yul\":1036:1078   */\n      0xffffffffffffffffffffffffffffffffffffffff\n        /* \"#utility.yul\":1029:1034   */\n      dup3\n        /* \"#utility.yul\":1025:1079   */\n      and\n        /* \"#utility.yul\":1014:1079   */\n      swap1\n      pop\n        /* \"#utility.yul\":959:1085   */\n      swap2\n      swap1\n      pop\n      jump\t// out\n        /* \"#utility.yul\":1091:1187   */\n    tag_252:\n        /* \"#utility.yul\":1128:1135   */\n      0x00\n        /* \"#utility.yul\":1157:1181   */\n      tag_300\n        /* \"#utility.yul\":1175:1180   */\n      dup3\n        /* \"#utility.yul\":1157:1181   */\n      tag_251\n      jump\t// in\n    tag_300:\n        /* \"#utility.yul\":1146:1181   */\n      swap1\n      pop\n        /* \"#utility.yul\":1091:1187   */\n      swap2\n      swap1\n      pop\n      jump\t// out\n        /* \"#utility.yul\":1193:1301   */\n    tag_253:\n        /* \"#utility.yul\":1270:1294   */\n      tag_302\n        /* \"#utility.yul\":1288:1293   */\n      dup2\n        /* \"#utility.yul\":1270:1294   */\n      tag_252\n      jump\t// in\n    tag_302:\n        /* \"#utility.yul\":1265:1268   */\n      dup3\n        /* \"#utility.yul\":1258:1295   */\n      mstore\n        /* \"#utility.yul\":1193:1301   */\n      pop\n      pop\n      jump\t// out\n        /* \"#utility.yul\":1307:1415   */\n    tag_254:\n        /* \"#utility.yul\":1384:1408   */\n      tag_304\n        /* \"#utility.yul\":1402:1407   */\n      dup2\n        /* \"#utility.yul\":1384:1408   */\n      tag_246\n      jump\t// in\n    tag_304:\n        /* \"#utility.yul\":1379:1382   */\n      dup3\n        /* \"#utility.yul\":1372:1409   */\n      mstore\n        /* \"#utility.yul\":1307:1415   */\n      pop\n      pop\n      jump\t// out\n        /* \"#utility.yul\":1485:1977   */\n    tag_255:\n        /* \"#utility.yul\":1618:1622   */\n      0x40\n        /* \"#utility.yul\":1613:1616   */\n      dup3\n        /* \"#utility.yul\":1609:1623   */\n      add\n        /* \"#utility.yul\":1703:1707   */\n      0x00\n        /* \"#utility.yul\":1696:1701   */\n      dup3\n        /* \"#utility.yul\":1692:1708   */\n      add\n        /* \"#utility.yul\":1686:1709   */\n      mload\n        /* \"#utility.yul\":1722:1785   */\n      tag_306\n        /* \"#utility.yul\":1779:1783   */\n      0x00\n        /* \"#utility.yul\":1774:1777   */\n      dup6\n        /* \"#utility.yul\":1770:1784   */\n      add\n        /* \"#utility.yul\":1756:1768   */\n      dup3\n        /* \"#utility.yul\":1722:1785   */\n      tag_253\n      jump\t// in\n    tag_306:\n        /* \"#utility.yul\":1633:1795   */\n      pop\n        /* \"#utility.yul\":1878:1882   */\n      0x20\n        /* \"#utility.yul\":1871:1876   */\n      dup3\n        /* \"#utility.yul\":1867:1883   */\n      add\n        /* \"#utility.yul\":1861:1884   */\n      mload\n        /* \"#utility.yul\":1897:1960   */\n      tag_307\n        /* \"#utility.yul\":1954:1958   */\n      0x20\n        /* \"#utility.yul\":1949:1952   */\n      dup6\n        /* \"#utility.yul\":1945:1959   */\n      add\n        /* \"#utility.yul\":1931:1943   */\n      dup3\n        /* \"#utility.yul\":1897:1960   */\n      tag_254\n      jump\t// in\n    tag_307:\n        /* \"#utility.yul\":1805:1970   */\n      pop\n        /* \"#utility.yul\":1587:1977   */\n      pop\n        /* \"#utility.yul\":1485:1977   */\n      pop\n      pop\n      jump\t// out\n        /* \"#utility.yul\":1983:2254   */\n    tag_256:\n        /* \"#utility.yul\":2098:2108   */\n      0x00\n        /* \"#utility.yul\":2119:2211   */\n      tag_309\n        /* \"#utility.yul\":2207:2210   */\n      dup4\n        /* \"#utility.yul\":2199:2205   */\n      dup4\n        /* \"#utility.yul\":2119:2211   */\n      tag_255\n      jump\t// in\n    tag_309:\n        /* \"#utility.yul\":2243:2247   */\n      0x40\n        /* \"#utility.yul\":2238:2241   */\n      dup4\n        /* \"#utility.yul\":2234:2248   */\n      add\n        /* \"#utility.yul\":2220:2248   */\n      swap1\n      pop\n        /* \"#utility.yul\":1983:2254   */\n      swap3\n      swap2\n      pop\n      pop\n      jump\t// out\n        /* \"#utility.yul\":2260:2396   */\n    tag_257:\n        /* \"#utility.yul\":2353:2357   */\n      0x00\n        /* \"#utility.yul\":2385:2389   */\n      0x20\n        /* \"#utility.yul\":2380:2383   */\n      dup3\n        /* \"#utility.yul\":2376:2390   */\n      add\n        /* \"#utility.yul\":2368:2390   */\n      swap1\n      pop\n        /* \"#utility.yul\":2260:2396   */\n      swap2\n      swap1\n      pop\n      jump\t// out\n        /* \"#utility.yul\":2470:3386   */\n    tag_258:\n        /* \"#utility.yul\":2635:2638   */\n      0x00\n        /* \"#utility.yul\":2664:2741   */\n      tag_312\n        /* \"#utility.yul\":2735:2740   */\n      dup3\n        /* \"#utility.yul\":2664:2741   */\n      tag_248\n      jump\t// in\n    tag_312:\n        /* \"#utility.yul\":2757:2866   */\n      tag_313\n        /* \"#utility.yul\":2859:2865   */\n      dup2\n        /* \"#utility.yul\":2854:2857   */\n      dup6\n        /* \"#utility.yul\":2757:2866   */\n      tag_249\n      jump\t// in\n    tag_313:\n        /* \"#utility.yul\":2750:2866   */\n      swap4\n      pop\n        /* \"#utility.yul\":2890:2969   */\n      tag_314\n        /* \"#utility.yul\":2963:2968   */\n      dup4\n        /* \"#utility.yul\":2890:2969   */\n      tag_250\n      jump\t// in\n    tag_314:\n        /* \"#utility.yul\":2992:2999   */\n      dup1\n        /* \"#utility.yul\":3023:3024   */\n      0x00\n        /* \"#utility.yul\":3008:3361   */\n    tag_315:\n        /* \"#utility.yul\":3033:3039   */\n      dup4\n        /* \"#utility.yul\":3030:3031   */\n      dup2\n        /* \"#utility.yul\":3027:3040   */\n      lt\n        /* \"#utility.yul\":3008:3361   */\n      iszero\n      tag_317\n      jumpi\n        /* \"#utility.yul\":3109:3115   */\n      dup2\n        /* \"#utility.yul\":3103:3116   */\n      mload\n        /* \"#utility.yul\":3136:3245   */\n      tag_318\n        /* \"#utility.yul\":3241:3244   */\n      dup9\n        /* \"#utility.yul\":3226:3239   */\n      dup3\n        /* \"#utility.yul\":3136:3245   */\n      tag_256\n      jump\t// in\n    tag_318:\n        /* \"#utility.yul\":3129:3245   */\n      swap8\n      pop\n        /* \"#utility.yul\":3268:3351   */\n      tag_319\n        /* \"#utility.yul\":3344:3350   */\n      dup4\n        /* \"#utility.yul\":3268:3351   */\n      tag_257\n      jump\t// in\n    tag_319:\n        /* \"#utility.yul\":3258:3351   */\n      swap3\n      pop\n        /* \"#utility.yul\":3068:3361   */\n      pop\n        /* \"#utility.yul\":3055:3056   */\n      0x01\n        /* \"#utility.yul\":3052:3053   */\n      dup2\n        /* \"#utility.yul\":3048:3057   */\n      add\n        /* \"#utility.yul\":3043:3057   */\n      swap1\n      pop\n        /* \"#utility.yul\":3008:3361   */\n      jump(tag_315)\n    tag_317:\n        /* \"#utility.yul\":3012:3026   */\n      pop\n        /* \"#utility.yul\":3377:3380   */\n      dup6\n        /* \"#utility.yul\":3370:3380   */\n      swap4\n      pop\n        /* \"#utility.yul\":2640:3386   */\n      pop\n      pop\n      pop\n        /* \"#utility.yul\":2470:3386   */\n      swap3\n      swap2\n      pop\n      pop\n      jump\t// out\n        /* \"#utility.yul\":3392:3857   */\n    tag_29:\n        /* \"#utility.yul\":3581:3585   */\n      0x00\n        /* \"#utility.yul\":3619:3621   */\n      0x20\n        /* \"#utility.yul\":3608:3617   */\n      dup3\n        /* \"#utility.yul\":3604:3622   */\n      add\n        /* \"#utility.yul\":3596:3622   */\n      swap1\n      pop\n        /* \"#utility.yul\":3668:3677   */\n      dup2\n        /* \"#utility.yul\":3662:3666   */\n      dup2\n        /* \"#utility.yul\":3658:3678   */\n      sub\n        /* \"#utility.yul\":3654:3655   */\n      0x00\n        /* \"#utility.yul\":3643:3652   */\n      dup4\n        /* \"#utility.yul\":3639:3656   */\n      add\n        /* \"#utility.yul\":3632:3679   */\n      mstore\n        /* \"#utility.yul\":3696:3850   */\n      tag_321\n        /* \"#utility.yul\":3845:3849   */\n      dup2\n        /* \"#utility.yul\":3836:3842   */\n      dup5\n        /* \"#utility.yul\":3696:3850   */\n      tag_258\n      jump\t// in\n    tag_321:\n        /* \"#utility.yul\":3688:3850   */\n      swap1\n      pop\n        /* \"#utility.yul\":3392:3857   */\n      swap3\n      swap2\n      pop\n      pop\n      jump\t// out\n        /* \"#utility.yul\":3927:4429   */\n    tag_259:\n        /* \"#utility.yul\":4070:4074   */\n      0x40\n        /* \"#utility.yul\":4065:4068   */\n      dup3\n        /* \"#utility.yul\":4061:4075   */\n      add\n        /* \"#utility.yul\":4155:4159   */\n      0x00\n        /* \"#utility.yul\":4148:4153   */\n      dup3\n        /* \"#utility.yul\":4144:4160   */\n      add\n        /* \"#utility.yul\":4138:4161   */\n      mload\n        /* \"#utility.yul\":4174:4237   */\n      tag_323\n        /* \"#utility.yul\":4231:4235   */\n      0x00\n        /* \"#utility.yul\":4226:4229   */\n      dup6\n        /* \"#utility.yul\":4222:4236   */\n      add\n        /* \"#utility.yul\":4208:4220   */\n      dup3\n        /* \"#utility.yul\":4174:4237   */\n      tag_253\n      jump\t// in\n    tag_323:\n        /* \"#utility.yul\":4085:4247   */\n      pop\n        /* \"#utility.yul\":4330:4334   */\n      0x20\n        /* \"#utility.yul\":4323:4328   */\n      dup3\n        /* \"#utility.yul\":4319:4335   */\n      add\n        /* \"#utility.yul\":4313:4336   */\n      mload\n        /* \"#utility.yul\":4349:4412   */\n      tag_324\n        /* \"#utility.yul\":4406:4410   */\n      0x20\n        /* \"#utility.yul\":4401:4404   */\n      dup6\n        /* \"#utility.yul\":4397:4411   */\n      add\n        /* \"#utility.yul\":4383:4395   */\n      dup3\n        /* \"#utility.yul\":4349:4412   */\n      tag_254\n      jump\t// in\n    tag_324:\n        /* \"#utility.yul\":4257:4422   */\n      pop\n        /* \"#utility.yul\":4039:4429   */\n      pop\n        /* \"#utility.yul\":3927:4429   */\n      pop\n      pop\n      jump\t// out\n        /* \"#utility.yul\":4435:4749   */\n    tag_37:\n        /* \"#utility.yul\":4574:4578   */\n      0x00\n        /* \"#utility.yul\":4612:4614   */\n      0x40\n        /* \"#utility.yul\":4601:4610   */\n      dup3\n        /* \"#utility.yul\":4597:4615   */\n      add\n        /* \"#utility.yul\":4589:4615   */\n      swap1\n      pop\n        /* \"#utility.yul\":4625:4742   */\n      tag_326\n        /* \"#utility.yul\":4739:4740   */\n      0x00\n        /* \"#utility.yul\":4728:4737   */\n      dup4\n        /* \"#utility.yul\":4724:4741   */\n      add\n        /* \"#utility.yul\":4715:4721   */\n      dup5\n        /* \"#utility.yul\":4625:4742   */\n      tag_259\n      jump\t// in\n    tag_326:\n        /* \"#utility.yul\":4435:4749   */\n      swap3\n      swap2\n      pop\n      pop\n      jump\t// out\n        /* \"#utility.yul\":4755:4935   */\n    tag_49:\n        /* \"#utility.yul\":4803:4880   */\n      0x4e487b7100000000000000000000000000000000000000000000000000000000\n        /* \"#utility.yul\":4800:4801   */\n      0x00\n        /* \"#utility.yul\":4793:4881   */\n      mstore\n        /* \"#utility.yul\":4900:4904   */\n      0x21\n        /* \"#utility.yul\":4897:4898   */\n      0x04\n        /* \"#utility.yul\":4890:4905   */\n      mstore\n        /* \"#utility.yul\":4924:4928   */\n      0x24\n        /* \"#utility.yul\":4921:4922   */\n      0x00\n        /* \"#utility.yul\":4914:4929   */\n      revert\n        /* \"#utility.yul\":4941:5054   */\n    tag_260:\n        /* \"#utility.yul\":5022:5023   */\n      0x02\n        /* \"#utility.yul\":5015:5020   */\n      dup2\n        /* \"#utility.yul\":5012:5024   */\n      lt\n        /* \"#utility.yul\":5002:5048   */\n      tag_329\n      jumpi\n        /* \"#utility.yul\":5028:5046   */\n      tag_330\n      tag_49\n      jump\t// in\n    tag_330:\n        /* \"#utility.yul\":5002:5048   */\n    tag_329:\n        /* \"#utility.yul\":4941:5054   */\n      pop\n      jump\t// out\n        /* \"#utility.yul\":5060:5187   */\n    tag_261:\n        /* \"#utility.yul\":5105:5112   */\n      0x00\n        /* \"#utility.yul\":5134:5139   */\n      dup2\n        /* \"#utility.yul\":5123:5139   */\n      swap1\n      pop\n        /* \"#utility.yul\":5140:5181   */\n      tag_332\n        /* \"#utility.yul\":5175:5180   */\n      dup3\n        /* \"#utility.yul\":5140:5181   */\n      tag_260\n      jump\t// in\n    tag_332:\n        /* \"#utility.yul\":5060:5187   */\n      swap2\n      swap1\n      pop\n      jump\t// out\n        /* \"#utility.yul\":5193:5320   */\n    tag_262:\n        /* \"#utility.yul\":5249:5258   */\n      0x00\n        /* \"#utility.yul\":5282:5314   */\n      tag_334\n        /* \"#utility.yul\":5308:5313   */\n      dup3\n        /* \"#utility.yul\":5282:5314   */\n      tag_261\n      jump\t// in\n    tag_334:\n        /* \"#utility.yul\":5269:5314   */\n      swap1\n      pop\n        /* \"#utility.yul\":5193:5320   */\n      swap2\n      swap1\n      pop\n      jump\t// out\n        /* \"#utility.yul\":5326:5469   */\n    tag_263:\n        /* \"#utility.yul\":5419:5462   */\n      tag_336\n        /* \"#utility.yul\":5456:5461   */\n      dup2\n        /* \"#utility.yul\":5419:5462   */\n      tag_262\n      jump\t// in\n    tag_336:\n        /* \"#utility.yul\":5414:5417   */\n      dup3\n        /* \"#utility.yul\":5407:5463   */\n      mstore\n        /* \"#utility.yul\":5326:5469   */\n      pop\n      pop\n      jump\t// out\n        /* \"#utility.yul\":5475:5709   */\n    tag_42:\n        /* \"#utility.yul\":5574:5578   */\n      0x00\n        /* \"#utility.yul\":5612:5614   */\n      0x20\n        /* \"#utility.yul\":5601:5610   */\n      dup3\n        /* \"#utility.yul\":5597:5615   */\n      add\n        /* \"#utility.yul\":5589:5615   */\n      swap1\n      pop\n        /* \"#utility.yul\":5625:5702   */\n      tag_338\n        /* \"#utility.yul\":5699:5700   */\n      0x00\n        /* \"#utility.yul\":5688:5697   */\n      dup4\n        /* \"#utility.yul\":5684:5701   */\n      add\n        /* \"#utility.yul\":5675:5681   */\n      dup5\n        /* \"#utility.yul\":5625:5702   */\n      tag_263\n      jump\t// in\n    tag_338:\n        /* \"#utility.yul\":5475:5709   */\n      swap3\n      swap2\n      pop\n      pop\n      jump\t// out\n        /* \"#utility.yul\":5715:5884   */\n    tag_264:\n        /* \"#utility.yul\":5799:5810   */\n      0x00\n        /* \"#utility.yul\":5833:5839   */\n      dup3\n        /* \"#utility.yul\":5828:5831   */\n      dup3\n        /* \"#utility.yul\":5821:5840   */\n      mstore\n        /* \"#utility.yul\":5873:5877   */\n      0x20\n        /* \"#utility.yul\":5868:5871   */\n      dup3\n        /* \"#utility.yul\":5864:5878   */\n      add\n        /* \"#utility.yul\":5849:5878   */\n      swap1\n      pop\n        /* \"#utility.yul\":5715:5884   */\n      swap3\n      swap2\n      pop\n      pop\n      jump\t// out\n        /* \"#utility.yul\":5890:6058   */\n    tag_265:\n        /* \"#utility.yul\":6030:6050   */\n      0x696e76616c6964206f666665722074696d650000000000000000000000000000\n        /* \"#utility.yul\":6026:6027   */\n      0x00\n        /* \"#utility.yul\":6018:6024   */\n      dup3\n        /* \"#utility.yul\":6014:6028   */\n      add\n        /* \"#utility.yul\":6007:6051   */\n      mstore\n        /* \"#utility.yul\":5890:6058   */\n      pop\n      jump\t// out\n        /* \"#utility.yul\":6064:6430   */\n    tag_266:\n        /* \"#utility.yul\":6206:6209   */\n      0x00\n        /* \"#utility.yul\":6227:6294   */\n      tag_342\n        /* \"#utility.yul\":6291:6293   */\n      0x12\n        /* \"#utility.yul\":6286:6289   */\n      dup4\n        /* \"#utility.yul\":6227:6294   */\n      tag_264\n      jump\t// in\n    tag_342:\n        /* \"#utility.yul\":6220:6294   */\n      swap2\n      pop\n        /* \"#utility.yul\":6303:6396   */\n      tag_343\n        /* \"#utility.yul\":6392:6395   */\n      dup3\n        /* \"#utility.yul\":6303:6396   */\n      tag_265\n      jump\t// in\n    tag_343:\n        /* \"#utility.yul\":6421:6423   */\n      0x20\n        /* \"#utility.yul\":6416:6419   */\n      dup3\n        /* \"#utility.yul\":6412:6424   */\n      add\n        /* \"#utility.yul\":6405:6424   */\n      swap1\n      pop\n        /* \"#utility.yul\":6064:6430   */\n      swap2\n      swap1\n      pop\n      jump\t// out\n        /* \"#utility.yul\":6436:6855   */\n    tag_55:\n        /* \"#utility.yul\":6602:6606   */\n      0x00\n        /* \"#utility.yul\":6640:6642   */\n      0x20\n        /* \"#utility.yul\":6629:6638   */\n      dup3\n        /* \"#utility.yul\":6625:6643   */\n      add\n        /* \"#utility.yul\":6617:6643   */\n      swap1\n      pop\n        /* \"#utility.yul\":6689:6698   */\n      dup2\n        /* \"#utility.yul\":6683:6687   */\n      dup2\n        /* \"#utility.yul\":6679:6699   */\n      sub\n        /* \"#utility.yul\":6675:6676   */\n      0x00\n        /* \"#utility.yul\":6664:6673   */\n      dup4\n        /* \"#utility.yul\":6660:6677   */\n      add\n        /* \"#utility.yul\":6653:6700   */\n      mstore\n        /* \"#utility.yul\":6717:6848   */\n      tag_345\n        /* \"#utility.yul\":6843:6847   */\n      dup2\n        /* \"#utility.yul\":6717:6848   */\n      tag_266\n      jump\t// in\n    tag_345:\n        /* \"#utility.yul\":6709:6848   */\n      swap1\n      pop\n        /* \"#utility.yul\":6436:6855   */\n      swap2\n      swap1\n      pop\n      jump\t// out\n        /* \"#utility.yul\":6861:7041   */\n    tag_267:\n        /* \"#utility.yul\":6909:6986   */\n      0x4e487b7100000000000000000000000000000000000000000000000000000000\n        /* \"#utility.yul\":6906:6907   */\n      0x00\n        /* \"#utility.yul\":6899:6987   */\n      mstore\n        /* \"#utility.yul\":7006:7010   */\n      0x11\n        /* \"#utility.yul\":7003:7004   */\n      0x04\n        /* \"#utility.yul\":6996:7011   */\n      mstore\n        /* \"#utility.yul\":7030:7034   */\n      0x24\n        /* \"#utility.yul\":7027:7028   */\n      0x00\n        /* \"#utility.yul\":7020:7035   */\n      revert\n        /* \"#utility.yul\":7047:7457   */\n    tag_57:\n        /* \"#utility.yul\":7087:7094   */\n      0x00\n        /* \"#utility.yul\":7110:7130   */\n      tag_348\n        /* \"#utility.yul\":7128:7129   */\n      dup3\n        /* \"#utility.yul\":7110:7130   */\n      tag_246\n      jump\t// in\n    tag_348:\n        /* \"#utility.yul\":7105:7130   */\n      swap2\n      pop\n        /* \"#utility.yul\":7144:7164   */\n      tag_349\n        /* \"#utility.yul\":7162:7163   */\n      dup4\n        /* \"#utility.yul\":7144:7164   */\n      tag_246\n      jump\t// in\n    tag_349:\n        /* \"#utility.yul\":7139:7164   */\n      swap3\n      pop\n        /* \"#utility.yul\":7199:7200   */\n      dup3\n        /* \"#utility.yul\":7196:7197   */\n      dup3\n        /* \"#utility.yul\":7192:7201   */\n      mul\n        /* \"#utility.yul\":7221:7251   */\n      tag_350\n        /* \"#utility.yul\":7239:7250   */\n      dup2\n        /* \"#utility.yul\":7221:7251   */\n      tag_246\n      jump\t// in\n    tag_350:\n        /* \"#utility.yul\":7210:7251   */\n      swap2\n      pop\n        /* \"#utility.yul\":7400:7401   */\n      dup3\n        /* \"#utility.yul\":7391:7398   */\n      dup3\n        /* \"#utility.yul\":7387:7402   */\n      div\n        /* \"#utility.yul\":7384:7385   */\n      dup5\n        /* \"#utility.yul\":7381:7403   */\n      eq\n        /* \"#utility.yul\":7361:7362   */\n      dup4\n        /* \"#utility.yul\":7354:7363   */\n      iszero\n        /* \"#utility.yul\":7334:7417   */\n      or\n        /* \"#utility.yul\":7311:7450   */\n      tag_351\n      jumpi\n        /* \"#utility.yul\":7430:7448   */\n      tag_352\n      tag_267\n      jump\t// in\n    tag_352:\n        /* \"#utility.yul\":7311:7450   */\n    tag_351:\n        /* \"#utility.yul\":7095:7457   */\n      pop\n        /* \"#utility.yul\":7047:7457   */\n      swap3\n      swap2\n      pop\n      pop\n      jump\t// out\n        /* \"#utility.yul\":7463:7643   */\n    tag_268:\n        /* \"#utility.yul\":7511:7588   */\n      0x4e487b7100000000000000000000000000000000000000000000000000000000\n        /* \"#utility.yul\":7508:7509   */\n      0x00\n        /* \"#utility.yul\":7501:7589   */\n      mstore\n        /* \"#utility.yul\":7608:7612   */\n      0x12\n        /* \"#utility.yul\":7605:7606   */\n      0x04\n        /* \"#utility.yul\":7598:7613   */\n      mstore\n        /* \"#utility.yul\":7632:7636   */\n      0x24\n        /* \"#utility.yul\":7629:7630   */\n      0x00\n        /* \"#utility.yul\":7622:7637   */\n      revert\n        /* \"#utility.yul\":7649:7834   */\n    tag_59:\n        /* \"#utility.yul\":7689:7690   */\n      0x00\n        /* \"#utility.yul\":7706:7726   */\n      tag_355\n        /* \"#utility.yul\":7724:7725   */\n      dup3\n        /* \"#utility.yul\":7706:7726   */\n      tag_246\n      jump\t// in\n    tag_355:\n        /* \"#utility.yul\":7701:7726   */\n      swap2\n      pop\n        /* \"#utility.yul\":7740:7760   */\n      tag_356\n        /* \"#utility.yul\":7758:7759   */\n      dup4\n        /* \"#utility.yul\":7740:7760   */\n      tag_246\n      jump\t// in\n    tag_356:\n        /* \"#utility.yul\":7735:7760   */\n      swap3\n      pop\n        /* \"#utility.yul\":7779:7780   */\n      dup3\n        /* \"#utility.yul\":7769:7804   */\n      tag_357\n      jumpi\n        /* \"#utility.yul\":7784:7802   */\n      tag_358\n      tag_268\n      jump\t// in\n    tag_358:\n        /* \"#utility.yul\":7769:7804   */\n    tag_357:\n        /* \"#utility.yul\":7826:7827   */\n      dup3\n        /* \"#utility.yul\":7823:7824   */\n      dup3\n        /* \"#utility.yul\":7819:7828   */\n      div\n        /* \"#utility.yul\":7814:7828   */\n      swap1\n      pop\n        /* \"#utility.yul\":7649:7834   */\n      swap3\n      swap2\n      pop\n      pop\n      jump\t// out\n        /* \"#utility.yul\":7840:8009   */\n    tag_269:\n        /* \"#utility.yul\":7980:8001   */\n      0x696e76616c6964206f666665722076616c756500000000000000000000000000\n        /* \"#utility.yul\":7976:7977   */\n      0x00\n        /* \"#utility.yul\":7968:7974   */\n      dup3\n        /* \"#utility.yul\":7964:7978   */\n      add\n        /* \"#utility.yul\":7957:8002   */\n      mstore\n        /* \"#utility.yul\":7840:8009   */\n      pop\n      jump\t// out\n        /* \"#utility.yul\":8015:8381   */\n    tag_270:\n        /* \"#utility.yul\":8157:8160   */\n      0x00\n        /* \"#utility.yul\":8178:8245   */\n      tag_361\n        /* \"#utility.yul\":8242:8244   */\n      0x13\n        /* \"#utility.yul\":8237:8240   */\n      dup4\n        /* \"#utility.yul\":8178:8245   */\n      tag_264\n      jump\t// in\n    tag_361:\n        /* \"#utility.yul\":8171:8245   */\n      swap2\n      pop\n        /* \"#utility.yul\":8254:8347   */\n      tag_362\n        /* \"#utility.yul\":8343:8346   */\n      dup3\n        /* \"#utility.yul\":8254:8347   */\n      tag_269\n      jump\t// in\n    tag_362:\n        /* \"#utility.yul\":8372:8374   */\n      0x20\n        /* \"#utility.yul\":8367:8370   */\n      dup3\n        /* \"#utility.yul\":8363:8375   */\n      add\n        /* \"#utility.yul\":8356:8375   */\n      swap1\n      pop\n        /* \"#utility.yul\":8015:8381   */\n      swap2\n      swap1\n      pop\n      jump\t// out\n        /* \"#utility.yul\":8387:8806   */\n    tag_62:\n        /* \"#utility.yul\":8553:8557   */\n      0x00\n        /* \"#utility.yul\":8591:8593   */\n      0x20\n        /* \"#utility.yul\":8580:8589   */\n      dup3\n        /* \"#utility.yul\":8576:8594   */\n      add\n        /* \"#utility.yul\":8568:8594   */\n      swap1\n      pop\n        /* \"#utility.yul\":8640:8649   */\n      dup2\n        /* \"#utility.yul\":8634:8638   */\n      dup2\n        /* \"#utility.yul\":8630:8650   */\n      sub\n        /* \"#utility.yul\":8626:8627   */\n      0x00\n        /* \"#utility.yul\":8615:8624   */\n      dup4\n        /* \"#utility.yul\":8611:8628   */\n      add\n        /* \"#utility.yul\":8604:8651   */\n      mstore\n        /* \"#utility.yul\":8668:8799   */\n      tag_364\n        /* \"#utility.yul\":8794:8798   */\n      dup2\n        /* \"#utility.yul\":8668:8799   */\n      tag_270\n      jump\t// in\n    tag_364:\n        /* \"#utility.yul\":8660:8799   */\n      swap1\n      pop\n        /* \"#utility.yul\":8387:8806   */\n      swap2\n      swap1\n      pop\n      jump\t// out\n        /* \"#utility.yul\":8812:8975   */\n    tag_271:\n        /* \"#utility.yul\":8952:8967   */\n      0x41756374696f6e20456e64656400000000000000000000000000000000000000\n        /* \"#utility.yul\":8948:8949   */\n      0x00\n        /* \"#utility.yul\":8940:8946   */\n      dup3\n        /* \"#utility.yul\":8936:8950   */\n      add\n        /* \"#utility.yul\":8929:8968   */\n      mstore\n        /* \"#utility.yul\":8812:8975   */\n      pop\n      jump\t// out\n        /* \"#utility.yul\":8981:9347   */\n    tag_272:\n        /* \"#utility.yul\":9123:9126   */\n      0x00\n        /* \"#utility.yul\":9144:9211   */\n      tag_367\n        /* \"#utility.yul\":9208:9210   */\n      0x0d\n        /* \"#utility.yul\":9203:9206   */\n      dup4\n        /* \"#utility.yul\":9144:9211   */\n      tag_264\n      jump\t// in\n    tag_367:\n        /* \"#utility.yul\":9137:9211   */\n      swap2\n      pop\n        /* \"#utility.yul\":9220:9313   */\n      tag_368\n        /* \"#utility.yul\":9309:9312   */\n      dup3\n        /* \"#utility.yul\":9220:9313   */\n      tag_271\n      jump\t// in\n    tag_368:\n        /* \"#utility.yul\":9338:9340   */\n      0x20\n        /* \"#utility.yul\":9333:9336   */\n      dup3\n        /* \"#utility.yul\":9329:9341   */\n      add\n        /* \"#utility.yul\":9322:9341   */\n      swap1\n      pop\n        /* \"#utility.yul\":8981:9347   */\n      swap2\n      swap1\n      pop\n      jump\t// out\n        /* \"#utility.yul\":9353:9772   */\n    tag_77:\n        /* \"#utility.yul\":9519:9523   */\n      0x00\n        /* \"#utility.yul\":9557:9559   */\n      0x20\n        /* \"#utility.yul\":9546:9555   */\n      dup3\n        /* \"#utility.yul\":9542:9560   */\n      add\n        /* \"#utility.yul\":9534:9560   */\n      swap1\n      pop\n        /* \"#utility.yul\":9606:9615   */\n      dup2\n        /* \"#utility.yul\":9600:9604   */\n      dup2\n        /* \"#utility.yul\":9596:9616   */\n      sub\n        /* \"#utility.yul\":9592:9593   */\n      0x00\n        /* \"#utility.yul\":9581:9590   */\n      dup4\n        /* \"#utility.yul\":9577:9594   */\n      add\n        /* \"#utility.yul\":9570:9617   */\n      mstore\n        /* \"#utility.yul\":9634:9765   */\n      tag_370\n        /* \"#utility.yul\":9760:9764   */\n      dup2\n        /* \"#utility.yul\":9634:9765   */\n      tag_272\n      jump\t// in\n    tag_370:\n        /* \"#utility.yul\":9626:9765   */\n      swap1\n      pop\n        /* \"#utility.yul\":9353:9772   */\n      swap2\n      swap1\n      pop\n      jump\t// out\n        /* \"#utility.yul\":9778:9941   */\n    tag_273:\n        /* \"#utility.yul\":9918:9933   */\n      0x6e6f7420746865206f776e657200000000000000000000000000000000000000\n        /* \"#utility.yul\":9914:9915   */\n      0x00\n        /* \"#utility.yul\":9906:9912   */\n      dup3\n        /* \"#utility.yul\":9902:9916   */\n      add\n        /* \"#utility.yul\":9895:9934   */\n      mstore\n        /* \"#utility.yul\":9778:9941   */\n      pop\n      jump\t// out\n        /* \"#utility.yul\":9947:10313   */\n    tag_274:\n        /* \"#utility.yul\":10089:10092   */\n      0x00\n        /* \"#utility.yul\":10110:10177   */\n      tag_373\n        /* \"#utility.yul\":10174:10176   */\n      0x0d\n        /* \"#utility.yul\":10169:10172   */\n      dup4\n        /* \"#utility.yul\":10110:10177   */\n      tag_264\n      jump\t// in\n    tag_373:\n        /* \"#utility.yul\":10103:10177   */\n      swap2\n      pop\n        /* \"#utility.yul\":10186:10279   */\n      tag_374\n        /* \"#utility.yul\":10275:10278   */\n      dup3\n        /* \"#utility.yul\":10186:10279   */\n      tag_273\n      jump\t// in\n    tag_374:\n        /* \"#utility.yul\":10304:10306   */\n      0x20\n        /* \"#utility.yul\":10299:10302   */\n      dup3\n        /* \"#utility.yul\":10295:10307   */\n      add\n        /* \"#utility.yul\":10288:10307   */\n      swap1\n      pop\n        /* \"#utility.yul\":9947:10313   */\n      swap2\n      swap1\n      pop\n      jump\t// out\n        /* \"#utility.yul\":10319:10738   */\n    tag_81:\n        /* \"#utility.yul\":10485:10489   */\n      0x00\n        /* \"#utility.yul\":10523:10525   */\n      0x20\n        /* \"#utility.yul\":10512:10521   */\n      dup3\n        /* \"#utility.yul\":10508:10526   */\n      add\n        /* \"#utility.yul\":10500:10526   */\n      swap1\n      pop\n        /* \"#utility.yul\":10572:10581   */\n      dup2\n        /* \"#utility.yul\":10566:10570   */\n      dup2\n        /* \"#utility.yul\":10562:10582   */\n      sub\n        /* \"#utility.yul\":10558:10559   */\n      0x00\n        /* \"#utility.yul\":10547:10556   */\n      dup4\n        /* \"#utility.yul\":10543:10560   */\n      add\n        /* \"#utility.yul\":10536:10583   */\n      mstore\n        /* \"#utility.yul\":10600:10731   */\n      tag_376\n        /* \"#utility.yul\":10726:10730   */\n      dup2\n        /* \"#utility.yul\":10600:10731   */\n      tag_274\n      jump\t// in\n    tag_376:\n        /* \"#utility.yul\":10592:10731   */\n      swap1\n      pop\n        /* \"#utility.yul\":10319:10738   */\n      swap2\n      swap1\n      pop\n      jump\t// out\n        /* \"#utility.yul\":10744:10913   */\n    tag_275:\n        /* \"#utility.yul\":10884:10905   */\n      0x61756374696f6e207374696c6c20616c69766500000000000000000000000000\n        /* \"#utility.yul\":10880:10881   */\n      0x00\n        /* \"#utility.yul\":10872:10878   */\n      dup3\n        /* \"#utility.yul\":10868:10882   */\n      add\n        /* \"#utility.yul\":10861:10906   */\n      mstore\n        /* \"#utility.yul\":10744:10913   */\n      pop\n      jump\t// out\n        /* \"#utility.yul\":10919:11285   */\n    tag_276:\n        /* \"#utility.yul\":11061:11064   */\n      0x00\n        /* \"#utility.yul\":11082:11149   */\n      tag_379\n        /* \"#utility.yul\":11146:11148   */\n      0x13\n        /* \"#utility.yul\":11141:11144   */\n      dup4\n        /* \"#utility.yul\":11082:11149   */\n      tag_264\n      jump\t// in\n    tag_379:\n        /* \"#utility.yul\":11075:11149   */\n      swap2\n      pop\n        /* \"#utility.yul\":11158:11251   */\n      tag_380\n        /* \"#utility.yul\":11247:11250   */\n      dup3\n        /* \"#utility.yul\":11158:11251   */\n      tag_275\n      jump\t// in\n    tag_380:\n        /* \"#utility.yul\":11276:11278   */\n      0x20\n        /* \"#utility.yul\":11271:11274   */\n      dup3\n        /* \"#utility.yul\":11267:11279   */\n      add\n        /* \"#utility.yul\":11260:11279   */\n      swap1\n      pop\n        /* \"#utility.yul\":10919:11285   */\n      swap2\n      swap1\n      pop\n      jump\t// out\n        /* \"#utility.yul\":11291:11710   */\n    tag_89:\n        /* \"#utility.yul\":11457:11461   */\n      0x00\n        /* \"#utility.yul\":11495:11497   */\n      0x20\n        /* \"#utility.yul\":11484:11493   */\n      dup3\n        /* \"#utility.yul\":11480:11498   */\n      add\n        /* \"#utility.yul\":11472:11498   */\n      swap1\n      pop\n        /* \"#utility.yul\":11544:11553   */\n      dup2\n        /* \"#utility.yul\":11538:11542   */\n      dup2\n        /* \"#utility.yul\":11534:11554   */\n      sub\n        /* \"#utility.yul\":11530:11531   */\n      0x00\n        /* \"#utility.yul\":11519:11528   */\n      dup4\n        /* \"#utility.yul\":11515:11532   */\n      add\n        /* \"#utility.yul\":11508:11555   */\n      mstore\n        /* \"#utility.yul\":11572:11703   */\n      tag_382\n        /* \"#utility.yul\":11698:11702   */\n      dup2\n        /* \"#utility.yul\":11572:11703   */\n      tag_276\n      jump\t// in\n    tag_382:\n        /* \"#utility.yul\":11564:11703   */\n      swap1\n      pop\n        /* \"#utility.yul\":11291:11710   */\n      swap2\n      swap1\n      pop\n      jump\t// out\n        /* \"#utility.yul\":11716:11863   */\n    tag_277:\n        /* \"#utility.yul\":11817:11828   */\n      0x00\n        /* \"#utility.yul\":11854:11857   */\n      dup2\n        /* \"#utility.yul\":11839:11857   */\n      swap1\n      pop\n        /* \"#utility.yul\":11716:11863   */\n      swap3\n      swap2\n      pop\n      pop\n      jump\t// out\n        /* \"#utility.yul\":11869:11983   */\n    tag_278:\n      pop\n      jump\t// out\n        /* \"#utility.yul\":11989:12387   */\n    tag_279:\n        /* \"#utility.yul\":12148:12151   */\n      0x00\n        /* \"#utility.yul\":12169:12252   */\n      tag_386\n        /* \"#utility.yul\":12250:12251   */\n      0x00\n        /* \"#utility.yul\":12245:12248   */\n      dup4\n        /* \"#utility.yul\":12169:12252   */\n      tag_277\n      jump\t// in\n    tag_386:\n        /* \"#utility.yul\":12162:12252   */\n      swap2\n      pop\n        /* \"#utility.yul\":12261:12354   */\n      tag_387\n        /* \"#utility.yul\":12350:12353   */\n      dup3\n        /* \"#utility.yul\":12261:12354   */\n      tag_278\n      jump\t// in\n    tag_387:\n        /* \"#utility.yul\":12379:12380   */\n      0x00\n        /* \"#utility.yul\":12374:12377   */\n      dup3\n        /* \"#utility.yul\":12370:12381   */\n      add\n        /* \"#utility.yul\":12363:12381   */\n      swap1\n      pop\n        /* \"#utility.yul\":11989:12387   */\n      swap2\n      swap1\n      pop\n      jump\t// out\n        /* \"#utility.yul\":12393:12772   */\n    tag_92:\n        /* \"#utility.yul\":12577:12580   */\n      0x00\n        /* \"#utility.yul\":12599:12746   */\n      tag_389\n        /* \"#utility.yul\":12742:12745   */\n      dup3\n        /* \"#utility.yul\":12599:12746   */\n      tag_279\n      jump\t// in\n    tag_389:\n        /* \"#utility.yul\":12592:12746   */\n      swap2\n      pop\n        /* \"#utility.yul\":12763:12766   */\n      dup2\n        /* \"#utility.yul\":12756:12766   */\n      swap1\n      pop\n        /* \"#utility.yul\":12393:12772   */\n      swap2\n      swap1\n      pop\n      jump\t// out\n        /* \"#utility.yul\":12778:12942   */\n    tag_280:\n        /* \"#utility.yul\":12918:12934   */\n      0x66616c6c6f20656c20656e76696f000000000000000000000000000000000000\n        /* \"#utility.yul\":12914:12915   */\n      0x00\n        /* \"#utility.yul\":12906:12912   */\n      dup3\n        /* \"#utility.yul\":12902:12916   */\n      add\n        /* \"#utility.yul\":12895:12935   */\n      mstore\n        /* \"#utility.yul\":12778:12942   */\n      pop\n      jump\t// out\n        /* \"#utility.yul\":12948:13314   */\n    tag_281:\n        /* \"#utility.yul\":13090:13093   */\n      0x00\n        /* \"#utility.yul\":13111:13178   */\n      tag_392\n        /* \"#utility.yul\":13175:13177   */\n      0x0e\n        /* \"#utility.yul\":13170:13173   */\n      dup4\n        /* \"#utility.yul\":13111:13178   */\n      tag_264\n      jump\t// in\n    tag_392:\n        /* \"#utility.yul\":13104:13178   */\n      swap2\n      pop\n        /* \"#utility.yul\":13187:13280   */\n      tag_393\n        /* \"#utility.yul\":13276:13279   */\n      dup3\n        /* \"#utility.yul\":13187:13280   */\n      tag_280\n      jump\t// in\n    tag_393:\n        /* \"#utility.yul\":13305:13307   */\n      0x20\n        /* \"#utility.yul\":13300:13303   */\n      dup3\n        /* \"#utility.yul\":13296:13308   */\n      add\n        /* \"#utility.yul\":13289:13308   */\n      swap1\n      pop\n        /* \"#utility.yul\":12948:13314   */\n      swap2\n      swap1\n      pop\n      jump\t// out\n        /* \"#utility.yul\":13320:13739   */\n    tag_98:\n        /* \"#utility.yul\":13486:13490   */\n      0x00\n        /* \"#utility.yul\":13524:13526   */\n      0x20\n        /* \"#utility.yul\":13513:13522   */\n      dup3\n        /* \"#utility.yul\":13509:13527   */\n      add\n        /* \"#utility.yul\":13501:13527   */\n      swap1\n      pop\n        /* \"#utility.yul\":13573:13582   */\n      dup2\n        /* \"#utility.yul\":13567:13571   */\n      dup2\n        /* \"#utility.yul\":13563:13583   */\n      sub\n        /* \"#utility.yul\":13559:13560   */\n      0x00\n        /* \"#utility.yul\":13548:13557   */\n      dup4\n        /* \"#utility.yul\":13544:13561   */\n      add\n        /* \"#utility.yul\":13537:13584   */\n      mstore\n        /* \"#utility.yul\":13601:13732   */\n      tag_395\n        /* \"#utility.yul\":13727:13731   */\n      dup2\n        /* \"#utility.yul\":13601:13732   */\n      tag_281\n      jump\t// in\n    tag_395:\n        /* \"#utility.yul\":13593:13732   */\n      swap1\n      pop\n        /* \"#utility.yul\":13320:13739   */\n      swap2\n      swap1\n      pop\n      jump\t// out\n        /* \"#utility.yul\":13745:13916   */\n    tag_282:\n        /* \"#utility.yul\":13885:13908   */\n      0x61756374696f6e20616c726561647920656e6465640000000000000000000000\n        /* \"#utility.yul\":13881:13882   */\n      0x00\n        /* \"#utility.yul\":13873:13879   */\n      dup3\n        /* \"#utility.yul\":13869:13883   */\n      add\n        /* \"#utility.yul\":13862:13909   */\n      mstore\n        /* \"#utility.yul\":13745:13916   */\n      pop\n      jump\t// out\n        /* \"#utility.yul\":13922:14288   */\n    tag_283:\n        /* \"#utility.yul\":14064:14067   */\n      0x00\n        /* \"#utility.yul\":14085:14152   */\n      tag_398\n        /* \"#utility.yul\":14149:14151   */\n      0x15\n        /* \"#utility.yul\":14144:14147   */\n      dup4\n        /* \"#utility.yul\":14085:14152   */\n      tag_264\n      jump\t// in\n    tag_398:\n        /* \"#utility.yul\":14078:14152   */\n      swap2\n      pop\n        /* \"#utility.yul\":14161:14254   */\n      tag_399\n        /* \"#utility.yul\":14250:14253   */\n      dup3\n        /* \"#utility.yul\":14161:14254   */\n      tag_282\n      jump\t// in\n    tag_399:\n        /* \"#utility.yul\":14279:14281   */\n      0x20\n        /* \"#utility.yul\":14274:14277   */\n      dup3\n        /* \"#utility.yul\":14270:14282   */\n      add\n        /* \"#utility.yul\":14263:14282   */\n      swap1\n      pop\n        /* \"#utility.yul\":13922:14288   */\n      swap2\n      swap1\n      pop\n      jump\t// out\n        /* \"#utility.yul\":14294:14713   */\n    tag_106:\n        /* \"#utility.yul\":14460:14464   */\n      0x00\n        /* \"#utility.yul\":14498:14500   */\n      0x20\n        /* \"#utility.yul\":14487:14496   */\n      dup3\n        /* \"#utility.yul\":14483:14501   */\n      add\n        /* \"#utility.yul\":14475:14501   */\n      swap1\n      pop\n        /* \"#utility.yul\":14547:14556   */\n      dup2\n        /* \"#utility.yul\":14541:14545   */\n      dup2\n        /* \"#utility.yul\":14537:14557   */\n      sub\n        /* \"#utility.yul\":14533:14534   */\n      0x00\n        /* \"#utility.yul\":14522:14531   */\n      dup4\n        /* \"#utility.yul\":14518:14535   */\n      add\n        /* \"#utility.yul\":14511:14558   */\n      mstore\n        /* \"#utility.yul\":14575:14706   */\n      tag_401\n        /* \"#utility.yul\":14701:14705   */\n      dup2\n        /* \"#utility.yul\":14575:14706   */\n      tag_283\n      jump\t// in\n    tag_401:\n        /* \"#utility.yul\":14567:14706   */\n      swap1\n      pop\n        /* \"#utility.yul\":14294:14713   */\n      swap2\n      swap1\n      pop\n      jump\t// out\n        /* \"#utility.yul\":14719:14881   */\n    tag_284:\n        /* \"#utility.yul\":14859:14873   */\n      0x6e6f742061206269646465720000000000000000000000000000000000000000\n        /* \"#utility.yul\":14855:14856   */\n      0x00\n        /* \"#utility.yul\":14847:14853   */\n      dup3\n        /* \"#utility.yul\":14843:14857   */\n      add\n        /* \"#utility.yul\":14836:14874   */\n      mstore\n        /* \"#utility.yul\":14719:14881   */\n      pop\n      jump\t// out\n        /* \"#utility.yul\":14887:15253   */\n    tag_285:\n        /* \"#utility.yul\":15029:15032   */\n      0x00\n        /* \"#utility.yul\":15050:15117   */\n      tag_404\n        /* \"#utility.yul\":15114:15116   */\n      0x0c\n        /* \"#utility.yul\":15109:15112   */\n      dup4\n        /* \"#utility.yul\":15050:15117   */\n      tag_264\n      jump\t// in\n    tag_404:\n        /* \"#utility.yul\":15043:15117   */\n      swap2\n      pop\n        /* \"#utility.yul\":15126:15219   */\n      tag_405\n        /* \"#utility.yul\":15215:15218   */\n      dup3\n        /* \"#utility.yul\":15126:15219   */\n      tag_284\n      jump\t// in\n    tag_405:\n        /* \"#utility.yul\":15244:15246   */\n      0x20\n        /* \"#utility.yul\":15239:15242   */\n      dup3\n        /* \"#utility.yul\":15235:15247   */\n      add\n        /* \"#utility.yul\":15228:15247   */\n      swap1\n      pop\n        /* \"#utility.yul\":14887:15253   */\n      swap2\n      swap1\n      pop\n      jump\t// out\n        /* \"#utility.yul\":15259:15678   */\n    tag_110:\n        /* \"#utility.yul\":15425:15429   */\n      0x00\n        /* \"#utility.yul\":15463:15465   */\n      0x20\n        /* \"#utility.yul\":15452:15461   */\n      dup3\n        /* \"#utility.yul\":15448:15466   */\n      add\n        /* \"#utility.yul\":15440:15466   */\n      swap1\n      pop\n        /* \"#utility.yul\":15512:15521   */\n      dup2\n        /* \"#utility.yul\":15506:15510   */\n      dup2\n        /* \"#utility.yul\":15502:15522   */\n      sub\n        /* \"#utility.yul\":15498:15499   */\n      0x00\n        /* \"#utility.yul\":15487:15496   */\n      dup4\n        /* \"#utility.yul\":15483:15500   */\n      add\n        /* \"#utility.yul\":15476:15523   */\n      mstore\n        /* \"#utility.yul\":15540:15671   */\n      tag_407\n        /* \"#utility.yul\":15666:15670   */\n      dup2\n        /* \"#utility.yul\":15540:15671   */\n      tag_285\n      jump\t// in\n    tag_407:\n        /* \"#utility.yul\":15532:15671   */\n      swap1\n      pop\n        /* \"#utility.yul\":15259:15678   */\n      swap2\n      swap1\n      pop\n      jump\t// out\n        /* \"#utility.yul\":15684:15878   */\n    tag_118:\n        /* \"#utility.yul\":15724:15728   */\n      0x00\n        /* \"#utility.yul\":15744:15764   */\n      tag_409\n        /* \"#utility.yul\":15762:15763   */\n      dup3\n        /* \"#utility.yul\":15744:15764   */\n      tag_246\n      jump\t// in\n    tag_409:\n        /* \"#utility.yul\":15739:15764   */\n      swap2\n      pop\n        /* \"#utility.yul\":15778:15798   */\n      tag_410\n        /* \"#utility.yul\":15796:15797   */\n      dup4\n        /* \"#utility.yul\":15778:15798   */\n      tag_246\n      jump\t// in\n    tag_410:\n        /* \"#utility.yul\":15773:15798   */\n      swap3\n      pop\n        /* \"#utility.yul\":15822:15823   */\n      dup3\n        /* \"#utility.yul\":15819:15820   */\n      dup3\n        /* \"#utility.yul\":15815:15824   */\n      sub\n        /* \"#utility.yul\":15807:15824   */\n      swap1\n      pop\n        /* \"#utility.yul\":15846:15847   */\n      dup2\n        /* \"#utility.yul\":15840:15844   */\n      dup2\n        /* \"#utility.yul\":15837:15848   */\n      gt\n        /* \"#utility.yul\":15834:15871   */\n      iszero\n      tag_411\n      jumpi\n        /* \"#utility.yul\":15851:15869   */\n      tag_412\n      tag_267\n      jump\t// in\n    tag_412:\n        /* \"#utility.yul\":15834:15871   */\n    tag_411:\n        /* \"#utility.yul\":15684:15878   */\n      swap3\n      swap2\n      pop\n      pop\n      jump\t// out\n        /* \"#utility.yul\":15884:16064   */\n    tag_142:\n        /* \"#utility.yul\":15932:16009   */\n      0x4e487b7100000000000000000000000000000000000000000000000000000000\n        /* \"#utility.yul\":15929:15930   */\n      0x00\n        /* \"#utility.yul\":15922:16010   */\n      mstore\n        /* \"#utility.yul\":16029:16033   */\n      0x32\n        /* \"#utility.yul\":16026:16027   */\n      0x04\n        /* \"#utility.yul\":16019:16034   */\n      mstore\n        /* \"#utility.yul\":16053:16057   */\n      0x24\n        /* \"#utility.yul\":16050:16051   */\n      0x00\n        /* \"#utility.yul\":16043:16058   */\n      revert\n        /* \"#utility.yul\":16070:16188   */\n    tag_286:\n        /* \"#utility.yul\":16157:16181   */\n      tag_415\n        /* \"#utility.yul\":16175:16180   */\n      dup2\n        /* \"#utility.yul\":16157:16181   */\n      tag_252\n      jump\t// in\n    tag_415:\n        /* \"#utility.yul\":16152:16155   */\n      dup3\n        /* \"#utility.yul\":16145:16182   */\n      mstore\n        /* \"#utility.yul\":16070:16188   */\n      pop\n      pop\n      jump\t// out\n        /* \"#utility.yul\":16194:16526   */\n    tag_197:\n        /* \"#utility.yul\":16315:16319   */\n      0x00\n        /* \"#utility.yul\":16353:16355   */\n      0x40\n        /* \"#utility.yul\":16342:16351   */\n      dup3\n        /* \"#utility.yul\":16338:16356   */\n      add\n        /* \"#utility.yul\":16330:16356   */\n      swap1\n      pop\n        /* \"#utility.yul\":16366:16437   */\n      tag_417\n        /* \"#utility.yul\":16434:16435   */\n      0x00\n        /* \"#utility.yul\":16423:16432   */\n      dup4\n        /* \"#utility.yul\":16419:16436   */\n      add\n        /* \"#utility.yul\":16410:16416   */\n      dup6\n        /* \"#utility.yul\":16366:16437   */\n      tag_286\n      jump\t// in\n    tag_417:\n        /* \"#utility.yul\":16447:16519   */\n      tag_418\n        /* \"#utility.yul\":16515:16517   */\n      0x20\n        /* \"#utility.yul\":16504:16513   */\n      dup4\n        /* \"#utility.yul\":16500:16518   */\n      add\n        /* \"#utility.yul\":16491:16497   */\n      dup5\n        /* \"#utility.yul\":16447:16519   */\n      tag_247\n      jump\t// in\n    tag_418:\n        /* \"#utility.yul\":16194:16526   */\n      swap4\n      swap3\n      pop\n      pop\n      pop\n      jump\t// out\n        /* \"#utility.yul\":16532:16695   */\n    tag_287:\n        /* \"#utility.yul\":16672:16687   */\n      0x61756e206e6f2065787069726f00000000000000000000000000000000000000\n        /* \"#utility.yul\":16668:16669   */\n      0x00\n        /* \"#utility.yul\":16660:16666   */\n      dup3\n        /* \"#utility.yul\":16656:16670   */\n      add\n        /* \"#utility.yul\":16649:16688   */\n      mstore\n        /* \"#utility.yul\":16532:16695   */\n      pop\n      jump\t// out\n        /* \"#utility.yul\":16701:17067   */\n    tag_288:\n        /* \"#utility.yul\":16843:16846   */\n      0x00\n        /* \"#utility.yul\":16864:16931   */\n      tag_421\n        /* \"#utility.yul\":16928:16930   */\n      0x0d\n        /* \"#utility.yul\":16923:16926   */\n      dup4\n        /* \"#utility.yul\":16864:16931   */\n      tag_264\n      jump\t// in\n    tag_421:\n        /* \"#utility.yul\":16857:16931   */\n      swap2\n      pop\n        /* \"#utility.yul\":16940:17033   */\n      tag_422\n        /* \"#utility.yul\":17029:17032   */\n      dup3\n        /* \"#utility.yul\":16940:17033   */\n      tag_287\n      jump\t// in\n    tag_422:\n        /* \"#utility.yul\":17058:17060   */\n      0x20\n        /* \"#utility.yul\":17053:17056   */\n      dup3\n        /* \"#utility.yul\":17049:17061   */\n      add\n        /* \"#utility.yul\":17042:17061   */\n      swap1\n      pop\n        /* \"#utility.yul\":16701:17067   */\n      swap2\n      swap1\n      pop\n      jump\t// out\n        /* \"#utility.yul\":17073:17492   */\n    tag_200:\n        /* \"#utility.yul\":17239:17243   */\n      0x00\n        /* \"#utility.yul\":17277:17279   */\n      0x20\n        /* \"#utility.yul\":17266:17275   */\n      dup3\n        /* \"#utility.yul\":17262:17280   */\n      add\n        /* \"#utility.yul\":17254:17280   */\n      swap1\n      pop\n        /* \"#utility.yul\":17326:17335   */\n      dup2\n        /* \"#utility.yul\":17320:17324   */\n      dup2\n        /* \"#utility.yul\":17316:17336   */\n      sub\n        /* \"#utility.yul\":17312:17313   */\n      0x00\n        /* \"#utility.yul\":17301:17310   */\n      dup4\n        /* \"#utility.yul\":17297:17314   */\n      add\n        /* \"#utility.yul\":17290:17337   */\n      mstore\n        /* \"#utility.yul\":17354:17485   */\n      tag_424\n        /* \"#utility.yul\":17480:17484   */\n      dup2\n        /* \"#utility.yul\":17354:17485   */\n      tag_288\n      jump\t// in\n    tag_424:\n        /* \"#utility.yul\":17346:17485   */\n      swap1\n      pop\n        /* \"#utility.yul\":17073:17492   */\n      swap2\n      swap1\n      pop\n      jump\t// out\n        /* \"#utility.yul\":17498:17689   */\n    tag_204:\n        /* \"#utility.yul\":17538:17541   */\n      0x00\n        /* \"#utility.yul\":17557:17577   */\n      tag_426\n        /* \"#utility.yul\":17575:17576   */\n      dup3\n        /* \"#utility.yul\":17557:17577   */\n      tag_246\n      jump\t// in\n    tag_426:\n        /* \"#utility.yul\":17552:17577   */\n      swap2\n      pop\n        /* \"#utility.yul\":17591:17611   */\n      tag_427\n        /* \"#utility.yul\":17609:17610   */\n      dup4\n        /* \"#utility.yul\":17591:17611   */\n      tag_246\n      jump\t// in\n    tag_427:\n        /* \"#utility.yul\":17586:17611   */\n      swap3\n      pop\n        /* \"#utility.yul\":17634:17635   */\n      dup3\n        /* \"#utility.yul\":17631:17632   */\n      dup3\n        /* \"#utility.yul\":17627:17636   */\n      add\n        /* \"#utility.yul\":17620:17636   */\n      swap1\n      pop\n        /* \"#utility.yul\":17655:17658   */\n      dup1\n        /* \"#utility.yul\":17652:17653   */\n      dup3\n        /* \"#utility.yul\":17649:17659   */\n      gt\n        /* \"#utility.yul\":17646:17682   */\n      iszero\n      tag_428\n      jumpi\n        /* \"#utility.yul\":17662:17680   */\n      tag_429\n      tag_267\n      jump\t// in\n    tag_429:\n        /* \"#utility.yul\":17646:17682   */\n    tag_428:\n        /* \"#utility.yul\":17498:17689   */\n      swap3\n      swap2\n      pop\n      pop\n      jump\t// out\n\n    auxdata: 0xa2646970667358221220670aee98ae17348bd38e894133338db81cb84dcb389dacdeb968cb811423270a64736f6c634300081e0033\n}\n",
				"bytecode": {
					"linkReferences": {},
					"object": "608060405234801561000f575f5ffd5b50335f5f6101000a81548173ffffffffffffffffffffffffffffffffffffffff021916908373ffffffffffffffffffffffffffffffffffffffff1602179055504260028190555062093a806002546100679190610152565b600481905550610258600381905550620f42406001819055505f5f9054906101000a900473ffffffffffffffffffffffffffffffffffffffff1660085f015f6101000a81548173ffffffffffffffffffffffffffffffffffffffff021916908373ffffffffffffffffffffffffffffffffffffffff1602179055506001546008600101819055505f60055f6101000a81548160ff0219169083600181111561011257610111610185565b5b02179055506101b2565b5f819050919050565b7f4e487b71000000000000000000000000000000000000000000000000000000005f52601160045260245ffd5b5f61015c8261011c565b91506101678361011c565b925082820190508082111561017f5761017e610125565b5b92915050565b7f4e487b71000000000000000000000000000000000000000000000000000000005f52602160045260245ffd5b611fad806101bf5f395ff3fe608060405260043610610085575f3560e01c8063534823bf11610058578063534823bf146100e957806377c468c414610113578063b7e0326414610129578063c19d93fb14610153578063fe67a54b1461017d57610085565b80631f09dfa7146100895780634665096d146100935780634dbe5889146100bd5780634e71d92d146100d3575b5f5ffd5b610091610193565b005b34801561009e575f5ffd5b506100a7610330565b6040516100b491906117bc565b60405180910390f35b3480156100c8575f5ffd5b506100d1610336565b005b3480156100de575f5ffd5b506100e761050d565b005b3480156100f4575f5ffd5b506100fd610787565b60405161010a91906118f8565b60405180910390f35b34801561011e575f5ffd5b50610127610841565b005b348015610134575f5ffd5b5061013d610e42565b60405161014a9190611945565b60405180910390f35b34801561015e575f5ffd5b50610167610eba565b60405161017491906119d1565b60405180910390f35b348015610188575f5ffd5b50610191610ecc565b005b5f60018111156101a6576101a561195e565b5b60055f9054906101000a900460ff1660018111156101c7576101c661195e565b5b036102f3576004544210610210576040517f08c379a000000000000000000000000000000000000000000000000000000000815260040161020790611a44565b60405180910390fd5b606460696008600101546102249190611a8f565b61022e9190611afd565b341015610270576040517f08c379a000000000000000000000000000000000000000000000000000000000815260040161026790611b77565b60405180910390fd5b61027a33346110a5565b6102853334346110f5565b61028f3334611195565b61029761125c565b3373ffffffffffffffffffffffffffffffffffffffff167f058d619527549e88853c641ebcec23205e5df61592e3908275721b5ad490113f346040516102dd91906117bc565b60405180910390a26102ee3361128f565b61032e565b6040517f08c379a000000000000000000000000000000000000000000000000000000000815260040161032590611bdf565b60405180910390fd5b565b60045481565b3373ffffffffffffffffffffffffffffffffffffffff165f5f9054906101000a900473ffffffffffffffffffffffffffffffffffffffff1673ffffffffffffffffffffffffffffffffffffffff16146103c4576040517f08c379a00000000000000000000000000000000000000000000000000000000081526004016103bb90611c47565b60405180910390fd5b6001808111156103d7576103d661195e565b5b60055f9054906101000a900460ff1660018111156103f8576103f761195e565b5b14610438576040517f08c379a000000000000000000000000000000000000000000000000000000000815260040161042f90611caf565b60405180910390fd5b5f5f5f9054906101000a900473ffffffffffffffffffffffffffffffffffffffff1673ffffffffffffffffffffffffffffffffffffffff166108fc4760405161048090611cfa565b5f60405180830381858888f193505050503d805f81146104bb576040519150601f19603f3d011682016040523d82523d5f602084013e6104c0565b606091505b505090505f15158115150361050a576040517f08c379a000000000000000000000000000000000000000000000000000000000815260040161050190611d58565b60405180910390fd5b50565b5f60018111156105205761051f61195e565b5b60055f9054906101000a900460ff1660018111156105415761054061195e565b5b14610581576040517f08c379a000000000000000000000000000000000000000000000000000000000815260040161057890611dc0565b60405180910390fd5b60011515600b5f3373ffffffffffffffffffffffffffffffffffffffff1673ffffffffffffffffffffffffffffffffffffffff1681526020019081526020015f205f9054906101000a900460ff16151514610611576040517f08c379a000000000000000000000000000000000000000000000000000000000815260040161060890611e28565b60405180910390fd5b5f5f61061c3361139c565b80925081935050505f15158215150361066a576040517f08c379a000000000000000000000000000000000000000000000000000000000815260040161066190611d58565b60405180910390fd5b8060065f3373ffffffffffffffffffffffffffffffffffffffff1673ffffffffffffffffffffffffffffffffffffffff1681526020019081526020015f206002015f8282546106b99190611e46565b925050819055506106c8611776565b33815f019073ffffffffffffffffffffffffffffffffffffffff16908173ffffffffffffffffffffffffffffffffffffffff16815250505f816020018181525050600781908060018154018082558091505060019003905f5260205f2090600202015f909190919091505f820151815f015f6101000a81548173ffffffffffffffffffffffffffffffffffffffff021916908373ffffffffffffffffffffffffffffffffffffffff160217905550602082015181600101555050505050565b60606007805480602002602001604051908101604052809291908181526020015f905b82821015610838578382905f5260205f2090600202016040518060400160405290815f82015f9054906101000a900473ffffffffffffffffffffffffffffffffffffffff1673ffffffffffffffffffffffffffffffffffffffff1673ffffffffffffffffffffffffffffffffffffffff168152602001600182015481525050815260200190600101906107aa565b50505050905090565b3373ffffffffffffffffffffffffffffffffffffffff165f5f9054906101000a900473ffffffffffffffffffffffffffffffffffffffff1673ffffffffffffffffffffffffffffffffffffffff16146108cf576040517f08c379a00000000000000000000000000000000000000000000000000000000081526004016108c690611c47565b60405180910390fd5b6001808111156108e2576108e161195e565b5b60055f9054906101000a900460ff1660018111156109035761090261195e565b5b14610943576040517f08c379a000000000000000000000000000000000000000000000000000000000815260040161093a90611caf565b60405180910390fd5b5f5f5f5f90505b600a80549050811015610e3d5760085f015f9054906101000a900473ffffffffffffffffffffffffffffffffffffffff1673ffffffffffffffffffffffffffffffffffffffff16600a82815481106109a5576109a4611e79565b5b905f5260205f20015f9054906101000a900473ffffffffffffffffffffffffffffffffffffffff1673ffffffffffffffffffffffffffffffffffffffff1614610c0e57610a2c600a82815481106109ff576109fe611e79565b5b905f5260205f20015f9054906101000a900473ffffffffffffffffffffffffffffffffffffffff16611574565b80935081945050505f151583151503610a7a576040517f08c379a0000000000000000000000000000000000000000000000000000000008152600401610a7190611d58565b60405180910390fd5b8160065f600a8481548110610a9257610a91611e79565b5b905f5260205f20015f9054906101000a900473ffffffffffffffffffffffffffffffffffffffff1673ffffffffffffffffffffffffffffffffffffffff1673ffffffffffffffffffffffffffffffffffffffff1681526020019081526020015f206002015f828254610b049190611e46565b92505081905550610b13611776565b600a8281548110610b2757610b26611e79565b5b905f5260205f20015f9054906101000a900473ffffffffffffffffffffffffffffffffffffffff16815f019073ffffffffffffffffffffffffffffffffffffffff16908173ffffffffffffffffffffffffffffffffffffffff16815250505f816020018181525050600781908060018154018082558091505060019003905f5260205f2090600202015f909190919091505f820151815f015f6101000a81548173ffffffffffffffffffffffffffffffffffffffff021916908373ffffffffffffffffffffffffffffffffffffffff16021790555060208201518160010155505050610e30565b610c52600a8281548110610c2557610c24611e79565b5b905f5260205f20015f9054906101000a900473ffffffffffffffffffffffffffffffffffffffff1661166d565b80935081945050505f151583151503610ca0576040517f08c379a0000000000000000000000000000000000000000000000000000000008152600401610c9790611d58565b60405180910390fd5b8160065f600a8481548110610cb857610cb7611e79565b5b905f5260205f20015f9054906101000a900473ffffffffffffffffffffffffffffffffffffffff1673ffffffffffffffffffffffffffffffffffffffff1673ffffffffffffffffffffffffffffffffffffffff1681526020019081526020015f206002015f828254610d2a9190611e46565b92505081905550610d39611776565b600a8281548110610d4d57610d4c611e79565b5b905f5260205f20015f9054906101000a900473ffffffffffffffffffffffffffffffffffffffff16815f019073ffffffffffffffffffffffffffffffffffffffff16908173ffffffffffffffffffffffffffffffffffffffff16815250505f816020018181525050600781908060018154018082558091505060019003905f5260205f2090600202015f909190919091505f820151815f015f6101000a81548173ffffffffffffffffffffffffffffffffffffffff021916908373ffffffffffffffffffffffffffffffffffffffff160217905550602082015181600101555050505b808060010191505061094a565b505050565b610e4a611776565b60086040518060400160405290815f82015f9054906101000a900473ffffffffffffffffffffffffffffffffffffffff1673ffffffffffffffffffffffffffffffffffffffff1673ffffffffffffffffffffffffffffffffffffffff168152602001600182015481525050905090565b60055f9054906101000a900460ff1681565b3373ffffffffffffffffffffffffffffffffffffffff165f5f9054906101000a900473ffffffffffffffffffffffffffffffffffffffff1673ffffffffffffffffffffffffffffffffffffffff1614610f5a576040517f08c379a0000000000000000000000000000000000000000000000000000000008152600401610f5190611c47565b60405180910390fd5b5f6001811115610f6d57610f6c61195e565b5b60055f9054906101000a900460ff166001811115610f8e57610f8d61195e565b5b14610fce576040517f08c379a0000000000000000000000000000000000000000000000000000000008152600401610fc590611dc0565b60405180910390fd5b60045442111561106857600160055f6101000a81548160ff02191690836001811115610ffd57610ffc61195e565b5b02179055507fdaec4582d5d9595688c8c98545fdd1c696d41c6aeaeb636737e84ed2f5c00eda60085f015f9054906101000a900473ffffffffffffffffffffffffffffffffffffffff1660086001015460405161105b929190611eb5565b60405180910390a16110a3565b6040517f08c379a000000000000000000000000000000000000000000000000000000000815260040161109a90611f26565b60405180910390fd5b565b8160085f015f6101000a81548173ffffffffffffffffffffffffffffffffffffffff021916908373ffffffffffffffffffffffffffffffffffffffff160217905550806008600101819055505050565b8160065f8573ffffffffffffffffffffffffffffffffffffffff1673ffffffffffffffffffffffffffffffffffffffff1681526020019081526020015f20600101819055508060065f8573ffffffffffffffffffffffffffffffffffffffff1673ffffffffffffffffffffffffffffffffffffffff1681526020019081526020015f206002015f8282546111899190611f44565b92505081905550505050565b61119d611776565b82815f019073ffffffffffffffffffffffffffffffffffffffff16908173ffffffffffffffffffffffffffffffffffffffff168152505081816020018181525050600781908060018154018082558091505060019003905f5260205f2090600202015f909190919091505f820151815f015f6101000a81548173ffffffffffffffffffffffffffffffffffffffff021916908373ffffffffffffffffffffffffffffffffffffffff160217905550602082015181600101555050505050565b60035460045461126c9190611e46565b421061128d5760035460045f8282546112859190611f44565b925050819055505b565b5f1515600b5f8373ffffffffffffffffffffffffffffffffffffffff1673ffffffffffffffffffffffffffffffffffffffff1681526020019081526020015f205f9054906101000a900460ff1615150361139957600a81908060018154018082558091505060019003905f5260205f20015f9091909190916101000a81548173ffffffffffffffffffffffffffffffffffffffff021916908373ffffffffffffffffffffffffffffffffffffffff1602179055506001600b5f8373ffffffffffffffffffffffffffffffffffffffff1673ffffffffffffffffffffffffffffffffffffffff1681526020019081526020015f205f6101000a81548160ff0219169083151502179055505b50565b5f5f60065f8473ffffffffffffffffffffffffffffffffffffffff1673ffffffffffffffffffffffffffffffffffffffff1681526020019081526020015f206001015460065f8573ffffffffffffffffffffffffffffffffffffffff1673ffffffffffffffffffffffffffffffffffffffff1681526020019081526020015f20600201541115611567575f60065f8573ffffffffffffffffffffffffffffffffffffffff1673ffffffffffffffffffffffffffffffffffffffff1681526020019081526020015f206001015460065f8673ffffffffffffffffffffffffffffffffffffffff1673ffffffffffffffffffffffffffffffffffffffff1681526020019081526020015f20600201546114b39190611e46565b90505f60646062836114c59190611a8f565b6114cf9190611afd565b90505f8573ffffffffffffffffffffffffffffffffffffffff166108fc836040516114f990611cfa565b5f60405180830381858888f193505050503d805f8114611534576040519150601f19603f3d011682016040523d82523d5f602084013e611539565b606091505b505090505f151581151503611559575f925080839450945050505061156f565b80839450945050505061156f565b60015f915091505b915091565b5f5f5f60065f8573ffffffffffffffffffffffffffffffffffffffff1673ffffffffffffffffffffffffffffffffffffffff1681526020019081526020015f206002015490505f60646062836115ca9190611a8f565b6115d49190611afd565b90505f8573ffffffffffffffffffffffffffffffffffffffff166108fc836040516115fe90611cfa565b5f60405180830381858888f193505050503d805f8114611639576040519150601f19603f3d011682016040523d82523d5f602084013e61163e565b606091505b505090505f15158115150361165e575f9250808394509450505050611668565b8083945094505050505b915091565b5f5f5f60086001015460065f8673ffffffffffffffffffffffffffffffffffffffff1673ffffffffffffffffffffffffffffffffffffffff1681526020019081526020015f20600201546116c19190611e46565b90505f60646062836116d39190611a8f565b6116dd9190611afd565b90505f8573ffffffffffffffffffffffffffffffffffffffff166108fc8360405161170790611cfa565b5f60405180830381858888f193505050503d805f8114611742576040519150601f19603f3d011682016040523d82523d5f602084013e611747565b606091505b505090505f151581151503611767575f9250808394509450505050611771565b8083945094505050505b915091565b60405180604001604052805f73ffffffffffffffffffffffffffffffffffffffff1681526020015f81525090565b5f819050919050565b6117b6816117a4565b82525050565b5f6020820190506117cf5f8301846117ad565b92915050565b5f81519050919050565b5f82825260208201905092915050565b5f819050602082019050919050565b5f73ffffffffffffffffffffffffffffffffffffffff82169050919050565b5f611827826117fe565b9050919050565b6118378161181d565b82525050565b611846816117a4565b82525050565b604082015f8201516118605f85018261182e565b506020820151611873602085018261183d565b50505050565b5f611884838361184c565b60408301905092915050565b5f602082019050919050565b5f6118a6826117d5565b6118b081856117df565b93506118bb836117ef565b805f5b838110156118eb5781516118d28882611879565b97506118dd83611890565b9250506001810190506118be565b5085935050505092915050565b5f6020820190508181035f830152611910818461189c565b905092915050565b604082015f82015161192c5f85018261182e565b50602082015161193f602085018261183d565b50505050565b5f6040820190506119585f830184611918565b92915050565b7f4e487b71000000000000000000000000000000000000000000000000000000005f52602160045260245ffd5b6002811061199c5761199b61195e565b5b50565b5f8190506119ac8261198b565b919050565b5f6119bb8261199f565b9050919050565b6119cb816119b1565b82525050565b5f6020820190506119e45f8301846119c2565b92915050565b5f82825260208201905092915050565b7f696e76616c6964206f666665722074696d6500000000000000000000000000005f82015250565b5f611a2e6012836119ea565b9150611a39826119fa565b602082019050919050565b5f6020820190508181035f830152611a5b81611a22565b9050919050565b7f4e487b71000000000000000000000000000000000000000000000000000000005f52601160045260245ffd5b5f611a99826117a4565b9150611aa4836117a4565b9250828202611ab2816117a4565b91508282048414831517611ac957611ac8611a62565b5b5092915050565b7f4e487b71000000000000000000000000000000000000000000000000000000005f52601260045260245ffd5b5f611b07826117a4565b9150611b12836117a4565b925082611b2257611b21611ad0565b5b828204905092915050565b7f696e76616c6964206f666665722076616c7565000000000000000000000000005f82015250565b5f611b616013836119ea565b9150611b6c82611b2d565b602082019050919050565b5f6020820190508181035f830152611b8e81611b55565b9050919050565b7f41756374696f6e20456e646564000000000000000000000000000000000000005f82015250565b5f611bc9600d836119ea565b9150611bd482611b95565b602082019050919050565b5f6020820190508181035f830152611bf681611bbd565b9050919050565b7f6e6f7420746865206f776e6572000000000000000000000000000000000000005f82015250565b5f611c31600d836119ea565b9150611c3c82611bfd565b602082019050919050565b5f6020820190508181035f830152611c5e81611c25565b9050919050565b7f61756374696f6e207374696c6c20616c697665000000000000000000000000005f82015250565b5f611c996013836119ea565b9150611ca482611c65565b602082019050919050565b5f6020820190508181035f830152611cc681611c8d565b9050919050565b5f81905092915050565b50565b5f611ce55f83611ccd565b9150611cf082611cd7565b5f82019050919050565b5f611d0482611cda565b9150819050919050565b7f66616c6c6f20656c20656e76696f0000000000000000000000000000000000005f82015250565b5f611d42600e836119ea565b9150611d4d82611d0e565b602082019050919050565b5f6020820190508181035f830152611d6f81611d36565b9050919050565b7f61756374696f6e20616c726561647920656e64656400000000000000000000005f82015250565b5f611daa6015836119ea565b9150611db582611d76565b602082019050919050565b5f6020820190508181035f830152611dd781611d9e565b9050919050565b7f6e6f7420612062696464657200000000000000000000000000000000000000005f82015250565b5f611e12600c836119ea565b9150611e1d82611dde565b602082019050919050565b5f6020820190508181035f830152611e3f81611e06565b9050919050565b5f611e50826117a4565b9150611e5b836117a4565b9250828203905081811115611e7357611e72611a62565b5b92915050565b7f4e487b71000000000000000000000000000000000000000000000000000000005f52603260045260245ffd5b611eaf8161181d565b82525050565b5f604082019050611ec85f830185611ea6565b611ed560208301846117ad565b9392505050565b7f61756e206e6f2065787069726f000000000000000000000000000000000000005f82015250565b5f611f10600d836119ea565b9150611f1b82611edc565b602082019050919050565b5f6020820190508181035f830152611f3d81611f04565b9050919050565b5f611f4e826117a4565b9150611f59836117a4565b9250828201905080821115611f7157611f70611a62565b5b9291505056fea2646970667358221220670aee98ae17348bd38e894133338db81cb84dcb389dacdeb968cb811423270a64736f6c634300081e0033",
					"opcodes": "PUSH1 0x80 PUSH1 0x40 MSTORE CALLVALUE DUP1 ISZERO PUSH2 0xF JUMPI PUSH0 PUSH0 REVERT JUMPDEST POP CALLER PUSH0 PUSH0 PUSH2 0x100 EXP DUP2 SLOAD DUP2 PUSH20 0xFFFFFFFFFFFFFFFFFFFFFFFFFFFFFFFFFFFFFFFF MUL NOT AND SWAP1 DUP4 PUSH20 0xFFFFFFFFFFFFFFFFFFFFFFFFFFFFFFFFFFFFFFFF AND MUL OR SWAP1 SSTORE POP TIMESTAMP PUSH1 0x2 DUP2 SWAP1 SSTORE POP PUSH3 0x93A80 PUSH1 0x2 SLOAD PUSH2 0x67 SWAP2 SWAP1 PUSH2 0x152 JUMP JUMPDEST PUSH1 0x4 DUP2 SWAP1 SSTORE POP PUSH2 0x258 PUSH1 0x3 DUP2 SWAP1 SSTORE POP PUSH3 0xF4240 PUSH1 0x1 DUP2 SWAP1 SSTORE POP PUSH0 PUSH0 SWAP1 SLOAD SWAP1 PUSH2 0x100 EXP SWAP1 DIV PUSH20 0xFFFFFFFFFFFFFFFFFFFFFFFFFFFFFFFFFFFFFFFF AND PUSH1 0x8 PUSH0 ADD PUSH0 PUSH2 0x100 EXP DUP2 SLOAD DUP2 PUSH20 0xFFFFFFFFFFFFFFFFFFFFFFFFFFFFFFFFFFFFFFFF MUL NOT AND SWAP1 DUP4 PUSH20 0xFFFFFFFFFFFFFFFFFFFFFFFFFFFFFFFFFFFFFFFF AND MUL OR SWAP1 SSTORE POP PUSH1 0x1 SLOAD PUSH1 0x8 PUSH1 0x1 ADD DUP2 SWAP1 SSTORE POP PUSH0 PUSH1 0x5 PUSH0 PUSH2 0x100 EXP DUP2 SLOAD DUP2 PUSH1 0xFF MUL NOT AND SWAP1 DUP4 PUSH1 0x1 DUP2 GT ISZERO PUSH2 0x112 JUMPI PUSH2 0x111 PUSH2 0x185 JUMP JUMPDEST JUMPDEST MUL OR SWAP1 SSTORE POP PUSH2 0x1B2 JUMP JUMPDEST PUSH0 DUP2 SWAP1 POP SWAP2 SWAP1 POP JUMP JUMPDEST PUSH32 0x4E487B7100000000000000000000000000000000000000000000000000000000 PUSH0 MSTORE PUSH1 0x11 PUSH1 0x4 MSTORE PUSH1 0x24 PUSH0 REVERT JUMPDEST PUSH0 PUSH2 0x15C DUP3 PUSH2 0x11C JUMP JUMPDEST SWAP2 POP PUSH2 0x167 DUP4 PUSH2 0x11C JUMP JUMPDEST SWAP3 POP DUP3 DUP3 ADD SWAP1 POP DUP1 DUP3 GT ISZERO PUSH2 0x17F JUMPI PUSH2 0x17E PUSH2 0x125 JUMP JUMPDEST JUMPDEST SWAP3 SWAP2 POP POP JUMP JUMPDEST PUSH32 0x4E487B7100000000000000000000000000000000000000000000000000000000 PUSH0 MSTORE PUSH1 0x21 PUSH1 0x4 MSTORE PUSH1 0x24 PUSH0 REVERT JUMPDEST PUSH2 0x1FAD DUP1 PUSH2 0x1BF PUSH0 CODECOPY PUSH0 RETURN INVALID PUSH1 0x80 PUSH1 0x40 MSTORE PUSH1 0x4 CALLDATASIZE LT PUSH2 0x85 JUMPI PUSH0 CALLDATALOAD PUSH1 0xE0 SHR DUP1 PUSH4 0x534823BF GT PUSH2 0x58 JUMPI DUP1 PUSH4 0x534823BF EQ PUSH2 0xE9 JUMPI DUP1 PUSH4 0x77C468C4 EQ PUSH2 0x113 JUMPI DUP1 PUSH4 0xB7E03264 EQ PUSH2 0x129 JUMPI DUP1 PUSH4 0xC19D93FB EQ PUSH2 0x153 JUMPI DUP1 PUSH4 0xFE67A54B EQ PUSH2 0x17D JUMPI PUSH2 0x85 JUMP JUMPDEST DUP1 PUSH4 0x1F09DFA7 EQ PUSH2 0x89 JUMPI DUP1 PUSH4 0x4665096D EQ PUSH2 0x93 JUMPI DUP1 PUSH4 0x4DBE5889 EQ PUSH2 0xBD JUMPI DUP1 PUSH4 0x4E71D92D EQ PUSH2 0xD3 JUMPI JUMPDEST PUSH0 PUSH0 REVERT JUMPDEST PUSH2 0x91 PUSH2 0x193 JUMP JUMPDEST STOP JUMPDEST CALLVALUE DUP1 ISZERO PUSH2 0x9E JUMPI PUSH0 PUSH0 REVERT JUMPDEST POP PUSH2 0xA7 PUSH2 0x330 JUMP JUMPDEST PUSH1 0x40 MLOAD PUSH2 0xB4 SWAP2 SWAP1 PUSH2 0x17BC JUMP JUMPDEST PUSH1 0x40 MLOAD DUP1 SWAP2 SUB SWAP1 RETURN JUMPDEST CALLVALUE DUP1 ISZERO PUSH2 0xC8 JUMPI PUSH0 PUSH0 REVERT JUMPDEST POP PUSH2 0xD1 PUSH2 0x336 JUMP JUMPDEST STOP JUMPDEST CALLVALUE DUP1 ISZERO PUSH2 0xDE JUMPI PUSH0 PUSH0 REVERT JUMPDEST POP PUSH2 0xE7 PUSH2 0x50D JUMP JUMPDEST STOP JUMPDEST CALLVALUE DUP1 ISZERO PUSH2 0xF4 JUMPI PUSH0 PUSH0 REVERT JUMPDEST POP PUSH2 0xFD PUSH2 0x787 JUMP JUMPDEST PUSH1 0x40 MLOAD PUSH2 0x10A SWAP2 SWAP1 PUSH2 0x18F8 JUMP JUMPDEST PUSH1 0x40 MLOAD DUP1 SWAP2 SUB SWAP1 RETURN JUMPDEST CALLVALUE DUP1 ISZERO PUSH2 0x11E JUMPI PUSH0 PUSH0 REVERT JUMPDEST POP PUSH2 0x127 PUSH2 0x841 JUMP JUMPDEST STOP JUMPDEST CALLVALUE DUP1 ISZERO PUSH2 0x134 JUMPI PUSH0 PUSH0 REVERT JUMPDEST POP PUSH2 0x13D PUSH2 0xE42 JUMP JUMPDEST PUSH1 0x40 MLOAD PUSH2 0x14A SWAP2 SWAP1 PUSH2 0x1945 JUMP JUMPDEST PUSH1 0x40 MLOAD DUP1 SWAP2 SUB SWAP1 RETURN JUMPDEST CALLVALUE DUP1 ISZERO PUSH2 0x15E JUMPI PUSH0 PUSH0 REVERT JUMPDEST POP PUSH2 0x167 PUSH2 0xEBA JUMP JUMPDEST PUSH1 0x40 MLOAD PUSH2 0x174 SWAP2 SWAP1 PUSH2 0x19D1 JUMP JUMPDEST PUSH1 0x40 MLOAD DUP1 SWAP2 SUB SWAP1 RETURN JUMPDEST CALLVALUE DUP1 ISZERO PUSH2 0x188 JUMPI PUSH0 PUSH0 REVERT JUMPDEST POP PUSH2 0x191 PUSH2 0xECC JUMP JUMPDEST STOP JUMPDEST PUSH0 PUSH1 0x1 DUP2 GT ISZERO PUSH2 0x1A6 JUMPI PUSH2 0x1A5 PUSH2 0x195E JUMP JUMPDEST JUMPDEST PUSH1 0x5 PUSH0 SWAP1 SLOAD SWAP1 PUSH2 0x100 EXP SWAP1 DIV PUSH1 0xFF AND PUSH1 0x1 DUP2 GT ISZERO PUSH2 0x1C7 JUMPI PUSH2 0x1C6 PUSH2 0x195E JUMP JUMPDEST JUMPDEST SUB PUSH2 0x2F3 JUMPI PUSH1 0x4 SLOAD TIMESTAMP LT PUSH2 0x210 JUMPI PUSH1 0x40 MLOAD PUSH32 0x8C379A000000000000000000000000000000000000000000000000000000000 DUP2 MSTORE PUSH1 0x4 ADD PUSH2 0x207 SWAP1 PUSH2 0x1A44 JUMP JUMPDEST PUSH1 0x40 MLOAD DUP1 SWAP2 SUB SWAP1 REVERT JUMPDEST PUSH1 0x64 PUSH1 0x69 PUSH1 0x8 PUSH1 0x1 ADD SLOAD PUSH2 0x224 SWAP2 SWAP1 PUSH2 0x1A8F JUMP JUMPDEST PUSH2 0x22E SWAP2 SWAP1 PUSH2 0x1AFD JUMP JUMPDEST CALLVALUE LT ISZERO PUSH2 0x270 JUMPI PUSH1 0x40 MLOAD PUSH32 0x8C379A000000000000000000000000000000000000000000000000000000000 DUP2 MSTORE PUSH1 0x4 ADD PUSH2 0x267 SWAP1 PUSH2 0x1B77 JUMP JUMPDEST PUSH1 0x40 MLOAD DUP1 SWAP2 SUB SWAP1 REVERT JUMPDEST PUSH2 0x27A CALLER CALLVALUE PUSH2 0x10A5 JUMP JUMPDEST PUSH2 0x285 CALLER CALLVALUE CALLVALUE PUSH2 0x10F5 JUMP JUMPDEST PUSH2 0x28F CALLER CALLVALUE PUSH2 0x1195 JUMP JUMPDEST PUSH2 0x297 PUSH2 0x125C JUMP JUMPDEST CALLER PUSH20 0xFFFFFFFFFFFFFFFFFFFFFFFFFFFFFFFFFFFFFFFF AND PUSH32 0x58D619527549E88853C641EBCEC23205E5DF61592E3908275721B5AD490113F CALLVALUE PUSH1 0x40 MLOAD PUSH2 0x2DD SWAP2 SWAP1 PUSH2 0x17BC JUMP JUMPDEST PUSH1 0x40 MLOAD DUP1 SWAP2 SUB SWAP1 LOG2 PUSH2 0x2EE CALLER PUSH2 0x128F JUMP JUMPDEST PUSH2 0x32E JUMP JUMPDEST PUSH1 0x40 MLOAD PUSH32 0x8C379A000000000000000000000000000000000000000000000000000000000 DUP2 MSTORE PUSH1 0x4 ADD PUSH2 0x325 SWAP1 PUSH2 0x1BDF JUMP JUMPDEST PUSH1 0x40 MLOAD DUP1 SWAP2 SUB SWAP1 REVERT JUMPDEST JUMP JUMPDEST PUSH1 0x4 SLOAD DUP2 JUMP JUMPDEST CALLER PUSH20 0xFFFFFFFFFFFFFFFFFFFFFFFFFFFFFFFFFFFFFFFF AND PUSH0 PUSH0 SWAP1 SLOAD SWAP1 PUSH2 0x100 EXP SWAP1 DIV PUSH20 0xFFFFFFFFFFFFFFFFFFFFFFFFFFFFFFFFFFFFFFFF AND PUSH20 0xFFFFFFFFFFFFFFFFFFFFFFFFFFFFFFFFFFFFFFFF AND EQ PUSH2 0x3C4 JUMPI PUSH1 0x40 MLOAD PUSH32 0x8C379A000000000000000000000000000000000000000000000000000000000 DUP2 MSTORE PUSH1 0x4 ADD PUSH2 0x3BB SWAP1 PUSH2 0x1C47 JUMP JUMPDEST PUSH1 0x40 MLOAD DUP1 SWAP2 SUB SWAP1 REVERT JUMPDEST PUSH1 0x1 DUP1 DUP2 GT ISZERO PUSH2 0x3D7 JUMPI PUSH2 0x3D6 PUSH2 0x195E JUMP JUMPDEST JUMPDEST PUSH1 0x5 PUSH0 SWAP1 SLOAD SWAP1 PUSH2 0x100 EXP SWAP1 DIV PUSH1 0xFF AND PUSH1 0x1 DUP2 GT ISZERO PUSH2 0x3F8 JUMPI PUSH2 0x3F7 PUSH2 0x195E JUMP JUMPDEST JUMPDEST EQ PUSH2 0x438 JUMPI PUSH1 0x40 MLOAD PUSH32 0x8C379A000000000000000000000000000000000000000000000000000000000 DUP2 MSTORE PUSH1 0x4 ADD PUSH2 0x42F SWAP1 PUSH2 0x1CAF JUMP JUMPDEST PUSH1 0x40 MLOAD DUP1 SWAP2 SUB SWAP1 REVERT JUMPDEST PUSH0 PUSH0 PUSH0 SWAP1 SLOAD SWAP1 PUSH2 0x100 EXP SWAP1 DIV PUSH20 0xFFFFFFFFFFFFFFFFFFFFFFFFFFFFFFFFFFFFFFFF AND PUSH20 0xFFFFFFFFFFFFFFFFFFFFFFFFFFFFFFFFFFFFFFFF AND PUSH2 0x8FC SELFBALANCE PUSH1 0x40 MLOAD PUSH2 0x480 SWAP1 PUSH2 0x1CFA JUMP JUMPDEST PUSH0 PUSH1 0x40 MLOAD DUP1 DUP4 SUB DUP2 DUP6 DUP9 DUP9 CALL SWAP4 POP POP POP POP RETURNDATASIZE DUP1 PUSH0 DUP2 EQ PUSH2 0x4BB JUMPI PUSH1 0x40 MLOAD SWAP2 POP PUSH1 0x1F NOT PUSH1 0x3F RETURNDATASIZE ADD AND DUP3 ADD PUSH1 0x40 MSTORE RETURNDATASIZE DUP3 MSTORE RETURNDATASIZE PUSH0 PUSH1 0x20 DUP5 ADD RETURNDATACOPY PUSH2 0x4C0 JUMP JUMPDEST PUSH1 0x60 SWAP2 POP JUMPDEST POP POP SWAP1 POP PUSH0 ISZERO ISZERO DUP2 ISZERO ISZERO SUB PUSH2 0x50A JUMPI PUSH1 0x40 MLOAD PUSH32 0x8C379A000000000000000000000000000000000000000000000000000000000 DUP2 MSTORE PUSH1 0x4 ADD PUSH2 0x501 SWAP1 PUSH2 0x1D58 JUMP JUMPDEST PUSH1 0x40 MLOAD DUP1 SWAP2 SUB SWAP1 REVERT JUMPDEST POP JUMP JUMPDEST PUSH0 PUSH1 0x1 DUP2 GT ISZERO PUSH2 0x520 JUMPI PUSH2 0x51F PUSH2 0x195E JUMP JUMPDEST JUMPDEST PUSH1 0x5 PUSH0 SWAP1 SLOAD SWAP1 PUSH2 0x100 EXP SWAP1 DIV PUSH1 0xFF AND PUSH1 0x1 DUP2 GT ISZERO PUSH2 0x541 JUMPI PUSH2 0x540 PUSH2 0x195E JUMP JUMPDEST JUMPDEST EQ PUSH2 0x581 JUMPI PUSH1 0x40 MLOAD PUSH32 0x8C379A000000000000000000000000000000000000000000000000000000000 DUP2 MSTORE PUSH1 0x4 ADD PUSH2 0x578 SWAP1 PUSH2 0x1DC0 JUMP JUMPDEST PUSH1 0x40 MLOAD DUP1 SWAP2 SUB SWAP1 REVERT JUMPDEST PUSH1 0x1 ISZERO ISZERO PUSH1 0xB PUSH0 CALLER PUSH20 0xFFFFFFFFFFFFFFFFFFFFFFFFFFFFFFFFFFFFFFFF AND PUSH20 0xFFFFFFFFFFFFFFFFFFFFFFFFFFFFFFFFFFFFFFFF AND DUP2 MSTORE PUSH1 0x20 ADD SWAP1 DUP2 MSTORE PUSH1 0x20 ADD PUSH0 KECCAK256 PUSH0 SWAP1 SLOAD SWAP1 PUSH2 0x100 EXP SWAP1 DIV PUSH1 0xFF AND ISZERO ISZERO EQ PUSH2 0x611 JUMPI PUSH1 0x40 MLOAD PUSH32 0x8C379A000000000000000000000000000000000000000000000000000000000 DUP2 MSTORE PUSH1 0x4 ADD PUSH2 0x608 SWAP1 PUSH2 0x1E28 JUMP JUMPDEST PUSH1 0x40 MLOAD DUP1 SWAP2 SUB SWAP1 REVERT JUMPDEST PUSH0 PUSH0 PUSH2 0x61C CALLER PUSH2 0x139C JUMP JUMPDEST DUP1 SWAP3 POP DUP2 SWAP4 POP POP POP PUSH0 ISZERO ISZERO DUP3 ISZERO ISZERO SUB PUSH2 0x66A JUMPI PUSH1 0x40 MLOAD PUSH32 0x8C379A000000000000000000000000000000000000000000000000000000000 DUP2 MSTORE PUSH1 0x4 ADD PUSH2 0x661 SWAP1 PUSH2 0x1D58 JUMP JUMPDEST PUSH1 0x40 MLOAD DUP1 SWAP2 SUB SWAP1 REVERT JUMPDEST DUP1 PUSH1 0x6 PUSH0 CALLER PUSH20 0xFFFFFFFFFFFFFFFFFFFFFFFFFFFFFFFFFFFFFFFF AND PUSH20 0xFFFFFFFFFFFFFFFFFFFFFFFFFFFFFFFFFFFFFFFF AND DUP2 MSTORE PUSH1 0x20 ADD SWAP1 DUP2 MSTORE PUSH1 0x20 ADD PUSH0 KECCAK256 PUSH1 0x2 ADD PUSH0 DUP3 DUP3 SLOAD PUSH2 0x6B9 SWAP2 SWAP1 PUSH2 0x1E46 JUMP JUMPDEST SWAP3 POP POP DUP2 SWAP1 SSTORE POP PUSH2 0x6C8 PUSH2 0x1776 JUMP JUMPDEST CALLER DUP2 PUSH0 ADD SWAP1 PUSH20 0xFFFFFFFFFFFFFFFFFFFFFFFFFFFFFFFFFFFFFFFF AND SWAP1 DUP2 PUSH20 0xFFFFFFFFFFFFFFFFFFFFFFFFFFFFFFFFFFFFFFFF AND DUP2 MSTORE POP POP PUSH0 DUP2 PUSH1 0x20 ADD DUP2 DUP2 MSTORE POP POP PUSH1 0x7 DUP2 SWAP1 DUP1 PUSH1 0x1 DUP2 SLOAD ADD DUP1 DUP3 SSTORE DUP1 SWAP2 POP POP PUSH1 0x1 SWAP1 SUB SWAP1 PUSH0 MSTORE PUSH1 0x20 PUSH0 KECCAK256 SWAP1 PUSH1 0x2 MUL ADD PUSH0 SWAP1 SWAP2 SWAP1 SWAP2 SWAP1 SWAP2 POP PUSH0 DUP3 ADD MLOAD DUP2 PUSH0 ADD PUSH0 PUSH2 0x100 EXP DUP2 SLOAD DUP2 PUSH20 0xFFFFFFFFFFFFFFFFFFFFFFFFFFFFFFFFFFFFFFFF MUL NOT AND SWAP1 DUP4 PUSH20 0xFFFFFFFFFFFFFFFFFFFFFFFFFFFFFFFFFFFFFFFF AND MUL OR SWAP1 SSTORE POP PUSH1 0x20 DUP3 ADD MLOAD DUP2 PUSH1 0x1 ADD SSTORE POP POP POP POP POP JUMP JUMPDEST PUSH1 0x60 PUSH1 0x7 DUP1 SLOAD DUP1 PUSH1 0x20 MUL PUSH1 0x20 ADD PUSH1 0x40 MLOAD SWAP1 DUP2 ADD PUSH1 0x40 MSTORE DUP1 SWAP3 SWAP2 SWAP1 DUP2 DUP2 MSTORE PUSH1 0x20 ADD PUSH0 SWAP1 JUMPDEST DUP3 DUP3 LT ISZERO PUSH2 0x838 JUMPI DUP4 DUP3 SWAP1 PUSH0 MSTORE PUSH1 0x20 PUSH0 KECCAK256 SWAP1 PUSH1 0x2 MUL ADD PUSH1 0x40 MLOAD DUP1 PUSH1 0x40 ADD PUSH1 0x40 MSTORE SWAP1 DUP2 PUSH0 DUP3 ADD PUSH0 SWAP1 SLOAD SWAP1 PUSH2 0x100 EXP SWAP1 DIV PUSH20 0xFFFFFFFFFFFFFFFFFFFFFFFFFFFFFFFFFFFFFFFF AND PUSH20 0xFFFFFFFFFFFFFFFFFFFFFFFFFFFFFFFFFFFFFFFF AND PUSH20 0xFFFFFFFFFFFFFFFFFFFFFFFFFFFFFFFFFFFFFFFF AND DUP2 MSTORE PUSH1 0x20 ADD PUSH1 0x1 DUP3 ADD SLOAD DUP2 MSTORE POP POP DUP2 MSTORE PUSH1 0x20 ADD SWAP1 PUSH1 0x1 ADD SWAP1 PUSH2 0x7AA JUMP JUMPDEST POP POP POP POP SWAP1 POP SWAP1 JUMP JUMPDEST CALLER PUSH20 0xFFFFFFFFFFFFFFFFFFFFFFFFFFFFFFFFFFFFFFFF AND PUSH0 PUSH0 SWAP1 SLOAD SWAP1 PUSH2 0x100 EXP SWAP1 DIV PUSH20 0xFFFFFFFFFFFFFFFFFFFFFFFFFFFFFFFFFFFFFFFF AND PUSH20 0xFFFFFFFFFFFFFFFFFFFFFFFFFFFFFFFFFFFFFFFF AND EQ PUSH2 0x8CF JUMPI PUSH1 0x40 MLOAD PUSH32 0x8C379A000000000000000000000000000000000000000000000000000000000 DUP2 MSTORE PUSH1 0x4 ADD PUSH2 0x8C6 SWAP1 PUSH2 0x1C47 JUMP JUMPDEST PUSH1 0x40 MLOAD DUP1 SWAP2 SUB SWAP1 REVERT JUMPDEST PUSH1 0x1 DUP1 DUP2 GT ISZERO PUSH2 0x8E2 JUMPI PUSH2 0x8E1 PUSH2 0x195E JUMP JUMPDEST JUMPDEST PUSH1 0x5 PUSH0 SWAP1 SLOAD SWAP1 PUSH2 0x100 EXP SWAP1 DIV PUSH1 0xFF AND PUSH1 0x1 DUP2 GT ISZERO PUSH2 0x903 JUMPI PUSH2 0x902 PUSH2 0x195E JUMP JUMPDEST JUMPDEST EQ PUSH2 0x943 JUMPI PUSH1 0x40 MLOAD PUSH32 0x8C379A000000000000000000000000000000000000000000000000000000000 DUP2 MSTORE PUSH1 0x4 ADD PUSH2 0x93A SWAP1 PUSH2 0x1CAF JUMP JUMPDEST PUSH1 0x40 MLOAD DUP1 SWAP2 SUB SWAP1 REVERT JUMPDEST PUSH0 PUSH0 PUSH0 PUSH0 SWAP1 POP JUMPDEST PUSH1 0xA DUP1 SLOAD SWAP1 POP DUP2 LT ISZERO PUSH2 0xE3D JUMPI PUSH1 0x8 PUSH0 ADD PUSH0 SWAP1 SLOAD SWAP1 PUSH2 0x100 EXP SWAP1 DIV PUSH20 0xFFFFFFFFFFFFFFFFFFFFFFFFFFFFFFFFFFFFFFFF AND PUSH20 0xFFFFFFFFFFFFFFFFFFFFFFFFFFFFFFFFFFFFFFFF AND PUSH1 0xA DUP3 DUP2 SLOAD DUP2 LT PUSH2 0x9A5 JUMPI PUSH2 0x9A4 PUSH2 0x1E79 JUMP JUMPDEST JUMPDEST SWAP1 PUSH0 MSTORE PUSH1 0x20 PUSH0 KECCAK256 ADD PUSH0 SWAP1 SLOAD SWAP1 PUSH2 0x100 EXP SWAP1 DIV PUSH20 0xFFFFFFFFFFFFFFFFFFFFFFFFFFFFFFFFFFFFFFFF AND PUSH20 0xFFFFFFFFFFFFFFFFFFFFFFFFFFFFFFFFFFFFFFFF AND EQ PUSH2 0xC0E JUMPI PUSH2 0xA2C PUSH1 0xA DUP3 DUP2 SLOAD DUP2 LT PUSH2 0x9FF JUMPI PUSH2 0x9FE PUSH2 0x1E79 JUMP JUMPDEST JUMPDEST SWAP1 PUSH0 MSTORE PUSH1 0x20 PUSH0 KECCAK256 ADD PUSH0 SWAP1 SLOAD SWAP1 PUSH2 0x100 EXP SWAP1 DIV PUSH20 0xFFFFFFFFFFFFFFFFFFFFFFFFFFFFFFFFFFFFFFFF AND PUSH2 0x1574 JUMP JUMPDEST DUP1 SWAP4 POP DUP2 SWAP5 POP POP POP PUSH0 ISZERO ISZERO DUP4 ISZERO ISZERO SUB PUSH2 0xA7A JUMPI PUSH1 0x40 MLOAD PUSH32 0x8C379A000000000000000000000000000000000000000000000000000000000 DUP2 MSTORE PUSH1 0x4 ADD PUSH2 0xA71 SWAP1 PUSH2 0x1D58 JUMP JUMPDEST PUSH1 0x40 MLOAD DUP1 SWAP2 SUB SWAP1 REVERT JUMPDEST DUP2 PUSH1 0x6 PUSH0 PUSH1 0xA DUP5 DUP2 SLOAD DUP2 LT PUSH2 0xA92 JUMPI PUSH2 0xA91 PUSH2 0x1E79 JUMP JUMPDEST JUMPDEST SWAP1 PUSH0 MSTORE PUSH1 0x20 PUSH0 KECCAK256 ADD PUSH0 SWAP1 SLOAD SWAP1 PUSH2 0x100 EXP SWAP1 DIV PUSH20 0xFFFFFFFFFFFFFFFFFFFFFFFFFFFFFFFFFFFFFFFF AND PUSH20 0xFFFFFFFFFFFFFFFFFFFFFFFFFFFFFFFFFFFFFFFF AND PUSH20 0xFFFFFFFFFFFFFFFFFFFFFFFFFFFFFFFFFFFFFFFF AND DUP2 MSTORE PUSH1 0x20 ADD SWAP1 DUP2 MSTORE PUSH1 0x20 ADD PUSH0 KECCAK256 PUSH1 0x2 ADD PUSH0 DUP3 DUP3 SLOAD PUSH2 0xB04 SWAP2 SWAP1 PUSH2 0x1E46 JUMP JUMPDEST SWAP3 POP POP DUP2 SWAP1 SSTORE POP PUSH2 0xB13 PUSH2 0x1776 JUMP JUMPDEST PUSH1 0xA DUP3 DUP2 SLOAD DUP2 LT PUSH2 0xB27 JUMPI PUSH2 0xB26 PUSH2 0x1E79 JUMP JUMPDEST JUMPDEST SWAP1 PUSH0 MSTORE PUSH1 0x20 PUSH0 KECCAK256 ADD PUSH0 SWAP1 SLOAD SWAP1 PUSH2 0x100 EXP SWAP1 DIV PUSH20 0xFFFFFFFFFFFFFFFFFFFFFFFFFFFFFFFFFFFFFFFF AND DUP2 PUSH0 ADD SWAP1 PUSH20 0xFFFFFFFFFFFFFFFFFFFFFFFFFFFFFFFFFFFFFFFF AND SWAP1 DUP2 PUSH20 0xFFFFFFFFFFFFFFFFFFFFFFFFFFFFFFFFFFFFFFFF AND DUP2 MSTORE POP POP PUSH0 DUP2 PUSH1 0x20 ADD DUP2 DUP2 MSTORE POP POP PUSH1 0x7 DUP2 SWAP1 DUP1 PUSH1 0x1 DUP2 SLOAD ADD DUP1 DUP3 SSTORE DUP1 SWAP2 POP POP PUSH1 0x1 SWAP1 SUB SWAP1 PUSH0 MSTORE PUSH1 0x20 PUSH0 KECCAK256 SWAP1 PUSH1 0x2 MUL ADD PUSH0 SWAP1 SWAP2 SWAP1 SWAP2 SWAP1 SWAP2 POP PUSH0 DUP3 ADD MLOAD DUP2 PUSH0 ADD PUSH0 PUSH2 0x100 EXP DUP2 SLOAD DUP2 PUSH20 0xFFFFFFFFFFFFFFFFFFFFFFFFFFFFFFFFFFFFFFFF MUL NOT AND SWAP1 DUP4 PUSH20 0xFFFFFFFFFFFFFFFFFFFFFFFFFFFFFFFFFFFFFFFF AND MUL OR SWAP1 SSTORE POP PUSH1 0x20 DUP3 ADD MLOAD DUP2 PUSH1 0x1 ADD SSTORE POP POP POP PUSH2 0xE30 JUMP JUMPDEST PUSH2 0xC52 PUSH1 0xA DUP3 DUP2 SLOAD DUP2 LT PUSH2 0xC25 JUMPI PUSH2 0xC24 PUSH2 0x1E79 JUMP JUMPDEST JUMPDEST SWAP1 PUSH0 MSTORE PUSH1 0x20 PUSH0 KECCAK256 ADD PUSH0 SWAP1 SLOAD SWAP1 PUSH2 0x100 EXP SWAP1 DIV PUSH20 0xFFFFFFFFFFFFFFFFFFFFFFFFFFFFFFFFFFFFFFFF AND PUSH2 0x166D JUMP JUMPDEST DUP1 SWAP4 POP DUP2 SWAP5 POP POP POP PUSH0 ISZERO ISZERO DUP4 ISZERO ISZERO SUB PUSH2 0xCA0 JUMPI PUSH1 0x40 MLOAD PUSH32 0x8C379A000000000000000000000000000000000000000000000000000000000 DUP2 MSTORE PUSH1 0x4 ADD PUSH2 0xC97 SWAP1 PUSH2 0x1D58 JUMP JUMPDEST PUSH1 0x40 MLOAD DUP1 SWAP2 SUB SWAP1 REVERT JUMPDEST DUP2 PUSH1 0x6 PUSH0 PUSH1 0xA DUP5 DUP2 SLOAD DUP2 LT PUSH2 0xCB8 JUMPI PUSH2 0xCB7 PUSH2 0x1E79 JUMP JUMPDEST JUMPDEST SWAP1 PUSH0 MSTORE PUSH1 0x20 PUSH0 KECCAK256 ADD PUSH0 SWAP1 SLOAD SWAP1 PUSH2 0x100 EXP SWAP1 DIV PUSH20 0xFFFFFFFFFFFFFFFFFFFFFFFFFFFFFFFFFFFFFFFF AND PUSH20 0xFFFFFFFFFFFFFFFFFFFFFFFFFFFFFFFFFFFFFFFF AND PUSH20 0xFFFFFFFFFFFFFFFFFFFFFFFFFFFFFFFFFFFFFFFF AND DUP2 MSTORE PUSH1 0x20 ADD SWAP1 DUP2 MSTORE PUSH1 0x20 ADD PUSH0 KECCAK256 PUSH1 0x2 ADD PUSH0 DUP3 DUP3 SLOAD PUSH2 0xD2A SWAP2 SWAP1 PUSH2 0x1E46 JUMP JUMPDEST SWAP3 POP POP DUP2 SWAP1 SSTORE POP PUSH2 0xD39 PUSH2 0x1776 JUMP JUMPDEST PUSH1 0xA DUP3 DUP2 SLOAD DUP2 LT PUSH2 0xD4D JUMPI PUSH2 0xD4C PUSH2 0x1E79 JUMP JUMPDEST JUMPDEST SWAP1 PUSH0 MSTORE PUSH1 0x20 PUSH0 KECCAK256 ADD PUSH0 SWAP1 SLOAD SWAP1 PUSH2 0x100 EXP SWAP1 DIV PUSH20 0xFFFFFFFFFFFFFFFFFFFFFFFFFFFFFFFFFFFFFFFF AND DUP2 PUSH0 ADD SWAP1 PUSH20 0xFFFFFFFFFFFFFFFFFFFFFFFFFFFFFFFFFFFFFFFF AND SWAP1 DUP2 PUSH20 0xFFFFFFFFFFFFFFFFFFFFFFFFFFFFFFFFFFFFFFFF AND DUP2 MSTORE POP POP PUSH0 DUP2 PUSH1 0x20 ADD DUP2 DUP2 MSTORE POP POP PUSH1 0x7 DUP2 SWAP1 DUP1 PUSH1 0x1 DUP2 SLOAD ADD DUP1 DUP3 SSTORE DUP1 SWAP2 POP POP PUSH1 0x1 SWAP1 SUB SWAP1 PUSH0 MSTORE PUSH1 0x20 PUSH0 KECCAK256 SWAP1 PUSH1 0x2 MUL ADD PUSH0 SWAP1 SWAP2 SWAP1 SWAP2 SWAP1 SWAP2 POP PUSH0 DUP3 ADD MLOAD DUP2 PUSH0 ADD PUSH0 PUSH2 0x100 EXP DUP2 SLOAD DUP2 PUSH20 0xFFFFFFFFFFFFFFFFFFFFFFFFFFFFFFFFFFFFFFFF MUL NOT AND SWAP1 DUP4 PUSH20 0xFFFFFFFFFFFFFFFFFFFFFFFFFFFFFFFFFFFFFFFF AND MUL OR SWAP1 SSTORE POP PUSH1 0x20 DUP3 ADD MLOAD DUP2 PUSH1 0x1 ADD SSTORE POP POP POP JUMPDEST DUP1 DUP1 PUSH1 0x1 ADD SWAP2 POP POP PUSH2 0x94A JUMP JUMPDEST POP POP POP JUMP JUMPDEST PUSH2 0xE4A PUSH2 0x1776 JUMP JUMPDEST PUSH1 0x8 PUSH1 0x40 MLOAD DUP1 PUSH1 0x40 ADD PUSH1 0x40 MSTORE SWAP1 DUP2 PUSH0 DUP3 ADD PUSH0 SWAP1 SLOAD SWAP1 PUSH2 0x100 EXP SWAP1 DIV PUSH20 0xFFFFFFFFFFFFFFFFFFFFFFFFFFFFFFFFFFFFFFFF AND PUSH20 0xFFFFFFFFFFFFFFFFFFFFFFFFFFFFFFFFFFFFFFFF AND PUSH20 0xFFFFFFFFFFFFFFFFFFFFFFFFFFFFFFFFFFFFFFFF AND DUP2 MSTORE PUSH1 0x20 ADD PUSH1 0x1 DUP3 ADD SLOAD DUP2 MSTORE POP POP SWAP1 POP SWAP1 JUMP JUMPDEST PUSH1 0x5 PUSH0 SWAP1 SLOAD SWAP1 PUSH2 0x100 EXP SWAP1 DIV PUSH1 0xFF AND DUP2 JUMP JUMPDEST CALLER PUSH20 0xFFFFFFFFFFFFFFFFFFFFFFFFFFFFFFFFFFFFFFFF AND PUSH0 PUSH0 SWAP1 SLOAD SWAP1 PUSH2 0x100 EXP SWAP1 DIV PUSH20 0xFFFFFFFFFFFFFFFFFFFFFFFFFFFFFFFFFFFFFFFF AND PUSH20 0xFFFFFFFFFFFFFFFFFFFFFFFFFFFFFFFFFFFFFFFF AND EQ PUSH2 0xF5A JUMPI PUSH1 0x40 MLOAD PUSH32 0x8C379A000000000000000000000000000000000000000000000000000000000 DUP2 MSTORE PUSH1 0x4 ADD PUSH2 0xF51 SWAP1 PUSH2 0x1C47 JUMP JUMPDEST PUSH1 0x40 MLOAD DUP1 SWAP2 SUB SWAP1 REVERT JUMPDEST PUSH0 PUSH1 0x1 DUP2 GT ISZERO PUSH2 0xF6D JUMPI PUSH2 0xF6C PUSH2 0x195E JUMP JUMPDEST JUMPDEST PUSH1 0x5 PUSH0 SWAP1 SLOAD SWAP1 PUSH2 0x100 EXP SWAP1 DIV PUSH1 0xFF AND PUSH1 0x1 DUP2 GT ISZERO PUSH2 0xF8E JUMPI PUSH2 0xF8D PUSH2 0x195E JUMP JUMPDEST JUMPDEST EQ PUSH2 0xFCE JUMPI PUSH1 0x40 MLOAD PUSH32 0x8C379A000000000000000000000000000000000000000000000000000000000 DUP2 MSTORE PUSH1 0x4 ADD PUSH2 0xFC5 SWAP1 PUSH2 0x1DC0 JUMP JUMPDEST PUSH1 0x40 MLOAD DUP1 SWAP2 SUB SWAP1 REVERT JUMPDEST PUSH1 0x4 SLOAD TIMESTAMP GT ISZERO PUSH2 0x1068 JUMPI PUSH1 0x1 PUSH1 0x5 PUSH0 PUSH2 0x100 EXP DUP2 SLOAD DUP2 PUSH1 0xFF MUL NOT AND SWAP1 DUP4 PUSH1 0x1 DUP2 GT ISZERO PUSH2 0xFFD JUMPI PUSH2 0xFFC PUSH2 0x195E JUMP JUMPDEST JUMPDEST MUL OR SWAP1 SSTORE POP PUSH32 0xDAEC4582D5D9595688C8C98545FDD1C696D41C6AEAEB636737E84ED2F5C00EDA PUSH1 0x8 PUSH0 ADD PUSH0 SWAP1 SLOAD SWAP1 PUSH2 0x100 EXP SWAP1 DIV PUSH20 0xFFFFFFFFFFFFFFFFFFFFFFFFFFFFFFFFFFFFFFFF AND PUSH1 0x8 PUSH1 0x1 ADD SLOAD PUSH1 0x40 MLOAD PUSH2 0x105B SWAP3 SWAP2 SWAP1 PUSH2 0x1EB5 JUMP JUMPDEST PUSH1 0x40 MLOAD DUP1 SWAP2 SUB SWAP1 LOG1 PUSH2 0x10A3 JUMP JUMPDEST PUSH1 0x40 MLOAD PUSH32 0x8C379A000000000000000000000000000000000000000000000000000000000 DUP2 MSTORE PUSH1 0x4 ADD PUSH2 0x109A SWAP1 PUSH2 0x1F26 JUMP JUMPDEST PUSH1 0x40 MLOAD DUP1 SWAP2 SUB SWAP1 REVERT JUMPDEST JUMP JUMPDEST DUP2 PUSH1 0x8 PUSH0 ADD PUSH0 PUSH2 0x100 EXP DUP2 SLOAD DUP2 PUSH20 0xFFFFFFFFFFFFFFFFFFFFFFFFFFFFFFFFFFFFFFFF MUL NOT AND SWAP1 DUP4 PUSH20 0xFFFFFFFFFFFFFFFFFFFFFFFFFFFFFFFFFFFFFFFF AND MUL OR SWAP1 SSTORE POP DUP1 PUSH1 0x8 PUSH1 0x1 ADD DUP2 SWAP1 SSTORE POP POP POP JUMP JUMPDEST DUP2 PUSH1 0x6 PUSH0 DUP6 PUSH20 0xFFFFFFFFFFFFFFFFFFFFFFFFFFFFFFFFFFFFFFFF AND PUSH20 0xFFFFFFFFFFFFFFFFFFFFFFFFFFFFFFFFFFFFFFFF AND DUP2 MSTORE PUSH1 0x20 ADD SWAP1 DUP2 MSTORE PUSH1 0x20 ADD PUSH0 KECCAK256 PUSH1 0x1 ADD DUP2 SWAP1 SSTORE POP DUP1 PUSH1 0x6 PUSH0 DUP6 PUSH20 0xFFFFFFFFFFFFFFFFFFFFFFFFFFFFFFFFFFFFFFFF AND PUSH20 0xFFFFFFFFFFFFFFFFFFFFFFFFFFFFFFFFFFFFFFFF AND DUP2 MSTORE PUSH1 0x20 ADD SWAP1 DUP2 MSTORE PUSH1 0x20 ADD PUSH0 KECCAK256 PUSH1 0x2 ADD PUSH0 DUP3 DUP3 SLOAD PUSH2 0x1189 SWAP2 SWAP1 PUSH2 0x1F44 JUMP JUMPDEST SWAP3 POP POP DUP2 SWAP1 SSTORE POP POP POP POP JUMP JUMPDEST PUSH2 0x119D PUSH2 0x1776 JUMP JUMPDEST DUP3 DUP2 PUSH0 ADD SWAP1 PUSH20 0xFFFFFFFFFFFFFFFFFFFFFFFFFFFFFFFFFFFFFFFF AND SWAP1 DUP2 PUSH20 0xFFFFFFFFFFFFFFFFFFFFFFFFFFFFFFFFFFFFFFFF AND DUP2 MSTORE POP POP DUP2 DUP2 PUSH1 0x20 ADD DUP2 DUP2 MSTORE POP POP PUSH1 0x7 DUP2 SWAP1 DUP1 PUSH1 0x1 DUP2 SLOAD ADD DUP1 DUP3 SSTORE DUP1 SWAP2 POP POP PUSH1 0x1 SWAP1 SUB SWAP1 PUSH0 MSTORE PUSH1 0x20 PUSH0 KECCAK256 SWAP1 PUSH1 0x2 MUL ADD PUSH0 SWAP1 SWAP2 SWAP1 SWAP2 SWAP1 SWAP2 POP PUSH0 DUP3 ADD MLOAD DUP2 PUSH0 ADD PUSH0 PUSH2 0x100 EXP DUP2 SLOAD DUP2 PUSH20 0xFFFFFFFFFFFFFFFFFFFFFFFFFFFFFFFFFFFFFFFF MUL NOT AND SWAP1 DUP4 PUSH20 0xFFFFFFFFFFFFFFFFFFFFFFFFFFFFFFFFFFFFFFFF AND MUL OR SWAP1 SSTORE POP PUSH1 0x20 DUP3 ADD MLOAD DUP2 PUSH1 0x1 ADD SSTORE POP POP POP POP POP JUMP JUMPDEST PUSH1 0x3 SLOAD PUSH1 0x4 SLOAD PUSH2 0x126C SWAP2 SWAP1 PUSH2 0x1E46 JUMP JUMPDEST TIMESTAMP LT PUSH2 0x128D JUMPI PUSH1 0x3 SLOAD PUSH1 0x4 PUSH0 DUP3 DUP3 SLOAD PUSH2 0x1285 SWAP2 SWAP1 PUSH2 0x1F44 JUMP JUMPDEST SWAP3 POP POP DUP2 SWAP1 SSTORE POP JUMPDEST JUMP JUMPDEST PUSH0 ISZERO ISZERO PUSH1 0xB PUSH0 DUP4 PUSH20 0xFFFFFFFFFFFFFFFFFFFFFFFFFFFFFFFFFFFFFFFF AND PUSH20 0xFFFFFFFFFFFFFFFFFFFFFFFFFFFFFFFFFFFFFFFF AND DUP2 MSTORE PUSH1 0x20 ADD SWAP1 DUP2 MSTORE PUSH1 0x20 ADD PUSH0 KECCAK256 PUSH0 SWAP1 SLOAD SWAP1 PUSH2 0x100 EXP SWAP1 DIV PUSH1 0xFF AND ISZERO ISZERO SUB PUSH2 0x1399 JUMPI PUSH1 0xA DUP2 SWAP1 DUP1 PUSH1 0x1 DUP2 SLOAD ADD DUP1 DUP3 SSTORE DUP1 SWAP2 POP POP PUSH1 0x1 SWAP1 SUB SWAP1 PUSH0 MSTORE PUSH1 0x20 PUSH0 KECCAK256 ADD PUSH0 SWAP1 SWAP2 SWAP1 SWAP2 SWAP1 SWAP2 PUSH2 0x100 EXP DUP2 SLOAD DUP2 PUSH20 0xFFFFFFFFFFFFFFFFFFFFFFFFFFFFFFFFFFFFFFFF MUL NOT AND SWAP1 DUP4 PUSH20 0xFFFFFFFFFFFFFFFFFFFFFFFFFFFFFFFFFFFFFFFF AND MUL OR SWAP1 SSTORE POP PUSH1 0x1 PUSH1 0xB PUSH0 DUP4 PUSH20 0xFFFFFFFFFFFFFFFFFFFFFFFFFFFFFFFFFFFFFFFF AND PUSH20 0xFFFFFFFFFFFFFFFFFFFFFFFFFFFFFFFFFFFFFFFF AND DUP2 MSTORE PUSH1 0x20 ADD SWAP1 DUP2 MSTORE PUSH1 0x20 ADD PUSH0 KECCAK256 PUSH0 PUSH2 0x100 EXP DUP2 SLOAD DUP2 PUSH1 0xFF MUL NOT AND SWAP1 DUP4 ISZERO ISZERO MUL OR SWAP1 SSTORE POP JUMPDEST POP JUMP JUMPDEST PUSH0 PUSH0 PUSH1 0x6 PUSH0 DUP5 PUSH20 0xFFFFFFFFFFFFFFFFFFFFFFFFFFFFFFFFFFFFFFFF AND PUSH20 0xFFFFFFFFFFFFFFFFFFFFFFFFFFFFFFFFFFFFFFFF AND DUP2 MSTORE PUSH1 0x20 ADD SWAP1 DUP2 MSTORE PUSH1 0x20 ADD PUSH0 KECCAK256 PUSH1 0x1 ADD SLOAD PUSH1 0x6 PUSH0 DUP6 PUSH20 0xFFFFFFFFFFFFFFFFFFFFFFFFFFFFFFFFFFFFFFFF AND PUSH20 0xFFFFFFFFFFFFFFFFFFFFFFFFFFFFFFFFFFFFFFFF AND DUP2 MSTORE PUSH1 0x20 ADD SWAP1 DUP2 MSTORE PUSH1 0x20 ADD PUSH0 KECCAK256 PUSH1 0x2 ADD SLOAD GT ISZERO PUSH2 0x1567 JUMPI PUSH0 PUSH1 0x6 PUSH0 DUP6 PUSH20 0xFFFFFFFFFFFFFFFFFFFFFFFFFFFFFFFFFFFFFFFF AND PUSH20 0xFFFFFFFFFFFFFFFFFFFFFFFFFFFFFFFFFFFFFFFF AND DUP2 MSTORE PUSH1 0x20 ADD SWAP1 DUP2 MSTORE PUSH1 0x20 ADD PUSH0 KECCAK256 PUSH1 0x1 ADD SLOAD PUSH1 0x6 PUSH0 DUP7 PUSH20 0xFFFFFFFFFFFFFFFFFFFFFFFFFFFFFFFFFFFFFFFF AND PUSH20 0xFFFFFFFFFFFFFFFFFFFFFFFFFFFFFFFFFFFFFFFF AND DUP2 MSTORE PUSH1 0x20 ADD SWAP1 DUP2 MSTORE PUSH1 0x20 ADD PUSH0 KECCAK256 PUSH1 0x2 ADD SLOAD PUSH2 0x14B3 SWAP2 SWAP1 PUSH2 0x1E46 JUMP JUMPDEST SWAP1 POP PUSH0 PUSH1 0x64 PUSH1 0x62 DUP4 PUSH2 0x14C5 SWAP2 SWAP1 PUSH2 0x1A8F JUMP JUMPDEST PUSH2 0x14CF SWAP2 SWAP1 PUSH2 0x1AFD JUMP JUMPDEST SWAP1 POP PUSH0 DUP6 PUSH20 0xFFFFFFFFFFFFFFFFFFFFFFFFFFFFFFFFFFFFFFFF AND PUSH2 0x8FC DUP4 PUSH1 0x40 MLOAD PUSH2 0x14F9 SWAP1 PUSH2 0x1CFA JUMP JUMPDEST PUSH0 PUSH1 0x40 MLOAD DUP1 DUP4 SUB DUP2 DUP6 DUP9 DUP9 CALL SWAP4 POP POP POP POP RETURNDATASIZE DUP1 PUSH0 DUP2 EQ PUSH2 0x1534 JUMPI PUSH1 0x40 MLOAD SWAP2 POP PUSH1 0x1F NOT PUSH1 0x3F RETURNDATASIZE ADD AND DUP3 ADD PUSH1 0x40 MSTORE RETURNDATASIZE DUP3 MSTORE RETURNDATASIZE PUSH0 PUSH1 0x20 DUP5 ADD RETURNDATACOPY PUSH2 0x1539 JUMP JUMPDEST PUSH1 0x60 SWAP2 POP JUMPDEST POP POP SWAP1 POP PUSH0 ISZERO ISZERO DUP2 ISZERO ISZERO SUB PUSH2 0x1559 JUMPI PUSH0 SWAP3 POP DUP1 DUP4 SWAP5 POP SWAP5 POP POP POP POP PUSH2 0x156F JUMP JUMPDEST DUP1 DUP4 SWAP5 POP SWAP5 POP POP POP POP PUSH2 0x156F JUMP JUMPDEST PUSH1 0x1 PUSH0 SWAP2 POP SWAP2 POP JUMPDEST SWAP2 POP SWAP2 JUMP JUMPDEST PUSH0 PUSH0 PUSH0 PUSH1 0x6 PUSH0 DUP6 PUSH20 0xFFFFFFFFFFFFFFFFFFFFFFFFFFFFFFFFFFFFFFFF AND PUSH20 0xFFFFFFFFFFFFFFFFFFFFFFFFFFFFFFFFFFFFFFFF AND DUP2 MSTORE PUSH1 0x20 ADD SWAP1 DUP2 MSTORE PUSH1 0x20 ADD PUSH0 KECCAK256 PUSH1 0x2 ADD SLOAD SWAP1 POP PUSH0 PUSH1 0x64 PUSH1 0x62 DUP4 PUSH2 0x15CA SWAP2 SWAP1 PUSH2 0x1A8F JUMP JUMPDEST PUSH2 0x15D4 SWAP2 SWAP1 PUSH2 0x1AFD JUMP JUMPDEST SWAP1 POP PUSH0 DUP6 PUSH20 0xFFFFFFFFFFFFFFFFFFFFFFFFFFFFFFFFFFFFFFFF AND PUSH2 0x8FC DUP4 PUSH1 0x40 MLOAD PUSH2 0x15FE SWAP1 PUSH2 0x1CFA JUMP JUMPDEST PUSH0 PUSH1 0x40 MLOAD DUP1 DUP4 SUB DUP2 DUP6 DUP9 DUP9 CALL SWAP4 POP POP POP POP RETURNDATASIZE DUP1 PUSH0 DUP2 EQ PUSH2 0x1639 JUMPI PUSH1 0x40 MLOAD SWAP2 POP PUSH1 0x1F NOT PUSH1 0x3F RETURNDATASIZE ADD AND DUP3 ADD PUSH1 0x40 MSTORE RETURNDATASIZE DUP3 MSTORE RETURNDATASIZE PUSH0 PUSH1 0x20 DUP5 ADD RETURNDATACOPY PUSH2 0x163E JUMP JUMPDEST PUSH1 0x60 SWAP2 POP JUMPDEST POP POP SWAP1 POP PUSH0 ISZERO ISZERO DUP2 ISZERO ISZERO SUB PUSH2 0x165E JUMPI PUSH0 SWAP3 POP DUP1 DUP4 SWAP5 POP SWAP5 POP POP POP POP PUSH2 0x1668 JUMP JUMPDEST DUP1 DUP4 SWAP5 POP SWAP5 POP POP POP POP JUMPDEST SWAP2 POP SWAP2 JUMP JUMPDEST PUSH0 PUSH0 PUSH0 PUSH1 0x8 PUSH1 0x1 ADD SLOAD PUSH1 0x6 PUSH0 DUP7 PUSH20 0xFFFFFFFFFFFFFFFFFFFFFFFFFFFFFFFFFFFFFFFF AND PUSH20 0xFFFFFFFFFFFFFFFFFFFFFFFFFFFFFFFFFFFFFFFF AND DUP2 MSTORE PUSH1 0x20 ADD SWAP1 DUP2 MSTORE PUSH1 0x20 ADD PUSH0 KECCAK256 PUSH1 0x2 ADD SLOAD PUSH2 0x16C1 SWAP2 SWAP1 PUSH2 0x1E46 JUMP JUMPDEST SWAP1 POP PUSH0 PUSH1 0x64 PUSH1 0x62 DUP4 PUSH2 0x16D3 SWAP2 SWAP1 PUSH2 0x1A8F JUMP JUMPDEST PUSH2 0x16DD SWAP2 SWAP1 PUSH2 0x1AFD JUMP JUMPDEST SWAP1 POP PUSH0 DUP6 PUSH20 0xFFFFFFFFFFFFFFFFFFFFFFFFFFFFFFFFFFFFFFFF AND PUSH2 0x8FC DUP4 PUSH1 0x40 MLOAD PUSH2 0x1707 SWAP1 PUSH2 0x1CFA JUMP JUMPDEST PUSH0 PUSH1 0x40 MLOAD DUP1 DUP4 SUB DUP2 DUP6 DUP9 DUP9 CALL SWAP4 POP POP POP POP RETURNDATASIZE DUP1 PUSH0 DUP2 EQ PUSH2 0x1742 JUMPI PUSH1 0x40 MLOAD SWAP2 POP PUSH1 0x1F NOT PUSH1 0x3F RETURNDATASIZE ADD AND DUP3 ADD PUSH1 0x40 MSTORE RETURNDATASIZE DUP3 MSTORE RETURNDATASIZE PUSH0 PUSH1 0x20 DUP5 ADD RETURNDATACOPY PUSH2 0x1747 JUMP JUMPDEST PUSH1 0x60 SWAP2 POP JUMPDEST POP POP SWAP1 POP PUSH0 ISZERO ISZERO DUP2 ISZERO ISZERO SUB PUSH2 0x1767 JUMPI PUSH0 SWAP3 POP DUP1 DUP4 SWAP5 POP SWAP5 POP POP POP POP PUSH2 0x1771 JUMP JUMPDEST DUP1 DUP4 SWAP5 POP SWAP5 POP POP POP POP JUMPDEST SWAP2 POP SWAP2 JUMP JUMPDEST PUSH1 0x40 MLOAD DUP1 PUSH1 0x40 ADD PUSH1 0x40 MSTORE DUP1 PUSH0 PUSH20 0xFFFFFFFFFFFFFFFFFFFFFFFFFFFFFFFFFFFFFFFF AND DUP2 MSTORE PUSH1 0x20 ADD PUSH0 DUP2 MSTORE POP SWAP1 JUMP JUMPDEST PUSH0 DUP2 SWAP1 POP SWAP2 SWAP1 POP JUMP JUMPDEST PUSH2 0x17B6 DUP2 PUSH2 0x17A4 JUMP JUMPDEST DUP3 MSTORE POP POP JUMP JUMPDEST PUSH0 PUSH1 0x20 DUP3 ADD SWAP1 POP PUSH2 0x17CF PUSH0 DUP4 ADD DUP5 PUSH2 0x17AD JUMP JUMPDEST SWAP3 SWAP2 POP POP JUMP JUMPDEST PUSH0 DUP2 MLOAD SWAP1 POP SWAP2 SWAP1 POP JUMP JUMPDEST PUSH0 DUP3 DUP3 MSTORE PUSH1 0x20 DUP3 ADD SWAP1 POP SWAP3 SWAP2 POP POP JUMP JUMPDEST PUSH0 DUP2 SWAP1 POP PUSH1 0x20 DUP3 ADD SWAP1 POP SWAP2 SWAP1 POP JUMP JUMPDEST PUSH0 PUSH20 0xFFFFFFFFFFFFFFFFFFFFFFFFFFFFFFFFFFFFFFFF DUP3 AND SWAP1 POP SWAP2 SWAP1 POP JUMP JUMPDEST PUSH0 PUSH2 0x1827 DUP3 PUSH2 0x17FE JUMP JUMPDEST SWAP1 POP SWAP2 SWAP1 POP JUMP JUMPDEST PUSH2 0x1837 DUP2 PUSH2 0x181D JUMP JUMPDEST DUP3 MSTORE POP POP JUMP JUMPDEST PUSH2 0x1846 DUP2 PUSH2 0x17A4 JUMP JUMPDEST DUP3 MSTORE POP POP JUMP JUMPDEST PUSH1 0x40 DUP3 ADD PUSH0 DUP3 ADD MLOAD PUSH2 0x1860 PUSH0 DUP6 ADD DUP3 PUSH2 0x182E JUMP JUMPDEST POP PUSH1 0x20 DUP3 ADD MLOAD PUSH2 0x1873 PUSH1 0x20 DUP6 ADD DUP3 PUSH2 0x183D JUMP JUMPDEST POP POP POP POP JUMP JUMPDEST PUSH0 PUSH2 0x1884 DUP4 DUP4 PUSH2 0x184C JUMP JUMPDEST PUSH1 0x40 DUP4 ADD SWAP1 POP SWAP3 SWAP2 POP POP JUMP JUMPDEST PUSH0 PUSH1 0x20 DUP3 ADD SWAP1 POP SWAP2 SWAP1 POP JUMP JUMPDEST PUSH0 PUSH2 0x18A6 DUP3 PUSH2 0x17D5 JUMP JUMPDEST PUSH2 0x18B0 DUP2 DUP6 PUSH2 0x17DF JUMP JUMPDEST SWAP4 POP PUSH2 0x18BB DUP4 PUSH2 0x17EF JUMP JUMPDEST DUP1 PUSH0 JUMPDEST DUP4 DUP2 LT ISZERO PUSH2 0x18EB JUMPI DUP2 MLOAD PUSH2 0x18D2 DUP9 DUP3 PUSH2 0x1879 JUMP JUMPDEST SWAP8 POP PUSH2 0x18DD DUP4 PUSH2 0x1890 JUMP JUMPDEST SWAP3 POP POP PUSH1 0x1 DUP2 ADD SWAP1 POP PUSH2 0x18BE JUMP JUMPDEST POP DUP6 SWAP4 POP POP POP POP SWAP3 SWAP2 POP POP JUMP JUMPDEST PUSH0 PUSH1 0x20 DUP3 ADD SWAP1 POP DUP2 DUP2 SUB PUSH0 DUP4 ADD MSTORE PUSH2 0x1910 DUP2 DUP5 PUSH2 0x189C JUMP JUMPDEST SWAP1 POP SWAP3 SWAP2 POP POP JUMP JUMPDEST PUSH1 0x40 DUP3 ADD PUSH0 DUP3 ADD MLOAD PUSH2 0x192C PUSH0 DUP6 ADD DUP3 PUSH2 0x182E JUMP JUMPDEST POP PUSH1 0x20 DUP3 ADD MLOAD PUSH2 0x193F PUSH1 0x20 DUP6 ADD DUP3 PUSH2 0x183D JUMP JUMPDEST POP POP POP POP JUMP JUMPDEST PUSH0 PUSH1 0x40 DUP3 ADD SWAP1 POP PUSH2 0x1958 PUSH0 DUP4 ADD DUP5 PUSH2 0x1918 JUMP JUMPDEST SWAP3 SWAP2 POP POP JUMP JUMPDEST PUSH32 0x4E487B7100000000000000000000000000000000000000000000000000000000 PUSH0 MSTORE PUSH1 0x21 PUSH1 0x4 MSTORE PUSH1 0x24 PUSH0 REVERT JUMPDEST PUSH1 0x2 DUP2 LT PUSH2 0x199C JUMPI PUSH2 0x199B PUSH2 0x195E JUMP JUMPDEST JUMPDEST POP JUMP JUMPDEST PUSH0 DUP2 SWAP1 POP PUSH2 0x19AC DUP3 PUSH2 0x198B JUMP JUMPDEST SWAP2 SWAP1 POP JUMP JUMPDEST PUSH0 PUSH2 0x19BB DUP3 PUSH2 0x199F JUMP JUMPDEST SWAP1 POP SWAP2 SWAP1 POP JUMP JUMPDEST PUSH2 0x19CB DUP2 PUSH2 0x19B1 JUMP JUMPDEST DUP3 MSTORE POP POP JUMP JUMPDEST PUSH0 PUSH1 0x20 DUP3 ADD SWAP1 POP PUSH2 0x19E4 PUSH0 DUP4 ADD DUP5 PUSH2 0x19C2 JUMP JUMPDEST SWAP3 SWAP2 POP POP JUMP JUMPDEST PUSH0 DUP3 DUP3 MSTORE PUSH1 0x20 DUP3 ADD SWAP1 POP SWAP3 SWAP2 POP POP JUMP JUMPDEST PUSH32 0x696E76616C6964206F666665722074696D650000000000000000000000000000 PUSH0 DUP3 ADD MSTORE POP JUMP JUMPDEST PUSH0 PUSH2 0x1A2E PUSH1 0x12 DUP4 PUSH2 0x19EA JUMP JUMPDEST SWAP2 POP PUSH2 0x1A39 DUP3 PUSH2 0x19FA JUMP JUMPDEST PUSH1 0x20 DUP3 ADD SWAP1 POP SWAP2 SWAP1 POP JUMP JUMPDEST PUSH0 PUSH1 0x20 DUP3 ADD SWAP1 POP DUP2 DUP2 SUB PUSH0 DUP4 ADD MSTORE PUSH2 0x1A5B DUP2 PUSH2 0x1A22 JUMP JUMPDEST SWAP1 POP SWAP2 SWAP1 POP JUMP JUMPDEST PUSH32 0x4E487B7100000000000000000000000000000000000000000000000000000000 PUSH0 MSTORE PUSH1 0x11 PUSH1 0x4 MSTORE PUSH1 0x24 PUSH0 REVERT JUMPDEST PUSH0 PUSH2 0x1A99 DUP3 PUSH2 0x17A4 JUMP JUMPDEST SWAP2 POP PUSH2 0x1AA4 DUP4 PUSH2 0x17A4 JUMP JUMPDEST SWAP3 POP DUP3 DUP3 MUL PUSH2 0x1AB2 DUP2 PUSH2 0x17A4 JUMP JUMPDEST SWAP2 POP DUP3 DUP3 DIV DUP5 EQ DUP4 ISZERO OR PUSH2 0x1AC9 JUMPI PUSH2 0x1AC8 PUSH2 0x1A62 JUMP JUMPDEST JUMPDEST POP SWAP3 SWAP2 POP POP JUMP JUMPDEST PUSH32 0x4E487B7100000000000000000000000000000000000000000000000000000000 PUSH0 MSTORE PUSH1 0x12 PUSH1 0x4 MSTORE PUSH1 0x24 PUSH0 REVERT JUMPDEST PUSH0 PUSH2 0x1B07 DUP3 PUSH2 0x17A4 JUMP JUMPDEST SWAP2 POP PUSH2 0x1B12 DUP4 PUSH2 0x17A4 JUMP JUMPDEST SWAP3 POP DUP3 PUSH2 0x1B22 JUMPI PUSH2 0x1B21 PUSH2 0x1AD0 JUMP JUMPDEST JUMPDEST DUP3 DUP3 DIV SWAP1 POP SWAP3 SWAP2 POP POP JUMP JUMPDEST PUSH32 0x696E76616C6964206F666665722076616C756500000000000000000000000000 PUSH0 DUP3 ADD MSTORE POP JUMP JUMPDEST PUSH0 PUSH2 0x1B61 PUSH1 0x13 DUP4 PUSH2 0x19EA JUMP JUMPDEST SWAP2 POP PUSH2 0x1B6C DUP3 PUSH2 0x1B2D JUMP JUMPDEST PUSH1 0x20 DUP3 ADD SWAP1 POP SWAP2 SWAP1 POP JUMP JUMPDEST PUSH0 PUSH1 0x20 DUP3 ADD SWAP1 POP DUP2 DUP2 SUB PUSH0 DUP4 ADD MSTORE PUSH2 0x1B8E DUP2 PUSH2 0x1B55 JUMP JUMPDEST SWAP1 POP SWAP2 SWAP1 POP JUMP JUMPDEST PUSH32 0x41756374696F6E20456E64656400000000000000000000000000000000000000 PUSH0 DUP3 ADD MSTORE POP JUMP JUMPDEST PUSH0 PUSH2 0x1BC9 PUSH1 0xD DUP4 PUSH2 0x19EA JUMP JUMPDEST SWAP2 POP PUSH2 0x1BD4 DUP3 PUSH2 0x1B95 JUMP JUMPDEST PUSH1 0x20 DUP3 ADD SWAP1 POP SWAP2 SWAP1 POP JUMP JUMPDEST PUSH0 PUSH1 0x20 DUP3 ADD SWAP1 POP DUP2 DUP2 SUB PUSH0 DUP4 ADD MSTORE PUSH2 0x1BF6 DUP2 PUSH2 0x1BBD JUMP JUMPDEST SWAP1 POP SWAP2 SWAP1 POP JUMP JUMPDEST PUSH32 0x6E6F7420746865206F776E657200000000000000000000000000000000000000 PUSH0 DUP3 ADD MSTORE POP JUMP JUMPDEST PUSH0 PUSH2 0x1C31 PUSH1 0xD DUP4 PUSH2 0x19EA JUMP JUMPDEST SWAP2 POP PUSH2 0x1C3C DUP3 PUSH2 0x1BFD JUMP JUMPDEST PUSH1 0x20 DUP3 ADD SWAP1 POP SWAP2 SWAP1 POP JUMP JUMPDEST PUSH0 PUSH1 0x20 DUP3 ADD SWAP1 POP DUP2 DUP2 SUB PUSH0 DUP4 ADD MSTORE PUSH2 0x1C5E DUP2 PUSH2 0x1C25 JUMP JUMPDEST SWAP1 POP SWAP2 SWAP1 POP JUMP JUMPDEST PUSH32 0x61756374696F6E207374696C6C20616C69766500000000000000000000000000 PUSH0 DUP3 ADD MSTORE POP JUMP JUMPDEST PUSH0 PUSH2 0x1C99 PUSH1 0x13 DUP4 PUSH2 0x19EA JUMP JUMPDEST SWAP2 POP PUSH2 0x1CA4 DUP3 PUSH2 0x1C65 JUMP JUMPDEST PUSH1 0x20 DUP3 ADD SWAP1 POP SWAP2 SWAP1 POP JUMP JUMPDEST PUSH0 PUSH1 0x20 DUP3 ADD SWAP1 POP DUP2 DUP2 SUB PUSH0 DUP4 ADD MSTORE PUSH2 0x1CC6 DUP2 PUSH2 0x1C8D JUMP JUMPDEST SWAP1 POP SWAP2 SWAP1 POP JUMP JUMPDEST PUSH0 DUP2 SWAP1 POP SWAP3 SWAP2 POP POP JUMP JUMPDEST POP JUMP JUMPDEST PUSH0 PUSH2 0x1CE5 PUSH0 DUP4 PUSH2 0x1CCD JUMP JUMPDEST SWAP2 POP PUSH2 0x1CF0 DUP3 PUSH2 0x1CD7 JUMP JUMPDEST PUSH0 DUP3 ADD SWAP1 POP SWAP2 SWAP1 POP JUMP JUMPDEST PUSH0 PUSH2 0x1D04 DUP3 PUSH2 0x1CDA JUMP JUMPDEST SWAP2 POP DUP2 SWAP1 POP SWAP2 SWAP1 POP JUMP JUMPDEST PUSH32 0x66616C6C6F20656C20656E76696F000000000000000000000000000000000000 PUSH0 DUP3 ADD MSTORE POP JUMP JUMPDEST PUSH0 PUSH2 0x1D42 PUSH1 0xE DUP4 PUSH2 0x19EA JUMP JUMPDEST SWAP2 POP PUSH2 0x1D4D DUP3 PUSH2 0x1D0E JUMP JUMPDEST PUSH1 0x20 DUP3 ADD SWAP1 POP SWAP2 SWAP1 POP JUMP JUMPDEST PUSH0 PUSH1 0x20 DUP3 ADD SWAP1 POP DUP2 DUP2 SUB PUSH0 DUP4 ADD MSTORE PUSH2 0x1D6F DUP2 PUSH2 0x1D36 JUMP JUMPDEST SWAP1 POP SWAP2 SWAP1 POP JUMP JUMPDEST PUSH32 0x61756374696F6E20616C726561647920656E6465640000000000000000000000 PUSH0 DUP3 ADD MSTORE POP JUMP JUMPDEST PUSH0 PUSH2 0x1DAA PUSH1 0x15 DUP4 PUSH2 0x19EA JUMP JUMPDEST SWAP2 POP PUSH2 0x1DB5 DUP3 PUSH2 0x1D76 JUMP JUMPDEST PUSH1 0x20 DUP3 ADD SWAP1 POP SWAP2 SWAP1 POP JUMP JUMPDEST PUSH0 PUSH1 0x20 DUP3 ADD SWAP1 POP DUP2 DUP2 SUB PUSH0 DUP4 ADD MSTORE PUSH2 0x1DD7 DUP2 PUSH2 0x1D9E JUMP JUMPDEST SWAP1 POP SWAP2 SWAP1 POP JUMP JUMPDEST PUSH32 0x6E6F742061206269646465720000000000000000000000000000000000000000 PUSH0 DUP3 ADD MSTORE POP JUMP JUMPDEST PUSH0 PUSH2 0x1E12 PUSH1 0xC DUP4 PUSH2 0x19EA JUMP JUMPDEST SWAP2 POP PUSH2 0x1E1D DUP3 PUSH2 0x1DDE JUMP JUMPDEST PUSH1 0x20 DUP3 ADD SWAP1 POP SWAP2 SWAP1 POP JUMP JUMPDEST PUSH0 PUSH1 0x20 DUP3 ADD SWAP1 POP DUP2 DUP2 SUB PUSH0 DUP4 ADD MSTORE PUSH2 0x1E3F DUP2 PUSH2 0x1E06 JUMP JUMPDEST SWAP1 POP SWAP2 SWAP1 POP JUMP JUMPDEST PUSH0 PUSH2 0x1E50 DUP3 PUSH2 0x17A4 JUMP JUMPDEST SWAP2 POP PUSH2 0x1E5B DUP4 PUSH2 0x17A4 JUMP JUMPDEST SWAP3 POP DUP3 DUP3 SUB SWAP1 POP DUP2 DUP2 GT ISZERO PUSH2 0x1E73 JUMPI PUSH2 0x1E72 PUSH2 0x1A62 JUMP JUMPDEST JUMPDEST SWAP3 SWAP2 POP POP JUMP JUMPDEST PUSH32 0x4E487B7100000000000000000000000000000000000000000000000000000000 PUSH0 MSTORE PUSH1 0x32 PUSH1 0x4 MSTORE PUSH1 0x24 PUSH0 REVERT JUMPDEST PUSH2 0x1EAF DUP2 PUSH2 0x181D JUMP JUMPDEST DUP3 MSTORE POP POP JUMP JUMPDEST PUSH0 PUSH1 0x40 DUP3 ADD SWAP1 POP PUSH2 0x1EC8 PUSH0 DUP4 ADD DUP6 PUSH2 0x1EA6 JUMP JUMPDEST PUSH2 0x1ED5 PUSH1 0x20 DUP4 ADD DUP5 PUSH2 0x17AD JUMP JUMPDEST SWAP4 SWAP3 POP POP POP JUMP JUMPDEST PUSH32 0x61756E206E6F2065787069726F00000000000000000000000000000000000000 PUSH0 DUP3 ADD MSTORE POP JUMP JUMPDEST PUSH0 PUSH2 0x1F10 PUSH1 0xD DUP4 PUSH2 0x19EA JUMP JUMPDEST SWAP2 POP PUSH2 0x1F1B DUP3 PUSH2 0x1EDC JUMP JUMPDEST PUSH1 0x20 DUP3 ADD SWAP1 POP SWAP2 SWAP1 POP JUMP JUMPDEST PUSH0 PUSH1 0x20 DUP3 ADD SWAP1 POP DUP2 DUP2 SUB PUSH0 DUP4 ADD MSTORE PUSH2 0x1F3D DUP2 PUSH2 0x1F04 JUMP JUMPDEST SWAP1 POP SWAP2 SWAP1 POP JUMP JUMPDEST PUSH0 PUSH2 0x1F4E DUP3 PUSH2 0x17A4 JUMP JUMPDEST SWAP2 POP PUSH2 0x1F59 DUP4 PUSH2 0x17A4 JUMP JUMPDEST SWAP3 POP DUP3 DUP3 ADD SWAP1 POP DUP1 DUP3 GT ISZERO PUSH2 0x1F71 JUMPI PUSH2 0x1F70 PUSH2 0x1A62 JUMP JUMPDEST JUMPDEST SWAP3 SWAP2 POP POP JUMP INVALID LOG2 PUSH5 0x6970667358 0x22 SLT KECCAK256 PUSH8 0xAEE98AE17348BD3 DUP15 DUP10 COINBASE CALLER CALLER DUP14 0xB8 SHR 0xB8 0x4D 0xCB CODESIZE SWAP14 0xAC 0xDE 0xB9 PUSH9 0xCB811423270A64736F PUSH13 0x634300081E0033000000000000 "
				},
				"gasEstimates": {
					"creation": {
						"codeDepositCost": "1621800",
						"executionCost": "infinite",
						"totalCost": "infinite"
					},
					"external": {
						"Offer()": "infinite",
						"claim()": "infinite",
						"endAuction()": "36870",
						"expiration()": "2448",
						"ownerClaim()": "infinite",
						"returnOffers()": "infinite",
						"showOffers()": "infinite",
						"showWinner()": "4999",
						"state()": "2620"
					},
					"internal": {
						"addUnique(address)": "75204",
						"returnClaimedEthers(address payable)": "infinite",
						"returnEther(address payable)": "infinite",
						"returnEtherWinner(address payable)": "infinite",
						"updateExpiration()": "infinite",
						"updateInfoArray(address,uint256)": "infinite",
						"updateInfoMApp(address,uint256,uint256)": "infinite",
						"updateWinner(address,uint256)": "46404"
					}
				},
				"methodIdentifiers": {
					"Offer()": "1f09dfa7",
					"claim()": "4e71d92d",
					"endAuction()": "fe67a54b",
					"expiration()": "4665096d",
					"ownerClaim()": "4dbe5889",
					"returnOffers()": "77c468c4",
					"showOffers()": "534823bf",
					"showWinner()": "b7e03264",
					"state()": "c19d93fb"
				}
			},
			"storageLayout": {
				"storage": [
					{
						"astId": 3,
						"contract": "Tp2_Auction.sol:Tp2_Auction",
						"label": "owner",
						"offset": 0,
						"slot": "0",
						"type": "t_address"
					},
					{
						"astId": 5,
						"contract": "Tp2_Auction.sol:Tp2_Auction",
						"label": "init_value",
						"offset": 0,
						"slot": "1",
						"type": "t_uint256"
					},
					{
						"astId": 7,
						"contract": "Tp2_Auction.sol:Tp2_Auction",
						"label": "init_time",
						"offset": 0,
						"slot": "2",
						"type": "t_uint256"
					},
					{
						"astId": 9,
						"contract": "Tp2_Auction.sol:Tp2_Auction",
						"label": "window",
						"offset": 0,
						"slot": "3",
						"type": "t_uint256"
					},
					{
						"astId": 11,
						"contract": "Tp2_Auction.sol:Tp2_Auction",
						"label": "expiration",
						"offset": 0,
						"slot": "4",
						"type": "t_uint256"
					},
					{
						"astId": 17,
						"contract": "Tp2_Auction.sol:Tp2_Auction",
						"label": "state",
						"offset": 0,
						"slot": "5",
						"type": "t_enum(State)14"
					},
					{
						"astId": 29,
						"contract": "Tp2_Auction.sol:Tp2_Auction",
						"label": "infoMapp",
						"offset": 0,
						"slot": "6",
						"type": "t_mapping(t_address,t_struct(Person)24_storage)"
					},
					{
						"astId": 38,
						"contract": "Tp2_Auction.sol:Tp2_Auction",
						"label": "infoArray",
						"offset": 0,
						"slot": "7",
						"type": "t_array(t_struct(Person2)34_storage)dyn_storage"
					},
					{
						"astId": 41,
						"contract": "Tp2_Auction.sol:Tp2_Auction",
						"label": "winner",
						"offset": 0,
						"slot": "8",
						"type": "t_struct(Person2)34_storage"
					},
					{
						"astId": 44,
						"contract": "Tp2_Auction.sol:Tp2_Auction",
						"label": "uniqueArray",
						"offset": 0,
						"slot": "10",
						"type": "t_array(t_address_payable)dyn_storage"
					},
					{
						"astId": 48,
						"contract": "Tp2_Auction.sol:Tp2_Auction",
						"label": "isBidder",
						"offset": 0,
						"slot": "11",
						"type": "t_mapping(t_address,t_bool)"
					}
				],
				"types": {
					"t_address": {
						"encoding": "inplace",
						"label": "address",
						"numberOfBytes": "20"
					},
					"t_address_payable": {
						"encoding": "inplace",
						"label": "address payable",
						"numberOfBytes": "20"
					},
					"t_array(t_address_payable)dyn_storage": {
						"base": "t_address_payable",
						"encoding": "dynamic_array",
						"label": "address payable[]",
						"numberOfBytes": "32"
					},
					"t_array(t_struct(Person2)34_storage)dyn_storage": {
						"base": "t_struct(Person2)34_storage",
						"encoding": "dynamic_array",
						"label": "struct Tp2_Auction.Person2[]",
						"numberOfBytes": "32"
					},
					"t_bool": {
						"encoding": "inplace",
						"label": "bool",
						"numberOfBytes": "1"
					},
					"t_enum(State)14": {
						"encoding": "inplace",
						"label": "enum Tp2_Auction.State",
						"numberOfBytes": "1"
					},
					"t_mapping(t_address,t_bool)": {
						"encoding": "mapping",
						"key": "t_address",
						"label": "mapping(address => bool)",
						"numberOfBytes": "32",
						"value": "t_bool"
					},
					"t_mapping(t_address,t_struct(Person)24_storage)": {
						"encoding": "mapping",
						"key": "t_address",
						"label": "mapping(address => struct Tp2_Auction.Person)",
						"numberOfBytes": "32",
						"value": "t_struct(Person)24_storage"
					},
					"t_struct(Person)24_storage": {
						"encoding": "inplace",
						"label": "struct Tp2_Auction.Person",
						"members": [
							{
								"astId": 19,
								"contract": "Tp2_Auction.sol:Tp2_Auction",
								"label": "id",
								"offset": 0,
								"slot": "0",
								"type": "t_address"
							},
							{
								"astId": 21,
								"contract": "Tp2_Auction.sol:Tp2_Auction",
								"label": "value",
								"offset": 0,
								"slot": "1",
								"type": "t_uint256"
							},
							{
								"astId": 23,
								"contract": "Tp2_Auction.sol:Tp2_Auction",
								"label": "balance",
								"offset": 0,
								"slot": "2",
								"type": "t_uint256"
							}
						],
						"numberOfBytes": "96"
					},
					"t_struct(Person2)34_storage": {
						"encoding": "inplace",
						"label": "struct Tp2_Auction.Person2",
						"members": [
							{
								"astId": 31,
								"contract": "Tp2_Auction.sol:Tp2_Auction",
								"label": "id",
								"offset": 0,
								"slot": "0",
								"type": "t_address"
							},
							{
								"astId": 33,
								"contract": "Tp2_Auction.sol:Tp2_Auction",
								"label": "value",
								"offset": 0,
								"slot": "1",
								"type": "t_uint256"
							}
						],
						"numberOfBytes": "64"
					},
					"t_uint256": {
						"encoding": "inplace",
						"label": "uint256",
						"numberOfBytes": "32"
					}
				}
			},
			"userdoc": {
				"kind": "user",
				"methods": {},
				"version": 1
			}
		}
	}
}